{
  "_format": "hh-sol-artifact-1",
  "contractName": "SafeMath",
  "sourceName": "contracts/math/SafeMath.sol",
  "abi": [
    {
      "inputs": [
        {
          "internalType": "bytes32",
          "name": "c__0x808453a0",
          "type": "bytes32"
        }
      ],
      "name": "c_0x808453a0",
      "outputs": [],
      "stateMutability": "pure",
      "type": "function"
    }
  ],
  "bytecode": "0x6080604052348015600f57600080fd5b5060918061001e6000396000f3fe6080604052348015600f57600080fd5b506004361060285760003560e01c80637d584de814602d575b600080fd5b605660048036036020811015604157600080fd5b81019080803590602001909291905050506058565b005b5056fea2646970667358221220bbe5567c772e39ea4b9e90ffb632081bb363789438ff0d1a457f6e121ba6069e64736f6c63430007060033",
  "linkReferences": {},
  "deployedLinkReferences": {}
}