{
  "_format": "hh-sol-artifact-1",
  "contractName": "OpynV2WhitelistMock",
  "sourceName": "contracts/test-utils/OpynV2WhitelistMock.sol",
  "abi": [
    {
      "inputs": [],
      "stateMutability": "nonpayable",
      "type": "constructor"
    },
    {
      "inputs": [
        {
          "internalType": "bytes32",
          "name": "c__0x5ec35bf2",
          "type": "bytes32"
        }
      ],
      "name": "c_0x5ec35bf2",
      "outputs": [],
      "stateMutability": "pure",
      "type": "function"
    },
    {
      "inputs": [
        {
          "internalType": "bytes32",
          "name": "c__0x7e61d650",
          "type": "bytes32"
        }
      ],
      "name": "c_0x7e61d650",
      "outputs": [],
      "stateMutability": "pure",
      "type": "function"
    },
    {
      "inputs": [
        {
          "internalType": "address",
          "name": "_otoken",
          "type": "address"
        }
      ],
      "name": "isWhitelistedOtoken",
      "outputs": [
        {
          "internalType": "bool",
          "name": "",
          "type": "bool"
        }
      ],
      "stateMutability": "view",
      "type": "function"
    },
    {
      "inputs": [],
      "name": "owner",
      "outputs": [
        {
          "internalType": "address",
          "name": "",
          "type": "address"
        }
      ],
      "stateMutability": "view",
      "type": "function"
    },
    {
      "inputs": [
        {
          "internalType": "address",
          "name": "_otoken",
          "type": "address"
        }
      ],
      "name": "toggleWhitelist",
      "outputs": [],
      "stateMutability": "nonpayable",
      "type": "function"
    },
    {
      "inputs": [
        {
          "internalType": "address",
          "name": "",
          "type": "address"
        }
      ],
      "name": "whitelist",
      "outputs": [
        {
          "internalType": "uint256",
          "name": "",
          "type": "uint256"
        }
      ],
      "stateMutability": "view",
      "type": "function"
    }
  ],
  "bytecode": "0x608060405234801561001057600080fd5b506100437f0d8942ee5d07cb0ecf8d72039fab0b2ec1e4068c622181facfe8bff720cf1d1d60001b6100ec60201b60201c565b6100757fa854425110fe3bd2f5f1bacf82bdee7b9c59b538bdd9f496cb8b29b80f6f7d0360001b6100ec60201b60201c565b6100a77fba86368995cba443110fcab69d8cd385febfcaf26b0afb17ff7d75f65ca4360260001b6100ec60201b60201c565b336000806101000a81548173ffffffffffffffffffffffffffffffffffffffff021916908373ffffffffffffffffffffffffffffffffffffffff1602179055506100ef565b50565b610613806100fe6000396000f3fe608060405234801561001057600080fd5b50600436106100625760003560e01c806311946b981461006757806339393ac9146100c15780638da5cb5b146101055780639b19251a14610139578063e27a38ef14610191578063fbfee775146101bf575b600080fd5b6100a96004803603602081101561007d57600080fd5b81019080803573ffffffffffffffffffffffffffffffffffffffff1690602001909291905050506101ed565b60405180821515815260200191505060405180910390f35b610103600480360360208110156100d757600080fd5b81019080803573ffffffffffffffffffffffffffffffffffffffff1690602001909291905050506102bc565b005b61010d61059b565b604051808273ffffffffffffffffffffffffffffffffffffffff16815260200191505060405180910390f35b61017b6004803603602081101561014f57600080fd5b81019080803573ffffffffffffffffffffffffffffffffffffffff1690602001909291905050506105bf565b6040518082815260200191505060405180910390f35b6101bd600480360360208110156101a757600080fd5b81019080803590602001909291905050506105d7565b005b6101eb600480360360208110156101d557600080fd5b81019080803590602001909291905050506105da565b005b600061021b7f01cab605186906c981bb276e2467188291502e8c3c0f18b1aeaf57b23df7670d60001b6105d7565b6102477f3b6ec98314e7cfcde14155e563fd5b2fa13c2cda8e9c8c06baa179a3f9ae5d7860001b6105d7565b6102737f186ad54abb5c9fda524c625bf9358faf168e84c75f74f2e527678309180a087f60001b6105d7565b60018060008473ffffffffffffffffffffffffffffffffffffffff1673ffffffffffffffffffffffffffffffffffffffff16815260200190815260200160002054149050919050565b6102e87f1748938175a3424714ecb7a9712fcfc142fb6ed2148fb55268cd8f753877685860001b6105d7565b6103147f5e13ba930f344d58b784aa817004bd07f3728ff7fe1f26be8e06b43f724089e160001b6105d7565b6103407f5793d086f824c22ad6df132efb970aec420ed119f1a0fa998f4b18af8ed93f0760001b6105d7565b61036c7fee9c7385432267111a94be478ea895b3db8bb8185b70736f1fc6728e5ac0f52f60001b6105d7565b60008054906101000a900473ffffffffffffffffffffffffffffffffffffffff1673ffffffffffffffffffffffffffffffffffffffff163373ffffffffffffffffffffffffffffffffffffffff161461042d576040517f08c379a00000000000000000000000000000000000000000000000000000000081526004018080602001828103825260098152602001807f6e6f74206f776e6572000000000000000000000000000000000000000000000081525060200191505060405180910390fd5b6104597f36b5a4ab804933c2705b42ccee5a052b26e134772c79c58eefa347dfdbc9cc6560001b6105d7565b6104857f9db069a584f9167491fe306e3643f19b5b750fa83e02868ea77f8cb7b91197b360001b6105d7565b6104b17f81c08246bb8f4cf30e7ed107074aa34b8b9a24d50d066da470d8d7406523393060001b6105d7565b6104dd7f8a8e2278833b9fc6413c03ff6b6bc253b5ff3e113080f1d30a210536b4aa890a60001b6105d7565b6105097fd126e321f5e5511a9c7609a8b4f8088c6e951ad05e355a1c9315508177bbc9bc60001b6105d7565b600260018060008473ffffffffffffffffffffffffffffffffffffffff1673ffffffffffffffffffffffffffffffffffffffff16815260200190815260200160002054018161055457fe5b06600160008373ffffffffffffffffffffffffffffffffffffffff1673ffffffffffffffffffffffffffffffffffffffff1681526020019081526020016000208190555050565b60008054906101000a900473ffffffffffffffffffffffffffffffffffffffff1681565b60016020528060005260406000206000915090505481565b50565b5056fea2646970667358221220c065c39902c024255f15e671d032bb279858c8aa20bb011e6bfcd03f28d60dde64736f6c63430007060033",
  "linkReferences": {},
  "deployedLinkReferences": {}
}