{
  "_format": "hh-sol-artifact-1",
  "contractName": "OpynV2WhitelistMock",
  "sourceName": "contracts/test-utils/OpynV2WhitelistMock.sol",
  "abi": [
    {
      "inputs": [],
      "stateMutability": "nonpayable",
      "type": "constructor"
    },
    {
      "inputs": [
        {
          "internalType": "address",
          "name": "_otoken",
          "type": "address"
        }
      ],
      "name": "isWhitelistedOtoken",
      "outputs": [
        {
          "internalType": "bool",
          "name": "",
          "type": "bool"
        }
      ],
      "stateMutability": "view",
      "type": "function"
    },
    {
      "inputs": [],
      "name": "owner",
      "outputs": [
        {
          "internalType": "address",
          "name": "",
          "type": "address"
        }
      ],
      "stateMutability": "view",
      "type": "function"
    },
    {
      "inputs": [
        {
          "internalType": "address",
          "name": "_otoken",
          "type": "address"
        }
      ],
      "name": "toggleWhitelist",
      "outputs": [],
      "stateMutability": "nonpayable",
      "type": "function"
    },
    {
      "inputs": [
        {
          "internalType": "address",
          "name": "",
          "type": "address"
        }
      ],
      "name": "whitelist",
      "outputs": [
        {
          "internalType": "uint256",
          "name": "",
          "type": "uint256"
        }
      ],
      "stateMutability": "view",
      "type": "function"
    }
  ],
  "bytecode": "0x608060405234801561001057600080fd5b50600080546001600160a01b031916331790556101f5806100326000396000f3fe608060405234801561001057600080fd5b506004361061004c5760003560e01c806311946b981461005157806339393ac91461008b5780638da5cb5b146100b35780639b19251a146100d7575b600080fd5b6100776004803603602081101561006757600080fd5b50356001600160a01b031661010f565b604080519115158252519081900360200190f35b6100b1600480360360208110156100a157600080fd5b50356001600160a01b031661012e565b005b6100bb61019e565b604080516001600160a01b039092168252519081900360200190f35b6100fd600480360360208110156100ed57600080fd5b50356001600160a01b03166101ad565b60408051918252519081900360200190f35b6001600160a01b03166000908152600160208190526040909120541490565b6000546001600160a01b03163314610179576040805162461bcd60e51b81526020600482015260096024820152683737ba1037bbb732b960b91b604482015290519081900360640190fd5b6001600160a01b03166000908152600160208190526040909120805482019091169055565b6000546001600160a01b031681565b6001602052600090815260409020548156fea264697066735822122092e42bc6e05e367bdaca23f1fbfbaeb26472246409c7276db29cb7757685fec664736f6c63430007060033",
  "linkReferences": {},
  "deployedLinkReferences": {}
}