{
  "contracts/tools/NoAuthSaviourGatekeeper.sol": {
    "NoAuthSaviourGateKeeper": {
      "abi": [
        {
          "inputs": [
            {
              "internalType": "address",
              "name": "liquidationEngine_",
              "type": "address"
            },
            {
              "internalType": "address",
              "name": "registry_",
              "type": "address"
            }
          ],
          "stateMutability": "nonpayable",
          "type": "constructor"
        },
        {
          "inputs": [
            {
              "internalType": "address",
              "name": "saviour",
              "type": "address"
            }
          ],
          "name": "connectSAFESaviour",
          "outputs": [],
          "stateMutability": "nonpayable",
          "type": "function"
        },
        {
          "inputs": [
            {
              "internalType": "address",
              "name": "saviour",
              "type": "address"
            }
          ],
          "name": "disconnectSAFESaviour",
          "outputs": [],
          "stateMutability": "nonpayable",
          "type": "function"
        },
        {
          "inputs": [],
          "name": "liquidationEngine",
          "outputs": [
            {
              "internalType": "contract LiquidationEngineLike",
              "name": "",
              "type": "address"
            }
          ],
          "stateMutability": "view",
          "type": "function"
        },
        {
          "inputs": [],
          "name": "registry",
          "outputs": [
            {
              "internalType": "contract SAFESaviourRegistryLike",
              "name": "",
              "type": "address"
            }
          ],
          "stateMutability": "view",
          "type": "function"
        },
        {
          "inputs": [
            {
              "internalType": "address",
              "name": "saviour",
              "type": "address"
            }
          ],
          "name": "toggleSaviour",
          "outputs": [],
          "stateMutability": "nonpayable",
          "type": "function"
        }
      ],
      "devdoc": {
        "kind": "dev",
        "methods": {},
        "version": 1
      },
      "evm": {
        "bytecode": {
          "linkReferences": {},
          "object": "608060405234801561001057600080fd5b506040516103a43803806103a48339818101604052604081101561003357600080fd5b5080516020909101516001600160a01b0382166100815760405162461bcd60e51b815260040180806020018281038252602f815260200180610375602f913960400191505060405180910390fd5b6001600160a01b0381166100c65760405162461bcd60e51b81526004018080602001828103825260258152602001806103506025913960400191505060405180910390fd5b600080546001600160a01b039384166001600160a01b0319918216179091556001805492909316911617905561024f806101016000396000f3fe608060405234801561001057600080fd5b50600436106100575760003560e01c806344bf3c721461005c5780634faeff1d146100805780637b103999146100a857806395ffa802146100b0578063960e2101146100d6575b600080fd5b6100646100fc565b604080516001600160a01b039092168252519081900360200190f35b6100a66004803603602081101561009657600080fd5b50356001600160a01b031661010b565b005b610064610171565b6100a6600480360360208110156100c657600080fd5b50356001600160a01b0316610180565b6100a6600480360360208110156100ec57600080fd5b50356001600160a01b03166101cb565b6000546001600160a01b031681565b6000805460408051634faeff1d60e01b81526001600160a01b03858116600483015291519190921692634faeff1d926024808201939182900301818387803b15801561015657600080fd5b505af115801561016a573d6000803e3d6000fd5b5050505050565b6001546001600160a01b031681565b6000805460408051634affd40160e11b81526001600160a01b038581166004830152915191909216926395ffa802926024808201939182900301818387803b15801561015657600080fd5b6001546040805163960e210160e01b81526001600160a01b0384811660048301529151919092169163960e210191602480830192600092919082900301818387803b15801561015657600080fdfea26469706673582212208caabf19732e71dbceabb82b53ac83bfcf75b65da95f3b753ad165f607f35dc364736f6c634300070600334e6f41757468536176696f7572476174654b65657065722f6e756c6c2d72656769737472794e6f41757468536176696f7572476174654b65657065722f6e756c6c2d6c69717569646174696f6e2d656e67696e65",
          "opcodes": "PUSH1 0x80 PUSH1 0x40 MSTORE CALLVALUE DUP1 ISZERO PUSH2 0x10 JUMPI PUSH1 0x0 DUP1 REVERT JUMPDEST POP PUSH1 0x40 MLOAD PUSH2 0x3A4 CODESIZE SUB DUP1 PUSH2 0x3A4 DUP4 CODECOPY DUP2 DUP2 ADD PUSH1 0x40 MSTORE PUSH1 0x40 DUP2 LT ISZERO PUSH2 0x33 JUMPI PUSH1 0x0 DUP1 REVERT JUMPDEST POP DUP1 MLOAD PUSH1 0x20 SWAP1 SWAP2 ADD MLOAD PUSH1 0x1 PUSH1 0x1 PUSH1 0xA0 SHL SUB DUP3 AND PUSH2 0x81 JUMPI PUSH1 0x40 MLOAD PUSH3 0x461BCD PUSH1 0xE5 SHL DUP2 MSTORE PUSH1 0x4 ADD DUP1 DUP1 PUSH1 0x20 ADD DUP3 DUP2 SUB DUP3 MSTORE PUSH1 0x2F DUP2 MSTORE PUSH1 0x20 ADD DUP1 PUSH2 0x375 PUSH1 0x2F SWAP2 CODECOPY PUSH1 0x40 ADD SWAP2 POP POP PUSH1 0x40 MLOAD DUP1 SWAP2 SUB SWAP1 REVERT JUMPDEST PUSH1 0x1 PUSH1 0x1 PUSH1 0xA0 SHL SUB DUP2 AND PUSH2 0xC6 JUMPI PUSH1 0x40 MLOAD PUSH3 0x461BCD PUSH1 0xE5 SHL DUP2 MSTORE PUSH1 0x4 ADD DUP1 DUP1 PUSH1 0x20 ADD DUP3 DUP2 SUB DUP3 MSTORE PUSH1 0x25 DUP2 MSTORE PUSH1 0x20 ADD DUP1 PUSH2 0x350 PUSH1 0x25 SWAP2 CODECOPY PUSH1 0x40 ADD SWAP2 POP POP PUSH1 0x40 MLOAD DUP1 SWAP2 SUB SWAP1 REVERT JUMPDEST PUSH1 0x0 DUP1 SLOAD PUSH1 0x1 PUSH1 0x1 PUSH1 0xA0 SHL SUB SWAP4 DUP5 AND PUSH1 0x1 PUSH1 0x1 PUSH1 0xA0 SHL SUB NOT SWAP2 DUP3 AND OR SWAP1 SWAP2 SSTORE PUSH1 0x1 DUP1 SLOAD SWAP3 SWAP1 SWAP4 AND SWAP2 AND OR SWAP1 SSTORE PUSH2 0x24F DUP1 PUSH2 0x101 PUSH1 0x0 CODECOPY PUSH1 0x0 RETURN INVALID PUSH1 0x80 PUSH1 0x40 MSTORE CALLVALUE DUP1 ISZERO PUSH2 0x10 JUMPI PUSH1 0x0 DUP1 REVERT JUMPDEST POP PUSH1 0x4 CALLDATASIZE LT PUSH2 0x57 JUMPI PUSH1 0x0 CALLDATALOAD PUSH1 0xE0 SHR DUP1 PUSH4 0x44BF3C72 EQ PUSH2 0x5C JUMPI DUP1 PUSH4 0x4FAEFF1D EQ PUSH2 0x80 JUMPI DUP1 PUSH4 0x7B103999 EQ PUSH2 0xA8 JUMPI DUP1 PUSH4 0x95FFA802 EQ PUSH2 0xB0 JUMPI DUP1 PUSH4 0x960E2101 EQ PUSH2 0xD6 JUMPI JUMPDEST PUSH1 0x0 DUP1 REVERT JUMPDEST PUSH2 0x64 PUSH2 0xFC JUMP JUMPDEST PUSH1 0x40 DUP1 MLOAD PUSH1 0x1 PUSH1 0x1 PUSH1 0xA0 SHL SUB SWAP1 SWAP3 AND DUP3 MSTORE MLOAD SWAP1 DUP2 SWAP1 SUB PUSH1 0x20 ADD SWAP1 RETURN JUMPDEST PUSH2 0xA6 PUSH1 0x4 DUP1 CALLDATASIZE SUB PUSH1 0x20 DUP2 LT ISZERO PUSH2 0x96 JUMPI PUSH1 0x0 DUP1 REVERT JUMPDEST POP CALLDATALOAD PUSH1 0x1 PUSH1 0x1 PUSH1 0xA0 SHL SUB AND PUSH2 0x10B JUMP JUMPDEST STOP JUMPDEST PUSH2 0x64 PUSH2 0x171 JUMP JUMPDEST PUSH2 0xA6 PUSH1 0x4 DUP1 CALLDATASIZE SUB PUSH1 0x20 DUP2 LT ISZERO PUSH2 0xC6 JUMPI PUSH1 0x0 DUP1 REVERT JUMPDEST POP CALLDATALOAD PUSH1 0x1 PUSH1 0x1 PUSH1 0xA0 SHL SUB AND PUSH2 0x180 JUMP JUMPDEST PUSH2 0xA6 PUSH1 0x4 DUP1 CALLDATASIZE SUB PUSH1 0x20 DUP2 LT ISZERO PUSH2 0xEC JUMPI PUSH1 0x0 DUP1 REVERT JUMPDEST POP CALLDATALOAD PUSH1 0x1 PUSH1 0x1 PUSH1 0xA0 SHL SUB AND PUSH2 0x1CB JUMP JUMPDEST PUSH1 0x0 SLOAD PUSH1 0x1 PUSH1 0x1 PUSH1 0xA0 SHL SUB AND DUP2 JUMP JUMPDEST PUSH1 0x0 DUP1 SLOAD PUSH1 0x40 DUP1 MLOAD PUSH4 0x4FAEFF1D PUSH1 0xE0 SHL DUP2 MSTORE PUSH1 0x1 PUSH1 0x1 PUSH1 0xA0 SHL SUB DUP6 DUP2 AND PUSH1 0x4 DUP4 ADD MSTORE SWAP2 MLOAD SWAP2 SWAP1 SWAP3 AND SWAP3 PUSH4 0x4FAEFF1D SWAP3 PUSH1 0x24 DUP1 DUP3 ADD SWAP4 SWAP2 DUP3 SWAP1 SUB ADD DUP2 DUP4 DUP8 DUP1 EXTCODESIZE ISZERO DUP1 ISZERO PUSH2 0x156 JUMPI PUSH1 0x0 DUP1 REVERT JUMPDEST POP GAS CALL ISZERO DUP1 ISZERO PUSH2 0x16A JUMPI RETURNDATASIZE PUSH1 0x0 DUP1 RETURNDATACOPY RETURNDATASIZE PUSH1 0x0 REVERT JUMPDEST POP POP POP POP POP JUMP JUMPDEST PUSH1 0x1 SLOAD PUSH1 0x1 PUSH1 0x1 PUSH1 0xA0 SHL SUB AND DUP2 JUMP JUMPDEST PUSH1 0x0 DUP1 SLOAD PUSH1 0x40 DUP1 MLOAD PUSH4 0x4AFFD401 PUSH1 0xE1 SHL DUP2 MSTORE PUSH1 0x1 PUSH1 0x1 PUSH1 0xA0 SHL SUB DUP6 DUP2 AND PUSH1 0x4 DUP4 ADD MSTORE SWAP2 MLOAD SWAP2 SWAP1 SWAP3 AND SWAP3 PUSH4 0x95FFA802 SWAP3 PUSH1 0x24 DUP1 DUP3 ADD SWAP4 SWAP2 DUP3 SWAP1 SUB ADD DUP2 DUP4 DUP8 DUP1 EXTCODESIZE ISZERO DUP1 ISZERO PUSH2 0x156 JUMPI PUSH1 0x0 DUP1 REVERT JUMPDEST PUSH1 0x1 SLOAD PUSH1 0x40 DUP1 MLOAD PUSH4 0x960E2101 PUSH1 0xE0 SHL DUP2 MSTORE PUSH1 0x1 PUSH1 0x1 PUSH1 0xA0 SHL SUB DUP5 DUP2 AND PUSH1 0x4 DUP4 ADD MSTORE SWAP2 MLOAD SWAP2 SWAP1 SWAP3 AND SWAP2 PUSH4 0x960E2101 SWAP2 PUSH1 0x24 DUP1 DUP4 ADD SWAP3 PUSH1 0x0 SWAP3 SWAP2 SWAP1 DUP3 SWAP1 SUB ADD DUP2 DUP4 DUP8 DUP1 EXTCODESIZE ISZERO DUP1 ISZERO PUSH2 0x156 JUMPI PUSH1 0x0 DUP1 REVERT INVALID LOG2 PUSH5 0x6970667358 0x22 SLT KECCAK256 DUP13 0xAA 0xBF NOT PUSH20 0x2E71DBCEABB82B53AC83BFCF75B65DA95F3B753A 0xD1 PUSH6 0xF607F35DC364 PUSH20 0x6F6C634300070600334E6F41757468536176696F PUSH22 0x72476174654B65657065722F6E756C6C2D7265676973 PUSH21 0x72794E6F41757468536176696F7572476174654B65 PUSH6 0x7065722F6E75 PUSH13 0x6C2D6C69717569646174696F6E 0x2D PUSH6 0x6E67696E6500 "
        },
        "methodIdentifiers": {
          "connectSAFESaviour(address)": "95ffa802",
          "disconnectSAFESaviour(address)": "4faeff1d",
          "liquidationEngine()": "44bf3c72",
          "registry()": "7b103999",
          "toggleSaviour(address)": "960e2101"
        }
      },
      "userdoc": {
        "kind": "user",
        "methods": {},
        "version": 1
      }
    }
  }
}