{
  "_format": "hh-sol-artifact-1",
  "contractName": "NoAuthSaviourGateKeeper",
  "sourceName": "contracts/tools/NoAuthSaviourGatekeeper.sol",
  "abi": [
    {
      "inputs": [
        {
          "internalType": "address",
          "name": "liquidationEngine_",
          "type": "address"
        },
        {
          "internalType": "address",
          "name": "registry_",
          "type": "address"
        }
      ],
      "stateMutability": "nonpayable",
      "type": "constructor"
    },
    {
      "inputs": [
        {
          "internalType": "bytes32",
          "name": "c__0x2d665c75",
          "type": "bytes32"
        }
      ],
      "name": "c_0x2d665c75",
      "outputs": [],
      "stateMutability": "pure",
      "type": "function"
    },
    {
      "inputs": [
        {
          "internalType": "address",
          "name": "saviour",
          "type": "address"
        }
      ],
      "name": "connectSAFESaviour",
      "outputs": [],
      "stateMutability": "nonpayable",
      "type": "function"
    },
    {
      "inputs": [
        {
          "internalType": "address",
          "name": "saviour",
          "type": "address"
        }
      ],
      "name": "disconnectSAFESaviour",
      "outputs": [],
      "stateMutability": "nonpayable",
      "type": "function"
    },
    {
      "inputs": [],
      "name": "liquidationEngine",
      "outputs": [
        {
          "internalType": "contract LiquidationEngineLike",
          "name": "",
          "type": "address"
        }
      ],
      "stateMutability": "view",
      "type": "function"
    },
    {
      "inputs": [],
      "name": "registry",
      "outputs": [
        {
          "internalType": "contract SAFESaviourRegistryLike",
          "name": "",
          "type": "address"
        }
      ],
      "stateMutability": "view",
      "type": "function"
    },
    {
      "inputs": [
        {
          "internalType": "address",
          "name": "saviour",
          "type": "address"
        }
      ],
      "name": "toggleSaviour",
      "outputs": [],
      "stateMutability": "nonpayable",
      "type": "function"
    }
  ],
  "bytecode": "0x608060405234801561001057600080fd5b50604051610a97380380610a978339818101604052604081101561003357600080fd5b8101908080519060200190929190805190602001909291905050506100807f5b3996eb36759b474a1e1d0609371b430d5e1582542a9c12f6adc76ac97eb9ab60001b61046b60201b60201c565b6100b27f3abcd51d64a18067d02d0f7f2e2458481da476324cb8022cecd1e432b21a07b060001b61046b60201b60201c565b6100e47f26ee2c557b7f06cc532c2161dc618fe6f9dff72f8508b5da5d6a398bcbf62f4f60001b61046b60201b60201c565b6101167fe250033201f6c13e12b60db38618802f02fc7d7ec06e5e032443344aba0d07e960001b61046b60201b60201c565b600073ffffffffffffffffffffffffffffffffffffffff168273ffffffffffffffffffffffffffffffffffffffff16141561019c576040517f08c379a000000000000000000000000000000000000000000000000000000000815260040180806020018281038252602f815260200180610a68602f913960400191505060405180910390fd5b6101ce7fc79b081d2dad9347c224552fa89953dc921c1827b350ea6517a5f62e5bb3bd7660001b61046b60201b60201c565b6102007fab17d0a383ddbd68781c5815ea4c713057d29bc09f30a7766498f9157868adf760001b61046b60201b60201c565b6102327f2c8821b733f39340c941899a776db2a980cd90c430f8bf4b5337adb9ccb9be7b60001b61046b60201b60201c565b6102647f7efc2af4b1fbd64b41c789df2cc2bcb8cd4ac4342b4cb8638c52d433f62e4ed160001b61046b60201b60201c565b600073ffffffffffffffffffffffffffffffffffffffff168173ffffffffffffffffffffffffffffffffffffffff1614156102ea576040517f08c379a0000000000000000000000000000000000000000000000000000000008152600401808060200182810382526025815260200180610a436025913960400191505060405180910390fd5b61031c7fcc18a6e95e1f52660fca40abf954c360216899c282722c5833431281f081db6e60001b61046b60201b60201c565b61034e7f2f50cbc3d060daca65b5b48ca0c1c9df42a81f2e3a4452d6b5bc43874d2e44cd60001b61046b60201b60201c565b61037f7e6937108985f5956658d1975edf76832e951e8be0847d8f0f99b48ac4d3862760001b61046b60201b60201c565b816000806101000a81548173ffffffffffffffffffffffffffffffffffffffff021916908373ffffffffffffffffffffffffffffffffffffffff1602179055506103f17f5dc34ed32aa1025c5e6b1a13e4cc3c2889cee8fd96e9401512b338949648677f60001b61046b60201b60201c565b6104237f02a7007cb57b12988a6e61e06292774008041755d7c55c610413bb696fe617c160001b61046b60201b60201c565b80600160006101000a81548173ffffffffffffffffffffffffffffffffffffffff021916908373ffffffffffffffffffffffffffffffffffffffff160217905550505061046e565b50565b6105c68061047d6000396000f3fe608060405234801561001057600080fd5b50600436106100625760003560e01c806344bf3c72146100675780634faeff1d1461009b5780637b103999146100df57806395ffa80214610113578063960e210114610157578063ed6c2f081461019b575b600080fd5b61006f6101c9565b604051808273ffffffffffffffffffffffffffffffffffffffff16815260200191505060405180910390f35b6100dd600480360360208110156100b157600080fd5b81019080803573ffffffffffffffffffffffffffffffffffffffff1690602001909291905050506101ed565b005b6100e7610315565b604051808273ffffffffffffffffffffffffffffffffffffffff16815260200191505060405180910390f35b6101556004803603602081101561012957600080fd5b81019080803573ffffffffffffffffffffffffffffffffffffffff16906020019092919050505061033b565b005b6101996004803603602081101561016d57600080fd5b81019080803573ffffffffffffffffffffffffffffffffffffffff169060200190929190505050610463565b005b6101c7600480360360208110156101b157600080fd5b810190808035906020019092919050505061058d565b005b60008054906101000a900473ffffffffffffffffffffffffffffffffffffffff1681565b6102197f3c3840968968478751084e70ca8d4e992c1b4c2e30315704082b2cb14fc48f0060001b61058d565b6102457f3cfea48dd58cd161c98ee54548fa59d57c80c4c123de1ed770c39cbfa8f78cb760001b61058d565b6102717f1115575e4d2d6010dc6708062dd226cf066ea92bab6fc6eb4de067e41f20b29160001b61058d565b60008054906101000a900473ffffffffffffffffffffffffffffffffffffffff1673ffffffffffffffffffffffffffffffffffffffff16634faeff1d826040518263ffffffff1660e01b8152600401808273ffffffffffffffffffffffffffffffffffffffff168152602001915050600060405180830381600087803b1580156102fa57600080fd5b505af115801561030e573d6000803e3d6000fd5b5050505050565b600160009054906101000a900473ffffffffffffffffffffffffffffffffffffffff1681565b6103677f2cf81d15dca7e4a58e00d346473054419f5e40488a8eee76c3f2dd51c50e6c0660001b61058d565b6103937f587a40854d555f3c827ee4e062c175af2aec3ea1c0207eea6d332bd54106c39f60001b61058d565b6103bf7f252b1544fdc05bccc0e2219fc0d51175e2c23748d26da0609541dd4402a0491760001b61058d565b60008054906101000a900473ffffffffffffffffffffffffffffffffffffffff1673ffffffffffffffffffffffffffffffffffffffff166395ffa802826040518263ffffffff1660e01b8152600401808273ffffffffffffffffffffffffffffffffffffffff168152602001915050600060405180830381600087803b15801561044857600080fd5b505af115801561045c573d6000803e3d6000fd5b5050505050565b61048f7f09df1eb6ed653b65414a461b04536aa645177101e7573dc719f7c41a096a287f60001b61058d565b6104bb7f6707141b8955b6a78cefa7d11de3f29cb4070b71968889e8296a59fe3c0caa0060001b61058d565b6104e77f55028fcc404e8c3ed7bde5672458f6477574aa03cea864537101e3d3d8286c8660001b61058d565b600160009054906101000a900473ffffffffffffffffffffffffffffffffffffffff1673ffffffffffffffffffffffffffffffffffffffff1663960e2101826040518263ffffffff1660e01b8152600401808273ffffffffffffffffffffffffffffffffffffffff168152602001915050600060405180830381600087803b15801561057257600080fd5b505af1158015610586573d6000803e3d6000fd5b5050505050565b5056fea2646970667358221220a262b1cdc1a970b02d6dfa165f2329040ba867ae2b5fdb5afa0bd8813dc6b00264736f6c634300070600334e6f41757468536176696f7572476174654b65657065722f6e756c6c2d72656769737472794e6f41757468536176696f7572476174654b65657065722f6e756c6c2d6c69717569646174696f6e2d656e67696e65",
  "linkReferences": {},
  "deployedLinkReferences": {}
}