{
  "_format": "hh-sol-artifact-1",
  "contractName": "NoAuthSaviourGateKeeper",
  "sourceName": "contracts/tools/NoAuthSaviourGatekeeper.sol",
  "abi": [
    {
      "inputs": [
        {
          "internalType": "address",
          "name": "liquidationEngine_",
          "type": "address"
        },
        {
          "internalType": "address",
          "name": "registry_",
          "type": "address"
        }
      ],
      "stateMutability": "nonpayable",
      "type": "constructor"
    },
    {
      "inputs": [
        {
          "internalType": "address",
          "name": "saviour",
          "type": "address"
        }
      ],
      "name": "connectSAFESaviour",
      "outputs": [],
      "stateMutability": "nonpayable",
      "type": "function"
    },
    {
      "inputs": [
        {
          "internalType": "address",
          "name": "saviour",
          "type": "address"
        }
      ],
      "name": "disconnectSAFESaviour",
      "outputs": [],
      "stateMutability": "nonpayable",
      "type": "function"
    },
    {
      "inputs": [],
      "name": "liquidationEngine",
      "outputs": [
        {
          "internalType": "contract LiquidationEngineLike",
          "name": "",
          "type": "address"
        }
      ],
      "stateMutability": "view",
      "type": "function"
    },
    {
      "inputs": [],
      "name": "registry",
      "outputs": [
        {
          "internalType": "contract SAFESaviourRegistryLike",
          "name": "",
          "type": "address"
        }
      ],
      "stateMutability": "view",
      "type": "function"
    },
    {
      "inputs": [
        {
          "internalType": "address",
          "name": "saviour",
          "type": "address"
        }
      ],
      "name": "toggleSaviour",
      "outputs": [],
      "stateMutability": "nonpayable",
      "type": "function"
    }
  ],
  "bytecode": "0x608060405234801561001057600080fd5b506040516103a43803806103a48339818101604052604081101561003357600080fd5b5080516020909101516001600160a01b0382166100815760405162461bcd60e51b815260040180806020018281038252602f815260200180610375602f913960400191505060405180910390fd5b6001600160a01b0381166100c65760405162461bcd60e51b81526004018080602001828103825260258152602001806103506025913960400191505060405180910390fd5b600080546001600160a01b039384166001600160a01b0319918216179091556001805492909316911617905561024f806101016000396000f3fe608060405234801561001057600080fd5b50600436106100575760003560e01c806344bf3c721461005c5780634faeff1d146100805780637b103999146100a857806395ffa802146100b0578063960e2101146100d6575b600080fd5b6100646100fc565b604080516001600160a01b039092168252519081900360200190f35b6100a66004803603602081101561009657600080fd5b50356001600160a01b031661010b565b005b610064610171565b6100a6600480360360208110156100c657600080fd5b50356001600160a01b0316610180565b6100a6600480360360208110156100ec57600080fd5b50356001600160a01b03166101cb565b6000546001600160a01b031681565b6000805460408051634faeff1d60e01b81526001600160a01b03858116600483015291519190921692634faeff1d926024808201939182900301818387803b15801561015657600080fd5b505af115801561016a573d6000803e3d6000fd5b5050505050565b6001546001600160a01b031681565b6000805460408051634affd40160e11b81526001600160a01b038581166004830152915191909216926395ffa802926024808201939182900301818387803b15801561015657600080fd5b6001546040805163960e210160e01b81526001600160a01b0384811660048301529151919092169163960e210191602480830192600092919082900301818387803b15801561015657600080fdfea26469706673582212208caabf19732e71dbceabb82b53ac83bfcf75b65da95f3b753ad165f607f35dc364736f6c634300070600334e6f41757468536176696f7572476174654b65657065722f6e756c6c2d72656769737472794e6f41757468536176696f7572476174654b65657065722f6e756c6c2d6c69717569646174696f6e2d656e67696e65",
  "linkReferences": {},
  "deployedLinkReferences": {}
}