{
  "_format": "hh-sol-artifact-1",
  "contractName": "OpynSafeSaviour",
  "sourceName": "contracts/saviours/OpynSafeSaviour.sol",
  "abi": [
    {
      "inputs": [
        {
          "internalType": "address",
          "name": "_collateralJoin",
          "type": "address"
        },
        {
          "internalType": "address",
          "name": "_liquidationEngine",
          "type": "address"
        },
        {
          "internalType": "address",
          "name": "_oracleRelayer",
          "type": "address"
        },
        {
          "internalType": "address",
          "name": "_safeManager",
          "type": "address"
        },
        {
          "internalType": "address",
          "name": "_saviourRegistry",
          "type": "address"
        },
        {
          "internalType": "address",
          "name": "_opynSafeSaviourOperator",
          "type": "address"
        },
        {
          "internalType": "uint256",
          "name": "_keeperPayout",
          "type": "uint256"
        },
        {
          "internalType": "uint256",
          "name": "_minKeeperPayoutValue",
          "type": "uint256"
        },
        {
          "internalType": "uint256",
          "name": "_payoutToSAFESize",
          "type": "uint256"
        },
        {
          "internalType": "uint256",
          "name": "_defaultDesiredCollateralizationRatio",
          "type": "uint256"
        }
      ],
      "stateMutability": "nonpayable",
      "type": "constructor"
    },
    {
      "anonymous": false,
      "inputs": [
        {
          "indexed": true,
          "internalType": "address",
          "name": "caller",
          "type": "address"
        },
        {
          "indexed": true,
          "internalType": "address",
          "name": "safeHandler",
          "type": "address"
        },
        {
          "indexed": false,
          "internalType": "uint256",
          "name": "amount",
          "type": "uint256"
        }
      ],
      "name": "Deposit",
      "type": "event"
    },
    {
      "anonymous": false,
      "inputs": [
        {
          "indexed": true,
          "internalType": "address",
          "name": "keeper",
          "type": "address"
        },
        {
          "indexed": true,
          "internalType": "bytes32",
          "name": "collateralType",
          "type": "bytes32"
        },
        {
          "indexed": true,
          "internalType": "address",
          "name": "safeHandler",
          "type": "address"
        },
        {
          "indexed": false,
          "internalType": "uint256",
          "name": "collateralAddedOrDebtRepaid",
          "type": "uint256"
        }
      ],
      "name": "SaveSAFE",
      "type": "event"
    },
    {
      "anonymous": false,
      "inputs": [
        {
          "indexed": true,
          "internalType": "address",
          "name": "caller",
          "type": "address"
        },
        {
          "indexed": true,
          "internalType": "uint256",
          "name": "safeID",
          "type": "uint256"
        },
        {
          "indexed": true,
          "internalType": "address",
          "name": "safeHandler",
          "type": "address"
        },
        {
          "indexed": false,
          "internalType": "uint256",
          "name": "cRatio",
          "type": "uint256"
        }
      ],
      "name": "SetDesiredCollateralizationRatio",
      "type": "event"
    },
    {
      "anonymous": false,
      "inputs": [
        {
          "indexed": true,
          "internalType": "address",
          "name": "caller",
          "type": "address"
        },
        {
          "indexed": true,
          "internalType": "uint256",
          "name": "safeID",
          "type": "uint256"
        },
        {
          "indexed": true,
          "internalType": "address",
          "name": "safeHandler",
          "type": "address"
        },
        {
          "indexed": false,
          "internalType": "uint256",
          "name": "amount",
          "type": "uint256"
        }
      ],
      "name": "Withdraw",
      "type": "event"
    },
    {
      "inputs": [],
      "name": "CRATIO_SCALE_DOWN",
      "outputs": [
        {
          "internalType": "uint256",
          "name": "",
          "type": "uint256"
        }
      ],
      "stateMutability": "view",
      "type": "function"
    },
    {
      "inputs": [],
      "name": "HUNDRED",
      "outputs": [
        {
          "internalType": "uint256",
          "name": "",
          "type": "uint256"
        }
      ],
      "stateMutability": "view",
      "type": "function"
    },
    {
      "inputs": [],
      "name": "MAX_CRATIO",
      "outputs": [
        {
          "internalType": "uint256",
          "name": "",
          "type": "uint256"
        }
      ],
      "stateMutability": "view",
      "type": "function"
    },
    {
      "inputs": [],
      "name": "MAX_UINT",
      "outputs": [
        {
          "internalType": "uint256",
          "name": "",
          "type": "uint256"
        }
      ],
      "stateMutability": "view",
      "type": "function"
    },
    {
      "inputs": [],
      "name": "ONE",
      "outputs": [
        {
          "internalType": "uint256",
          "name": "",
          "type": "uint256"
        }
      ],
      "stateMutability": "view",
      "type": "function"
    },
    {
      "inputs": [],
      "name": "RAY",
      "outputs": [
        {
          "internalType": "uint256",
          "name": "",
          "type": "uint256"
        }
      ],
      "stateMutability": "view",
      "type": "function"
    },
    {
      "inputs": [],
      "name": "THOUSAND",
      "outputs": [
        {
          "internalType": "uint256",
          "name": "",
          "type": "uint256"
        }
      ],
      "stateMutability": "view",
      "type": "function"
    },
    {
      "inputs": [],
      "name": "WAD",
      "outputs": [
        {
          "internalType": "uint256",
          "name": "",
          "type": "uint256"
        }
      ],
      "stateMutability": "view",
      "type": "function"
    },
    {
      "inputs": [],
      "name": "WAD_COMPLEMENT",
      "outputs": [
        {
          "internalType": "uint256",
          "name": "",
          "type": "uint256"
        }
      ],
      "stateMutability": "view",
      "type": "function"
    },
    {
      "inputs": [
        {
          "internalType": "bytes32",
          "name": "c__0x2076af66",
          "type": "bytes32"
        }
      ],
      "name": "c_0x2076af66",
      "outputs": [],
      "stateMutability": "pure",
      "type": "function"
    },
    {
      "inputs": [
        {
          "internalType": "bytes32",
          "name": "c__0x5ff8a84a",
          "type": "bytes32"
        }
      ],
      "name": "c_0x5ff8a84a",
      "outputs": [],
      "stateMutability": "pure",
      "type": "function"
    },
    {
      "inputs": [
        {
          "internalType": "bytes32",
          "name": "c__0x808453a0",
          "type": "bytes32"
        }
      ],
      "name": "c_0x808453a0",
      "outputs": [],
      "stateMutability": "pure",
      "type": "function"
    },
    {
      "inputs": [
        {
          "internalType": "bytes32",
          "name": "c__0xf5c5c95d",
          "type": "bytes32"
        }
      ],
      "name": "c_0xf5c5c95d",
      "outputs": [],
      "stateMutability": "pure",
      "type": "function"
    },
    {
      "inputs": [
        {
          "internalType": "address",
          "name": "_safeHandler",
          "type": "address"
        }
      ],
      "name": "canSave",
      "outputs": [
        {
          "internalType": "bool",
          "name": "",
          "type": "bool"
        }
      ],
      "stateMutability": "nonpayable",
      "type": "function"
    },
    {
      "inputs": [],
      "name": "collateralJoin",
      "outputs": [
        {
          "internalType": "contract CollateralJoinLike",
          "name": "",
          "type": "address"
        }
      ],
      "stateMutability": "view",
      "type": "function"
    },
    {
      "inputs": [],
      "name": "collateralToken",
      "outputs": [
        {
          "internalType": "contract ERC20Like",
          "name": "",
          "type": "address"
        }
      ],
      "stateMutability": "view",
      "type": "function"
    },
    {
      "inputs": [],
      "name": "defaultDesiredCollateralizationRatio",
      "outputs": [
        {
          "internalType": "uint256",
          "name": "",
          "type": "uint256"
        }
      ],
      "stateMutability": "view",
      "type": "function"
    },
    {
      "inputs": [
        {
          "internalType": "uint256",
          "name": "_safeID",
          "type": "uint256"
        },
        {
          "internalType": "uint256",
          "name": "_oTokenAmount",
          "type": "uint256"
        },
        {
          "internalType": "address",
          "name": "_oTokenType",
          "type": "address"
        }
      ],
      "name": "deposit",
      "outputs": [],
      "stateMutability": "nonpayable",
      "type": "function"
    },
    {
      "inputs": [
        {
          "internalType": "bytes32",
          "name": "",
          "type": "bytes32"
        },
        {
          "internalType": "address",
          "name": "",
          "type": "address"
        }
      ],
      "name": "desiredCollateralizationRatios",
      "outputs": [
        {
          "internalType": "uint256",
          "name": "",
          "type": "uint256"
        }
      ],
      "stateMutability": "view",
      "type": "function"
    },
    {
      "inputs": [],
      "name": "getKeeperPayoutValue",
      "outputs": [
        {
          "internalType": "uint256",
          "name": "",
          "type": "uint256"
        }
      ],
      "stateMutability": "view",
      "type": "function"
    },
    {
      "inputs": [],
      "name": "keeperPayout",
      "outputs": [
        {
          "internalType": "uint256",
          "name": "",
          "type": "uint256"
        }
      ],
      "stateMutability": "view",
      "type": "function"
    },
    {
      "inputs": [],
      "name": "keeperPayoutExceedsMinValue",
      "outputs": [
        {
          "internalType": "bool",
          "name": "",
          "type": "bool"
        }
      ],
      "stateMutability": "view",
      "type": "function"
    },
    {
      "inputs": [],
      "name": "liquidationEngine",
      "outputs": [
        {
          "internalType": "contract LiquidationEngineLike",
          "name": "",
          "type": "address"
        }
      ],
      "stateMutability": "view",
      "type": "function"
    },
    {
      "inputs": [],
      "name": "minKeeperPayoutValue",
      "outputs": [
        {
          "internalType": "uint256",
          "name": "",
          "type": "uint256"
        }
      ],
      "stateMutability": "view",
      "type": "function"
    },
    {
      "inputs": [
        {
          "internalType": "address",
          "name": "",
          "type": "address"
        }
      ],
      "name": "oTokenCover",
      "outputs": [
        {
          "internalType": "uint256",
          "name": "",
          "type": "uint256"
        }
      ],
      "stateMutability": "view",
      "type": "function"
    },
    {
      "inputs": [
        {
          "internalType": "address",
          "name": "",
          "type": "address"
        }
      ],
      "name": "oTokenSelection",
      "outputs": [
        {
          "internalType": "address",
          "name": "",
          "type": "address"
        }
      ],
      "stateMutability": "view",
      "type": "function"
    },
    {
      "inputs": [],
      "name": "opynSafeSaviourOperator",
      "outputs": [
        {
          "internalType": "contract OpynSafeSaviourOperator",
          "name": "",
          "type": "address"
        }
      ],
      "stateMutability": "view",
      "type": "function"
    },
    {
      "inputs": [],
      "name": "oracleRelayer",
      "outputs": [
        {
          "internalType": "contract OracleRelayerLike",
          "name": "",
          "type": "address"
        }
      ],
      "stateMutability": "view",
      "type": "function"
    },
    {
      "inputs": [],
      "name": "payoutToSAFESize",
      "outputs": [
        {
          "internalType": "uint256",
          "name": "",
          "type": "uint256"
        }
      ],
      "stateMutability": "view",
      "type": "function"
    },
    {
      "inputs": [],
      "name": "safeEngine",
      "outputs": [
        {
          "internalType": "contract SAFEEngineLike",
          "name": "",
          "type": "address"
        }
      ],
      "stateMutability": "view",
      "type": "function"
    },
    {
      "inputs": [],
      "name": "safeManager",
      "outputs": [
        {
          "internalType": "contract GebSafeManagerLike",
          "name": "",
          "type": "address"
        }
      ],
      "stateMutability": "view",
      "type": "function"
    },
    {
      "inputs": [
        {
          "internalType": "address",
          "name": "_keeper",
          "type": "address"
        },
        {
          "internalType": "bytes32",
          "name": "_collateralType",
          "type": "bytes32"
        },
        {
          "internalType": "address",
          "name": "_safeHandler",
          "type": "address"
        }
      ],
      "name": "saveSAFE",
      "outputs": [
        {
          "internalType": "bool",
          "name": "",
          "type": "bool"
        },
        {
          "internalType": "uint256",
          "name": "",
          "type": "uint256"
        },
        {
          "internalType": "uint256",
          "name": "",
          "type": "uint256"
        }
      ],
      "stateMutability": "nonpayable",
      "type": "function"
    },
    {
      "inputs": [],
      "name": "saviourRegistry",
      "outputs": [
        {
          "internalType": "contract SAFESaviourRegistryLike",
          "name": "",
          "type": "address"
        }
      ],
      "stateMutability": "view",
      "type": "function"
    },
    {
      "inputs": [
        {
          "internalType": "uint256",
          "name": "_safeID",
          "type": "uint256"
        },
        {
          "internalType": "uint256",
          "name": "_cRatio",
          "type": "uint256"
        }
      ],
      "name": "setDesiredCollateralizationRatio",
      "outputs": [],
      "stateMutability": "nonpayable",
      "type": "function"
    },
    {
      "inputs": [
        {
          "internalType": "address",
          "name": "_safeHandler",
          "type": "address"
        }
      ],
      "name": "tokenAmountUsedToSave",
      "outputs": [
        {
          "internalType": "uint256",
          "name": "tokenAmountUsed",
          "type": "uint256"
        }
      ],
      "stateMutability": "nonpayable",
      "type": "function"
    },
    {
      "inputs": [
        {
          "internalType": "uint256",
          "name": "_safeID",
          "type": "uint256"
        },
        {
          "internalType": "uint256",
          "name": "_oTokenAmount",
          "type": "uint256"
        }
      ],
      "name": "withdraw",
      "outputs": [],
      "stateMutability": "nonpayable",
      "type": "function"
    }
  ],
  "bytecode": "0x60806040523480156200001157600080fd5b506040516200a9963803806200a99683398181016040526101408110156200003857600080fd5b8101908080519060200190929190805190602001909291908051906020019092919080519060200190929190805190602001909291908051906020019092919080519060200190929190805190602001909291908051906020019092919080519060200190929190505050620000d77fabf1edfa332d838dc0da44b8c09cf61cb4e05ef8672a5739be45769c410522ab60001b6200202a60201b60201c565b6200010b7f1057956b919cbe64edf69f8856d861bc66fd9504c15550553cc68e39bbfc76be60001b6200202a60201b60201c565b6200013f7f10c8d15d756fc8c826d08303217abbc7afa0f8becebc51e9d402646248de7b8560001b6200202a60201b60201c565b60016000819055506200017b7f928baeada9e0643a3ac1262bc8e2b379fafa3e1b0f0a83256eae9bb3866dd6fb60001b6200202d60201b60201c565b620001af7f25e255613e19513c115feb4396278a3a0b96b09b45f657631eff89c01672796a60001b6200202d60201b60201c565b620001e37faa0efc9f1d36f8b3a46a4638fd35d60a99f0ec625127da684e821fce2a709d3f60001b6200202d60201b60201c565b620002177fb04a62849a53997ab027c5894a3d807a848cf5fca7ca64f21a3fbe762f85826c60001b6200202d60201b60201c565b600073ffffffffffffffffffffffffffffffffffffffff168a73ffffffffffffffffffffffffffffffffffffffff1614156200029f576040517f08c379a00000000000000000000000000000000000000000000000000000000081526004018080602001828103825260248152602001806200a8a66024913960400191505060405180910390fd5b620002d37f1caff5da4f390385435b0bab002147f9be9b296c8ebce8c0c04e529e07a3eb9d60001b6200202d60201b60201c565b620003077f644f41a34953c17f10bf83fa70c70a3f01a5caf44e96446133e5630414e4543b60001b6200202d60201b60201c565b6200033b7fe1ae08e8fbfbf829ceb9576676fbb38845e5c4a92a5fccc25a4ec34e0a8e445760001b6200202d60201b60201c565b6200036f7f1f489c91d37ebe014ad6933bf5880d667fe86c9bcfe335a130b40f97f93d264e60001b6200202d60201b60201c565b600073ffffffffffffffffffffffffffffffffffffffff168973ffffffffffffffffffffffffffffffffffffffff161415620003f7576040517f08c379a00000000000000000000000000000000000000000000000000000000081526004018080602001828103825260278152602001806200a96f6027913960400191505060405180910390fd5b6200042b7f3c68ce6ad4a54144d701f3eee1aeda80bc119619d2badef65202e00c3d04a93660001b6200202d60201b60201c565b6200045f7fc223c4663beeda987c510f7518395a866f86e1f1c14e4a3b19c8e12d0460f7cc60001b6200202d60201b60201c565b620004937f67bbf3795b91e11e89dc72ca05ebc77f6f6e5bc9ad2b56ad57629734c99d33b460001b6200202d60201b60201c565b620004c77fa34024892f30ab1f46886536bb17dfda3facbf18a17cb6bfca7855a3c32eee8f60001b6200202d60201b60201c565b600073ffffffffffffffffffffffffffffffffffffffff168873ffffffffffffffffffffffffffffffffffffffff1614156200054f576040517f08c379a00000000000000000000000000000000000000000000000000000000081526004018080602001828103825260238152602001806200a8ca6023913960400191505060405180910390fd5b620005837f77daced7f19845a10e8f0aa7352027b580a601c3443ca8bf10b2bbda3d941f2260001b6200202d60201b60201c565b620005b77f0f7bcff3ed7d238f1fbc281f06341e0051b269dc59f414f63a3dfccf4e252d5c60001b6200202d60201b60201c565b620005eb7ff4b6732375afeb3844a7313ea718195663ad5d4ed9d74f5183c05a5af6d351ba60001b6200202d60201b60201c565b6200061f7f82396ac46819059fa896e243ede1c2944eaecf984385296e126f6f5860902c5a60001b6200202d60201b60201c565b600073ffffffffffffffffffffffffffffffffffffffff168773ffffffffffffffffffffffffffffffffffffffff161415620006a7576040517f08c379a00000000000000000000000000000000000000000000000000000000081526004018080602001828103825260218152602001806200a7ea6021913960400191505060405180910390fd5b620006db7f115682d4f333ac921463d482793e75252cef0ea5ec567449d955c3f9a912945960001b6200202d60201b60201c565b6200070f7f41b6a430ed64fa9e2b2e193bc1415cf9343bb26d68358d803bc13f1a3324be3160001b6200202d60201b60201c565b620007437f137bafca97209f7419f65f9fdf6f3007ab7b49e4c55cb3e3f31626f9a2c9399260001b6200202d60201b60201c565b620007777f3ac4608fcedc2242d89d47baa9d513fcc2ae2cc6fdc9edc1c2564627e81ed35060001b6200202d60201b60201c565b600073ffffffffffffffffffffffffffffffffffffffff168673ffffffffffffffffffffffffffffffffffffffff161415620007ff576040517f08c379a00000000000000000000000000000000000000000000000000000000081526004018080602001828103825260258152602001806200a8816025913960400191505060405180910390fd5b620008337f14029c0c1ced97576ee75dc4441df5f2e39af94f6b0c137fe24c39019e67636460001b6200202d60201b60201c565b620008677f1ffa39150e27d638f99b37203de069d65aa8c3ea2167b659ebfad6a4765f36f760001b6200202d60201b60201c565b6200089b7fd262c3ae99da29be362c2e5ff88581d9373d9a45ff02429a0abbcc069dd3454a60001b6200202d60201b60201c565b620008cf7f197e31e4c1c3620c23deaa1d9e9cd20e583a21cc634682843b92e3a80edc75a560001b6200202d60201b60201c565b600073ffffffffffffffffffffffffffffffffffffffff168573ffffffffffffffffffffffffffffffffffffffff16141562000957576040517f08c379a000000000000000000000000000000000000000000000000000000000815260040180806020018281038252602f8152602001806200a940602f913960400191505060405180910390fd5b6200098b7f8d42cc2f222f19aa228fda6b60f205f12349565deb95cfbd304e29a08b451dc460001b6200202d60201b60201c565b620009bf7f4b9f4e265d2a6f9813b44b56342ceb799df0697f3f0caf56f7cd006b43e78dd160001b6200202d60201b60201c565b620009f37fca7d9429e2b1de03d49782718afa4f2ebb73679c1773a335c229cf6b84a92ac760001b6200202d60201b60201c565b62000a277f51db36a8f3cb1d9d19004d9b6c6bddded676a584f4578b1f763beba819f6c83660001b6200202d60201b60201c565b6000841162000a82576040517f08c379a00000000000000000000000000000000000000000000000000000000081526004018080602001828103825260258152602001806200a7c56025913960400191505060405180910390fd5b62000ab67f04aa91d614dbbfabdb45cc7494b5b77b0a5bb7e1f336916a94fc3ab1c5218ea160001b6200202d60201b60201c565b62000aea7fd248975c86689393b44ea3e9a042c38e6738f9e8427a6d5b8ccc03c0c73c348e60001b6200202d60201b60201c565b62000b1e7fbd415b4407daa7c7f0fc4a432027db0909ff45419b6cd6e908f6e83d7d187a5160001b6200202d60201b60201c565b62000b527f0af36a669b2fad56ac463897f81ee30884c3b56c2fd517b091d4bf999f38141560001b6200202d60201b60201c565b6000811162000bad576040517f08c379a00000000000000000000000000000000000000000000000000000000081526004018080602001828103825260238152602001806200a80b6023913960400191505060405180910390fd5b62000be17f3fe5ea11e94f26a33f885818d60289ce2c83fb66654a5ed2da4f8144f92e2f7160001b6200202d60201b60201c565b62000c157f1d5fe28df04d2611fe0c05e547367a97545cd6394ffcd4247d1222175c79d82860001b6200202d60201b60201c565b62000c497f9702912dfde0c4dc55bf5da25c7c3c3074b5d0ed98da19fc816d4835972431cc60001b6200202d60201b60201c565b62000c7d7fa07b7aaad0d5f81c16589557ecfeb96c62d34cd12a90a4921f1ab5bac2aae14360001b6200202d60201b60201c565b6001821162000cd8576040517f08c379a000000000000000000000000000000000000000000000000000000000815260040180806020018281038252602b8152602001806200a82e602b913960400191505060405180910390fd5b62000d0c7fe5c16176199fd0ec509c35a7986a426834105b7cd20109d78a09ad7ca8c08dbd60001b6200202d60201b60201c565b62000d407fa4b19e4f335bdc74a9d11bd7359c5b528a862dec53fc957ad5d51e1b61f706e060001b6200202d60201b60201c565b62000d747fe38bd6725ec4548ef955d30538555f07cf5d793567c6f2f182f506046e3c3eeb60001b6200202d60201b60201c565b62000da87f6a7d416593c14c50bdf745af14bb022c46231d8aed43d58484d99ba41442985a60001b6200202d60201b60201c565b6000831162000e03576040517f08c379a00000000000000000000000000000000000000000000000000000000081526004018080602001828103825260288152602001806200a8596028913960400191505060405180910390fd5b62000e377fe77da1ec16c58fde621b1caa23b48c12d8ecc72b97789ea10b12da62b35c18aa60001b6200202d60201b60201c565b62000e6b7f0b38f4d367d5dce532222aceca5b78b4554ddde3d1762ecc6c311a5408ec1aca60001b6200202d60201b60201c565b62000e9f7ff0e96e4b196ff10a7f59c816c0e1103bd82cd134f7d4c72d883bdbc68daa5b8e60001b6200202d60201b60201c565b8360068190555062000eda7f7257d231310661c0ba87a8d6d6026e02cb069dccc98cc0feceb81f05e24aaf8060001b6200202d60201b60201c565b62000f0e7ffdd86d4a7dcc856ff0948e6ca5e6ad192eec9c03f76e5d381db6963887cc0f4360001b6200202d60201b60201c565b8160088190555062000f497fe4fcb135b304b709939cd3b44d8a1569a26d7d083ca11046bcb991262854da6060001b6200202d60201b60201c565b62000f7d7f792284fb7d5678be44c5e0f625697dfe0d5258c99c37edf1565be255508aacff60001b6200202d60201b60201c565b8260078190555062000fb87ff267843481d9a01600ef92db876bc5805d21d3838fb92447c85b3543975b78c560001b6200202d60201b60201c565b62000fec7f71b6ed11c5db298a45a054be7dd31e4933504a1373a068c5d4f0e417baac0b6b60001b6200202d60201b60201c565b88600160006101000a81548173ffffffffffffffffffffffffffffffffffffffff021916908373ffffffffffffffffffffffffffffffffffffffff160217905550620010617f546c349382a29e9434fc5edd020c807633228f7947b584d2addc8e8a697ae2e260001b6200202d60201b60201c565b620010957f08893bad30c2d6ab2705657d8cb1dd6ea17eec8992c044fab5a05ba79f1fcaa660001b6200202d60201b60201c565b89600d60006101000a81548173ffffffffffffffffffffffffffffffffffffffff021916908373ffffffffffffffffffffffffffffffffffffffff1602179055506200110a7fbdaa1a56362c9ff895de6fa9bdc544b980704261388bf9b77eaf24866bf27a3c60001b6200202d60201b60201c565b6200113e7f382bb408dd1cb34549e88e093677effed86460b895f123c2ae226255d5c6dc6e60001b6200202d60201b60201c565b87600260006101000a81548173ffffffffffffffffffffffffffffffffffffffff021916908373ffffffffffffffffffffffffffffffffffffffff160217905550620011b37f597a7a71dd43121e2cd400ae6b07afe918a5069fc3574bc4676b57cdba0254ea60001b6200202d60201b60201c565b620011e77f5dc0bc6fdf9a223a65cb5d964df0694ab21f8389d38316c8b28f1574569a3d7660001b6200202d60201b60201c565b600d60009054906101000a900473ffffffffffffffffffffffffffffffffffffffff1673ffffffffffffffffffffffffffffffffffffffff166367aea3136040518163ffffffff1660e01b815260040160206040518083038186803b1580156200125057600080fd5b505afa15801562001265573d6000803e3d6000fd5b505050506040513d60208110156200127c57600080fd5b8101908080519060200190929190505050600460006101000a81548173ffffffffffffffffffffffffffffffffffffffff021916908373ffffffffffffffffffffffffffffffffffffffff160217905550620013017fec9827fa22a2fadc5b054dbf7d2210e026fdac3429804775c43ca4f34e4f67b960001b6200202d60201b60201c565b620013357faa64d45b8d7bd5d1165ed6dd1ab9a14fb04cddf4b67400a9f369bad2f0ba8e1460001b6200202d60201b60201c565b86600360006101000a81548173ffffffffffffffffffffffffffffffffffffffff021916908373ffffffffffffffffffffffffffffffffffffffff160217905550620013aa7f99a97d854e07058dca66eda3822189856d1a9a8b29895b1923539094d971252f60001b6200202d60201b60201c565b620013de7fa9f8b05bdc8dddc48592ba930138ae6ac75c941f61f0e2013756ed920c9a39d760001b6200202d60201b60201c565b85600560006101000a81548173ffffffffffffffffffffffffffffffffffffffff021916908373ffffffffffffffffffffffffffffffffffffffff160217905550620014537f208be47e5379988e5c481569c0764ab0e17eb6a2381f7578e4d21edb146ea9e960001b6200202d60201b60201c565b620014877f020897f8ac21de0c8be9c1587a81306b6ab0948df48a8236bd4f1188829dfb8060001b6200202d60201b60201c565b600d60009054906101000a900473ffffffffffffffffffffffffffffffffffffffff1673ffffffffffffffffffffffffffffffffffffffff1663d8dfeb456040518163ffffffff1660e01b815260040160206040518083038186803b158015620014f057600080fd5b505afa15801562001505573d6000803e3d6000fd5b505050506040513d60208110156200151c57600080fd5b8101908080519060200190929190505050600e60006101000a81548173ffffffffffffffffffffffffffffffffffffffff021916908373ffffffffffffffffffffffffffffffffffffffff160217905550620015a17f22c0c13523df2e34412db734d58d39c21c58817e2f1beecffc6d9f9a8ffe851060001b6200202d60201b60201c565b620015d57f3ae04439cfe8b21ae7313ea2cebd213833ff2f356f0c7b37c0be8e6e2905e50b60001b6200202d60201b60201c565b84600f60006101000a81548173ffffffffffffffffffffffffffffffffffffffff021916908373ffffffffffffffffffffffffffffffffffffffff1602179055506200164a7fb75ade535c35e1675772f0e67ec752af060844b2fa519e6d476235adca3c23f860001b6200202d60201b60201c565b6200167e7f684d79ea239f55c6035927e35127d9c4c7a0de256887165f575bebd9120efd3c60001b6200202d60201b60201c565b620016b27f48adca2127497cdc984c06f64e3a218bcf1f119d87206e6de23662b2731de77c60001b6200202d60201b60201c565b600073ffffffffffffffffffffffffffffffffffffffff16600460009054906101000a900473ffffffffffffffffffffffffffffffffffffffff1673ffffffffffffffffffffffffffffffffffffffff16141562001778576040517f08c379a00000000000000000000000000000000000000000000000000000000081526004018080602001828103825260208152602001807f4f70796e53616665536176696f75722f6e756c6c2d736166652d656e67696e6581525060200191505060405180910390fd5b620017ac7ff73acf487cbd9fa210b8ce127f98377de1ef677151d1c3399f2a0201ce35b53a60001b6200202d60201b60201c565b620017e07f7112dddc6d1da0cd7b649ece4e4ce1a8ace24d7c3c73d9a0e2748a70910bfb3760001b6200202d60201b60201c565b620018147f1800c2fd30c4886f1b67157882a1e6dea7ccd0c69aa6c584d5cbc857ad814df360001b6200202d60201b60201c565b60006a084595161401484a000000600260009054906101000a900473ffffffffffffffffffffffffffffffffffffffff1673ffffffffffffffffffffffffffffffffffffffff166375502d3c600d60009054906101000a900473ffffffffffffffffffffffffffffffffffffffff1673ffffffffffffffffffffffffffffffffffffffff1663e824600f6040518163ffffffff1660e01b815260040160206040518083038186803b158015620018c957600080fd5b505afa158015620018de573d6000803e3d6000fd5b505050506040513d6020811015620018f557600080fd5b81019080805190602001909291905050506040518263ffffffff1660e01b81526004018082815260200191505060206040518083038186803b1580156200193b57600080fd5b505afa15801562001950573d6000803e3d6000fd5b505050506040513d60208110156200196757600080fd5b8101908080519060200190929190505050816200198057fe5b049050620019b77f057a6a82888597622e83291420faa9a0e5b74d80173998c4c0ca2a40f92a937860001b6200202d60201b60201c565b620019eb7f184a8028a036ef0e631c64dc32e59903b7ac2c15804ec121177a44212be1057a60001b6200202d60201b60201c565b62001a1f7f8ae098ac35b9feef74df132289fc96631e7fb4c861d11320284431e9c4edbaaf60001b6200202d60201b60201c565b6000811162001a7a576040517f08c379a00000000000000000000000000000000000000000000000000000000081526004018080602001828103825260288152602001806200a79d6028913960400191505060405180910390fd5b62001aae7f159573b537995447025395e0821fcb68eff99feb59ab689d38140bc78d9d8edd60001b6200202d60201b60201c565b62001ae27fa47e0b26997cb0361cf700f8058047d7c02da84acdb7ad3b88be8096e80869e460001b6200202d60201b60201c565b62001b167f10b30597c000d0d909aa2435104a997043a99a7a5f2486f3f5c7d9363385932d60001b6200202d60201b60201c565b62001b4a7f5984a7533d3bdf191348816e178214c9c24e3f02c097a79a71b77371c5b6a6e960001b6200202d60201b60201c565b62001b638183116103e88411156200203060201b60201c565b62001bba576040517f08c379a000000000000000000000000000000000000000000000000000000000815260040180806020018281038252602e8152602001806200a8ed602e913960400191505060405180910390fd5b62001bee7f1dd4a51b9cb46983b1dd115b78af63b6d15fef14839ea6c1e8e6a7ca1af937ca60001b6200202d60201b60201c565b62001c227f60534ac73edfb93b9187ca6c9cb2615c217f6f8dabe9f8db4d1ea46ef9e8dd8360001b6200202d60201b60201c565b62001c567fc730032087244a05e4c76664dbf4ae36339db671d7983f254eb91a9e1df163d960001b6200202d60201b60201c565b62001c8a7fd5eeec008765b9d4c0288bdc0516f36781acdfda1fe2229458ea3c7738d1f0f460001b6200202d60201b60201c565b6012600d60009054906101000a900473ffffffffffffffffffffffffffffffffffffffff1673ffffffffffffffffffffffffffffffffffffffff1663313ce5676040518163ffffffff1660e01b815260040160206040518083038186803b15801562001cf557600080fd5b505afa15801562001d0a573d6000803e3d6000fd5b505050506040513d602081101562001d2157600080fd5b81019080805190602001909291905050501462001d8a576040517f08c379a00000000000000000000000000000000000000000000000000000000081526004018080602001828103825260258152602001806200a91b6025913960400191505060405180910390fd5b62001dbe7f9178eaa6aa95e8d26df9cef1c14abb22f1446dd82b608ddfa11ae33705f8646c60001b6200202d60201b60201c565b62001df27f3264f92247033cd630ed7c77b245b7fb7248af217eb7412b5d05eb401bcd710660001b6200202d60201b60201c565b62001e267f061a9832aa0bc85709906372020da0a8c6055f27176a7fb7641dd14f6c3d774060001b6200202d60201b60201c565b62001e5a7f3b5573c2f8c14a7de3c2943692f3cf94d3082999379b66656118029fb10eb1e960001b6200202d60201b60201c565b6001600d60009054906101000a900473ffffffffffffffffffffffffffffffffffffffff1673ffffffffffffffffffffffffffffffffffffffff166341b3a0d96040518163ffffffff1660e01b815260040160206040518083038186803b15801562001ec557600080fd5b505afa15801562001eda573d6000803e3d6000fd5b505050506040513d602081101562001ef157600080fd5b81019080805190602001909291905050501462001f76576040517f08c379a000000000000000000000000000000000000000000000000000000000815260040180806020018281038252601d8152602001807f4f70796e53616665536176696f75722f6a6f696e2d64697361626c656400000081525060200191505060405180910390fd5b62001faa7f6b997408790e0787b0d5077acd6e10753d27edff16c0ff422405839714863e5360001b6200202d60201b60201c565b62001fde7fdbf940aefa4da15a1a731b9ac56a1abfb2bd801ff83a2292dbc35306ce346c4660001b6200202d60201b60201c565b620020127f9b11facccba2a66c3c56e8819a4223423d6f454cf44ab622370fba40d0a71d0560001b6200202d60201b60201c565b816009819055505050505050505050505050620020a8565b50565b50565b6000620020667fa56d3db80057814049f398161c58119079c17d6cdaf9303dae9dac066ae1009160001b620020a560201b60201c565b6200209a7f69cae494add104c66023068da2c7a57c098f6cf9db32afe562b0033528e1e4ab60001b620020a560201b60201c565b818316905092915050565b50565b6186e580620020b86000396000f3fe608060405234801561001057600080fd5b506004361061021c5760003560e01c80638dbdbe6d11610125578063c2ee3a08116100ad578063e5b5019a1161007c578063e5b5019a146108b5578063ee236f20146108d3578063f364e180146108f1578063f85fc0ab14610925578063fd4087ce146109435761021c565b8063c2ee3a08146107d7578063d14d60d6146107f5578063d951e15a1461084d578063e2c0f58d146108815761021c565b8063b4a5393f116100f4578063b4a5393f1461062f578063b5a868941461065d578063b9b0bb39146106bf578063bb287baf14610751578063c29ed33c146107a95761021c565b80638dbdbe6d146105675780638f7e43e8146105bf578063aca542d9146105dd578063b2016bd4146105fb5761021c565b806357c90441116101a857806374db59621161017757806374db59621461046b5780637d584de8146104a357806383d35fc5146104d1578063851cad901461052b57806386426af4146105495761021c565b806357c90441146103c75780635bfd62a6146103fb57806367aea313146104195780636a1460241461044d5761021c565b806344bf3c72116101ef57806344bf3c72146103055780634b4d6687146103395780634faf61ab14610357578063552033c41461038b57806356b7661e146103a95761021c565b8063097ab423146102215780632f4bab6d1461028f5780634094a2fa146102ad578063441a3e70146102cd575b600080fd5b6102636004803603602081101561023757600080fd5b81019080803573ffffffffffffffffffffffffffffffffffffffff169060200190929190505050610971565b604051808273ffffffffffffffffffffffffffffffffffffffff16815260200191505060405180910390f35b6102976109a4565b6040518082815260200191505060405180910390f35b6102b56109aa565b60405180821515815260200191505060405180910390f35b610303600480360360408110156102e357600080fd5b810190808035906020019092919080359060200190929190505050610eac565b005b61030d611ea3565b604051808273ffffffffffffffffffffffffffffffffffffffff16815260200191505060405180910390f35b610341611ec9565b6040518082815260200191505060405180910390f35b61035f611ecf565b604051808273ffffffffffffffffffffffffffffffffffffffff16815260200191505060405180910390f35b610393611ef5565b6040518082815260200191505060405180910390f35b6103b1611f05565b6040518082815260200191505060405180910390f35b6103cf611f0b565b604051808273ffffffffffffffffffffffffffffffffffffffff16815260200191505060405180910390f35b610403611f31565b6040518082815260200191505060405180910390f35b610421611f37565b604051808273ffffffffffffffffffffffffffffffffffffffff16815260200191505060405180910390f35b610455611f5d565b6040518082815260200191505060405180910390f35b6104a16004803603604081101561048157600080fd5b810190808035906020019092919080359060200190929190505050611f69565b005b6104cf600480360360208110156104b957600080fd5b8101908080359060200190929190505050612cdd565b005b610513600480360360208110156104e757600080fd5b81019080803573ffffffffffffffffffffffffffffffffffffffff169060200190929190505050612ce0565b60405180821515815260200191505060405180910390f35b6105336131e0565b6040518082815260200191505060405180910390f35b6105516131e6565b6040518082815260200191505060405180910390f35b6105bd6004803603606081101561057d57600080fd5b810190808035906020019092919080359060200190929190803573ffffffffffffffffffffffffffffffffffffffff1690602001909291905050506131ee565b005b6105c76146ed565b6040518082815260200191505060405180910390f35b6105e56146f3565b6040518082815260200191505060405180910390f35b610603614702565b604051808273ffffffffffffffffffffffffffffffffffffffff16815260200191505060405180910390f35b61065b6004803603602081101561064557600080fd5b8101908080359060200190929190505050614728565b005b6106a96004803603604081101561067357600080fd5b8101908080359060200190929190803573ffffffffffffffffffffffffffffffffffffffff16906020019092919050505061472b565b6040518082815260200191505060405180910390f35b61072b600480360360608110156106d557600080fd5b81019080803573ffffffffffffffffffffffffffffffffffffffff16906020019092919080359060200190929190803573ffffffffffffffffffffffffffffffffffffffff169060200190929190505050614750565b604051808415158152602001838152602001828152602001935050505060405180910390f35b6107936004803603602081101561076757600080fd5b81019080803573ffffffffffffffffffffffffffffffffffffffff169060200190929190505050616863565b6040518082815260200191505060405180910390f35b6107d5600480360360208110156107bf57600080fd5b810190808035906020019092919050505061687b565b005b6107df61687e565b6040518082815260200191505060405180910390f35b6108376004803603602081101561080b57600080fd5b81019080803573ffffffffffffffffffffffffffffffffffffffff169060200190929190505050616883565b6040518082815260200191505060405180910390f35b6108556174f3565b604051808273ffffffffffffffffffffffffffffffffffffffff16815260200191505060405180910390f35b610889617519565b604051808273ffffffffffffffffffffffffffffffffffffffff16815260200191505060405180910390f35b6108bd61753f565b6040518082815260200191505060405180910390f35b6108db617563565b6040518082815260200191505060405180910390f35b6108f9617a61565b604051808273ffffffffffffffffffffffffffffffffffffffff16815260200191505060405180910390f35b61092d617a87565b6040518082815260200191505060405180910390f35b61096f6004803603602081101561095957600080fd5b8101908080359060200190929190505050617a8c565b005b600c6020528060005260406000206000915054906101000a900473ffffffffffffffffffffffffffffffffffffffff1681565b60095481565b60006109d87f3e2596f105f2c76c667e8f73ede26b16b369d9468ea62ab03f835e8334a7281860001b61687b565b610a047f1a4c45e3701a46fddada461b3a5f2e05f11f2f2ef230595c33ca1b5c98751e3660001b61687b565b610a307f066674c223aa6ba5ec647346af26d54c79c7e545bb5cfc2971b9d8fe4f808dc460001b61687b565b6000600260009054906101000a900473ffffffffffffffffffffffffffffffffffffffff1673ffffffffffffffffffffffffffffffffffffffff1663d07900bb600d60009054906101000a900473ffffffffffffffffffffffffffffffffffffffff1673ffffffffffffffffffffffffffffffffffffffff1663e824600f6040518163ffffffff1660e01b815260040160206040518083038186803b158015610ad857600080fd5b505afa158015610aec573d6000803e3d6000fd5b505050506040513d6020811015610b0257600080fd5b81019080805190602001909291905050506040518263ffffffff1660e01b81526004018082815260200191505060606040518083038186803b158015610b4757600080fd5b505afa158015610b5b573d6000803e3d6000fd5b505050506040513d6060811015610b7157600080fd5b8101908080519060200190929190805190602001909291908051906020019092919050505050509050610bc67fc7188c38dc3396a77cd7a05482e0279b6ec5998816c74f9c0909132cd5e94dda60001b61687b565b610bf27fd7259d3a547065fd74f531264e9735fcc5b7e0467c7e96fce0df752421d44e5760001b61687b565b6000808273ffffffffffffffffffffffffffffffffffffffff166320531bc96040518163ffffffff1660e01b815260040160206040518083038186803b158015610c3b57600080fd5b505afa158015610c4f573d6000803e3d6000fd5b505050506040513d6020811015610c6557600080fd5b810190808051906020019092919050505073ffffffffffffffffffffffffffffffffffffffff16634fd0ada86040518163ffffffff1660e01b8152600401604080518083038186803b158015610cba57600080fd5b505afa158015610cce573d6000803e3d6000fd5b505050506040513d6040811015610ce457600080fd5b81019080805190602001909291908051906020019092919050505091509150610d2e7e4f3886758fbbcac1d1c9a44e666ace64d5296816438b2fe0387e45de14176c60001b61687b565b610d5a7fe3434f8bea290536a045bacea46be8dcc82e31dce0ba6c7eefa0f761977e631160001b61687b565b610d68811560008414617a8f565b15610dfd57610d997f8c2ad1a8f39991c7c89ff3a670a060a475adefc17891931f3a98cfb568d3bbec60001b61687b565b610dc57fbc18242cebcbc5175ecccf22d511b8b1e83acd5c904a302496d832d797505db760001b61687b565b610df17faa09ceb78785ec812f074cda48e7de76d95d5b208c0145d0880306f26e2e933660001b61687b565b60009350505050610ea9565b610e297feac53fd218aa81dbe9d259fbbf42528e1688606445e13ce8b11a568bb8588f4a60001b61687b565b610e557f217445a1956a39d830cd4e7af185894ff153f1841749d3114d401c2208a4155860001b61687b565b610e817f6bf7531a41ab5fbf01b34b70779632668a52eef290d72dfed83af27ba9d5578c60001b61687b565b670de0b6b3a7640000610e9660065484617af4565b81610e9d57fe5b04600754111593505050505b90565b3382610eda7f01affbd02ed1a56e2ea2912e79221376c9d74e963fcf52fb9f98f649e94c82c660001b61687b565b610f067fa049a820f448470b1ff177632d0bd632af0e83a57b0091ca5d0191230083211860001b61687b565b610f327f942ee75aaf620d73af1bec95bc51995a5e5bac9c7dc6b48c32a50196b146099460001b61687b565b610f5e7f893848dc87c12175c5fc715973d323c063ecd0dca94b18d1e17aa35216d7d3ab60001b61687b565b600073ffffffffffffffffffffffffffffffffffffffff168273ffffffffffffffffffffffffffffffffffffffff161415611001576040517f08c379a00000000000000000000000000000000000000000000000000000000081526004018080602001828103825260168152602001807f53616665536176696f75722f6e756c6c2d6f776e65720000000000000000000081525060200191505060405180910390fd5b61102d7fdfb9228a138c83356ff4a2b0f12ccdf4cd2674c0bd25b713d75b7e16768aa22860001b61687b565b6110597fb3cc3d48f7e763126878b1a2bd968746132a4bbb78fd55f64b9b05d6a61b678660001b61687b565b6110857f2690e8f253ee3f7eddbc47287f62131c5b5f454a2ead5b22abfb3e8d87a0d70560001b61687b565b6110b17ffe405faa2ca8d68f980bf04a88bce404d31951a46ad9ddc5eaf64f4bbcca844060001b61687b565b61132f600360009054906101000a900473ffffffffffffffffffffffffffffffffffffffff1673ffffffffffffffffffffffffffffffffffffffff1663a2a4d76e836040518263ffffffff1660e01b81526004018082815260200191505060206040518083038186803b15801561112757600080fd5b505afa15801561113b573d6000803e3d6000fd5b505050506040513d602081101561115157600080fd5b810190808051906020019092919050505073ffffffffffffffffffffffffffffffffffffffff168373ffffffffffffffffffffffffffffffffffffffff16146001600360009054906101000a900473ffffffffffffffffffffffffffffffffffffffff1673ffffffffffffffffffffffffffffffffffffffff16634fa053b1600360009054906101000a900473ffffffffffffffffffffffffffffffffffffffff1673ffffffffffffffffffffffffffffffffffffffff1663a2a4d76e876040518263ffffffff1660e01b81526004018082815260200191505060206040518083038186803b15801561124357600080fd5b505afa158015611257573d6000803e3d6000fd5b505050506040513d602081101561126d57600080fd5b810190808051906020019092919050505086886040518463ffffffff1660e01b8152600401808473ffffffffffffffffffffffffffffffffffffffff1681526020018381526020018273ffffffffffffffffffffffffffffffffffffffff168152602001935050505060206040518083038186803b1580156112ee57600080fd5b505afa158015611302573d6000803e3d6000fd5b505050506040513d602081101561131857600080fd5b810190808051906020019092919050505014617a8f565b6113a1576040517f08c379a000000000000000000000000000000000000000000000000000000000815260040180806020018281038252601b8152602001807f53616665536176696f75722f6e6f742d6f776e696e672d73616665000000000081525060200191505060405180910390fd5b6113cd7f3b449f9a64aa442e3f1e1b9653ba10fad2eb4fc278b45f9c58232d6639920a5460001b61687b565b6113f97fae4f9b329c02a0ec0eb441b25bbd197d8ce556b3328f68ad5961b6bcf1e4de5460001b61687b565b6114257f977f86a54b2aacab74274f0cbeaac9376e566102ec59573d15a9e8f48e0fdb6460001b614728565b6114517fe89de4fc345efb4a1eb4724b1d0cb458bf2822806f5bd87611888c7cfbe17cc860001b614728565b61147d7fee539e5e1275c8069dac8e3e72157c74079cca7c9fcd4a3e828119ea4440e9f560001b614728565b6114a97f554a90102809b8288b39b241309c5390fd422e0a270e73fdae9618c33cc235c760001b614728565b60026000541415611522576040517f08c379a000000000000000000000000000000000000000000000000000000000815260040180806020018281038252601f8152602001807f5265656e7472616e637947756172643a207265656e7472616e742063616c6c0081525060200191505060405180910390fd5b61154e7fb92990fb9042db10a0203eab7de1b58cb4743c0e7a4b1feda79dbdfcc6ac997760001b614728565b61157a7fd619b11966772c1f46245dd8bae80afad98786bfc5432870dbdce24e8155efcc60001b614728565b6115a67fd37a57c9ba73ba3133e6ce975b4fb0f8d2f267700caa83fbe31fa7f46ee576fd60001b614728565b60026000819055506115da7f5b89bb6eba40e60751d4f0c8f7fe9be2f3d883792cacd88b4e229ff894d75ecf60001b614728565b6116067ffc4ea27a78ea3b7dbffda6759d152ad591d4a1dc188b0db927b072fa3e21b00560001b61687b565b6116327f2aea85f679a0ab99cfeb147e394402c5d385633078c40c375d08e959c16bf23560001b61687b565b61165e7feddcdf1bbf51a167b3e3d88111957beea29cd98170fcefbd68f73f38d836970d60001b61687b565b61168a7f51704ff5f3254dc95b08e28007f67d51c352dd9f1dc99fab57ae175603463b1a60001b61687b565b600083116116e3576040517f08c379a000000000000000000000000000000000000000000000000000000000815260040180806020018281038252602b815260200180618512602b913960400191505060405180910390fd5b61170f7fcf4da4e00af1d0aed26029aec8eb0565ea9daa0ed0cfac677f2fabe675d8078160001b61687b565b61173b7fb1c20e333d3aef25e6247a7ee734ac67617cec048095549b330afea73530f30060001b61687b565b6117677f8247e75db4e5ea340f1c2e4a15b775fe2a899390b9d968396a0b21cb984661b860001b61687b565b6000600360009054906101000a900473ffffffffffffffffffffffffffffffffffffffff1673ffffffffffffffffffffffffffffffffffffffff1663434efcbd866040518263ffffffff1660e01b81526004018082815260200191505060206040518083038186803b1580156117dc57600080fd5b505afa1580156117f0573d6000803e3d6000fd5b505050506040513d602081101561180657600080fd5b810190808051906020019092919050505090506118457f0ee0f7d61183eb54c9b2b36fd748b41e75486cdce3092155a14df565d6a82bd060001b61687b565b6118717f84ef661b7fe8707df15273ce7223c3d7084737325a44d1d25f25bc5ba1484ae160001b61687b565b61189d7fb67dc876848110123e73a8fd7b869ecf77ab84fc8bf539c865d3e5053c05acf360001b61687b565b83600b60008373ffffffffffffffffffffffffffffffffffffffff1673ffffffffffffffffffffffffffffffffffffffff168152602001908152602001600020541015611935576040517f08c379a000000000000000000000000000000000000000000000000000000000815260040180806020018281038252602681526020018061868a6026913960400191505060405180910390fd5b6119617f727700f10dcad4644026f2bb800a01da969646f645e743281067844c074a96fa60001b61687b565b61198d7f9370396b20ebf4b66e612098e5064ad6efa80645df901ae9efd197305e798b9e60001b61687b565b6119b97f7046fab010bac287a6fa0f65c8bcedf28f2d66b4319ef1f46f697c3e9ea329ae60001b61687b565b611a02600b60008373ffffffffffffffffffffffffffffffffffffffff1673ffffffffffffffffffffffffffffffffffffffff1681526020019081526020016000205485617e0f565b600b60008373ffffffffffffffffffffffffffffffffffffffff1673ffffffffffffffffffffffffffffffffffffffff16815260200190815260200160002081905550611a717fd3704ad80182ed38aa34ceb3ebbc416e13d1c785affa4ceb92fa651a4fc0c33b60001b61687b565b611a9d7f79077c364351d76c8760b5236f3aacd1867b1fbf34c0881814f53cd88c3b990b60001b61687b565b600c60008273ffffffffffffffffffffffffffffffffffffffff1673ffffffffffffffffffffffffffffffffffffffff16815260200190815260200160002060009054906101000a900473ffffffffffffffffffffffffffffffffffffffff1673ffffffffffffffffffffffffffffffffffffffff1663a9059cbb33866040518363ffffffff1660e01b8152600401808373ffffffffffffffffffffffffffffffffffffffff16815260200182815260200192505050602060405180830381600087803b158015611b6d57600080fd5b505af1158015611b81573d6000803e3d6000fd5b505050506040513d6020811015611b9757600080fd5b810190808051906020019092919050505050611bd57fb3499a08789b0f0f85510206279eba2eccb18c93ea31e76398a65a609a7d249160001b61687b565b611c017f74be9519b3f5328cadd3c0969f95c1e849e29e3d645d2d9b8083648b25777cb560001b61687b565b6000600b60008373ffffffffffffffffffffffffffffffffffffffff1673ffffffffffffffffffffffffffffffffffffffff168152602001908152602001600020541415611d5157611c757f4f72312f4061bbc56a22953d23714d15fe13f51b999382a238eb6c73d975bcfe60001b61687b565b611ca17f76d10a70a9a7cee3f985b140895c802f652b6fa21c8b2a725dc4a5745575881460001b61687b565b611ccd7f997cdde6def00a295040838ce2fc5c1fcea0fa355026938c0ea0769865f59fd960001b61687b565b6000600c60008373ffffffffffffffffffffffffffffffffffffffff1673ffffffffffffffffffffffffffffffffffffffff16815260200190815260200160002060006101000a81548173ffffffffffffffffffffffffffffffffffffffff021916908373ffffffffffffffffffffffffffffffffffffffff160217905550611d7e565b611d7d7f7a0a8a9d66ea53aae830021f24927d58b7e712a746b54ebf1f4e24f951b2246c60001b61687b565b5b611daa7f9dc0326d59abee4530905201c88b465b49eb05bef4b15567b4990a5e6b4b8d1560001b61687b565b611dd67fd217be44221d7eaf4c0ab1370404bd52fff78e37aa63529218a430a999b813fa60001b61687b565b8073ffffffffffffffffffffffffffffffffffffffff16853373ffffffffffffffffffffffffffffffffffffffff167f457f950b75085c30ff780acd57bde642ff1316cc4aad9f286af2c1ffc4163a78876040518082815260200191505060405180910390a450611e697ff5cb04963469f362f235ed81d03df12281d6779a8206766bf9f112282ff3b33860001b614728565b611e957fa81fb90fec427ef65a096d46a298523c29fdb8ccd3e1ab299fe06606a1a2c2b560001b614728565b600160008190555050505050565b600160009054906101000a900473ffffffffffffffffffffffffffffffffffffffff1681565b6103e881565b600260009054906101000a900473ffffffffffffffffffffffffffffffffffffffff1681565b6b033b2e3c9fd0803ce800000081565b60085481565b600360009054906101000a900473ffffffffffffffffffffffffffffffffffffffff1681565b60075481565b600460009054906101000a900473ffffffffffffffffffffffffffffffffffffffff1681565b670de0b6b3a764000081565b3382611f977f01affbd02ed1a56e2ea2912e79221376c9d74e963fcf52fb9f98f649e94c82c660001b61687b565b611fc37fa049a820f448470b1ff177632d0bd632af0e83a57b0091ca5d0191230083211860001b61687b565b611fef7f942ee75aaf620d73af1bec95bc51995a5e5bac9c7dc6b48c32a50196b146099460001b61687b565b61201b7f893848dc87c12175c5fc715973d323c063ecd0dca94b18d1e17aa35216d7d3ab60001b61687b565b600073ffffffffffffffffffffffffffffffffffffffff168273ffffffffffffffffffffffffffffffffffffffff1614156120be576040517f08c379a00000000000000000000000000000000000000000000000000000000081526004018080602001828103825260168152602001807f53616665536176696f75722f6e756c6c2d6f776e65720000000000000000000081525060200191505060405180910390fd5b6120ea7fdfb9228a138c83356ff4a2b0f12ccdf4cd2674c0bd25b713d75b7e16768aa22860001b61687b565b6121167fb3cc3d48f7e763126878b1a2bd968746132a4bbb78fd55f64b9b05d6a61b678660001b61687b565b6121427f2690e8f253ee3f7eddbc47287f62131c5b5f454a2ead5b22abfb3e8d87a0d70560001b61687b565b61216e7ffe405faa2ca8d68f980bf04a88bce404d31951a46ad9ddc5eaf64f4bbcca844060001b61687b565b6123ec600360009054906101000a900473ffffffffffffffffffffffffffffffffffffffff1673ffffffffffffffffffffffffffffffffffffffff1663a2a4d76e836040518263ffffffff1660e01b81526004018082815260200191505060206040518083038186803b1580156121e457600080fd5b505afa1580156121f8573d6000803e3d6000fd5b505050506040513d602081101561220e57600080fd5b810190808051906020019092919050505073ffffffffffffffffffffffffffffffffffffffff168373ffffffffffffffffffffffffffffffffffffffff16146001600360009054906101000a900473ffffffffffffffffffffffffffffffffffffffff1673ffffffffffffffffffffffffffffffffffffffff16634fa053b1600360009054906101000a900473ffffffffffffffffffffffffffffffffffffffff1673ffffffffffffffffffffffffffffffffffffffff1663a2a4d76e876040518263ffffffff1660e01b81526004018082815260200191505060206040518083038186803b15801561230057600080fd5b505afa158015612314573d6000803e3d6000fd5b505050506040513d602081101561232a57600080fd5b810190808051906020019092919050505086886040518463ffffffff1660e01b8152600401808473ffffffffffffffffffffffffffffffffffffffff1681526020018381526020018273ffffffffffffffffffffffffffffffffffffffff168152602001935050505060206040518083038186803b1580156123ab57600080fd5b505afa1580156123bf573d6000803e3d6000fd5b505050506040513d60208110156123d557600080fd5b810190808051906020019092919050505014617a8f565b61245e576040517f08c379a000000000000000000000000000000000000000000000000000000000815260040180806020018281038252601b8152602001807f53616665536176696f75722f6e6f742d6f776e696e672d73616665000000000081525060200191505060405180910390fd5b61248a7f3b449f9a64aa442e3f1e1b9653ba10fad2eb4fc278b45f9c58232d6639920a5460001b61687b565b6124b67fae4f9b329c02a0ec0eb441b25bbd197d8ce556b3328f68ad5961b6bcf1e4de5460001b61687b565b6124e27f8750d221bb88ff96bb4ecad497a81e91137ebddf4ee0b10cb201293da88ccf1860001b61687b565b61250e7f3d56526086849a91b3e7ae74524b1c690370cfb8bb15e02b61051767edf5be2d60001b61687b565b61253a7f4aac05f4d5428eab30bc1ed0099d01ca92e96b93e575a269a9a7874298a5dd1d60001b61687b565b60006a084595161401484a000000600260009054906101000a900473ffffffffffffffffffffffffffffffffffffffff1673ffffffffffffffffffffffffffffffffffffffff166375502d3c600d60009054906101000a900473ffffffffffffffffffffffffffffffffffffffff1673ffffffffffffffffffffffffffffffffffffffff1663e824600f6040518163ffffffff1660e01b815260040160206040518083038186803b1580156125ee57600080fd5b505afa158015612602573d6000803e3d6000fd5b505050506040513d602081101561261857600080fd5b81019080805190602001909291905050506040518263ffffffff1660e01b81526004018082815260200191505060206040518083038186803b15801561265d57600080fd5b505afa158015612671573d6000803e3d6000fd5b505050506040513d602081101561268757600080fd5b81019080805190602001909291905050508161269f57fe5b0490506126ce7f13adf1091a2fd8bfd353b8949030706b90619958777e101c70a78eb15866a22960001b61687b565b6126fa7f88a7b7874a2045faf3d4760dd58a45a339aa33662e61ed929f475b1f58d59d7c60001b61687b565b6000600360009054906101000a900473ffffffffffffffffffffffffffffffffffffffff1673ffffffffffffffffffffffffffffffffffffffff1663434efcbd876040518263ffffffff1660e01b81526004018082815260200191505060206040518083038186803b15801561276f57600080fd5b505afa158015612783573d6000803e3d6000fd5b505050506040513d602081101561279957600080fd5b810190808051906020019092919050505090506127d87f4c330e58d71585843bdf78878ad53b9b8f475381caac546a27fde9a8583df77560001b61687b565b6128047fc0a5a0c993089e672fdf6490f2e88cf7b8d014063a55f793e5b90bd038f239bf60001b61687b565b6128307f78684acb6de7da1314f122cf5651b8f69d42539d5b1b1c3db165e20a7168b0fb60001b61687b565b60008211612889576040517f08c379a00000000000000000000000000000000000000000000000000000000081526004018080602001828103825260288152602001806183a46028913960400191505060405180910390fd5b6128b57faf28c58f47444ffefb72156791cb19c94aed54429b1d63933e1073a0554698b860001b61687b565b6128e17f1a1053701ba9342a7b785678d53b94159023e09f31aaf355cb00c17099597a6460001b61687b565b61290d7fd2f56be6706a741b088b56e13a82b6036ab56ad85cfb169bb573cd124e25dc9960001b61687b565b6129397fe7e9ac5b712a8f02bc285df92b85edbe4e0ac0704d61478aa3d3cbed50a5f82160001b61687b565b848210612991576040517f08c379a00000000000000000000000000000000000000000000000000000000081526004018080602001828103825260268152602001806184ec6026913960400191505060405180910390fd5b6129bd7ffe6a745993be5f83213f87a682eec632fd4724aba6db584f496286f8903a160e60001b61687b565b6129e97f53c96dd117f472db8739c7c96feefac3ac3a41e069423701fd5d87420664b7b160001b61687b565b612a157fe2e1d395e09904c003d4e84f62c0a9fc8b17c7354d89438ec8de21e53cb9434560001b61687b565b612a417f499d614fed7dfd10255d8cec9edfd40af289058158dacd062748973c23170fc160001b61687b565b6103e8851115612a9c576040517f08c379a00000000000000000000000000000000000000000000000000000000081526004018080602001828103825260228152602001806183f96022913960400191505060405180910390fd5b612ac87fbe12e440a5f9af8e30f565d8137bb5be3748b0ff9b72d7011c8ab4072c7ad6bd60001b61687b565b612af47f4e8eb35b8f37a2903c95c002df4608ef3a998d62e4e0d11693f4b98dc4cdca0060001b61687b565b612b207f613373ce6ac114f4bab5a89b56e460d9ac9084caacd25ec244d900aaf921642c60001b61687b565b84600a6000600d60009054906101000a900473ffffffffffffffffffffffffffffffffffffffff1673ffffffffffffffffffffffffffffffffffffffff1663e824600f6040518163ffffffff1660e01b815260040160206040518083038186803b158015612b8d57600080fd5b505afa158015612ba1573d6000803e3d6000fd5b505050506040513d6020811015612bb757600080fd5b8101908080519060200190929190505050815260200190815260200160002060008373ffffffffffffffffffffffffffffffffffffffff1673ffffffffffffffffffffffffffffffffffffffff16815260200190815260200160002081905550612c437f62f3d9b25ee7c56b53aa5550fed773e84eaed10444f139d84abd9638b5c7f14b60001b61687b565b612c6f7f3be8cc87c831b49e6e65e0dbe593a3af06741bedf08221eb55aef1326c7963c960001b61687b565b8073ffffffffffffffffffffffffffffffffffffffff16863373ffffffffffffffffffffffffffffffffffffffff167ff3e2ede39d07e1a6e23c2557ac40ad8b94b311a0515c0ef868c62aab07ea89e2886040518082815260200191505060405180910390a4505050505050565b50565b6000612d0e7fb502ef78a1da28b4b2b606727308d96c56f98c01f36e4133efd72ff46f88d80060001b61687b565b612d3a7f758439efa33960249f228286a0c8b9cdc0e745ad53189b95cbbda8516e4e9f7d60001b61687b565b612d667fee4dd15315c8dfa0a624ae50d7f6f188542d8c6276dcf8dbd03dc939bf5db66260001b61687b565b6000612d7183616883565b9050612d9f7fb1981f48d528726b5f31203a180a1f2a7f94af7d7fe678877e488ed46293a1fb60001b61687b565b612dcb7f1aac788215044ddff223d8bce96595f7041851953cff4301a7682a18bc0a418e60001b61687b565b7fffffffffffffffffffffffffffffffffffffffffffffffffffffffffffffffff811415612e8157612e1f7f435e9dbea4fc82c6a9ff84535e3ce313a4d762b48ec25297e356246390a27a2660001b61687b565b612e4b7f52da26e230b4924894ddd29f1cc6f712eda366f24684ca18bb8e47f940853b8760001b61687b565b612e777f5ecf3c0040a604317d46a30ce023f488ff7cfd1fd83b55a2def932ac9c09754360001b61687b565b60009150506131db565b612ead7fe5a3579a231596cd8d5b17c297019765597cb4515007482f766bf2860732c0cb60001b61687b565b612ed97f78b030a7aab5d0906f3b243b57fd0592aefdd0bd5f9cb4896981b20b2d8c741f60001b61687b565b612f057f2a511543422b774cc9fc841d867a8552752279ee205a31bb20bbb257e2a9690160001b61687b565b6000600b60008573ffffffffffffffffffffffffffffffffffffffff1673ffffffffffffffffffffffffffffffffffffffff168152602001908152602001600020541415612fdb57612f797f27f5048c3ff8d249c9d6031f930fcfe205c5870318ea186bdcbbb770b357085260001b61687b565b612fa57fe86aa1263c7c13375fee70be125dd1fa5e8916e75f03ca044be7c379d32427ba60001b61687b565b612fd17f02eaad30c5dd481c8ae911f6cc93392c433dcaacdc0f0377218add60a4e9b4ab60001b61687b565b60009150506131db565b6130077f0641d4b65b5272d3211fb56c196cb82e2a7ac53ecde4615056df54c948d4d9ce60001b61687b565b6130337ff6386ed9ac96093018dfda01f3498d17bbfae5115309b47fcaa14c9c53a3f26c60001b61687b565b61305f7f7a49e0be9921318300e40a939da79887572511b12c0efd433b7498e4e098153160001b61687b565b61306b81600654617edd565b600f60009054906101000a900473ffffffffffffffffffffffffffffffffffffffff1673ffffffffffffffffffffffffffffffffffffffff1663ac017c7e600c60008773ffffffffffffffffffffffffffffffffffffffff1673ffffffffffffffffffffffffffffffffffffffff16815260200190815260200160002060009054906101000a900473ffffffffffffffffffffffffffffffffffffffff16600b60008873ffffffffffffffffffffffffffffffffffffffff1673ffffffffffffffffffffffffffffffffffffffff168152602001908152602001600020546040518363ffffffff1660e01b8152600401808373ffffffffffffffffffffffffffffffffffffffff1681526020018281526020019250505060206040518083038186803b15801561319a57600080fd5b505afa1580156131ae573d6000803e3d6000fd5b505050506040513d60208110156131c457600080fd5b810190808051906020019092919050505010159150505b919050565b6103e881565b633b9aca0081565b3061321b7f287ebbcc79c2b2a23ed0b64d5bcdf6ae5be62915ec58c8262e94f4ecdf989bb060001b61687b565b6132477fb614b3b8ddd659f1abe7799c3eb9a60292264fe501761a9d977ba0599fa241fd60001b61687b565b6132737f9d2341dce591418769e492385dada3cb3e2214d15a00264866ae79ad466ac5d760001b61687b565b61329f7f301c1bab5e8598a7a7e89a6939ddb21c9ce72a39f5836380227303ec3911c7c860001b61687b565b60018060009054906101000a900473ffffffffffffffffffffffffffffffffffffffff1673ffffffffffffffffffffffffffffffffffffffff16635626da24836040518263ffffffff1660e01b8152600401808273ffffffffffffffffffffffffffffffffffffffff16815260200191505060206040518083038186803b15801561332957600080fd5b505afa15801561333d573d6000803e3d6000fd5b505050506040513d602081101561335357600080fd5b8101908080519060200190929190505050146133ba576040517f08c379a000000000000000000000000000000000000000000000000000000000815260040180806020018281038252602e815260200180618614602e913960400191505060405180910390fd5b6133e67f221677d359d3ec3fc38e8a4b66b52815b04b86e32d26de8e2906604b5cf4d13460001b61687b565b6134127ffd6a5eaee554f7b79e55f32fe05c41ed0058129fc02838fc9b10ed4e1cd004d760001b61687b565b61343e7f977f86a54b2aacab74274f0cbeaac9376e566102ec59573d15a9e8f48e0fdb6460001b614728565b61346a7fe89de4fc345efb4a1eb4724b1d0cb458bf2822806f5bd87611888c7cfbe17cc860001b614728565b6134967fee539e5e1275c8069dac8e3e72157c74079cca7c9fcd4a3e828119ea4440e9f560001b614728565b6134c27f554a90102809b8288b39b241309c5390fd422e0a270e73fdae9618c33cc235c760001b614728565b6002600054141561353b576040517f08c379a000000000000000000000000000000000000000000000000000000000815260040180806020018281038252601f8152602001807f5265656e7472616e637947756172643a207265656e7472616e742063616c6c0081525060200191505060405180910390fd5b6135677fb92990fb9042db10a0203eab7de1b58cb4743c0e7a4b1feda79dbdfcc6ac997760001b614728565b6135937fd619b11966772c1f46245dd8bae80afad98786bfc5432870dbdce24e8155efcc60001b614728565b6135bf7fd37a57c9ba73ba3133e6ce975b4fb0f8d2f267700caa83fbe31fa7f46ee576fd60001b614728565b60026000819055506135f37f5b89bb6eba40e60751d4f0c8f7fe9be2f3d883792cacd88b4e229ff894d75ecf60001b614728565b61361f7fac91ce7b62b5e2b2dd60da9257f5603ec041b4db8e09457838fe099d955cd9bd60001b61687b565b61364b7f9c88af2f1cbb019188799b4c68ce51123c6165a47dee1947fcf0dcd93e775eb060001b61687b565b6136777f89cdfda0ea38882bdc181ae3929b1a331e9e555e16fce05642b2e6b21943f57e60001b61687b565b6136a37fcfa4b0586931ab7ac4d0ed6784f3a4cbb9223f35c3e4b5c875501580ed6a332860001b61687b565b600083116136fc576040517f08c379a000000000000000000000000000000000000000000000000000000000815260040180806020018281038252602281526020018061846d6022913960400191505060405180910390fd5b6137287f8865af74ad0fa3a5ef40f1730df9e9bcc452ae8cfa6bfc2e1295a53301e8c5e960001b61687b565b6137547fa1f914c46e42d3c61be558e13b718b0fe94eec7cc3cb06b70c156d553cfd7a3360001b61687b565b6137807f561da035172113680472c9fc17e65feb3d8d04d26aac6b1fcc61ab41e5fcab0c60001b61687b565b6137ac7fa9da6042dc6132ca5bba753f6dcec8bc90e42f37b9589a8ce24458db2337d47460001b61687b565b6001600f60009054906101000a900473ffffffffffffffffffffffffffffffffffffffff1673ffffffffffffffffffffffffffffffffffffffff16633a7685eb846040518263ffffffff1660e01b8152600401808273ffffffffffffffffffffffffffffffffffffffff16815260200191505060206040518083038186803b15801561383757600080fd5b505afa15801561384b573d6000803e3d6000fd5b505050506040513d602081101561386157600080fd5b8101908080519060200190929190505050146138e5576040517f08c379a00000000000000000000000000000000000000000000000000000000081526004018080602001828103825260208152602001807f4f70796e53616665536176696f75722f666f7262696464656e2d6f746f6b656e81525060200191505060405180910390fd5b6139117f23ae39d2662c357408d996ecb620c1c6c4d392a742c43f9f329886762a0ba3ba60001b61687b565b61393d7f37a14df7e7ea7dec045ae9c98469aeb3dd3a4fe1bc23ef883038c18d7695224760001b61687b565b6139697f2c7a455e1d4924c2f67230d61a6599692d18f09ab1f66d4f5c9fce8752bfa38e60001b61687b565b6000600360009054906101000a900473ffffffffffffffffffffffffffffffffffffffff1673ffffffffffffffffffffffffffffffffffffffff1663434efcbd866040518263ffffffff1660e01b81526004018082815260200191505060206040518083038186803b1580156139de57600080fd5b505afa1580156139f2573d6000803e3d6000fd5b505050506040513d6020811015613a0857600080fd5b81019080805190602001909291905050509050613a477f5ad447a1d06b6649b6ee978e6d725843e65f5749ed4ae2d08e012b2be5db0be160001b61687b565b613a737fca4f4ab59bd4f2a92f281a49dec845592b2b194eb5b6b593149d6202968dde5160001b61687b565b613a9f7ff5690cbf16c5ea31d002d4988180c1cc5a3978ec605e0f83ec109637094624a560001b61687b565b600073ffffffffffffffffffffffffffffffffffffffff168173ffffffffffffffffffffffffffffffffffffffff161415613b42576040517f08c379a000000000000000000000000000000000000000000000000000000000815260040180806020018281038252601c8152602001807f4f70796e53616665536176696f75722f6e756c6c2d68616e646c65720000000081525060200191505060405180910390fd5b613b6e7ff11011cb4e6969b9e17e67b1a97ee2b5cfe4ac7cc7a46c1da21791805e50d25960001b61687b565b613b9a7f6f3d7d2b92a0923600d87177952d3d6b31cea89ba46302f751af828b6e3dec0c60001b61687b565b613bc67f3c2ad8100b267ea5373674bb2b8d5a2d3f979cb5a98e59aaccc9b98b6db3732160001b61687b565b613bf27f81528277db535f14cd630958e4105bbd924565c4581c7b8b3ee7db0b23ec5b3a60001b61687b565b613d178373ffffffffffffffffffffffffffffffffffffffff16600c60008473ffffffffffffffffffffffffffffffffffffffff1673ffffffffffffffffffffffffffffffffffffffff16815260200190815260200160002060009054906101000a900473ffffffffffffffffffffffffffffffffffffffff1673ffffffffffffffffffffffffffffffffffffffff1614600073ffffffffffffffffffffffffffffffffffffffff16600c60008573ffffffffffffffffffffffffffffffffffffffff1673ffffffffffffffffffffffffffffffffffffffff16815260200190815260200160002060009054906101000a900473ffffffffffffffffffffffffffffffffffffffff1673ffffffffffffffffffffffffffffffffffffffff1614617a8f565b613d6c576040517f08c379a000000000000000000000000000000000000000000000000000000000815260040180806020018281038252602b815260200180618442602b913960400191505060405180910390fd5b613d987f8972a387ad6c19ca3a8791b9a6f748444664f1bf31790c38447a89574f43b2d860001b61687b565b613dc47f46a19dae82a9b0feb8cceb6c3985120ef134a528e5149abac7754da10a18229560001b61687b565b613df07f1b7eec7ec9606d567ad6c4265b856976398ca848baf0db845da251949b3e203b60001b61687b565b6000600d60009054906101000a900473ffffffffffffffffffffffffffffffffffffffff1673ffffffffffffffffffffffffffffffffffffffff166367aea3136040518163ffffffff1660e01b815260040160206040518083038186803b158015613e5a57600080fd5b505afa158015613e6e573d6000803e3d6000fd5b505050506040513d6020811015613e8457600080fd5b810190808051906020019092919050505073ffffffffffffffffffffffffffffffffffffffff16633d422504600d60009054906101000a900473ffffffffffffffffffffffffffffffffffffffff1673ffffffffffffffffffffffffffffffffffffffff1663e824600f6040518163ffffffff1660e01b815260040160206040518083038186803b158015613f1857600080fd5b505afa158015613f2c573d6000803e3d6000fd5b505050506040513d6020811015613f4257600080fd5b8101908080519060200190929190505050846040518363ffffffff1660e01b8152600401808381526020018273ffffffffffffffffffffffffffffffffffffffff16815260200192505050604080518083038186803b158015613fa457600080fd5b505afa158015613fb8573d6000803e3d6000fd5b505050506040513d6040811015613fce57600080fd5b8101908080519060200190929190805190602001909291905050509150506140187fbc3d6a0dd4895591bf204f745d2c1bdea6aa214690569ad89598dbf749c46afa60001b61687b565b6140447f0bbbb169765fdec2d04b194cc4c3966e138ef7fe92cc963b0e9a8dabcdad273660001b61687b565b6140707f67760a040f9fdc8a72743a69bdc76fa2f431690321be4a49752271c0617f583d60001b61687b565b600081116140c9576040517f08c379a000000000000000000000000000000000000000000000000000000000815260040180806020018281038252602781526020018061841b6027913960400191505060405180910390fd5b6140f57f96626f35cfd814de66884601b6878a735e841c2cd5b63664d60c29fc4a451d3c60001b61687b565b6141217fc6c3189a4b8fe4c9610edd68e37647118937fe1129d3a90494ae9ad96b900adc60001b61687b565b61414d7fdc6047702bef7519794bc262d1c74a22085bfda98a4179e6f752883c49be6f2d60001b61687b565b6141797ff8a938ef8b7f5b7eb66706ec5aa9927403fc205bb7b201eee037d529e962bc3560001b61687b565b8373ffffffffffffffffffffffffffffffffffffffff166323b872dd3330886040518463ffffffff1660e01b8152600401808473ffffffffffffffffffffffffffffffffffffffff1681526020018373ffffffffffffffffffffffffffffffffffffffff1681526020018281526020019350505050602060405180830381600087803b15801561420857600080fd5b505af115801561421c573d6000803e3d6000fd5b505050506040513d602081101561423257600080fd5b8101908080519060200190929190505050614298576040517f08c379a00000000000000000000000000000000000000000000000000000000081526004018080602001828103825260418152602001806185856041913960600191505060405180910390fd5b6142c47f4fe62b47298d8d07507fb49b0654d78c4f5792639ffb38e5a1e1c812c451029060001b61687b565b6142f07fd0097de5fcb9c9227c840b05b804f27e18829ea37171fa2ceec456a39db5252060001b61687b565b61431c7fbb5e9b0a22c02576793c748e713717a56923cec6be8a1f21644a05a83e94ca6f60001b61687b565b614365600b60008473ffffffffffffffffffffffffffffffffffffffff1673ffffffffffffffffffffffffffffffffffffffff1681526020019081526020016000205486617edd565b600b60008473ffffffffffffffffffffffffffffffffffffffff1673ffffffffffffffffffffffffffffffffffffffff168152602001908152602001600020819055506143d47f2e6f376ab29b5aa183cb352373a6b51d51b7b6e9d1605cdfb098ba3dbbdf9bc560001b61687b565b6144007f0eed558c81e347aa66fe3cac29c979a318f69e779ff545436d674b9d4ad5494e60001b61687b565b600073ffffffffffffffffffffffffffffffffffffffff16600c60008473ffffffffffffffffffffffffffffffffffffffff1673ffffffffffffffffffffffffffffffffffffffff16815260200190815260200160002060009054906101000a900473ffffffffffffffffffffffffffffffffffffffff1673ffffffffffffffffffffffffffffffffffffffff16141561459b576144c07fc11ca3018fef0dd464d141210cadaa2eaf3c7ddfc41dc75b8e953544199648ef60001b61687b565b6144ec7f380ae9643c6875b36f2aba0f047d72de01bcc35f374c31cc4bf022114f8b7a7460001b61687b565b6145187fbe27f3301074e714eb7e1f5f174385bbd08919a38095a13ddbadc593a48e36d160001b61687b565b83600c60008473ffffffffffffffffffffffffffffffffffffffff1673ffffffffffffffffffffffffffffffffffffffff16815260200190815260200160002060006101000a81548173ffffffffffffffffffffffffffffffffffffffff021916908373ffffffffffffffffffffffffffffffffffffffff1602179055506145c8565b6145c77f42719f6fe27f6ed6d81b1d7650702ef8d78935350bb6cd47f32339059b71154b60001b61687b565b5b6145f47fc5fa67c1e9011d71c9d3851505ebabed8101eb00965a13977e5205bb2e146abb60001b61687b565b6146207f4276aacb470ffe02011399ae9816b9326a49d0e23037e3543b7c5a2e1a30e36d60001b61687b565b8173ffffffffffffffffffffffffffffffffffffffff163373ffffffffffffffffffffffffffffffffffffffff167f5548c837ab068cf56a2c2479df0882a4922fd203edb7517321831d95078c5f62876040518082815260200191505060405180910390a350506146b37ff5cb04963469f362f235ed81d03df12281d6779a8206766bf9f112282ff3b33860001b614728565b6146df7fa81fb90fec427ef65a096d46a298523c29fdb8ccd3e1ab299fe06606a1a2c2b560001b614728565b600160008190555050505050565b60065481565b6a084595161401484a00000081565b600e60009054906101000a900473ffffffffffffffffffffffffffffffffffffffff1681565b50565b600a602052816000526040600020602052806000526040600020600091509150505481565b60008060006147817f7ad8d4b9bfb95df9e823070a3271d8b60f5a09cb5987a9febf372e4b512dd69b60001b61687b565b6147ad7f17bc4b36e5b5811381cacda3f3622ee0ed11e8d07247e22dbfabd7702094663460001b61687b565b6147d97fde96597db777777fa68a82a191735db5f1c5f319aeb6e869d8a83d32a3bc4ef760001b61687b565b6148057f5ac497a7a5c343016057b5776af2474c16cfb7a333a1feaff431970c555915b560001b61687b565b3373ffffffffffffffffffffffffffffffffffffffff16600160009054906101000a900473ffffffffffffffffffffffffffffffffffffffff1673ffffffffffffffffffffffffffffffffffffffff16146148ab576040517f08c379a000000000000000000000000000000000000000000000000000000000815260040180806020018281038252602d8152602001806183cc602d913960400191505060405180910390fd5b6148d77ffc19f3f8c361c5687f6af708691073841e655b810f0c377be93f6e136a07ec7360001b61687b565b6149037f8d86d95baf1478e0219df4cff3c510cbf6925522510e3f9bd7c1e618d450833360001b61687b565b61492f7f77931665154d222cd8455faf3b2e93d3936e989768d5c6577f165aecc6d558a260001b61687b565b61495b7f4d3d48b00a8845bb56cc3d97478af1d7de2e3516a6c8a9cfb24fcb2ced2057d260001b61687b565b600073ffffffffffffffffffffffffffffffffffffffff168673ffffffffffffffffffffffffffffffffffffffff1614156149e1576040517f08c379a00000000000000000000000000000000000000000000000000000000081526004018080602001828103825260238152602001806185c66023913960400191505060405180910390fd5b614a0d7f5c4e8e074d1a3bb1047ff58dac05f0d3a66716ba59ec35085e2ba2f0e88e121c60001b61687b565b614a397fb7c8fa9f5eb752c6039f3e1b0187e3e951fa0c88014718e830d454fc017c3c9860001b61687b565b614a657f1f23d10108bf2d7b00cd6194f4ba86ae8e563544c363286c1101b0a149b1cd1760001b61687b565b614afa614aa460008714600073ffffffffffffffffffffffffffffffffffffffff168773ffffffffffffffffffffffffffffffffffffffff16146180f2565b600160009054906101000a900473ffffffffffffffffffffffffffffffffffffffff1673ffffffffffffffffffffffffffffffffffffffff168873ffffffffffffffffffffffffffffffffffffffff16146180f2565b15614bb257614b2b7fd4d0dbd6957b53f882c3ca25a5493f24b605a7782332e5f38afd806678c41f2360001b61687b565b614b577ff4fddc7777b5b084132b47a2046a10d82f183579fc49925f181ce211d4a2efb960001b61687b565b614b837f8899002bc4f60faca9e38b6abbc8769314ad6ff302e4eeb1b155b736419d331160001b61687b565b60017fffffffffffffffffffffffffffffffffffffffffffffffffffffffffffffffff8092509250925061685a565b614bde7fd9ba4b7d4240faed39d872c3a1b315f6bd1a5beeb659a4f3987a8321d8a40b4260001b61687b565b614c0a7f099c1267e1da6b413b1b230bd5d130d12a8456eb7248d623f9014b9f1cd8bf1a60001b61687b565b614c367f978da5461da957974738170d405445dd54b4387757279d3de13bc3112f2dd47e60001b61687b565b614c627ff2cf76f27e998db06800f231f882e6d2eb3fc7d1a626206b22406279bb3af70160001b61687b565b600d60009054906101000a900473ffffffffffffffffffffffffffffffffffffffff1673ffffffffffffffffffffffffffffffffffffffff1663e824600f6040518163ffffffff1660e01b815260040160206040518083038186803b158015614cca57600080fd5b505afa158015614cde573d6000803e3d6000fd5b505050506040513d6020811015614cf457600080fd5b81019080805190602001909291905050508514614d5c576040517f08c379a000000000000000000000000000000000000000000000000000000000815260040180806020018281038252602781526020018061853d6027913960400191505060405180910390fd5b614d887fdeaa52d404d181ca93bdc75f194de9c0ece4291e840c644b707d3cc68d3cc16a60001b61687b565b614db47fbfc132072d47e6551039b6342a8808e90117b5e0cdb9c429b861a5cfa858e62f60001b61687b565b614de07f5be4549f2c6d9a9df849db7caea6db7819975071831a1baadeee0580eb10335460001b61687b565b614e0c7fe7f59b9aec27eac6eb0164c778816a71ae7280257c4b752783decad37ce43a5f60001b61687b565b600073ffffffffffffffffffffffffffffffffffffffff16600c60008673ffffffffffffffffffffffffffffffffffffffff1673ffffffffffffffffffffffffffffffffffffffff16815260200190815260200160002060009054906101000a900473ffffffffffffffffffffffffffffffffffffffff1673ffffffffffffffffffffffffffffffffffffffff161415614ef1576040517f08c379a00000000000000000000000000000000000000000000000000000000081526004018080602001828103825260228152602001806186426022913960400191505060405180910390fd5b614f1d7f42bb702b0efac5aacd1d1c1481ccacaff8a25a58d826f59be526495723c8b04460001b61687b565b614f497f7dba0637b266a8be9a75a65b779c7ea65adcc2d4c82fe588a0abc2359d81988360001b61687b565b614f757f9e7d7a6125ff10d696fc0b4179f65bf01802804f0cd3507594d38078c98b3eca60001b61687b565b614fa17f28b455feceee40f62cd20b8b43767a41fce15ed8b81283bec253a1c144b7e05060001b61687b565b614fa96109aa565b614ffe576040517f08c379a000000000000000000000000000000000000000000000000000000000815260040180806020018281038252602981526020018061848f6029913960400191505060405180910390fd5b61502a7fcfb6621486bd237e41c4d4cd9794c2c86d71a15e1e4b63b0c0b12c0441e4451260001b61687b565b6150567fa9f2ee8018e3322bd8add2b208f4a78f05783e6a06a31c8869fcce0c6022febe60001b61687b565b6150827fb122d2461655c57759cc4f3001dbf52fcfc51f6d462930def3549e9199f5654160001b61687b565b600061508d85616883565b90506150bb7fc296d6ce3b421d3d9ffbdec1104454cdf3e2bc63f05206baed9ae7e6752d042e60001b61687b565b6150e77fac9b8ee61629099ca39f39ed60f909685ba031d02902b9b959adddd656adb5e460001b61687b565b6151137f1c31ff77322c6ac0b127119030f711bbc3feb4183f550f650583fe32cc6369f060001b61687b565b6000600d60009054906101000a900473ffffffffffffffffffffffffffffffffffffffff1673ffffffffffffffffffffffffffffffffffffffff166367aea3136040518163ffffffff1660e01b815260040160206040518083038186803b15801561517d57600080fd5b505afa158015615191573d6000803e3d6000fd5b505050506040513d60208110156151a757600080fd5b810190808051906020019092919050505073ffffffffffffffffffffffffffffffffffffffff16633d422504600d60009054906101000a900473ffffffffffffffffffffffffffffffffffffffff1673ffffffffffffffffffffffffffffffffffffffff1663e824600f6040518163ffffffff1660e01b815260040160206040518083038186803b15801561523b57600080fd5b505afa15801561524f573d6000803e3d6000fd5b505050506040513d602081101561526557600080fd5b8101908080519060200190929190505050886040518363ffffffff1660e01b8152600401808381526020018273ffffffffffffffffffffffffffffffffffffffff16815260200192505050604080518083038186803b1580156152c757600080fd5b505afa1580156152db573d6000803e3d6000fd5b505050506040513d60408110156152f157600080fd5b81019080805190602001909291908051906020019092919050505050905061533b7f870ecbbb6f052b2b601727b237a44b7e8c30ce5ded26a28acf985da4febafa9360001b61687b565b6153677fe33f385185720978eecd47e3b68207f9363db4f3814ecf29d1bbfe62b694e67060001b61687b565b6153937f104b142e9ed3dd5687d6d47f388122bdf3ba7f24f6d241597092344dc2d8a9d960001b61687b565b6153a1600654600854617af4565b811015615416576040517f08c379a00000000000000000000000000000000000000000000000000000000081526004018080602001828103825260198152602001807f4f70796e53616665536176696f75722f74696e792d736166650000000000000081525060200191505060405180910390fd5b6154427f4058bead0235b06c8ecc0b0ab9400cb59297cf2944e0f42b171daecac0b88c1860001b61687b565b5061546f7fef719be3000f08ade4ac3da1ab9ed51178d0ebb96e8aa8bc5e1301c115f6317a60001b61687b565b61549b7f5176372f9ef57179fc04d707d3d6858b2dfa011ef75e11e837819aaa9d2c6ef160001b61687b565b6154c77f115677d30c32a0abda5129df627986cf90eeaa2175fee53c536cce7b383ef72160001b61687b565b6154f87fffffffffffffffffffffffffffffffffffffffffffffffffffffffffffffffff82141560008314156180f2565b61554d576040517f08c379a000000000000000000000000000000000000000000000000000000000815260040180806020018281038252602b8152602001806185e9602b913960400191505060405180910390fd5b6155797fc1636da170c027f6dd081654dbd9c393bd682df3c987142333b816c4c06ab50e60001b61687b565b6155a57f9ca497228a81961107de8072bf5785db97f688c98a202e7886a154e74e2539e760001b61687b565b6155d17f5db73da2b60b8233533f0a3a0e08d40e97d613d075ad0f7274e633f6b783f4be60001b61687b565b60006155df60065483617edd565b905061560d7fbed9cb3d22e09688937f04bcbb6e7cb66e1ac3690250366dbb79cb742c89c1d060001b61687b565b6156397f104c8bf11f5ae602dc75de0a78e8312a2e2d0a0f9ae5966c346b4e75ae5e449260001b61687b565b6000600f60009054906101000a900473ffffffffffffffffffffffffffffffffffffffff1673ffffffffffffffffffffffffffffffffffffffff1663d8af5064600c60008a73ffffffffffffffffffffffffffffffffffffffff1673ffffffffffffffffffffffffffffffffffffffff16815260200190815260200160002060009054906101000a900473ffffffffffffffffffffffffffffffffffffffff1684600e60009054906101000a900473ffffffffffffffffffffffffffffffffffffffff166040518463ffffffff1660e01b8152600401808473ffffffffffffffffffffffffffffffffffffffff1681526020018381526020018273ffffffffffffffffffffffffffffffffffffffff168152602001935050505060206040518083038186803b15801561576b57600080fd5b505afa15801561577f573d6000803e3d6000fd5b505050506040513d602081101561579557600080fd5b810190808051906020019092919050505090506157d47f49882665294dc87cb94d34e313d7726c56077a06bd0498c5ad3563c4e9ce018260001b61687b565b6158007feecf89e910f5b97f718e265d085110d3b1bef159c618415e0dc16485bac29f7260001b61687b565b61582c7f15f250f30cde743380b3476b189189ea4f32356f6bb3b973af2b136d8855756360001b61687b565b80600b60008973ffffffffffffffffffffffffffffffffffffffff1673ffffffffffffffffffffffffffffffffffffffff1681526020019081526020016000205410156158c4576040517f08c379a00000000000000000000000000000000000000000000000000000000081526004018080602001828103825260268152602001806186646026913960400191505060405180910390fd5b6158f07f7a7ba931784f6d6de97e328f774cf68dbbe9b82cf68b32af8a20a6b771ed0a3c60001b61687b565b61591c7ff05596d75bb151a49401a0565df5589ff4eaa1802e3ca8d7504d7bc43265262860001b61687b565b6159487fcd3e9629964adb3e9fa6c3e030327107b29328ce9cbb2ad3154ec03b51310d5460001b61687b565b600c60008873ffffffffffffffffffffffffffffffffffffffff1673ffffffffffffffffffffffffffffffffffffffff16815260200190815260200160002060009054906101000a900473ffffffffffffffffffffffffffffffffffffffff1673ffffffffffffffffffffffffffffffffffffffff1663095ea7b3600f60009054906101000a900473ffffffffffffffffffffffffffffffffffffffff16836040518363ffffffff1660e01b8152600401808373ffffffffffffffffffffffffffffffffffffffff16815260200182815260200192505050602060405180830381600087803b158015615a3a57600080fd5b505af1158015615a4e573d6000803e3d6000fd5b505050506040513d6020811015615a6457600080fd5b810190808051906020019092919050505050615aa27f20ac9a119a986a4e452228dc940b351973180b77eb4a006143851c2aa14dabbd60001b61687b565b615ace7f7c0e7e24f83acc87fe9f4008ed061f26ad2aa0e8120f3ee8e746f09148bf74cb60001b61687b565b6000600e60009054906101000a900473ffffffffffffffffffffffffffffffffffffffff1673ffffffffffffffffffffffffffffffffffffffff166370a08231306040518263ffffffff1660e01b8152600401808273ffffffffffffffffffffffffffffffffffffffff168152602001915050602060405180830381600087803b158015615b5b57600080fd5b505af1158015615b6f573d6000803e3d6000fd5b505050506040513d6020811015615b8557600080fd5b81019080805190602001909291905050509050615bc47fe80ef56f67398cee577657573916e9f80254e483891d4ca3ad62f763e039f2bb60001b61687b565b615bf07f0eed3afab881b7f5caabba08a4bb86870ce06571841e9be163058d9f8bff00e960001b61687b565b600f60009054906101000a900473ffffffffffffffffffffffffffffffffffffffff1673ffffffffffffffffffffffffffffffffffffffff1663aea1a4a7600c60008b73ffffffffffffffffffffffffffffffffffffffff1673ffffffffffffffffffffffffffffffffffffffff16815260200190815260200160002060009054906101000a900473ffffffffffffffffffffffffffffffffffffffff168486600e60009054906101000a900473ffffffffffffffffffffffffffffffffffffffff166040518563ffffffff1660e01b8152600401808573ffffffffffffffffffffffffffffffffffffffff1681526020018481526020018381526020018273ffffffffffffffffffffffffffffffffffffffff168152602001945050505050600060405180830381600087803b158015615d2a57600080fd5b505af1158015615d3e573d6000803e3d6000fd5b50505050615d6e7f8775351080ef6825e1adff8d757344d9cec871fd728d055299dbe03be80b331f60001b61687b565b615d9a7fbdfd1823bc7462c8dc4a95e692e789b6c5d9b91301059b049ae2ac540dc2bc3060001b61687b565b6000615e6b600e60009054906101000a900473ffffffffffffffffffffffffffffffffffffffff1673ffffffffffffffffffffffffffffffffffffffff166370a08231306040518263ffffffff1660e01b8152600401808273ffffffffffffffffffffffffffffffffffffffff168152602001915050602060405180830381600087803b158015615e2a57600080fd5b505af1158015615e3e573d6000803e3d6000fd5b505050506040513d6020811015615e5457600080fd5b810190808051906020019092919050505083617e0f565b9050615e997f9593948b5e5d1341dacf471b43f7051fa53e24d0f2ab6960b47099fdeae222b760001b61687b565b615ec57f1f21b42339e8beaa2aa7982130147964cdbc0ad4895b8e3f0ee1adb2ed5eb5a360001b61687b565b615ef17fd50ed9ab9eb2fc7918c8db575552e02fe8361bcbdb2adea71ffe2463f0860efa60001b61687b565b83811015615f4a576040517f08c379a00000000000000000000000000000000000000000000000000000000081526004018080602001828103825260348152602001806184b86034913960400191505060405180910390fd5b615f767f36d929e5faf2fe4be15f77c9b924bf7d522e64edec80c2e3551a82d156ecb1ae60001b61687b565b615fa27fa6a435adc0e508d5346522d2417e1f05446d3818a5910b17c2b34dd7b4659d8d60001b61687b565b615fce7f4b46ac4e06e9da24f12961bc7a8e7c971321a3dc0e8db71482f18967e64d61af60001b61687b565b600560009054906101000a900473ffffffffffffffffffffffffffffffffffffffff1673ffffffffffffffffffffffffffffffffffffffff166396d2e7428b8b6040518363ffffffff1660e01b8152600401808381526020018273ffffffffffffffffffffffffffffffffffffffff16815260200192505050600060405180830381600087803b15801561606157600080fd5b505af1158015616075573d6000803e3d6000fd5b505050506160a57f5ea79cded185598e9950e71daa3e060f3b7794b4ba9cd485bc1185566f154e1e60001b61687b565b6160d17f0fda58fff9c3cf2cc527e4921d9e33176e324157957364c04a1da02397c6ecc960001b61687b565b600e60009054906101000a900473ffffffffffffffffffffffffffffffffffffffff1673ffffffffffffffffffffffffffffffffffffffff1663095ea7b3600d60009054906101000a900473ffffffffffffffffffffffffffffffffffffffff1660006040518363ffffffff1660e01b8152600401808373ffffffffffffffffffffffffffffffffffffffff16815260200182815260200192505050602060405180830381600087803b15801561618757600080fd5b505af115801561619b573d6000803e3d6000fd5b505050506040513d60208110156161b157600080fd5b8101908080519060200190929190505050506161ef7fd17131e5567a999c44961cd071d169dcc6528e5a57e428339225e13808ccb8f160001b61687b565b61621b7f2f6826c854a3bd9a372b60514d4d79aeac59377d004eeed21f22fb323122b5e560001b61687b565b600e60009054906101000a900473ffffffffffffffffffffffffffffffffffffffff1673ffffffffffffffffffffffffffffffffffffffff1663095ea7b3600d60009054906101000a900473ffffffffffffffffffffffffffffffffffffffff16876040518363ffffffff1660e01b8152600401808373ffffffffffffffffffffffffffffffffffffffff16815260200182815260200192505050602060405180830381600087803b1580156162d057600080fd5b505af11580156162e4573d6000803e3d6000fd5b505050506040513d60208110156162fa57600080fd5b8101908080519060200190929190505050506163387f8897c7bbdc683bcce05e2f7814a90d98a1853ff23af8cb5a0d3ff7beeb24fcbd60001b61687b565b6163647f0122fa7becbf996cd938acee33225c17a8b838441da612fdf63a90e8572c0cb360001b61687b565b600d60009054906101000a900473ffffffffffffffffffffffffffffffffffffffff1673ffffffffffffffffffffffffffffffffffffffff16633b4da69f30876040518363ffffffff1660e01b8152600401808373ffffffffffffffffffffffffffffffffffffffff16815260200182815260200192505050600060405180830381600087803b1580156163f757600080fd5b505af115801561640b573d6000803e3d6000fd5b5050505061643b7fad44126fd9b23504d4b927c0dc576fcd27b3bed64f5eea06103069649ba0908060001b61687b565b6164677f71d9679d7712075d11b47fd603820b338b238aa4b4a1c2f0cd5be1d572f64c1360001b61687b565b600460009054906101000a900473ffffffffffffffffffffffffffffffffffffffff1673ffffffffffffffffffffffffffffffffffffffff166399bec315600d60009054906101000a900473ffffffffffffffffffffffffffffffffffffffff1673ffffffffffffffffffffffffffffffffffffffff1663e824600f6040518163ffffffff1660e01b815260040160206040518083038186803b15801561650d57600080fd5b505afa158015616521573d6000803e3d6000fd5b505050506040513d602081101561653757600080fd5b81019080805190602001909291905050508b3060008a60006040518763ffffffff1660e01b8152600401808781526020018673ffffffffffffffffffffffffffffffffffffffff1681526020018573ffffffffffffffffffffffffffffffffffffffff1681526020018473ffffffffffffffffffffffffffffffffffffffff1681526020018381526020018281526020019650505050505050600060405180830381600087803b1580156165ea57600080fd5b505af11580156165fe573d6000803e3d6000fd5b5050505061662e7ffe8d81d972a47ed8eeead22e81c0c446d49dde796558a44c70d443430469033e60001b61687b565b61665a7fdc596ccd108fb43641a23ad4944c0555d22dc7144d7a5f101c75833933996f0060001b61687b565b600e60009054906101000a900473ffffffffffffffffffffffffffffffffffffffff1673ffffffffffffffffffffffffffffffffffffffff1663a9059cbb8c6166a38489617e0f565b6040518363ffffffff1660e01b8152600401808373ffffffffffffffffffffffffffffffffffffffff16815260200182815260200192505050602060405180830381600087803b1580156166f657600080fd5b505af115801561670a573d6000803e3d6000fd5b505050506040513d602081101561672057600080fd5b81019080805190602001909291905050505061675e7f734fc954dbba233163d8485a04c0de55d37337bef12b1d38807c666bb681fbc960001b61687b565b61678a7f23a1cfbdfab03926cde2b6a12de8eb0226e230c7345ad2fd5bfef9030ce9778160001b61687b565b8873ffffffffffffffffffffffffffffffffffffffff168a8c73ffffffffffffffffffffffffffffffffffffffff167f10a18796c8582ce78a5fd5fac9222c8ee18b16bd1523926d8803567527aac360886040518082815260200191505060405180910390a461681c7f3bcd83cac556deb5595356e11cec36becb77a70a5ab194e151dbdfaee584e78f60001b61687b565b6168487fdb5ad57417b3e5618f16ea9a4e97202eac1c510fca7bba7574b62108f520198860001b61687b565b60018560065497509750975050505050505b93509350939050565b600b6020528060005260406000206000915090505481565b50565b600181565b60006168b17f446ba8fb3f05c9ffc5cebc1efcff1fc72fb4dcc1adcc7552f00d522d4ef7433260001b61687b565b6168dd7fbb4cae297016001d277c84135ba6a70c3dbf51cf966e906f25903983b3b6078460001b61687b565b6169097f45d4a48e855da19ce30d0353ee8ad74fa70cb3d1195e24e28e37f668471eca8a60001b61687b565b600080600d60009054906101000a900473ffffffffffffffffffffffffffffffffffffffff1673ffffffffffffffffffffffffffffffffffffffff166367aea3136040518163ffffffff1660e01b815260040160206040518083038186803b15801561697457600080fd5b505afa158015616988573d6000803e3d6000fd5b505050506040513d602081101561699e57600080fd5b810190808051906020019092919050505073ffffffffffffffffffffffffffffffffffffffff16633d422504600d60009054906101000a900473ffffffffffffffffffffffffffffffffffffffff1673ffffffffffffffffffffffffffffffffffffffff1663e824600f6040518163ffffffff1660e01b815260040160206040518083038186803b158015616a3257600080fd5b505afa158015616a46573d6000803e3d6000fd5b505050506040513d6020811015616a5c57600080fd5b8101908080519060200190929190505050866040518363ffffffff1660e01b8152600401808381526020018273ffffffffffffffffffffffffffffffffffffffff16815260200192505050604080518083038186803b158015616abe57600080fd5b505afa158015616ad2573d6000803e3d6000fd5b505050506040513d6040811015616ae857600080fd5b81019080805190602001909291908051906020019092919050505091509150616b337fd849d4bc5ec9f57a5cbbf9c3a041f7a3810d0729e1b97fd592393c61c11dae5760001b61687b565b616b5f7f058ad442d37ca07a5b570d48bf9e8a626afd0cdcb7218dcb5b022fa67f9a37e260001b61687b565b6000600260009054906101000a900473ffffffffffffffffffffffffffffffffffffffff1673ffffffffffffffffffffffffffffffffffffffff1663d07900bb600d60009054906101000a900473ffffffffffffffffffffffffffffffffffffffff1673ffffffffffffffffffffffffffffffffffffffff1663e824600f6040518163ffffffff1660e01b815260040160206040518083038186803b158015616c0757600080fd5b505afa158015616c1b573d6000803e3d6000fd5b505050506040513d6020811015616c3157600080fd5b81019080805190602001909291905050506040518263ffffffff1660e01b81526004018082815260200191505060606040518083038186803b158015616c7657600080fd5b505afa158015616c8a573d6000803e3d6000fd5b505050506040513d6060811015616ca057600080fd5b8101908080519060200190929190805190602001909291908051906020019092919050505050509050616cf57f6f27bca928621393629c33e021672371b4e81235ce3ff76be81edc21fa27f7ae60001b61687b565b616d217f5583ca6b89c8b5a6c9ec0e463e2564ae842461a6d55dbc9e8014355c94c1c86b60001b61687b565b6000808273ffffffffffffffffffffffffffffffffffffffff16634fd0ada86040518163ffffffff1660e01b8152600401604080518083038186803b158015616d6957600080fd5b505afa158015616d7d573d6000803e3d6000fd5b505050506040513d6040811015616d9357600080fd5b81019080805190602001909291908051906020019092919050505091509150616ddd7e2399c653bc465ce691e715e0c99236fdb27f9841b5473ebfc3b4834f1b7ca160001b61687b565b616e097f9d20bbaeaa6466534a668c04366a2dca2348d250e56fd4d50e3c5a7ef5fa62ff60001b61687b565b616e2360008514616e1e600085148415617a8f565b617a8f565b15616f3157616e547fa26f872c12279d53b5af12001a4293e359cf56e04bc3c8f9017c8563836fbde960001b61687b565b616e807fa21c1842898cb85e186e2387bdb6921cfde3bf85ff7eda9e92f3c8957faf646c60001b61687b565b616eac7f6426607127b2c198733f010202e1ea61dac86ec73e38e8986bcde7a00bb5b25460001b61687b565b7fffffffffffffffffffffffffffffffffffffffffffffffffffffffffffffffff9550616efb7f0d66958749f0ac2acf9a8f4e91c9cc9d6239f7af78618efbff48981af7b1fcc760001b61687b565b616f277f02e1aa0e6d4e97b574439aab0024da5e39f0c2d00ad7eb3ce98cf9994bd95e3060001b61687b565b50505050506174ee565b616f5d7f145d76867335998e491d421136854e0db768dfc6cddf3fc5bc44298586bc69f060001b61687b565b616f897f100b84a27a67bdc6a9b3fdb17ef4db0e89033b32e85eed51020a9d992bc1e51960001b61687b565b616fb57fb4267631b86a02663068ce531c0b5507566f50c1872fd30a9b610493e34b97ca60001b61687b565b600080600a6000600d60009054906101000a900473ffffffffffffffffffffffffffffffffffffffff1673ffffffffffffffffffffffffffffffffffffffff1663e824600f6040518163ffffffff1660e01b815260040160206040518083038186803b15801561702457600080fd5b505afa158015617038573d6000803e3d6000fd5b505050506040513d602081101561704e57600080fd5b8101908080519060200190929190505050815260200190815260200160002060008a73ffffffffffffffffffffffffffffffffffffffff1673ffffffffffffffffffffffffffffffffffffffff16815260200190815260200160002054146171a857600a6000600d60009054906101000a900473ffffffffffffffffffffffffffffffffffffffff1673ffffffffffffffffffffffffffffffffffffffff1663e824600f6040518163ffffffff1660e01b815260040160206040518083038186803b15801561711c57600080fd5b505afa158015617130573d6000803e3d6000fd5b505050506040513d602081101561714657600080fd5b8101908080519060200190929190505050815260200190815260200160002060008973ffffffffffffffffffffffffffffffffffffffff1673ffffffffffffffffffffffffffffffffffffffff168152602001908152602001600020546171ac565b6009545b90506171da7f4011e00dc3274e2c4199a438bbd264d84213b6a29888c9f03d3d548f6a2854f060001b61687b565b6172067f829236f07c6e950a1a1e2722ced3109643f2345633e03d0c8e2ad79e992913c960001b61687b565b600060646172e06172da6b033b2e3c9fd0803ce80000006172cb600260009054906101000a900473ffffffffffffffffffffffffffffffffffffffff1673ffffffffffffffffffffffffffffffffffffffff1663c5b748c06040518163ffffffff1660e01b8152600401602060405180830381600087803b15801561728a57600080fd5b505af115801561729e573d6000803e3d6000fd5b505050506040513d60208110156172b457600080fd5b81019080805190602001909291905050508b617af4565b816172d257fe5b046001617edd565b84617af4565b816172e757fe5b0490506173167ff37fc006a614c78d2e252308d52e09dbe9a95107af618c023f0afca2dba7f60360001b61687b565b6173427f715da3d8da4a4a74825dd45bd3344d25ba8adc7e6fac4ca51bc27d9f2ab3359560001b61687b565b60008461735783670de0b6b3a7640000617af4565b8161735e57fe5b04905061738d7f4f02afdbc87ee51ed45931bc32f495ec6308ea85c440ccbdd8c66679b3c093c860001b61687b565b6173b97f0339cda32beaa9e996dd68d3e435aa7b7456bfbdac0c18702fe7d096e7db0d9b60001b61687b565b878111617455576173ec7f3dfa1ecf1b54ec9483cb22df72c7550aec18fbaa91c3b827b68321f28709cac060001b61687b565b6174187fe6d1d3531e14255c55c4738118267a82172a8e6977d88875b5b4cb908f54d7a260001b61687b565b6174447ffb7326c01fa3fb3e1fa0d0d96428cd031d21638c752e9ce7cdf7a5c13729066e60001b61687b565b6000985050505050505050506174ee565b6174817f4f34b6ee2fcc4ebac0401421992deb460ed4104b4feb912e722c76bc982c214b60001b61687b565b6174ad7f983f32a82e46229618488acc5efe7b69b2d91b03f5e403934b3626f69b813af960001b61687b565b6174d97f0291d9d570e027725c9e33dd5e91fc78032ccbd77974c9011067e8c6d19d755260001b61687b565b6174e38189617e0f565b985050505050505050505b919050565b600560009054906101000a900473ffffffffffffffffffffffffffffffffffffffff1681565b600f60009054906101000a900473ffffffffffffffffffffffffffffffffffffffff1681565b7fffffffffffffffffffffffffffffffffffffffffffffffffffffffffffffffff81565b60006175917fac06ae4dea5b28ac0e79197647c2310c3b9b9b5fc21f617462f464f11ebd87cd60001b61687b565b6175bd7f54586e1ffdccdf7a9a2c3b4386126a09acb022bab9749cad9aafa3e4ab1625ee60001b61687b565b6175e97f1f55a039b908adba86237c1684a64414d04567551949de6432f736392f071e2560001b61687b565b6000600260009054906101000a900473ffffffffffffffffffffffffffffffffffffffff1673ffffffffffffffffffffffffffffffffffffffff1663d07900bb600d60009054906101000a900473ffffffffffffffffffffffffffffffffffffffff1673ffffffffffffffffffffffffffffffffffffffff1663e824600f6040518163ffffffff1660e01b815260040160206040518083038186803b15801561769157600080fd5b505afa1580156176a5573d6000803e3d6000fd5b505050506040513d60208110156176bb57600080fd5b81019080805190602001909291905050506040518263ffffffff1660e01b81526004018082815260200191505060606040518083038186803b15801561770057600080fd5b505afa158015617714573d6000803e3d6000fd5b505050506040513d606081101561772a57600080fd5b810190808051906020019092919080519060200190929190805190602001909291905050505050905061777f7f344fdbb13320be21cbba542cfb9a9a47ce6b1fe00aba5fb222d25945467df49a60001b61687b565b6177ab7f4ae2088d403b0597c35b55af47374ce2d9f591c9cc0b788d79cbc510b5a39f4560001b61687b565b6000808273ffffffffffffffffffffffffffffffffffffffff166320531bc96040518163ffffffff1660e01b815260040160206040518083038186803b1580156177f457600080fd5b505afa158015617808573d6000803e3d6000fd5b505050506040513d602081101561781e57600080fd5b810190808051906020019092919050505073ffffffffffffffffffffffffffffffffffffffff16634fd0ada86040518163ffffffff1660e01b8152600401604080518083038186803b15801561787357600080fd5b505afa158015617887573d6000803e3d6000fd5b505050506040513d604081101561789d57600080fd5b810190808051906020019092919080519060200190929190505050915091506178e87ff295d853c2d302d6eaadc714d4bff5ca6e1bf3479f327878792e19812fe0afac60001b61687b565b6179147f057c49ff87f19ca84ede7c8859c949b5ce65b6ebeefd9cd0f55196eae5b78dbc60001b61687b565b617922811560008414617a8f565b156179b7576179537f95df5e2d2c9418de77f7d0fda61010dc34200db80dc7249f1b82974f779eb0c760001b61687b565b61797f7f138d194fb9756fd0472636ad2e56017291a1db9a72c5883d0e985702c38e7d5160001b61687b565b6179ab7f73e634077f66b45fd9601f10ea43bb404036fcf9e71470868e4c4b61704a80d460001b61687b565b60009350505050617a5e565b6179e37f3dd4ebf7aa44a3519d37a940e75ee0ce4bccf26d7161a7535189e48986098dc960001b61687b565b617a0f7fb8270037ee33ab814dba01bac4936e5d7f7df5b72c1874a3f76619c3f5ebff6860001b61687b565b617a3b7f6248e3c2739d2ff4630968e0c11b6edd5a9488dc5a036040274d00f680a3b83060001b61687b565b670de0b6b3a7640000617a5060065484617af4565b81617a5757fe5b0493505050505b90565b600d60009054906101000a900473ffffffffffffffffffffffffffffffffffffffff1681565b606481565b50565b6000617abd7fca1feadeff3194707f40d173a8e6b3acc4f09bbf2c2c30f111e9f1e9a83e318260001b617a8c565b617ae97f8e1b131da9328b89870ef600c0ca862a370e1dfcc0c3eeb0ebca958c91d6de0560001b617a8c565b818317905092915050565b6000617b227fac6e374fcaae26cf1f6eb7631f8eb615f543228f442f7fb62056305aea1a6c5d60001b612cdd565b617b4e7f4ace4adef256e1d1917c73ab6212e31710db7683b4727da07351c413e9c2e07260001b612cdd565b617b7a7f968d415af148b7c6b57305c1e7cb3f98ce914d9bbc168994a8dec4dd0d9c84fa60001b612cdd565b6000831415617c1057617baf7f33906da52f93d0329331f524aeb3955efb1342b02e27206de6b82ccc539c419260001b612cdd565b617bdb7fd24bd8116d131a9a37921dc87def7e6fa94cf72f7ccade2b13187739c3c1f4a560001b612cdd565b617c077f5a051d98e5a2fee79a4f65feb8d9cffb747459908b38af0813cf04fbe0f94e2c60001b612cdd565b60009050617e09565b617c3c7f3d154a847b8629ed685171041fddfe2eeabf9959cdef79801f1ceeb8979de48060001b612cdd565b617c687f7ef2e857f9930b8ea63e425985b458e32f3bd23548573280cca2f6bd3fc657fc60001b612cdd565b617c947fc76b48d441cbe8ed22a18c452abcb8aef7a9ac0a69cdd34eec4a6397ca43e9ef60001b612cdd565b60008284029050617cc77f7e2eb67a30c1439ad40d1516b76fb83f9c959e356c96f42e6e26138da4d9c2e260001b612cdd565b617cf37f9cd5bfaab44ee12fc860cb29f99b7b26a8b63fcec12b40a1bac519b1b721d88060001b612cdd565b617d1f7f06eaf82b76a892b2513f4814b89d52718c4022e10675f77db966dabf8376f94960001b612cdd565b82848281617d2957fe5b0414617d80576040517f08c379a00000000000000000000000000000000000000000000000000000000081526004018080602001828103825260218152602001806185646021913960400191505060405180910390fd5b617dac7f179e9adf54790245c074544eb56b6efb3b8a5a5628e1d48c353a4e74667b415d60001b612cdd565b617dd87f959faa5ee91aba4bba2cb8f7eec9aa1a4b8d8c21bcb927f28ed3abf0dba1193760001b612cdd565b617e047f43b525268fd89c21433aea56c82b62cdc12376c49e8ddd70d0b0a020e101a50960001b612cdd565b809150505b92915050565b6000617e3d7f011cee0c4dd7cf8acb79043b690d805097096f90398e89aa2fa09f125621aebc60001b612cdd565b617e697f5a81db271007916b503194a9bf8edcf954f7cfaddb71dd963afbd6cda1e7a7cb60001b612cdd565b617e957ffe54ca9f4684d9a62ac14e709d78edf75849c68cefb090f06bbeb8513a41b3f960001b612cdd565b617ed583836040518060400160405280601e81526020017f536166654d6174683a207375627472616374696f6e206f766572666c6f770000815250618157565b905092915050565b6000617f0b7f595d3d4d38f609acfba4564c9f4d8e63e374931b43b508e3bb417821d71417e860001b612cdd565b617f377f6a7eb42bfb0da7eeced6624b6df83155f6b498ee0a38c85b049099557d94bce560001b612cdd565b617f637fd358eba1c5bb481dfbe7f4ef6447114c1b79b1d8a69313d2c4625187fbb33f3360001b612cdd565b60008284019050617f967fd7ae235ed1c63792ed8969cb4686a87b30bea3cb2a3858c0f1ff7946b7f0890c60001b612cdd565b617fc27f40d892aa8af6f81ec29baedae0e78fea4cbdd6fcbb2b0f3bd62046f9838f37de60001b612cdd565b617fee7f1b4d42ced943f172a01d6b3248ffcf0dacf5b6d7743759e35ccc183eead93cc760001b612cdd565b83811015618064576040517f08c379a000000000000000000000000000000000000000000000000000000000815260040180806020018281038252601b8152602001807f536166654d6174683a206164646974696f6e206f766572666c6f77000000000081525060200191505060405180910390fd5b6180907fb9165263995128260dc4517683b96a23e0c4fa6c57d5857d6f6ab17a10e8cb7e60001b612cdd565b6180bc7fb9a123e0a17c9ef5621f81c73a1a853ca47703481343711fac3a62680861714d60001b612cdd565b6180e87f9213e9e800a67452fa98bb90e977aaf10ca7ecffe1b77827bd70b8ccf39eff6060001b612cdd565b8091505092915050565b60006181207fa56d3db80057814049f398161c58119079c17d6cdaf9303dae9dac066ae1009160001b617a8c565b61814c7f69cae494add104c66023068da2c7a57c098f6cf9db32afe562b0033528e1e4ab60001b617a8c565b818316905092915050565b60006181857fb27fd13af9e9180a3ebff2ce4acb7b8a101acc53bef9e8fc48cebf5ffe6eb43d60001b612cdd565b6181b17f11ed86bdb0dab1ededecb532b628c61dc505cddbf2305370dc03204b3cf46ecb60001b612cdd565b6181dd7f8b6237f5c7a8cfcea8ec296670203ffef376ed7dbc728b787ef70d9bca8bc0bc60001b612cdd565b6182097f0f9db0fb86482f3ad7db5e9011f3fcd6b38565f743733b8ae5301d3791c7db4d60001b612cdd565b8383111582906182b4576040517f08c379a00000000000000000000000000000000000000000000000000000000081526004018080602001828103825283818151815260200191508051906020019080838360005b8381101561827957808201518184015260208101905061825e565b50505050905090810190601f1680156182a65780820380516001836020036101000a031916815260200191505b509250505060405180910390fd5b506182e17f021c8080fbec9abf0bc3ed42ef9557180a584881bf529947a521a4755eb568fb60001b612cdd565b61830d7fc8ceb274a1c5b3e5cc81ad8e2a59ef51afd9565c74c17c865e6af1c4fcffb7e160001b612cdd565b6183397f578391875ea3d1ae7e935e4e935e21fece5ae8bfa6c12485894656ea43e78a3b60001b612cdd565b6000838503905061836c7f42f1113894ae9ad9ed267d7412a4df70fa3416e2ca503aa3622c0f6018647b8260001b612cdd565b6183987f97e70fe0a258d86e7c3a126fdcebd1bff3f724cda1f908fc13e76c7862bce7f860001b612cdd565b80915050939250505056fe4f70796e53616665536176696f75722f696e76616c69642d7363616c65642d6c69712d726174696f4f70796e53616665536176696f75722f63616c6c65722d6e6f742d6c69717569646174696f6e2d656e67696e654f70796e53616665536176696f75722f657863656564732d6d61782d63726174696f4f70796e53616665536176696f75722f736166652d646f65732d6e6f742d686176652d646562744f70796e53616665536176696f75722f736166652d6f746f6b656e2d696e636f6d7061746962696c6974794f70796e53616665536176696f75722f6e756c6c2d6f546f6b656e2d616d6f756e744f70796e53616665536176696f75722f736d616c6c2d6b65657065722d7061796f75742d76616c75654f70796e53616665536176696f75722f6e6f742d656e6f7567682d6f746f6b656e2d636f6c6c61746572616c2d737761707065644f70796e53616665536176696f75722f696e76616c69642d646573697265642d63726174696f4f70796e53616665536176696f75722f6e756c6c2d636f6c6c61746572616c546f6b656e2d616d6f756e744f70796e53616665536176696f75722f696e76616c69642d636f6c6c61746572616c2d74797065536166654d6174683a206d756c7469706c69636174696f6e206f766572666c6f7747656e6572616c546f6b656e5265736572766553616665536176696f75722f636f756c642d6e6f742d7472616e736665722d636f6c6c61746572616c546f6b656e4f70796e53616665536176696f75722f6e756c6c2d6b65657065722d616464726573734f70796e53616665536176696f75722f696e76616c69642d746f6b656e732d757365642d746f2d7361766553616665536176696f75722f6e6f742d617070726f7665642d696e2d6c69717569646174696f6e2d656e67696e654f70796e53616665536176696f75722f6e6f2d73656c65637465642d6f746f6b656e4f70796e53616665536176696f75722f6f746f6b656e2d62616c616e63652d746f6f2d6c6f774f70796e53616665536176696f75722f6e6f742d656e6f7567682d746f2d7769746864726177a2646970667358221220913bcca426cb6febecee0c6e1e78e354669d26c7a870e5dae10bab8d2faa378864736f6c634300070600334f70796e53616665536176696f75722f696e76616c69642d7363616c65642d6c69712d726174696f4f70796e53616665536176696f75722f696e76616c69642d6b65657065722d7061796f75744f70796e53616665536176696f75722f6e756c6c2d736166652d6d616e616765724f70796e53616665536176696f75722f6e756c6c2d64656661756c742d63726174696f4f70796e53616665536176696f75722f696e76616c69642d7061796f75742d746f2d736166652d73697a654f70796e53616665536176696f75722f696e76616c69642d6d696e2d7061796f75742d76616c75654f70796e53616665536176696f75722f6e756c6c2d736176696f75722d72656769737472794f70796e53616665536176696f75722f6e756c6c2d636f6c6c61746572616c2d6a6f696e4f70796e53616665536176696f75722f6e756c6c2d6f7261636c652d72656c617965724f70796e53616665536176696f75722f696e76616c69642d64656661756c742d646573697265642d63726174696f4f70796e53616665536176696f75722f696e76616c69642d6a6f696e2d646563696d616c734f70796e53616665536176696f75722f6e756c6c2d6f70796e2d736166652d736176696f75722d6f70657261746f724f70796e53616665536176696f75722f6e756c6c2d6c69717569646174696f6e2d656e67696e65",
  "linkReferences": {},
  "deployedLinkReferences": {}
}