{
  "_format": "hh-sol-artifact-1",
  "contractName": "OpynSafeSaviour",
  "sourceName": "contracts/saviours/OpynSafeSaviour.sol",
  "abi": [
    {
      "inputs": [
        {
          "internalType": "address",
          "name": "_collateralJoin",
          "type": "address"
        },
        {
          "internalType": "address",
          "name": "_liquidationEngine",
          "type": "address"
        },
        {
          "internalType": "address",
          "name": "_oracleRelayer",
          "type": "address"
        },
        {
          "internalType": "address",
          "name": "_safeManager",
          "type": "address"
        },
        {
          "internalType": "address",
          "name": "_saviourRegistry",
          "type": "address"
        },
        {
          "internalType": "address",
          "name": "_opynSafeSaviourOperator",
          "type": "address"
        },
        {
          "internalType": "uint256",
          "name": "_keeperPayout",
          "type": "uint256"
        },
        {
          "internalType": "uint256",
          "name": "_minKeeperPayoutValue",
          "type": "uint256"
        },
        {
          "internalType": "uint256",
          "name": "_payoutToSAFESize",
          "type": "uint256"
        },
        {
          "internalType": "uint256",
          "name": "_defaultDesiredCollateralizationRatio",
          "type": "uint256"
        }
      ],
      "stateMutability": "nonpayable",
      "type": "constructor"
    },
    {
      "anonymous": false,
      "inputs": [
        {
          "indexed": true,
          "internalType": "address",
          "name": "caller",
          "type": "address"
        },
        {
          "indexed": true,
          "internalType": "address",
          "name": "safeHandler",
          "type": "address"
        },
        {
          "indexed": false,
          "internalType": "uint256",
          "name": "amount",
          "type": "uint256"
        }
      ],
      "name": "Deposit",
      "type": "event"
    },
    {
      "anonymous": false,
      "inputs": [
        {
          "indexed": true,
          "internalType": "address",
          "name": "keeper",
          "type": "address"
        },
        {
          "indexed": true,
          "internalType": "bytes32",
          "name": "collateralType",
          "type": "bytes32"
        },
        {
          "indexed": true,
          "internalType": "address",
          "name": "safeHandler",
          "type": "address"
        },
        {
          "indexed": false,
          "internalType": "uint256",
          "name": "collateralAddedOrDebtRepaid",
          "type": "uint256"
        }
      ],
      "name": "SaveSAFE",
      "type": "event"
    },
    {
      "anonymous": false,
      "inputs": [
        {
          "indexed": true,
          "internalType": "address",
          "name": "caller",
          "type": "address"
        },
        {
          "indexed": true,
          "internalType": "uint256",
          "name": "safeID",
          "type": "uint256"
        },
        {
          "indexed": true,
          "internalType": "address",
          "name": "safeHandler",
          "type": "address"
        },
        {
          "indexed": false,
          "internalType": "uint256",
          "name": "cRatio",
          "type": "uint256"
        }
      ],
      "name": "SetDesiredCollateralizationRatio",
      "type": "event"
    },
    {
      "anonymous": false,
      "inputs": [
        {
          "indexed": true,
          "internalType": "address",
          "name": "caller",
          "type": "address"
        },
        {
          "indexed": true,
          "internalType": "uint256",
          "name": "safeID",
          "type": "uint256"
        },
        {
          "indexed": true,
          "internalType": "address",
          "name": "safeHandler",
          "type": "address"
        },
        {
          "indexed": false,
          "internalType": "uint256",
          "name": "amount",
          "type": "uint256"
        }
      ],
      "name": "Withdraw",
      "type": "event"
    },
    {
      "inputs": [],
      "name": "CRATIO_SCALE_DOWN",
      "outputs": [
        {
          "internalType": "uint256",
          "name": "",
          "type": "uint256"
        }
      ],
      "stateMutability": "view",
      "type": "function"
    },
    {
      "inputs": [],
      "name": "HUNDRED",
      "outputs": [
        {
          "internalType": "uint256",
          "name": "",
          "type": "uint256"
        }
      ],
      "stateMutability": "view",
      "type": "function"
    },
    {
      "inputs": [],
      "name": "MAX_CRATIO",
      "outputs": [
        {
          "internalType": "uint256",
          "name": "",
          "type": "uint256"
        }
      ],
      "stateMutability": "view",
      "type": "function"
    },
    {
      "inputs": [],
      "name": "MAX_UINT",
      "outputs": [
        {
          "internalType": "uint256",
          "name": "",
          "type": "uint256"
        }
      ],
      "stateMutability": "view",
      "type": "function"
    },
    {
      "inputs": [],
      "name": "ONE",
      "outputs": [
        {
          "internalType": "uint256",
          "name": "",
          "type": "uint256"
        }
      ],
      "stateMutability": "view",
      "type": "function"
    },
    {
      "inputs": [],
      "name": "RAY",
      "outputs": [
        {
          "internalType": "uint256",
          "name": "",
          "type": "uint256"
        }
      ],
      "stateMutability": "view",
      "type": "function"
    },
    {
      "inputs": [],
      "name": "THOUSAND",
      "outputs": [
        {
          "internalType": "uint256",
          "name": "",
          "type": "uint256"
        }
      ],
      "stateMutability": "view",
      "type": "function"
    },
    {
      "inputs": [],
      "name": "WAD",
      "outputs": [
        {
          "internalType": "uint256",
          "name": "",
          "type": "uint256"
        }
      ],
      "stateMutability": "view",
      "type": "function"
    },
    {
      "inputs": [],
      "name": "WAD_COMPLEMENT",
      "outputs": [
        {
          "internalType": "uint256",
          "name": "",
          "type": "uint256"
        }
      ],
      "stateMutability": "view",
      "type": "function"
    },
    {
      "inputs": [
        {
          "internalType": "address",
          "name": "_safeHandler",
          "type": "address"
        }
      ],
      "name": "canSave",
      "outputs": [
        {
          "internalType": "bool",
          "name": "",
          "type": "bool"
        }
      ],
      "stateMutability": "nonpayable",
      "type": "function"
    },
    {
      "inputs": [],
      "name": "collateralJoin",
      "outputs": [
        {
          "internalType": "contract CollateralJoinLike",
          "name": "",
          "type": "address"
        }
      ],
      "stateMutability": "view",
      "type": "function"
    },
    {
      "inputs": [],
      "name": "collateralToken",
      "outputs": [
        {
          "internalType": "contract ERC20Like",
          "name": "",
          "type": "address"
        }
      ],
      "stateMutability": "view",
      "type": "function"
    },
    {
      "inputs": [],
      "name": "defaultDesiredCollateralizationRatio",
      "outputs": [
        {
          "internalType": "uint256",
          "name": "",
          "type": "uint256"
        }
      ],
      "stateMutability": "view",
      "type": "function"
    },
    {
      "inputs": [
        {
          "internalType": "uint256",
          "name": "_safeID",
          "type": "uint256"
        },
        {
          "internalType": "uint256",
          "name": "_oTokenAmount",
          "type": "uint256"
        },
        {
          "internalType": "address",
          "name": "_oTokenType",
          "type": "address"
        }
      ],
      "name": "deposit",
      "outputs": [],
      "stateMutability": "nonpayable",
      "type": "function"
    },
    {
      "inputs": [
        {
          "internalType": "bytes32",
          "name": "",
          "type": "bytes32"
        },
        {
          "internalType": "address",
          "name": "",
          "type": "address"
        }
      ],
      "name": "desiredCollateralizationRatios",
      "outputs": [
        {
          "internalType": "uint256",
          "name": "",
          "type": "uint256"
        }
      ],
      "stateMutability": "view",
      "type": "function"
    },
    {
      "inputs": [],
      "name": "getKeeperPayoutValue",
      "outputs": [
        {
          "internalType": "uint256",
          "name": "",
          "type": "uint256"
        }
      ],
      "stateMutability": "view",
      "type": "function"
    },
    {
      "inputs": [],
      "name": "keeperPayout",
      "outputs": [
        {
          "internalType": "uint256",
          "name": "",
          "type": "uint256"
        }
      ],
      "stateMutability": "view",
      "type": "function"
    },
    {
      "inputs": [],
      "name": "keeperPayoutExceedsMinValue",
      "outputs": [
        {
          "internalType": "bool",
          "name": "",
          "type": "bool"
        }
      ],
      "stateMutability": "view",
      "type": "function"
    },
    {
      "inputs": [],
      "name": "liquidationEngine",
      "outputs": [
        {
          "internalType": "contract LiquidationEngineLike",
          "name": "",
          "type": "address"
        }
      ],
      "stateMutability": "view",
      "type": "function"
    },
    {
      "inputs": [],
      "name": "minKeeperPayoutValue",
      "outputs": [
        {
          "internalType": "uint256",
          "name": "",
          "type": "uint256"
        }
      ],
      "stateMutability": "view",
      "type": "function"
    },
    {
      "inputs": [
        {
          "internalType": "address",
          "name": "",
          "type": "address"
        }
      ],
      "name": "oTokenCover",
      "outputs": [
        {
          "internalType": "uint256",
          "name": "",
          "type": "uint256"
        }
      ],
      "stateMutability": "view",
      "type": "function"
    },
    {
      "inputs": [
        {
          "internalType": "address",
          "name": "",
          "type": "address"
        }
      ],
      "name": "oTokenSelection",
      "outputs": [
        {
          "internalType": "address",
          "name": "",
          "type": "address"
        }
      ],
      "stateMutability": "view",
      "type": "function"
    },
    {
      "inputs": [],
      "name": "opynSafeSaviourOperator",
      "outputs": [
        {
          "internalType": "contract OpynSafeSaviourOperator",
          "name": "",
          "type": "address"
        }
      ],
      "stateMutability": "view",
      "type": "function"
    },
    {
      "inputs": [],
      "name": "oracleRelayer",
      "outputs": [
        {
          "internalType": "contract OracleRelayerLike",
          "name": "",
          "type": "address"
        }
      ],
      "stateMutability": "view",
      "type": "function"
    },
    {
      "inputs": [],
      "name": "payoutToSAFESize",
      "outputs": [
        {
          "internalType": "uint256",
          "name": "",
          "type": "uint256"
        }
      ],
      "stateMutability": "view",
      "type": "function"
    },
    {
      "inputs": [],
      "name": "safeEngine",
      "outputs": [
        {
          "internalType": "contract SAFEEngineLike",
          "name": "",
          "type": "address"
        }
      ],
      "stateMutability": "view",
      "type": "function"
    },
    {
      "inputs": [],
      "name": "safeManager",
      "outputs": [
        {
          "internalType": "contract GebSafeManagerLike",
          "name": "",
          "type": "address"
        }
      ],
      "stateMutability": "view",
      "type": "function"
    },
    {
      "inputs": [
        {
          "internalType": "address",
          "name": "_keeper",
          "type": "address"
        },
        {
          "internalType": "bytes32",
          "name": "_collateralType",
          "type": "bytes32"
        },
        {
          "internalType": "address",
          "name": "_safeHandler",
          "type": "address"
        }
      ],
      "name": "saveSAFE",
      "outputs": [
        {
          "internalType": "bool",
          "name": "",
          "type": "bool"
        },
        {
          "internalType": "uint256",
          "name": "",
          "type": "uint256"
        },
        {
          "internalType": "uint256",
          "name": "",
          "type": "uint256"
        }
      ],
      "stateMutability": "nonpayable",
      "type": "function"
    },
    {
      "inputs": [],
      "name": "saviourRegistry",
      "outputs": [
        {
          "internalType": "contract SAFESaviourRegistryLike",
          "name": "",
          "type": "address"
        }
      ],
      "stateMutability": "view",
      "type": "function"
    },
    {
      "inputs": [
        {
          "internalType": "uint256",
          "name": "_safeID",
          "type": "uint256"
        },
        {
          "internalType": "uint256",
          "name": "_cRatio",
          "type": "uint256"
        }
      ],
      "name": "setDesiredCollateralizationRatio",
      "outputs": [],
      "stateMutability": "nonpayable",
      "type": "function"
    },
    {
      "inputs": [
        {
          "internalType": "address",
          "name": "_safeHandler",
          "type": "address"
        }
      ],
      "name": "tokenAmountUsedToSave",
      "outputs": [
        {
          "internalType": "uint256",
          "name": "tokenAmountUsed",
          "type": "uint256"
        }
      ],
      "stateMutability": "nonpayable",
      "type": "function"
    },
    {
      "inputs": [
        {
          "internalType": "uint256",
          "name": "_safeID",
          "type": "uint256"
        },
        {
          "internalType": "uint256",
          "name": "_oTokenAmount",
          "type": "uint256"
        }
      ],
      "name": "withdraw",
      "outputs": [],
      "stateMutability": "nonpayable",
      "type": "function"
    }
  ],
  "bytecode": "0x60806040523480156200001157600080fd5b5060405162003b3838038062003b3883398181016040526101408110156200003857600080fd5b508051602082015160408301516060840151608085015160a086015160c087015160e0880151610100890151610120909901516001600055979896979596949593949293919290916001600160a01b038a16620000c75760405162461bcd60e51b815260040180806020018281038252602481526020018062003a486024913960400191505060405180910390fd5b6001600160a01b0389166200010e5760405162461bcd60e51b815260040180806020018281038252602781526020018062003b116027913960400191505060405180910390fd5b6001600160a01b038816620001555760405162461bcd60e51b815260040180806020018281038252602381526020018062003a6c6023913960400191505060405180910390fd5b6001600160a01b0387166200019c5760405162461bcd60e51b81526004018080602001828103825260218152602001806200398c6021913960400191505060405180910390fd5b6001600160a01b038616620001e35760405162461bcd60e51b815260040180806020018281038252602581526020018062003a236025913960400191505060405180910390fd5b6001600160a01b0385166200022a5760405162461bcd60e51b815260040180806020018281038252602f81526020018062003ae2602f913960400191505060405180910390fd5b600084116200026b5760405162461bcd60e51b8152600401808060200182810382526025815260200180620039676025913960400191505060405180910390fd5b60008311620002ac5760405162461bcd60e51b8152600401808060200182810382526028815260200180620039fb6028913960400191505060405180910390fd5b60018211620002ed5760405162461bcd60e51b815260040180806020018281038252602b815260200180620039d0602b913960400191505060405180910390fd5b600081116200032e5760405162461bcd60e51b8152600401808060200182810382526023815260200180620039ad6023913960400191505060405180910390fd5b600684905560088290556007839055600180546001600160a01b03808c166001600160a01b031992831617909255600d80548d84169083161790819055600280548c8516931692909217909155604080516367aea31360e01b8152905191909216916367aea313916004828101926020929190829003018186803b158015620003b657600080fd5b505afa158015620003cb573d6000803e3d6000fd5b505050506040513d6020811015620003e257600080fd5b5051600480546001600160a01b03199081166001600160a01b039384161782556003805482168b851617905560058054909116898416179055600d546040805163d8dfeb4560e01b81529051919093169263d8dfeb459281810192602092909190829003018186803b1580156200045857600080fd5b505afa1580156200046d573d6000803e3d6000fd5b505050506040513d60208110156200048457600080fd5b5051600e80546001600160a01b03199081166001600160a01b0393841617909155600f80549091168783161790556004541662000508576040805162461bcd60e51b815260206004820181905260248201527f4f70796e53616665536176696f75722f6e756c6c2d736166652d656e67696e65604482015290519081900360640190fd5b600254600d546040805163e824600f60e01b815290516000936a084595161401484a000000936001600160a01b03918216936375502d3c93919092169163e824600f916004808301926020929190829003018186803b1580156200056b57600080fd5b505afa15801562000580573d6000803e3d6000fd5b505050506040513d60208110156200059757600080fd5b5051604080516001600160e01b031960e085901b1681526004810192909252516024808301926020929190829003018186803b158015620005d757600080fd5b505afa158015620005ec573d6000803e3d6000fd5b505050506040513d60208110156200060357600080fd5b5051816200060d57fe5b04905060008111620006515760405162461bcd60e51b81526004018080602001828103825260288152602001806200393f6028913960400191505060405180910390fd5b620006648183116103e884111562000844565b620006a15760405162461bcd60e51b815260040180806020018281038252602e81526020018062003a8f602e913960400191505060405180910390fd5b600d60009054906101000a90046001600160a01b03166001600160a01b031663313ce5676040518163ffffffff1660e01b815260040160206040518083038186803b158015620006f057600080fd5b505afa15801562000705573d6000803e3d6000fd5b505050506040513d60208110156200071c57600080fd5b50516012146200075e5760405162461bcd60e51b815260040180806020018281038252602581526020018062003abd6025913960400191505060405180910390fd5b600d60009054906101000a90046001600160a01b03166001600160a01b03166341b3a0d96040518163ffffffff1660e01b815260040160206040518083038186803b158015620007ad57600080fd5b505afa158015620007c2573d6000803e3d6000fd5b505050506040513d6020811015620007d957600080fd5b505160011462000830576040805162461bcd60e51b815260206004820152601d60248201527f4f70796e53616665536176696f75722f6a6f696e2d64697361626c6564000000604482015290519081900360640190fd5b506009555062000848975050505050505050565b1690565b6130e780620008586000396000f3fe608060405234801561001057600080fd5b50600436106101f05760003560e01c806386426af41161010f578063c2ee3a08116100a2578063e5b5019a11610071578063e5b5019a1461045b578063ee236f2014610463578063f364e1801461046b578063f85fc0ab14610473576101f0565b8063c2ee3a081461041d578063d14d60d614610425578063d951e15a1461044b578063e2c0f58d14610453576101f0565b8063b2016bd4116100de578063b2016bd41461036d578063b5a8689414610375578063b9b0bb39146103a1578063bb287baf146103f7576101f0565b806386426af4146103235780638dbdbe6d1461032b5780638f7e43e81461035d578063aca542d914610365576101f0565b806356b7661e116101875780636a146024116101565780636a146024146102d257806374db5962146102da57806383d35fc5146102fd578063851cad901461029a576101f0565b806356b7661e146102b257806357c90441146102ba5780635bfd62a6146102c257806367aea313146102ca576101f0565b806344bf3c72116101c357806344bf3c72146102925780634b4d66871461029a5780634faf61ab146102a2578063552033c4146102aa576101f0565b8063097ab423146101f55780632f4bab6d146102375780634094a2fa14610251578063441a3e701461026d575b600080fd5b61021b6004803603602081101561020b57600080fd5b50356001600160a01b031661047b565b604080516001600160a01b039092168252519081900360200190f35b61023f610496565b60408051918252519081900360200190f35b61025961049c565b604080519115158252519081900360200190f35b6102906004803603604081101561028357600080fd5b50803590602001356106bc565b005b61021b610b9a565b61023f610ba9565b61021b610baf565b61023f610bbe565b61023f610bce565b61021b610bd4565b61023f610be3565b61021b610be9565b61023f610bf8565b610290600480360360408110156102f057600080fd5b5080359060200135610c04565b6102596004803603602081101561031357600080fd5b50356001600160a01b0316611014565b61023f611108565b6102906004803603606081101561034157600080fd5b50803590602081013590604001356001600160a01b0316611110565b61023f611880565b61023f611886565b61021b611895565b61023f6004803603604081101561038b57600080fd5b50803590602001356001600160a01b03166118a4565b6103d7600480360360608110156103b757600080fd5b506001600160a01b038135811691602081013591604090910135166118c1565b604080519315158452602084019290925282820152519081900360600190f35b61023f6004803603602081101561040d57600080fd5b50356001600160a01b0316612443565b61023f612455565b61023f6004803603602081101561043b57600080fd5b50356001600160a01b031661245a565b61021b6129c5565b61021b6129d4565b61023f6129e3565b61023f6129e9565b61021b612c03565b61023f612c12565b600c602052600090815260409020546001600160a01b031681565b60095481565b600254600d546040805163e824600f60e01b8152905160009384936001600160a01b039182169363d07900bb93919092169163e824600f916004808301926020929190829003018186803b1580156104f357600080fd5b505afa158015610507573d6000803e3d6000fd5b505050506040513d602081101561051d57600080fd5b5051604080516001600160e01b031960e085901b1681526004810192909252516024808301926060929190829003018186803b15801561055c57600080fd5b505afa158015610570573d6000803e3d6000fd5b505050506040513d606081101561058657600080fd5b5051604080516320531bc960e01b8152905191925060009182916001600160a01b038516916320531bc991600480820192602092909190829003018186803b1580156105d157600080fd5b505afa1580156105e5573d6000803e3d6000fd5b505050506040513d60208110156105fb57600080fd5b5051604080516309fa15b560e31b815281516001600160a01b0390931692634fd0ada892600480840193919291829003018186803b15801561063c57600080fd5b505afa158015610650573d6000803e3d6000fd5b505050506040513d604081101561066657600080fd5b508051602090910151909250905061068081158315612c17565b1561069157600093505050506106b9565b670de0b6b3a76400006106a660065484612c1b565b816106ad57fe5b04600754111593505050505b90565b338281610709576040805162461bcd60e51b815260206004820152601660248201527529b0b332a9b0bb34b7bab917b73ab63616b7bbb732b960511b604482015290519081900360640190fd5b600354604080516351526bb760e11b8152600481018490529051610892926001600160a01b03169163a2a4d76e916024808301926020929190829003018186803b15801561075657600080fd5b505afa15801561076a573d6000803e3d6000fd5b505050506040513d602081101561078057600080fd5b5051600354604080516351526bb760e11b81526004810186905290516001600160a01b03938416878516149390921691634fa053b191839163a2a4d76e91602480820192602092909190829003018186803b1580156107de57600080fd5b505afa1580156107f2573d6000803e3d6000fd5b505050506040513d602081101561080857600080fd5b5051604080516001600160e01b031960e085901b1681526001600160a01b039283166004820152602481018890529188166044830152516064808301926020929190829003018186803b15801561085e57600080fd5b505afa158015610872573d6000803e3d6000fd5b505050506040513d602081101561088857600080fd5b5051600114612c17565b6108e3576040805162461bcd60e51b815260206004820152601b60248201527f53616665536176696f75722f6e6f742d6f776e696e672d736166650000000000604482015290519081900360640190fd5b6002600054141561093b576040805162461bcd60e51b815260206004820152601f60248201527f5265656e7472616e637947756172643a207265656e7472616e742063616c6c00604482015290519081900360640190fd5b60026000558261097c5760405162461bcd60e51b815260040180806020018281038252602b815260200180612f23602b913960400191505060405180910390fd5b6003546040805163434efcbd60e01b81526004810187905290516000926001600160a01b03169163434efcbd916024808301926020929190829003018186803b1580156109c857600080fd5b505afa1580156109dc573d6000803e3d6000fd5b505050506040513d60208110156109f257600080fd5b50516001600160a01b0381166000908152600b6020526040902054909150841115610a4e5760405162461bcd60e51b815260040180806020018281038252602681526020018061305a6026913960400191505060405180910390fd5b6001600160a01b0381166000908152600b6020526040902054610a719085612c7d565b6001600160a01b038083166000908152600b6020908152604080832094909455600c815283822054845163a9059cbb60e01b8152336004820152602481018a9052945193169363a9059cbb9360448083019491928390030190829087803b158015610adb57600080fd5b505af1158015610aef573d6000803e3d6000fd5b505050506040513d6020811015610b0557600080fd5b50506001600160a01b0381166000908152600b6020526040902054610b4b576001600160a01b0381166000908152600c6020526040902080546001600160a01b03191690555b6040805185815290516001600160a01b03831691879133917f457f950b75085c30ff780acd57bde642ff1316cc4aad9f286af2c1ffc4163a78919081900360200190a450506001600055505050565b6001546001600160a01b031681565b6103e881565b6002546001600160a01b031681565b6b033b2e3c9fd0803ce800000081565b60085481565b6003546001600160a01b031681565b60075481565b6004546001600160a01b031681565b670de0b6b3a764000081565b338281610c51576040805162461bcd60e51b815260206004820152601660248201527529b0b332a9b0bb34b7bab917b73ab63616b7bbb732b960511b604482015290519081900360640190fd5b600354604080516351526bb760e11b8152600481018490529051610c9e926001600160a01b03169163a2a4d76e916024808301926020929190829003018186803b15801561075657600080fd5b610cef576040805162461bcd60e51b815260206004820152601b60248201527f53616665536176696f75722f6e6f742d6f776e696e672d736166650000000000604482015290519081900360640190fd5b600254600d546040805163e824600f60e01b815290516000936a084595161401484a000000936001600160a01b03918216936375502d3c93919092169163e824600f916004808301926020929190829003018186803b158015610d5157600080fd5b505afa158015610d65573d6000803e3d6000fd5b505050506040513d6020811015610d7b57600080fd5b5051604080516001600160e01b031960e085901b1681526004810192909252516024808301926020929190829003018186803b158015610dba57600080fd5b505afa158015610dce573d6000803e3d6000fd5b505050506040513d6020811015610de457600080fd5b505181610ded57fe5b6003546040805163434efcbd60e01b8152600481018a905290519390920493506000926001600160a01b039091169163434efcbd916024808301926020929190829003018186803b158015610e4157600080fd5b505afa158015610e55573d6000803e3d6000fd5b505050506040513d6020811015610e6b57600080fd5b5051905081610eab5760405162461bcd60e51b8152600401808060200182810382526028815260200180612db56028913960400191505060405180910390fd5b848210610ee95760405162461bcd60e51b8152600401808060200182810382526026815260200180612efd6026913960400191505060405180910390fd5b6103e8851115610f2a5760405162461bcd60e51b8152600401808060200182810382526022815260200180612e0a6022913960400191505060405180910390fd5b84600a6000600d60009054906101000a90046001600160a01b03166001600160a01b031663e824600f6040518163ffffffff1660e01b815260040160206040518083038186803b158015610f7d57600080fd5b505afa158015610f91573d6000803e3d6000fd5b505050506040513d6020811015610fa757600080fd5b50518152602081810192909252604090810160009081206001600160a01b038616808352908452908290209390935580518881529051899233927ff3e2ede39d07e1a6e23c2557ac40ad8b94b311a0515c0ef868c62aab07ea89e2929081900390910190a4505050505050565b6000806110208361245a565b9050600019811415611036576000915050611103565b6001600160a01b0383166000908152600b602052604090205461105d576000915050611103565b61106981600654612cbf565b600f546001600160a01b038581166000908152600c6020908152604080832054600b835292819020548151635600be3f60e11b81529385166004850152602484015251929093169263ac017c7e92604480840193829003018186803b1580156110d157600080fd5b505afa1580156110e5573d6000803e3d6000fd5b505050506040513d60208110156110fb57600080fd5b505110159150505b919050565b633b9aca0081565b60015460408051631589b68960e21b81523060048201819052915191926001600160a01b031691635626da2491602480820192602092909190829003018186803b15801561115d57600080fd5b505afa158015611171573d6000803e3d6000fd5b505050506040513d602081101561118757600080fd5b50516001146111c75760405162461bcd60e51b815260040180806020018281038252602e815260200180612fe4602e913960400191505060405180910390fd5b338481611214576040805162461bcd60e51b815260206004820152601660248201527529b0b332a9b0bb34b7bab917b73ab63616b7bbb732b960511b604482015290519081900360640190fd5b600354604080516351526bb760e11b8152600481018490529051611261926001600160a01b03169163a2a4d76e916024808301926020929190829003018186803b15801561075657600080fd5b6112b2576040805162461bcd60e51b815260206004820152601b60248201527f53616665536176696f75722f6e6f742d6f776e696e672d736166650000000000604482015290519081900360640190fd5b6002600054141561130a576040805162461bcd60e51b815260206004820152601f60248201527f5265656e7472616e637947756172643a207265656e7472616e742063616c6c00604482015290519081900360640190fd5b60026000558461134b5760405162461bcd60e51b8152600401808060200182810382526022815260200180612e7e6022913960400191505060405180910390fd5b600f5460408051633a7685eb60e01b81526001600160a01b03878116600483015291519190921691633a7685eb916024808301926020929190829003018186803b15801561139857600080fd5b505afa1580156113ac573d6000803e3d6000fd5b505050506040513d60208110156113c257600080fd5b5051151560011461141a576040805162461bcd60e51b815260206004820181905260248201527f4f70796e53616665536176696f75722f666f7262696464656e2d6f746f6b656e604482015290519081900360640190fd5b6003546040805163434efcbd60e01b81526004810189905290516000926001600160a01b03169163434efcbd916024808301926020929190829003018186803b15801561146657600080fd5b505afa15801561147a573d6000803e3d6000fd5b505050506040513d602081101561149057600080fd5b505190506001600160a01b0381166114ef576040805162461bcd60e51b815260206004820152601c60248201527f4f70796e53616665536176696f75722f6e756c6c2d68616e646c657200000000604482015290519081900360640190fd5b6001600160a01b038181166000908152600c602052604090205461151c9190811690871681149015612c17565b6115575760405162461bcd60e51b815260040180806020018281038252602b815260200180612e53602b913960400191505060405180910390fd5b600d54604080516367aea31360e01b815290516000926001600160a01b0316916367aea313916004808301926020929190829003018186803b15801561159c57600080fd5b505afa1580156115b0573d6000803e3d6000fd5b505050506040513d60208110156115c657600080fd5b5051600d546040805163e824600f60e01b815290516001600160a01b0393841693633d42250493169163e824600f916004808301926020929190829003018186803b15801561161457600080fd5b505afa158015611628573d6000803e3d6000fd5b505050506040513d602081101561163e57600080fd5b5051604080516001600160e01b031960e085901b16815260048101929092526001600160a01b03861660248301528051604480840193829003018186803b15801561168857600080fd5b505afa15801561169c573d6000803e3d6000fd5b505050506040513d60408110156116b257600080fd5b50602001519050806116f55760405162461bcd60e51b8152600401808060200182810382526027815260200180612e2c6027913960400191505060405180910390fd5b604080516323b872dd60e01b81523360048201523060248201526044810189905290516001600160a01b038816916323b872dd9160648083019260209291908290030181600087803b15801561174a57600080fd5b505af115801561175e573d6000803e3d6000fd5b505050506040513d602081101561177457600080fd5b50516117b15760405162461bcd60e51b81526004018080602001828103825260328152602001806130806032913960400191505060405180910390fd5b6001600160a01b0382166000908152600b60205260409020546117d49088612cbf565b6001600160a01b038084166000908152600b6020908152604080832094909455600c9052919091205416611831576001600160a01b038281166000908152600c6020526040902080546001600160a01b0319169188169190911790555b6040805188815290516001600160a01b0384169133917f5548c837ab068cf56a2c2479df0882a4922fd203edb7517321831d95078c5f629181900360200190a350506001600055505050505050565b60065481565b6a084595161401484a00000081565b600e546001600160a01b031681565b600a60209081526000928352604080842090915290825290205481565b600154600090819081906001600160a01b031633146119115760405162461bcd60e51b815260040180806020018281038252602d815260200180612ddd602d913960400191505060405180910390fd5b6001600160a01b0386166119565760405162461bcd60e51b8152600401808060200182810382526023815260200180612f966023913960400191505060405180910390fd5b61198461196e86156001600160a01b03871615612d19565b6001546001600160a01b03898116911614612d19565b1561199957506001915060001990508061243a565b600d60009054906101000a90046001600160a01b03166001600160a01b031663e824600f6040518163ffffffff1660e01b815260040160206040518083038186803b1580156119e757600080fd5b505afa1580156119fb573d6000803e3d6000fd5b505050506040513d6020811015611a1157600080fd5b50518514611a505760405162461bcd60e51b8152600401808060200182810382526027815260200180612f4e6027913960400191505060405180910390fd5b6001600160a01b038481166000908152600c602052604090205416611aa65760405162461bcd60e51b81526004018080602001828103825260228152602001806130126022913960400191505060405180910390fd5b611aae61049c565b611ae95760405162461bcd60e51b8152600401808060200182810382526029815260200180612ea06029913960400191505060405180910390fd5b6000611af48561245a565b90506000600d60009054906101000a90046001600160a01b03166001600160a01b03166367aea3136040518163ffffffff1660e01b815260040160206040518083038186803b158015611b4657600080fd5b505afa158015611b5a573d6000803e3d6000fd5b505050506040513d6020811015611b7057600080fd5b5051600d546040805163e824600f60e01b815290516001600160a01b0393841693633d42250493169163e824600f916004808301926020929190829003018186803b158015611bbe57600080fd5b505afa158015611bd2573d6000803e3d6000fd5b505050506040513d6020811015611be857600080fd5b5051604080516001600160e01b031960e085901b16815260048101929092526001600160a01b038a1660248301528051604480840193829003018186803b158015611c3257600080fd5b505afa158015611c46573d6000803e3d6000fd5b505050506040513d6040811015611c5c57600080fd5b5051600654600854919250611c7091612c1b565b811015611cc4576040805162461bcd60e51b815260206004820152601960248201527f4f70796e53616665536176696f75722f74696e792d7361666500000000000000604482015290519081900360640190fd5b50611cd6600019821415821515612d19565b611d115760405162461bcd60e51b815260040180806020018281038252602b815260200180612fb9602b913960400191505060405180910390fd5b6000611d1f60065483612cbf565b600f546001600160a01b038881166000908152600c6020908152604080832054600e54825163362bd41960e21b81529186166004830152602482018890528516604482015290519596509194929093169263d8af506492606480840193829003018186803b158015611d9057600080fd5b505afa158015611da4573d6000803e3d6000fd5b505050506040513d6020811015611dba57600080fd5b50516001600160a01b0388166000908152600b6020526040902054909150811115611e165760405162461bcd60e51b81526004018080602001828103825260268152602001806130346026913960400191505060405180910390fd5b6001600160a01b038088166000908152600c6020908152604080832054600f54825163095ea7b360e01b8152908616600482015260248101879052915194169363095ea7b393604480840194938390030190829087803b158015611e7957600080fd5b505af1158015611e8d573d6000803e3d6000fd5b505050506040513d6020811015611ea357600080fd5b5050600e54604080516370a0823160e01b815230600482015290516000926001600160a01b0316916370a0823191602480830192602092919082900301818787803b158015611ef157600080fd5b505af1158015611f05573d6000803e3d6000fd5b505050506040513d6020811015611f1b57600080fd5b5051600f546001600160a01b038a81166000908152600c602052604080822054600e54825163aea1a4a760e01b8152918516600483015260248201899052604482018a9052841660648201529051949550919092169263aea1a4a79260848084019391929182900301818387803b158015611f9557600080fd5b505af1158015611fa9573d6000803e3d6000fd5b5050600e54604080516370a0823160e01b815230600482015290516000945061203293506001600160a01b03909216916370a082319160248082019260209290919082900301818887803b15801561200057600080fd5b505af1158015612014573d6000803e3d6000fd5b505050506040513d602081101561202a57600080fd5b505183612c7d565b9050838110156120735760405162461bcd60e51b8152600401808060200182810382526034815260200180612ec96034913960400191505060405180910390fd5b60055460408051634b6973a160e11b8152600481018d90526001600160a01b038c81166024830152915191909216916396d2e74291604480830192600092919082900301818387803b1580156120c857600080fd5b505af11580156120dc573d6000803e3d6000fd5b5050600e54600d546040805163095ea7b360e01b81526001600160a01b039283166004820152600060248201819052915192909316945063095ea7b39350604480840193602093929083900390910190829087803b15801561213d57600080fd5b505af1158015612151573d6000803e3d6000fd5b505050506040513d602081101561216757600080fd5b5050600e54600d546040805163095ea7b360e01b81526001600160a01b039283166004820152602481018990529051919092169163095ea7b39160448083019260209291908290030181600087803b1580156121c257600080fd5b505af11580156121d6573d6000803e3d6000fd5b505050506040513d60208110156121ec57600080fd5b5050600d5460408051633b4da69f60e01b81523060048201526024810188905290516001600160a01b0390921691633b4da69f9160448082019260009290919082900301818387803b15801561224157600080fd5b505af1158015612255573d6000803e3d6000fd5b505060048054600d546040805163e824600f60e01b815290516001600160a01b0393841696506399bec3159550929091169263e824600f928282019260209290829003018186803b1580156122a957600080fd5b505afa1580156122bd573d6000803e3d6000fd5b505050506040513d60208110156122d357600080fd5b5051604080516001600160e01b031960e085901b16815260048101929092526001600160a01b038d166024830152306044830152600060648301819052608483018a905260a48301819052905160c48084019382900301818387803b15801561233b57600080fd5b505af115801561234f573d6000803e3d6000fd5b5050600e546001600160a01b0316915063a9059cbb90508c6123718489612c7d565b6040518363ffffffff1660e01b815260040180836001600160a01b0316815260200182815260200192505050602060405180830381600087803b1580156123b757600080fd5b505af11580156123cb573d6000803e3d6000fd5b505050506040513d60208110156123e157600080fd5b50506040805186815290516001600160a01b03808c16928d92918f16917f10a18796c8582ce78a5fd5fac9222c8ee18b16bd1523926d8803567527aac3609181900360200190a460018560065497509750975050505050505b93509350939050565b600b6020526000908152604090205481565b600181565b6000806000600d60009054906101000a90046001600160a01b03166001600160a01b03166367aea3136040518163ffffffff1660e01b815260040160206040518083038186803b1580156124ad57600080fd5b505afa1580156124c1573d6000803e3d6000fd5b505050506040513d60208110156124d757600080fd5b5051600d546040805163e824600f60e01b815290516001600160a01b0393841693633d42250493169163e824600f916004808301926020929190829003018186803b15801561252557600080fd5b505afa158015612539573d6000803e3d6000fd5b505050506040513d602081101561254f57600080fd5b5051604080516001600160e01b031960e085901b16815260048101929092526001600160a01b03881660248301528051604480840193829003018186803b15801561259957600080fd5b505afa1580156125ad573d6000803e3d6000fd5b505050506040513d60408110156125c357600080fd5b508051602091820151600254600d546040805163e824600f60e01b815290519497509295506000946001600160a01b039283169463d07900bb94939092169263e824600f9260048083019392829003018186803b15801561262357600080fd5b505afa158015612637573d6000803e3d6000fd5b505050506040513d602081101561264d57600080fd5b5051604080516001600160e01b031960e085901b1681526004810192909252516024808301926060929190829003018186803b15801561268c57600080fd5b505afa1580156126a0573d6000803e3d6000fd5b505050506040513d60608110156126b657600080fd5b5051604080516309fa15b560e31b8152815192935060009283926001600160a01b03861692634fd0ada89260048083019392829003018186803b1580156126fc57600080fd5b505afa158015612710573d6000803e3d6000fd5b505050506040513d604081101561272657600080fd5b508051602090910151909250905061274a841561274584158415612c17565b612c17565b1561275e5760001995505050505050611103565b6000600a6000600d60009054906101000a90046001600160a01b03166001600160a01b031663e824600f6040518163ffffffff1660e01b815260040160206040518083038186803b1580156127b257600080fd5b505afa1580156127c6573d6000803e3d6000fd5b505050506040513d60208110156127dc57600080fd5b50518152602081810192909252604090810160009081206001600160a01b038c168252909252902054156128b457600a6000600d60009054906101000a90046001600160a01b03166001600160a01b031663e824600f6040518163ffffffff1660e01b815260040160206040518083038186803b15801561285c57600080fd5b505afa158015612870573d6000803e3d6000fd5b505050506040513d602081101561288657600080fd5b50518152602081810192909252604090810160009081206001600160a01b038c1682529092529020546128b8565b6009545b90506000606461296b6129656b033b2e3c9fd0803ce8000000612956600260009054906101000a90046001600160a01b03166001600160a01b031663c5b748c06040518163ffffffff1660e01b8152600401602060405180830381600087803b15801561292457600080fd5b505af1158015612938573d6000803e3d6000fd5b505050506040513d602081101561294e57600080fd5b50518b612c1b565b8161295d57fe5b046001612cbf565b84612c1b565b8161297257fe5b04905060008461298a83670de0b6b3a7640000612c1b565b8161299157fe5b0490508781116129ac57600098505050505050505050611103565b6129b68189612c7d565b98505050505050505050611103565b6005546001600160a01b031681565b600f546001600160a01b031681565b60001981565b600254600d546040805163e824600f60e01b8152905160009384936001600160a01b039182169363d07900bb93919092169163e824600f916004808301926020929190829003018186803b158015612a4057600080fd5b505afa158015612a54573d6000803e3d6000fd5b505050506040513d6020811015612a6a57600080fd5b5051604080516001600160e01b031960e085901b1681526004810192909252516024808301926060929190829003018186803b158015612aa957600080fd5b505afa158015612abd573d6000803e3d6000fd5b505050506040513d6060811015612ad357600080fd5b5051604080516320531bc960e01b8152905191925060009182916001600160a01b038516916320531bc991600480820192602092909190829003018186803b158015612b1e57600080fd5b505afa158015612b32573d6000803e3d6000fd5b505050506040513d6020811015612b4857600080fd5b5051604080516309fa15b560e31b815281516001600160a01b0390931692634fd0ada892600480840193919291829003018186803b158015612b8957600080fd5b505afa158015612b9d573d6000803e3d6000fd5b505050506040513d6040811015612bb357600080fd5b5080516020909101519092509050612bcd81158315612c17565b15612bde57600093505050506106b9565b670de0b6b3a7640000612bf360065484612c1b565b81612bfa57fe5b04935050505090565b600d546001600160a01b031681565b606481565b1790565b600082612c2a57506000612c77565b82820282848281612c3757fe5b0414612c745760405162461bcd60e51b8152600401808060200182810382526021815260200180612f756021913960400191505060405180910390fd5b90505b92915050565b6000612c7483836040518060400160405280601e81526020017f536166654d6174683a207375627472616374696f6e206f766572666c6f770000815250612d1d565b600082820183811015612c74576040805162461bcd60e51b815260206004820152601b60248201527f536166654d6174683a206164646974696f6e206f766572666c6f770000000000604482015290519081900360640190fd5b1690565b60008184841115612dac5760405162461bcd60e51b81526004018080602001828103825283818151815260200191508051906020019080838360005b83811015612d71578181015183820152602001612d59565b50505050905090810190601f168015612d9e5780820380516001836020036101000a031916815260200191505b509250505060405180910390fd5b50505090039056fe4f70796e53616665536176696f75722f696e76616c69642d7363616c65642d6c69712d726174696f4f70796e53616665536176696f75722f63616c6c65722d6e6f742d6c69717569646174696f6e2d656e67696e654f70796e53616665536176696f75722f657863656564732d6d61782d63726174696f4f70796e53616665536176696f75722f736166652d646f65732d6e6f742d686176652d646562744f70796e53616665536176696f75722f736166652d6f746f6b656e2d696e636f6d7061746962696c6974794f70796e53616665536176696f75722f6e756c6c2d6f546f6b656e2d616d6f756e744f70796e53616665536176696f75722f736d616c6c2d6b65657065722d7061796f75742d76616c75654f70796e53616665536176696f75722f6e6f742d656e6f7567682d6f746f6b656e2d636f6c6c61746572616c2d737761707065644f70796e53616665536176696f75722f696e76616c69642d646573697265642d63726174696f4f70796e53616665536176696f75722f6e756c6c2d636f6c6c61746572616c546f6b656e2d616d6f756e744f70796e53616665536176696f75722f696e76616c69642d636f6c6c61746572616c2d74797065536166654d6174683a206d756c7469706c69636174696f6e206f766572666c6f774f70796e53616665536176696f75722f6e756c6c2d6b65657065722d616464726573734f70796e53616665536176696f75722f696e76616c69642d746f6b656e732d757365642d746f2d7361766553616665536176696f75722f6e6f742d617070726f7665642d696e2d6c69717569646174696f6e2d656e67696e654f70796e53616665536176696f75722f6e6f2d73656c65637465642d6f746f6b656e4f70796e53616665536176696f75722f6f746f6b656e2d62616c616e63652d746f6f2d6c6f774f70796e53616665536176696f75722f6e6f742d656e6f7567682d746f2d77697468647261774f70796e53616665536176696f75722f636f756c642d6e6f742d7472616e736665722d636f6c6c61746572616c546f6b656ea26469706673582212200efdb3c5a86d1721f8bc5dac21312be302e5e0ccdfecd043e82ba5b1c13fa14c64736f6c634300070600334f70796e53616665536176696f75722f696e76616c69642d7363616c65642d6c69712d726174696f4f70796e53616665536176696f75722f696e76616c69642d6b65657065722d7061796f75744f70796e53616665536176696f75722f6e756c6c2d736166652d6d616e616765724f70796e53616665536176696f75722f6e756c6c2d64656661756c742d63726174696f4f70796e53616665536176696f75722f696e76616c69642d7061796f75742d746f2d736166652d73697a654f70796e53616665536176696f75722f696e76616c69642d6d696e2d7061796f75742d76616c75654f70796e53616665536176696f75722f6e756c6c2d736176696f75722d72656769737472794f70796e53616665536176696f75722f6e756c6c2d636f6c6c61746572616c2d6a6f696e4f70796e53616665536176696f75722f6e756c6c2d6f7261636c652d72656c617965724f70796e53616665536176696f75722f696e76616c69642d64656661756c742d646573697265642d63726174696f4f70796e53616665536176696f75722f696e76616c69642d6a6f696e2d646563696d616c734f70796e53616665536176696f75722f6e756c6c2d6f70796e2d736166652d736176696f75722d6f70657261746f724f70796e53616665536176696f75722f6e756c6c2d6c69717569646174696f6e2d656e67696e65",
  "linkReferences": {},
  "deployedLinkReferences": {}
}