{
  "_format": "hh-sol-artifact-1",
  "contractName": "SaviourRegistryMock",
  "sourceName": "contracts/test-utils/SaviourRegistryMock.sol",
  "abi": [
    {
      "inputs": [
        {
          "internalType": "address",
          "name": "_account",
          "type": "address"
        },
        {
          "internalType": "uint256",
          "name": "value",
          "type": "uint256"
        }
      ],
      "name": "authorizeAccount",
      "outputs": [],
      "stateMutability": "nonpayable",
      "type": "function"
    },
    {
      "inputs": [
        {
          "internalType": "address",
          "name": "",
          "type": "address"
        }
      ],
      "name": "authorizedAccounts",
      "outputs": [
        {
          "internalType": "uint256",
          "name": "",
          "type": "uint256"
        }
      ],
      "stateMutability": "view",
      "type": "function"
    },
    {
      "inputs": [
        {
          "internalType": "bytes32",
          "name": "",
          "type": "bytes32"
        },
        {
          "internalType": "address",
          "name": "",
          "type": "address"
        }
      ],
      "name": "markSave",
      "outputs": [],
      "stateMutability": "nonpayable",
      "type": "function"
    }
  ],
  "bytecode": "0x608060405234801561001057600080fd5b50610147806100206000396000f3fe608060405234801561001057600080fd5b50600436106100415760003560e01c806324ba5884146100465780638104ed9a1461007e57806396d2e742146100ac575b600080fd5b61006c6004803603602081101561005c57600080fd5b50356001600160a01b03166100d8565b60408051918252519081900360200190f35b6100aa6004803603604081101561009457600080fd5b506001600160a01b0381351690602001356100ea565b005b6100aa600480360360408110156100c257600080fd5b50803590602001356001600160a01b031661010d565b60006020819052908152604090205481565b6001600160a01b0391909116600090815260208190526040902060019091169055565b505056fea26469706673582212205942dedb7e2fa5a16dc88da181868d55f27bc5b00ce31dd44c53ee8e257c48f964736f6c63430007060033",
  "linkReferences": {},
  "deployedLinkReferences": {}
}