{
  "_format": "hh-sol-artifact-1",
  "contractName": "SaviourRegistryMock",
  "sourceName": "contracts/test-utils/SaviourRegistryMock.sol",
  "abi": [
    {
      "inputs": [
        {
          "internalType": "address",
          "name": "_account",
          "type": "address"
        },
        {
          "internalType": "uint256",
          "name": "value",
          "type": "uint256"
        }
      ],
      "name": "authorizeAccount",
      "outputs": [],
      "stateMutability": "nonpayable",
      "type": "function"
    },
    {
      "inputs": [
        {
          "internalType": "address",
          "name": "",
          "type": "address"
        }
      ],
      "name": "authorizedAccounts",
      "outputs": [
        {
          "internalType": "uint256",
          "name": "",
          "type": "uint256"
        }
      ],
      "stateMutability": "view",
      "type": "function"
    },
    {
      "inputs": [
        {
          "internalType": "bytes32",
          "name": "c__0x84fe5ae6",
          "type": "bytes32"
        }
      ],
      "name": "c_0x84fe5ae6",
      "outputs": [],
      "stateMutability": "pure",
      "type": "function"
    },
    {
      "inputs": [
        {
          "internalType": "bytes32",
          "name": "c__0x8c2892e7",
          "type": "bytes32"
        }
      ],
      "name": "c_0x8c2892e7",
      "outputs": [],
      "stateMutability": "pure",
      "type": "function"
    },
    {
      "inputs": [
        {
          "internalType": "bytes32",
          "name": "",
          "type": "bytes32"
        },
        {
          "internalType": "address",
          "name": "",
          "type": "address"
        }
      ],
      "name": "markSave",
      "outputs": [],
      "stateMutability": "nonpayable",
      "type": "function"
    }
  ],
  "bytecode": "0x608060405234801561001057600080fd5b50610305806100206000396000f3fe608060405234801561001057600080fd5b50600436106100575760003560e01c806324ba58841461005c578063572f6482146100b45780637def10e9146100e25780638104ed9a1461011057806396d2e7421461015e575b600080fd5b61009e6004803603602081101561007257600080fd5b81019080803573ffffffffffffffffffffffffffffffffffffffff1690602001909291905050506101ac565b6040518082815260200191505060405180910390f35b6100e0600480360360208110156100ca57600080fd5b81019080803590602001909291905050506101c4565b005b61010e600480360360208110156100f857600080fd5b81019080803590602001909291905050506101c7565b005b61015c6004803603604081101561012657600080fd5b81019080803573ffffffffffffffffffffffffffffffffffffffff169060200190929190803590602001909291905050506101ca565b005b6101aa6004803603604081101561017457600080fd5b8101908080359060200190929190803573ffffffffffffffffffffffffffffffffffffffff16906020019092919050505061029f565b005b60006020528060005260406000206000915090505481565b50565b50565b6101f67fe4ed5e30bb879bd164ad277572060937fc63e841a6f80d77146b19494ed173b460001b6101c4565b6102227f3dbbb294ed97f7b8b030f11ff5b6c442c93bf626cdd2f954c653894b27a10c5660001b6101c4565b61024e7f42759ed2c1939f48e806ec3c48bbf5545fcc042c81244a5e06f8b73b31cabf7660001b6101c4565b6002818161025857fe5b066000808473ffffffffffffffffffffffffffffffffffffffff1673ffffffffffffffffffffffffffffffffffffffff168152602001908152602001600020819055505050565b6102cb7fc893daa1a72a99881672c722c97b53f899944df9b4411823a900b6b5e9b143e560001b6101c4565b505056fea26469706673582212204d766e251c587acc61c2e3ffa2dfa7dc835095f1812de667d0cf56080ffb3eee64736f6c63430007060033",
  "linkReferences": {},
  "deployedLinkReferences": {}
}