{
  "_format": "hh-sol-artifact-1",
  "contractName": "SafeManagerMock",
  "sourceName": "contracts/test-utils/SafeManagerMock.sol",
  "abi": [
    {
      "inputs": [
        {
          "internalType": "uint256",
          "name": "id",
          "type": "uint256"
        }
      ],
      "name": "ownsSAFE",
      "outputs": [
        {
          "internalType": "address",
          "name": "",
          "type": "address"
        }
      ],
      "stateMutability": "view",
      "type": "function"
    },
    {
      "inputs": [
        {
          "internalType": "address",
          "name": "owner",
          "type": "address"
        },
        {
          "internalType": "uint256",
          "name": "id",
          "type": "uint256"
        },
        {
          "internalType": "address",
          "name": "allowed",
          "type": "address"
        }
      ],
      "name": "safeCan",
      "outputs": [
        {
          "internalType": "uint256",
          "name": "",
          "type": "uint256"
        }
      ],
      "stateMutability": "view",
      "type": "function"
    },
    {
      "inputs": [
        {
          "internalType": "uint256",
          "name": "id",
          "type": "uint256"
        }
      ],
      "name": "safes",
      "outputs": [
        {
          "internalType": "address",
          "name": "",
          "type": "address"
        }
      ],
      "stateMutability": "view",
      "type": "function"
    },
    {
      "inputs": [
        {
          "internalType": "uint256",
          "name": "_id",
          "type": "uint256"
        },
        {
          "internalType": "address",
          "name": "_handler",
          "type": "address"
        },
        {
          "internalType": "address",
          "name": "_owner",
          "type": "address"
        }
      ],
      "name": "setSafe",
      "outputs": [],
      "stateMutability": "nonpayable",
      "type": "function"
    },
    {
      "inputs": [
        {
          "internalType": "address",
          "name": "owner",
          "type": "address"
        },
        {
          "internalType": "uint256",
          "name": "id",
          "type": "uint256"
        },
        {
          "internalType": "address",
          "name": "allowed",
          "type": "address"
        }
      ],
      "name": "toggleSafeCan",
      "outputs": [],
      "stateMutability": "nonpayable",
      "type": "function"
    }
  ],
  "bytecode": "0x608060405234801561001057600080fd5b50610280806100206000396000f3fe608060405234801561001057600080fd5b50600436106100575760003560e01c8063434efcbd1461005c5780634fa053b114610095578063781172c6146100dd578063a2a4d76e14610115578063b811f1b914610132575b600080fd5b6100796004803603602081101561007257600080fd5b5035610166565b604080516001600160a01b039092168252519081900360200190f35b6100cb600480360360608110156100ab57600080fd5b506001600160a01b03813581169160208101359160409091013516610181565b60408051918252519081900360200190f35b610113600480360360608110156100f357600080fd5b506001600160a01b038135811691602081013591604090910135166101b4565b005b6100796004803603602081101561012b57600080fd5b50356101ef565b6101136004803603606081101561014857600080fd5b508035906001600160a01b036020820135811691604001351661020a565b6000908152602081905260409020546001600160a01b031690565b6001600160a01b039283166000908152600260209081526040808320948352938152838220929094168152925290205490565b6001600160a01b0392831660009081526002602090815260408083209483529381528382209290941681529252902080546001908101169055565b6000908152600160205260409020546001600160a01b031690565b60009283526020838152604080852080546001600160a01b03199081166001600160a01b039687161790915560019092529093208054909316911617905556fea264697066735822122003aa5d824f273dec0a03ff3d19c09e4398e181cf33cb75ffa4aaed5ebe4c2ca064736f6c63430007060033",
  "linkReferences": {},
  "deployedLinkReferences": {}
}