{
  "_format": "hh-sol-artifact-1",
  "contractName": "OpynV2ControllerMock",
  "sourceName": "contracts/test-utils/OpynV2ControllerMock.sol",
  "abi": [
    {
      "inputs": [],
      "stateMutability": "nonpayable",
      "type": "constructor"
    },
    {
      "inputs": [
        {
          "internalType": "address",
          "name": "",
          "type": "address"
        },
        {
          "internalType": "address",
          "name": "",
          "type": "address"
        }
      ],
      "name": "balances",
      "outputs": [
        {
          "internalType": "uint256",
          "name": "",
          "type": "uint256"
        }
      ],
      "stateMutability": "view",
      "type": "function"
    },
    {
      "inputs": [
        {
          "internalType": "bytes32",
          "name": "c__0x7d0a064c",
          "type": "bytes32"
        }
      ],
      "name": "c_0x7d0a064c",
      "outputs": [],
      "stateMutability": "pure",
      "type": "function"
    },
    {
      "inputs": [
        {
          "internalType": "bytes32",
          "name": "c__0xeb2cae18",
          "type": "bytes32"
        }
      ],
      "name": "c_0xeb2cae18",
      "outputs": [],
      "stateMutability": "pure",
      "type": "function"
    },
    {
      "inputs": [
        {
          "internalType": "address",
          "name": "_otoken",
          "type": "address"
        },
        {
          "internalType": "address",
          "name": "_collateralAsset",
          "type": "address"
        },
        {
          "internalType": "uint256",
          "name": "_amount",
          "type": "uint256"
        }
      ],
      "name": "fundOtoken",
      "outputs": [],
      "stateMutability": "nonpayable",
      "type": "function"
    },
    {
      "inputs": [
        {
          "internalType": "address",
          "name": "_otoken",
          "type": "address"
        },
        {
          "internalType": "uint256",
          "name": "_amount",
          "type": "uint256"
        }
      ],
      "name": "getPayout",
      "outputs": [
        {
          "internalType": "uint256",
          "name": "",
          "type": "uint256"
        }
      ],
      "stateMutability": "view",
      "type": "function"
    },
    {
      "inputs": [
        {
          "components": [
            {
              "internalType": "enum ActionType",
              "name": "actionType",
              "type": "uint8"
            },
            {
              "internalType": "address",
              "name": "owner",
              "type": "address"
            },
            {
              "internalType": "address",
              "name": "secondAddress",
              "type": "address"
            },
            {
              "internalType": "address",
              "name": "asset",
              "type": "address"
            },
            {
              "internalType": "uint256",
              "name": "vaultId",
              "type": "uint256"
            },
            {
              "internalType": "uint256",
              "name": "amount",
              "type": "uint256"
            },
            {
              "internalType": "uint256",
              "name": "index",
              "type": "uint256"
            },
            {
              "internalType": "bytes",
              "name": "data",
              "type": "bytes"
            }
          ],
          "internalType": "struct ActionArgs[]",
          "name": "_actions",
          "type": "tuple[]"
        }
      ],
      "name": "operate",
      "outputs": [],
      "stateMutability": "nonpayable",
      "type": "function"
    },
    {
      "inputs": [],
      "name": "owner",
      "outputs": [
        {
          "internalType": "address",
          "name": "",
          "type": "address"
        }
      ],
      "stateMutability": "view",
      "type": "function"
    },
    {
      "inputs": [
        {
          "internalType": "address",
          "name": "",
          "type": "address"
        }
      ],
      "name": "redeemable",
      "outputs": [
        {
          "internalType": "uint256",
          "name": "",
          "type": "uint256"
        }
      ],
      "stateMutability": "view",
      "type": "function"
    },
    {
      "inputs": [
        {
          "internalType": "address",
          "name": "_otoken",
          "type": "address"
        }
      ],
      "name": "toggleRedeemable",
      "outputs": [],
      "stateMutability": "nonpayable",
      "type": "function"
    }
  ],
  "bytecode": "0x60806040523480156200001157600080fd5b50620000467fee68b0d8deb7dc757465f358d3c5db18aeac1cd829811cdd42622fe1f44a026060001b620000f560201b60201c565b6200007a7fa9dbf6855bd8bf539dec86cee166c443f7e9469d250f69dbb17c9171559003ef60001b620000f560201b60201c565b620000ae7f91c189a30463627034912373380d35b75a228b2e7dc12a82e69b2a548671f7f060001b620000f560201b60201c565b33600260006101000a81548173ffffffffffffffffffffffffffffffffffffffff021916908373ffffffffffffffffffffffffffffffffffffffff160217905550620000f8565b50565b611f2780620001086000396000f3fe608060405234801561001057600080fd5b50600436106100935760003560e01c8063565eea1911610066578063565eea191461011c5780638da5cb5b1461014c578063b617f0c61461016a578063c23f001f14610186578063ffd6261b146101b657610093565b80630e52c8761461009857806330cc9db0146100b45780633c1a82b0146100d0578063484267a4146100ec575b600080fd5b6100b260048036038101906100ad9190611858565b6101d2565b005b6100ce60048036038101906100c99190611946565b610480565b005b6100ea60048036038101906100e59190611a3f565b6106ee565b005b61010660048036038101906101019190611858565b6106f1565b6040516101139190611dac565b60405180910390f35b61013660048036038101906101319190611995565b610709565b6040516101439190611dac565b60405180910390f35b610154610b06565b6040516101619190611c4d565b60405180910390f35b610184600480360381019061017f91906119d1565b610b2c565b005b6101a0600480360381019061019b9190611881565b611753565b6040516101ad9190611dac565b60405180910390f35b6101d060048036038101906101cb9190611a3f565b611778565b005b6101fe7f793382813a197f2efa3f66ef1399f5b2e2b56048554cfb46ded889e0f7c8906c60001b6106ee565b61022a7fece4c5eccaa801ef9805f6912b4456aad4a83ce15eda8aaf25b4de8e664b7bc460001b6106ee565b6102567fe4419094c4453b70fc169ac3d02a2530f648faa127f2d8d1a3809d9c5041d78b60001b6106ee565b6102827f0458d4b19339d58b66cdc4a62372757d46fd7aad87dba8620e1919d57422082660001b6106ee565b3373ffffffffffffffffffffffffffffffffffffffff16600260009054906101000a900473ffffffffffffffffffffffffffffffffffffffff1673ffffffffffffffffffffffffffffffffffffffff1614610312576040517f08c379a000000000000000000000000000000000000000000000000000000000815260040161030990611d8c565b60405180910390fd5b61033e7fd6c2837b41c05b3bbe97573398edcb3893bb73e5257701391a09858b9b20ca1960001b6106ee565b61036a7fe12f466951a7ae6d786c8ee9475f5da58ab9492aa4a78f377cbd6fa6ca5da69860001b6106ee565b6103967f60156e43955dbe7b9d641bd525be845fbe499a5683114fd46b0ee3a78007a7c160001b6106ee565b6103c27f6095f15fcfcb2ea6ce74c5dacbb0ec0bd68f05c399f875fed3bf9b09bd79189260001b6106ee565b6103ee7fa0c57b05f1c16c04ab3f7517d0766123c5f05904ff554eaa17c205bfd9fdf08060001b6106ee565b600260018060008473ffffffffffffffffffffffffffffffffffffffff1673ffffffffffffffffffffffffffffffffffffffff16815260200190815260200160002054018161043957fe5b06600160008373ffffffffffffffffffffffffffffffffffffffff1673ffffffffffffffffffffffffffffffffffffffff1681526020019081526020016000208190555050565b6104ac7fd9a71f1a2cf0dffe1cafd2dbda473912eaaf775daf5ba997982dc69a7b2142c060001b6106ee565b6104d87f46ace536b398b96670ee52bd9f7d98c38a8b8aba0c11e112faf707245bbd46f160001b6106ee565b6105047fefda31cbf0b60fac12346b48c0600763385b38108a2d25163ce8afefb7dcef7b60001b6106ee565b8173ffffffffffffffffffffffffffffffffffffffff166323b872dd3330846040518463ffffffff1660e01b815260040161054193929190611c83565b602060405180830381600087803b15801561055b57600080fd5b505af115801561056f573d6000803e3d6000fd5b505050506040513d601f19601f820116820180604052508101906105939190611a16565b506105c07f083699849c2b0111d25e69a7d9342d664f9362f7c28ebf21b87fcb2b1a474dc260001b6106ee565b6105ec7f26e62237186b17b9c87ee6038fc5fa4977ffd724e74b8b1cf7cec2099512236160001b6106ee565b806000808573ffffffffffffffffffffffffffffffffffffffff1673ffffffffffffffffffffffffffffffffffffffff16815260200190815260200160002060008473ffffffffffffffffffffffffffffffffffffffff1673ffffffffffffffffffffffffffffffffffffffff16815260200190815260200160002054016000808573ffffffffffffffffffffffffffffffffffffffff1673ffffffffffffffffffffffffffffffffffffffff16815260200190815260200160002060008473ffffffffffffffffffffffffffffffffffffffff1673ffffffffffffffffffffffffffffffffffffffff16815260200190815260200160002081905550505050565b50565b60016020528060005260406000206000915090505481565b6000826107387f327a2c2b7c625de7a51caf474687cf696e37db5a3e52d94daabf1ec65ddb47da60001b6106ee565b6107647fee120e906ae383f2dfb0962e858b63855e1acd6e2c6da7af9a6c72e6b63d0da560001b6106ee565b6107907faa8f88eb29c77c7e62b991e7fbf071c3d2334939b5997e4c097494aab3e0741d60001b6106ee565b6107bc7f37807fef506807a38ab7576cbae9f95f05545deabe8c8db9b8725043dac6ccc160001b6106ee565b60018060008373ffffffffffffffffffffffffffffffffffffffff1673ffffffffffffffffffffffffffffffffffffffff168152602001908152602001600020541461083d576040517f08c379a000000000000000000000000000000000000000000000000000000000815260040161083490611d6c565b60405180910390fd5b6108697fd268da895e9c535fde53151a803a9021888c53e4de19d033343126401722d81f60001b6106ee565b6108957f4cded77a6563a6e73d0356fc1e3f2c84cbd35cf157d25b79460aae1a31eceb0f60001b6106ee565b6108c17f21a3fe49b3202091e1aa21c5e46ec3e281c856c311ea6b27f721b35cce46631160001b6106ee565b6108ed7fa34fa039674ac33cebfbc559a8f08a57831af536b72a0f05a44543b4275efe8d60001b6106ee565b6109197f210fd863f20f304051580b35d35a3af2083c78a9a5500c4ab6df69965781489e60001b6106ee565b60008473ffffffffffffffffffffffffffffffffffffffff1663af0968fc6040518163ffffffff1660e01b815260040160c06040518083038186803b15801561096157600080fd5b505afa158015610975573d6000803e3d6000fd5b505050506040513d601f19601f8201168201806040525081019061099991906118bd565b505050505090506109cc7f667c766f911873ea0bc3f954ecd1033ef929fbb005edd4cdffe8baaaca813df660001b6106ee565b6109f87f0cd0cf21dae43e61da0f1386da4cd57d4206f78eeb5f4079e5877b305897913960001b6106ee565b8473ffffffffffffffffffffffffffffffffffffffff166318160ddd6040518163ffffffff1660e01b815260040160206040518083038186803b158015610a3e57600080fd5b505afa158015610a52573d6000803e3d6000fd5b505050506040513d601f19601f82011682018060405250810190610a769190611a91565b6000808773ffffffffffffffffffffffffffffffffffffffff1673ffffffffffffffffffffffffffffffffffffffff16815260200190815260200160002060008373ffffffffffffffffffffffffffffffffffffffff1673ffffffffffffffffffffffffffffffffffffffff16815260200190815260200160002054850281610afb57fe5b049250505092915050565b600260009054906101000a900473ffffffffffffffffffffffffffffffffffffffff1681565b610b587f20b0a7f911bb260518883889ca530ad58d2f12938289cef267aa49b0cf3b823660001b6106ee565b610b847f6149d163e4656e954ec2d7d651ff065f6c4e16536f09c04bf6b94fbd2c45764360001b6106ee565b610bb07f2cb0da41ab2ac350b2bce87dc2b3420595ca7c4f120af0be5226fe7107dfc83f60001b6106ee565b610bdc7f78aaad5f79be61351dbce1372746bed63c9fa0e4d2989a358b15d8267867259060001b6106ee565b600182829050148015610c35575060086009811115610bf757fe5b82826000818110610c0457fe5b9050602002810190610c169190611dc7565b6000016020810190610c289190611a68565b6009811115610c3357fe5b145b610c74576040517f08c379a0000000000000000000000000000000000000000000000000000000008152600401610c6b90611d0c565b60405180910390fd5b610ca07ff6c848af666fc023e51c96702f9acfbc0425a8697ecc00a1482a56818c95773360001b6106ee565b610ccc7f5950df51c09f57785589d528929d311a3fd323dfdc5d0f799753aa82de43d42b60001b6106ee565b610cf87f31d9fdb17a64a7f2514d431550bea923a455daa07551bc9f3c900733f099d71060001b6106ee565b610d247f5ae998ebae13192a47de9abce710c6b11284609004774797f679b604d422fe3260001b6106ee565b600180600084846000818110610d3657fe5b9050602002810190610d489190611dc7565b6060016020810190610d5a9190611858565b73ffffffffffffffffffffffffffffffffffffffff1673ffffffffffffffffffffffffffffffffffffffff1681526020019081526020016000205414610dd5576040517f08c379a0000000000000000000000000000000000000000000000000000000008152600401610dcc90611d6c565b60405180910390fd5b610e017f3615749746d77cac70ca5286a02f98ec6c82dd86f53460af90a51468782a9cf060001b6106ee565b610e2d7ff03761c9c3ac6182dcf8941538ff388da12430ba1850c0ce0fc36cfac551a15060001b6106ee565b610e597fec66533c85168137651bc2a79acb2ac0ce6e9b1b9e142eec3fd0321d09b75b6060001b6106ee565b600082826000818110610e6857fe5b9050602002810190610e7a9190611dc7565b6060016020810190610e8c9190611858565b9050610eba7fa6c326c72442f97dd16d56789307d9713c08d1adfccb82acb3f4b4d6de57485660001b6106ee565b610ee67f4a3b02fd26730d8b95a552b920c27f8063bfa00e234a097915a8831c0b07629760001b6106ee565b60008173ffffffffffffffffffffffffffffffffffffffff1663af0968fc6040518163ffffffff1660e01b815260040160c06040518083038186803b158015610f2e57600080fd5b505afa158015610f42573d6000803e3d6000fd5b505050506040513d601f19601f82011682018060405250810190610f6691906118bd565b50505050509050610f997f8bac8b04599e2e3edceba93f0dbc80d82f4bcabf91c0624b3f1b3bc987f3064660001b6106ee565b610fc57ffdcd3f094b3da33ca40282250ee0cf99bee82512675a3921801b25a23ef2ae0760001b6106ee565b610ff17fd1e5f7ffd07a6890ca23d981bda662e70531162dcdd4289a0f08eb52c679db9a60001b6106ee565b8173ffffffffffffffffffffffffffffffffffffffff166370a08231336040518263ffffffff1660e01b815260040161102a9190611c68565b60206040518083038186803b15801561104257600080fd5b505afa158015611056573d6000803e3d6000fd5b505050506040513d601f19601f8201168201806040525081019061107a9190611a91565b8484600081811061108757fe5b90506020028101906110999190611dc7565b60a0013511156110de576040517f08c379a00000000000000000000000000000000000000000000000000000000081526004016110d590611d4c565b60405180910390fd5b61110a7f86bd77823c830b9eff318cbd8bdec8ec4ab9408ca97a417a298c21c3de9b1e1d60001b6106ee565b6111367f5ba2a7a7221f301a2a997fe2f47212dd5d91f36a37da83899fc2fb60f76b97f960001b6106ee565b6111627f28aadb8b46ec7dff46eef2543a5a8c0ce822f7a6dc6c52e180530c6b7daebdf960001b6106ee565b60008060008473ffffffffffffffffffffffffffffffffffffffff1673ffffffffffffffffffffffffffffffffffffffff16815260200190815260200160002060008373ffffffffffffffffffffffffffffffffffffffff1673ffffffffffffffffffffffffffffffffffffffff168152602001908152602001600020548373ffffffffffffffffffffffffffffffffffffffff166318160ddd6040518163ffffffff1660e01b815260040160206040518083038186803b15801561122657600080fd5b505afa15801561123a573d6000803e3d6000fd5b505050506040513d601f19601f8201168201806040525081019061125e9190611a91565b8686600081811061126b57fe5b905060200281019061127d9190611dc7565b60a001358161128857fe5b040290506112b87f6a3d1256fde9fc29600528e336d919a9dffd2c7a0e2063590f9a5e5934851ce860001b6106ee565b6112e47f5fe08d1b21854a6ad88df9c47a5f40c76d5c9ecebf607b6264275e5b2cfde80c60001b6106ee565b6113107f20e4834cd570c9cd08409245eec0e0e25880ad3cf7eb735ea7b4b57ea1ba670e60001b6106ee565b6000808473ffffffffffffffffffffffffffffffffffffffff1673ffffffffffffffffffffffffffffffffffffffff16815260200190815260200160002060008373ffffffffffffffffffffffffffffffffffffffff1673ffffffffffffffffffffffffffffffffffffffff168152602001908152602001600020548111156113ce576040517f08c379a00000000000000000000000000000000000000000000000000000000081526004016113c590611d2c565b60405180910390fd5b6113fa7f2973147d2293a6b1a361dbda3805ff86fec0e60c9f851478cc6bb03638f6d11c60001b6106ee565b6114267f9d4492b4ac2ee5ac98af1b95fd7c879993ece734d1efa8f6377b7b89ae67bf1860001b6106ee565b6114527f6fd4dd7a4f4b1df9cfa60bb326a1f662183ed74e21f5cca9be4abb31492cb38060001b6106ee565b806000808573ffffffffffffffffffffffffffffffffffffffff1673ffffffffffffffffffffffffffffffffffffffff16815260200190815260200160002060008473ffffffffffffffffffffffffffffffffffffffff1673ffffffffffffffffffffffffffffffffffffffff16815260200190815260200160002054036000808573ffffffffffffffffffffffffffffffffffffffff1673ffffffffffffffffffffffffffffffffffffffff16815260200190815260200160002060008473ffffffffffffffffffffffffffffffffffffffff1673ffffffffffffffffffffffffffffffffffffffff1681526020019081526020016000208190555061157b7f850b8eb5eb5cc49868c5f00f2d58e4bb8c80ab6c076de79768502a577c79c07560001b6106ee565b6115a77f689fd99bed2462178f5b692b68071f8152fb55e987af3ece02e063fac036e5d460001b6106ee565b8173ffffffffffffffffffffffffffffffffffffffff1663a9059cbb868660008181106115d057fe5b90506020028101906115e29190611dc7565b60400160208101906115f49190611858565b836040518363ffffffff1660e01b8152600401611612929190611ce3565b602060405180830381600087803b15801561162c57600080fd5b505af1158015611640573d6000803e3d6000fd5b505050506040513d601f19601f820116820180604052508101906116649190611a16565b506116917f729380a98bc068d46e9bda2f5f1990335d9ba762b486d0b742669669c5d3398660001b6106ee565b6116bd7ffd7c07c0f09a0022df9cb797110442982951e7ac6033b1cdd17ac10eb82cdd2260001b6106ee565b8273ffffffffffffffffffffffffffffffffffffffff16639dc29fac33878760008181106116e757fe5b90506020028101906116f99190611dc7565b60a001356040518363ffffffff1660e01b815260040161171a929190611cba565b600060405180830381600087803b15801561173457600080fd5b505af1158015611748573d6000803e3d6000fd5b505050505050505050565b6000602052816000526040600020602052806000526040600020600091509150505481565b50565b60008135905061178a81611e85565b92915050565b60008151905061179f81611e85565b92915050565b60008083601f8401126117b757600080fd5b8235905067ffffffffffffffff8111156117d057600080fd5b6020830191508360208202830111156117e857600080fd5b9250929050565b6000815190506117fe81611e9c565b92915050565b60008135905061181381611eb3565b92915050565b60008135905061182881611eca565b92915050565b60008135905061183d81611eda565b92915050565b60008151905061185281611eda565b92915050565b60006020828403121561186a57600080fd5b60006118788482850161177b565b91505092915050565b6000806040838503121561189457600080fd5b60006118a28582860161177b565b92505060206118b38582860161177b565b9150509250929050565b60008060008060008060c087890312156118d657600080fd5b60006118e489828a01611790565b96505060206118f589828a01611790565b955050604061190689828a01611790565b945050606061191789828a01611843565b935050608061192889828a01611843565b92505060a061193989828a016117ef565b9150509295509295509295565b60008060006060848603121561195b57600080fd5b60006119698682870161177b565b935050602061197a8682870161177b565b925050604061198b8682870161182e565b9150509250925092565b600080604083850312156119a857600080fd5b60006119b68582860161177b565b92505060206119c78582860161182e565b9150509250929050565b600080602083850312156119e457600080fd5b600083013567ffffffffffffffff8111156119fe57600080fd5b611a0a858286016117a5565b92509250509250929050565b600060208284031215611a2857600080fd5b6000611a36848285016117ef565b91505092915050565b600060208284031215611a5157600080fd5b6000611a5f84828501611804565b91505092915050565b600060208284031215611a7a57600080fd5b6000611a8884828501611819565b91505092915050565b600060208284031215611aa357600080fd5b6000611ab184828501611843565b91505092915050565b611ac381611e4f565b82525050565b611ad281611dfd565b82525050565b6000611ae5602283611dec565b91507f6d6f636b206d61646520666f722073696e676c652074797065206f662063616c60008301527f6c730000000000000000000000000000000000000000000000000000000000006020830152604082019050919050565b6000611b4b601583611dec565b91507f6e6f7420656e6f75676820636f6c6c61746572616c00000000000000000000006000830152602082019050919050565b6000611b8b601183611dec565b91507f746f6f206d7563682072656465656d65640000000000000000000000000000006000830152602082019050919050565b6000611bcb600e83611dec565b91507f6e6f742072656465656d61626c650000000000000000000000000000000000006000830152602082019050919050565b6000611c0b600983611dec565b91507f6e6f74206f776e657200000000000000000000000000000000000000000000006000830152602082019050919050565b611c4781611e45565b82525050565b6000602082019050611c626000830184611ac9565b92915050565b6000602082019050611c7d6000830184611aba565b92915050565b6000606082019050611c986000830186611aba565b611ca56020830185611ac9565b611cb26040830184611c3e565b949350505050565b6000604082019050611ccf6000830185611aba565b611cdc6020830184611c3e565b9392505050565b6000604082019050611cf86000830185611ac9565b611d056020830184611c3e565b9392505050565b60006020820190508181036000830152611d2581611ad8565b9050919050565b60006020820190508181036000830152611d4581611b3e565b9050919050565b60006020820190508181036000830152611d6581611b7e565b9050919050565b60006020820190508181036000830152611d8581611bbe565b9050919050565b60006020820190508181036000830152611da581611bfe565b9050919050565b6000602082019050611dc16000830184611c3e565b92915050565b60008235600161010003833603038112611de057600080fd5b80830191505092915050565b600082825260208201905092915050565b6000611e0882611e25565b9050919050565b60008115159050919050565b6000819050919050565b600073ffffffffffffffffffffffffffffffffffffffff82169050919050565b6000819050919050565b6000611e5a82611e61565b9050919050565b6000611e6c82611e73565b9050919050565b6000611e7e82611e25565b9050919050565b611e8e81611dfd565b8114611e9957600080fd5b50565b611ea581611e0f565b8114611eb057600080fd5b50565b611ebc81611e1b565b8114611ec757600080fd5b50565b600a8110611ed757600080fd5b50565b611ee381611e45565b8114611eee57600080fd5b5056fea2646970667358221220ce3ab4f81935741967fdfd25e3d69567d2df55db222086f98aaea899c5bcb36164736f6c63430007060033",
  "linkReferences": {},
  "deployedLinkReferences": {}
}