{
  "_format": "hh-sol-artifact-1",
  "contractName": "OpynV2OTokenMock",
  "sourceName": "contracts/test-utils/OpynV2OTokenMock.sol",
  "abi": [
    {
      "inputs": [
        {
          "internalType": "address",
          "name": "_collateralAsset",
          "type": "address"
        },
        {
          "internalType": "address",
          "name": "_underlyingAddress",
          "type": "address"
        },
        {
          "internalType": "address",
          "name": "_strikeAsset",
          "type": "address"
        },
        {
          "internalType": "uint256",
          "name": "_strikePrice",
          "type": "uint256"
        },
        {
          "internalType": "uint256",
          "name": "_expiryTimestamp",
          "type": "uint256"
        },
        {
          "internalType": "bool",
          "name": "_isPut",
          "type": "bool"
        }
      ],
      "stateMutability": "nonpayable",
      "type": "constructor"
    },
    {
      "anonymous": false,
      "inputs": [
        {
          "indexed": true,
          "internalType": "address",
          "name": "owner",
          "type": "address"
        },
        {
          "indexed": true,
          "internalType": "address",
          "name": "spender",
          "type": "address"
        },
        {
          "indexed": false,
          "internalType": "uint256",
          "name": "value",
          "type": "uint256"
        }
      ],
      "name": "Approval",
      "type": "event"
    },
    {
      "anonymous": false,
      "inputs": [
        {
          "indexed": true,
          "internalType": "address",
          "name": "from",
          "type": "address"
        },
        {
          "indexed": true,
          "internalType": "address",
          "name": "to",
          "type": "address"
        },
        {
          "indexed": false,
          "internalType": "uint256",
          "name": "value",
          "type": "uint256"
        }
      ],
      "name": "Transfer",
      "type": "event"
    },
    {
      "inputs": [
        {
          "internalType": "address",
          "name": "owner",
          "type": "address"
        },
        {
          "internalType": "address",
          "name": "spender",
          "type": "address"
        }
      ],
      "name": "allowance",
      "outputs": [
        {
          "internalType": "uint256",
          "name": "",
          "type": "uint256"
        }
      ],
      "stateMutability": "view",
      "type": "function"
    },
    {
      "inputs": [
        {
          "internalType": "address",
          "name": "spender",
          "type": "address"
        },
        {
          "internalType": "uint256",
          "name": "amount",
          "type": "uint256"
        }
      ],
      "name": "approve",
      "outputs": [
        {
          "internalType": "bool",
          "name": "",
          "type": "bool"
        }
      ],
      "stateMutability": "nonpayable",
      "type": "function"
    },
    {
      "inputs": [
        {
          "internalType": "address",
          "name": "account",
          "type": "address"
        }
      ],
      "name": "balanceOf",
      "outputs": [
        {
          "internalType": "uint256",
          "name": "",
          "type": "uint256"
        }
      ],
      "stateMutability": "view",
      "type": "function"
    },
    {
      "inputs": [
        {
          "internalType": "uint256",
          "name": "amount",
          "type": "uint256"
        }
      ],
      "name": "burn",
      "outputs": [],
      "stateMutability": "nonpayable",
      "type": "function"
    },
    {
      "inputs": [
        {
          "internalType": "address",
          "name": "acc",
          "type": "address"
        },
        {
          "internalType": "uint256",
          "name": "am",
          "type": "uint256"
        }
      ],
      "name": "burn",
      "outputs": [],
      "stateMutability": "nonpayable",
      "type": "function"
    },
    {
      "inputs": [
        {
          "internalType": "address",
          "name": "account",
          "type": "address"
        },
        {
          "internalType": "uint256",
          "name": "amount",
          "type": "uint256"
        }
      ],
      "name": "burnFrom",
      "outputs": [],
      "stateMutability": "nonpayable",
      "type": "function"
    },
    {
      "inputs": [
        {
          "internalType": "bytes32",
          "name": "c__0x4b0fa41e",
          "type": "bytes32"
        }
      ],
      "name": "c_0x4b0fa41e",
      "outputs": [],
      "stateMutability": "pure",
      "type": "function"
    },
    {
      "inputs": [
        {
          "internalType": "bytes32",
          "name": "c__0xe53ad47d",
          "type": "bytes32"
        }
      ],
      "name": "c_0xe53ad47d",
      "outputs": [],
      "stateMutability": "pure",
      "type": "function"
    },
    {
      "inputs": [],
      "name": "collateralAsset",
      "outputs": [
        {
          "internalType": "address",
          "name": "",
          "type": "address"
        }
      ],
      "stateMutability": "view",
      "type": "function"
    },
    {
      "inputs": [],
      "name": "controller",
      "outputs": [
        {
          "internalType": "address",
          "name": "",
          "type": "address"
        }
      ],
      "stateMutability": "view",
      "type": "function"
    },
    {
      "inputs": [],
      "name": "decimals",
      "outputs": [
        {
          "internalType": "uint8",
          "name": "",
          "type": "uint8"
        }
      ],
      "stateMutability": "view",
      "type": "function"
    },
    {
      "inputs": [
        {
          "internalType": "address",
          "name": "spender",
          "type": "address"
        },
        {
          "internalType": "uint256",
          "name": "subtractedValue",
          "type": "uint256"
        }
      ],
      "name": "decreaseAllowance",
      "outputs": [
        {
          "internalType": "bool",
          "name": "",
          "type": "bool"
        }
      ],
      "stateMutability": "nonpayable",
      "type": "function"
    },
    {
      "inputs": [],
      "name": "expiryTimestamp",
      "outputs": [
        {
          "internalType": "uint256",
          "name": "",
          "type": "uint256"
        }
      ],
      "stateMutability": "view",
      "type": "function"
    },
    {
      "inputs": [],
      "name": "getOtokenDetails",
      "outputs": [
        {
          "internalType": "address",
          "name": "",
          "type": "address"
        },
        {
          "internalType": "address",
          "name": "",
          "type": "address"
        },
        {
          "internalType": "address",
          "name": "",
          "type": "address"
        },
        {
          "internalType": "uint256",
          "name": "",
          "type": "uint256"
        },
        {
          "internalType": "uint256",
          "name": "",
          "type": "uint256"
        },
        {
          "internalType": "bool",
          "name": "",
          "type": "bool"
        }
      ],
      "stateMutability": "view",
      "type": "function"
    },
    {
      "inputs": [
        {
          "internalType": "address",
          "name": "spender",
          "type": "address"
        },
        {
          "internalType": "uint256",
          "name": "addedValue",
          "type": "uint256"
        }
      ],
      "name": "increaseAllowance",
      "outputs": [
        {
          "internalType": "bool",
          "name": "",
          "type": "bool"
        }
      ],
      "stateMutability": "nonpayable",
      "type": "function"
    },
    {
      "inputs": [],
      "name": "isPut",
      "outputs": [
        {
          "internalType": "bool",
          "name": "",
          "type": "bool"
        }
      ],
      "stateMutability": "view",
      "type": "function"
    },
    {
      "inputs": [
        {
          "internalType": "address",
          "name": "acc",
          "type": "address"
        },
        {
          "internalType": "uint256",
          "name": "am",
          "type": "uint256"
        }
      ],
      "name": "mint",
      "outputs": [],
      "stateMutability": "nonpayable",
      "type": "function"
    },
    {
      "inputs": [],
      "name": "name",
      "outputs": [
        {
          "internalType": "string",
          "name": "",
          "type": "string"
        }
      ],
      "stateMutability": "view",
      "type": "function"
    },
    {
      "inputs": [],
      "name": "owner",
      "outputs": [
        {
          "internalType": "address",
          "name": "",
          "type": "address"
        }
      ],
      "stateMutability": "view",
      "type": "function"
    },
    {
      "inputs": [
        {
          "internalType": "address",
          "name": "_collateralAsset",
          "type": "address"
        }
      ],
      "name": "setCollateralAsset",
      "outputs": [],
      "stateMutability": "nonpayable",
      "type": "function"
    },
    {
      "inputs": [
        {
          "internalType": "uint256",
          "name": "_expiryTimestamp",
          "type": "uint256"
        }
      ],
      "name": "setExpiryTimestamp",
      "outputs": [],
      "stateMutability": "nonpayable",
      "type": "function"
    },
    {
      "inputs": [
        {
          "internalType": "bool",
          "name": "_isPut",
          "type": "bool"
        }
      ],
      "name": "setPut",
      "outputs": [],
      "stateMutability": "nonpayable",
      "type": "function"
    },
    {
      "inputs": [
        {
          "internalType": "address",
          "name": "_strikeAsset",
          "type": "address"
        }
      ],
      "name": "setStrikeAsset",
      "outputs": [],
      "stateMutability": "nonpayable",
      "type": "function"
    },
    {
      "inputs": [
        {
          "internalType": "uint256",
          "name": "_strikePrice",
          "type": "uint256"
        }
      ],
      "name": "setStrikePrice",
      "outputs": [],
      "stateMutability": "nonpayable",
      "type": "function"
    },
    {
      "inputs": [
        {
          "internalType": "address",
          "name": "_underlyingAsset",
          "type": "address"
        }
      ],
      "name": "setUnderlyingAsset",
      "outputs": [],
      "stateMutability": "nonpayable",
      "type": "function"
    },
    {
      "inputs": [],
      "name": "strikeAsset",
      "outputs": [
        {
          "internalType": "address",
          "name": "",
          "type": "address"
        }
      ],
      "stateMutability": "view",
      "type": "function"
    },
    {
      "inputs": [],
      "name": "strikePrice",
      "outputs": [
        {
          "internalType": "uint256",
          "name": "",
          "type": "uint256"
        }
      ],
      "stateMutability": "view",
      "type": "function"
    },
    {
      "inputs": [],
      "name": "symbol",
      "outputs": [
        {
          "internalType": "string",
          "name": "",
          "type": "string"
        }
      ],
      "stateMutability": "view",
      "type": "function"
    },
    {
      "inputs": [],
      "name": "totalSupply",
      "outputs": [
        {
          "internalType": "uint256",
          "name": "",
          "type": "uint256"
        }
      ],
      "stateMutability": "view",
      "type": "function"
    },
    {
      "inputs": [
        {
          "internalType": "address",
          "name": "recipient",
          "type": "address"
        },
        {
          "internalType": "uint256",
          "name": "amount",
          "type": "uint256"
        }
      ],
      "name": "transfer",
      "outputs": [
        {
          "internalType": "bool",
          "name": "",
          "type": "bool"
        }
      ],
      "stateMutability": "nonpayable",
      "type": "function"
    },
    {
      "inputs": [
        {
          "internalType": "address",
          "name": "sender",
          "type": "address"
        },
        {
          "internalType": "address",
          "name": "recipient",
          "type": "address"
        },
        {
          "internalType": "uint256",
          "name": "amount",
          "type": "uint256"
        }
      ],
      "name": "transferFrom",
      "outputs": [
        {
          "internalType": "bool",
          "name": "",
          "type": "bool"
        }
      ],
      "stateMutability": "nonpayable",
      "type": "function"
    },
    {
      "inputs": [],
      "name": "underlyingAsset",
      "outputs": [
        {
          "internalType": "address",
          "name": "",
          "type": "address"
        }
      ],
      "stateMutability": "view",
      "type": "function"
    }
  ],
  "bytecode": "0x60806040523480156200001157600080fd5b506040516200340238038062003402833981810160405260c08110156200003757600080fd5b810190808051906020019092919080519060200190929190805190602001909291908051906020019092919080519060200190929190805190602001909291905050506040518060400160405280600b81526020017f6f546f6b656e2d544553540000000000000000000000000000000000000000008152506040518060400160405280600581526020017f4f544553540000000000000000000000000000000000000000000000000000008152508160039080519060200190620000fe9291906200057d565b508060049080519060200190620001179291906200057d565b506012600560006101000a81548160ff021916908360ff16021790555050506200016a7f7a433b568ea360c91582a12e38c0e4bf2f5c54179434c4d3d0550e9772fe900f60001b6200057a60201b60201c565b6200019e7f746898328ae1a4bbd3c320d17c478eac664db365d037f0b484b6b26da2e7137b60001b6200057a60201b60201c565b620001d27f421c8f25d4ecbcebc064efd95c24377bec7a54050e17c000ad72294894ea4df560001b6200057a60201b60201c565b85600660006101000a81548173ffffffffffffffffffffffffffffffffffffffff021916908373ffffffffffffffffffffffffffffffffffffffff160217905550620002477f8e1e41688764dc65f141228f7fe926b9c2027676a34367e2cbcdec067fce9f5460001b6200057a60201b60201c565b6200027b7fce263964bd7a6923f4ee97cd6a07a40d53b6a2bd3edf3d24af9d55d61e54ec2860001b6200057a60201b60201c565b84600760006101000a81548173ffffffffffffffffffffffffffffffffffffffff021916908373ffffffffffffffffffffffffffffffffffffffff160217905550620002f07f768afd7b4b821e110015bfadb5d1f5913a4335c45521bc9ed79ef9d48652456960001b6200057a60201b60201c565b620003247fdeddf39d9faa7a8b8e7ed5c222a7d2df67a322a5ed52e82d52bad14f0fb8a03c60001b6200057a60201b60201c565b83600860006101000a81548173ffffffffffffffffffffffffffffffffffffffff021916908373ffffffffffffffffffffffffffffffffffffffff160217905550620003997fc753aa01ad0fc7bf520ce4412cd844d282d58c3eaca7068732c4d8c26cc2c3de60001b6200057a60201b60201c565b620003cd7ff4d667a6f19d2d4e262ee72fc5ef36cda2bd63b77192c0b8597fc4776ca6250a60001b6200057a60201b60201c565b82600981905550620004087f08796b7468acb58d9a1880ddd82db9b40b382220857d3a7a097a33f8baecf48360001b6200057a60201b60201c565b6200043c7fb3a75be5521d82928f38fa30e23fe001643f57f13c915f4594cb8db37700be2860001b6200057a60201b60201c565b81600a81905550620004777fb2582108e4462b5980e3e701e97bef4c5255b7f85f69a4d340ba8ddb466f462b60001b6200057a60201b60201c565b620004ab7f6bc1e3672aed92fe01bad788ebdae2c3ab3d014e2e9fff10cd3e90c54645b35060001b6200057a60201b60201c565b80600b60006101000a81548160ff021916908315150217905550620004f97f914cfe7d4e65c929e45974a4604a89d914045a130316e0582b4046e993cd8de860001b6200057a60201b60201c565b6200052d7fb892faf4a3a390b5f59dc87ff15f52d1b2a9298efdb2eb3484ec2bc7515203fb60001b6200057a60201b60201c565b33600b60016101000a81548173ffffffffffffffffffffffffffffffffffffffff021916908373ffffffffffffffffffffffffffffffffffffffff16021790555050505050505062000633565b50565b828054600181600116156101000203166002900490600052602060002090601f016020900481019282620005b5576000855562000601565b82601f10620005d057805160ff191683800117855562000601565b8280016001018555821562000601579182015b8281111562000600578251825591602001919060010190620005e3565b5b50905062000610919062000614565b5090565b5b808211156200062f57600081600090555060010162000615565b5090565b612dbf80620006436000396000f3fe608060405234801561001057600080fd5b50600436106101f05760003560e01c806395d89b411161010f578063c0df78f6116100a2578063e488cd9f11610071578063e488cd9f14610a1f578063e58d893514610a4d578063f3c274a614610a7b578063f77c479114610a9b576101f0565b8063c0df78f614610901578063c52987cf14610945578063d82d842114610963578063dd62ed3e146109a7576101f0565b8063aabaecd6116100de578063aabaecd6146107fc578063ade6e2aa14610830578063af0968fc1461084e578063bae011ff146108d3576101f0565b806395d89b41146106635780639dc29fac146106e6578063a457c2d714610734578063a9059cbb14610798576101f0565b8063395093511161018757806370a082311161015657806370a08231146105555780637158da7c146105ad57806379cc6790146105e15780638da5cb5b1461062f576101f0565b8063395093511461044557806340c10f19146104a957806342966c68146104f75780637080e84914610525576101f0565b80631cf55632116101c35780631cf556321461032e57806323b872dd1461035c57806325671dcb146103e0578063313ce56714610424576101f0565b806306fdde03146101f5578063095ea7b31461027857806317d69bc8146102dc57806318160ddd14610310575b600080fd5b6101fd610acf565b6040518080602001828103825283818151815260200191508051906020019080838360005b8381101561023d578082015181840152602081019050610222565b50505050905090810190601f16801561026a5780820380516001836020036101000a031916815260200191505b509250505060405180910390f35b6102c46004803603604081101561028e57600080fd5b81019080803573ffffffffffffffffffffffffffffffffffffffff16906020019092919080359060200190929190505050610b71565b60405180821515815260200191505060405180910390f35b6102e4610b8f565b604051808273ffffffffffffffffffffffffffffffffffffffff16815260200191505060405180910390f35b610318610bb5565b6040518082815260200191505060405180910390f35b61035a6004803603602081101561034457600080fd5b8101908080359060200190929190505050610bbf565b005b6103c86004803603606081101561037257600080fd5b81019080803573ffffffffffffffffffffffffffffffffffffffff169060200190929190803573ffffffffffffffffffffffffffffffffffffffff16906020019092919080359060200190929190505050610bc2565b60405180821515815260200191505060405180910390f35b610422600480360360208110156103f657600080fd5b81019080803573ffffffffffffffffffffffffffffffffffffffff169060200190929190505050610c9b565b005b61042c610f2e565b604051808260ff16815260200191505060405180910390f35b6104916004803603604081101561045b57600080fd5b81019080803573ffffffffffffffffffffffffffffffffffffffff16906020019092919080359060200190929190505050610f45565b60405180821515815260200191505060405180910390f35b6104f5600480360360408110156104bf57600080fd5b81019080803573ffffffffffffffffffffffffffffffffffffffff16906020019092919080359060200190929190505050610ff8565b005b6105236004803603602081101561050d57600080fd5b810190808035906020019092919050505061108a565b005b6105536004803603602081101561053b57600080fd5b8101908080351515906020019092919050505061109e565b005b6105976004803603602081101561056b57600080fd5b81019080803573ffffffffffffffffffffffffffffffffffffffff16906020019092919050505061130a565b6040518082815260200191505060405180910390f35b6105b5611352565b604051808273ffffffffffffffffffffffffffffffffffffffff16815260200191505060405180910390f35b61062d600480360360408110156105f757600080fd5b81019080803573ffffffffffffffffffffffffffffffffffffffff16906020019092919080359060200190929190505050611378565b005b6106376113da565b604051808273ffffffffffffffffffffffffffffffffffffffff16815260200191505060405180910390f35b61066b611400565b6040518080602001828103825283818151815260200191508051906020019080838360005b838110156106ab578082015181840152602081019050610690565b50505050905090810190601f1680156106d85780820380516001836020036101000a031916815260200191505b509250505060405180910390f35b610732600480360360408110156106fc57600080fd5b81019080803573ffffffffffffffffffffffffffffffffffffffff169060200190929190803590602001909291905050506114a2565b005b6107806004803603604081101561074a57600080fd5b81019080803573ffffffffffffffffffffffffffffffffffffffff16906020019092919080359060200190929190505050611534565b60405180821515815260200191505060405180910390f35b6107e4600480360360408110156107ae57600080fd5b81019080803573ffffffffffffffffffffffffffffffffffffffff16906020019092919080359060200190929190505050611601565b60405180821515815260200191505060405180910390f35b61080461161f565b604051808273ffffffffffffffffffffffffffffffffffffffff16815260200191505060405180910390f35b610838611645565b6040518082815260200191505060405180910390f35b61085661164b565b604051808773ffffffffffffffffffffffffffffffffffffffff1681526020018673ffffffffffffffffffffffffffffffffffffffff1681526020018573ffffffffffffffffffffffffffffffffffffffff1681526020018481526020018381526020018215158152602001965050505050505060405180910390f35b6108ff600480360360208110156108e957600080fd5b810190808035906020019092919050505061176b565b005b6109436004803603602081101561091757600080fd5b81019080803573ffffffffffffffffffffffffffffffffffffffff16906020019092919050505061176e565b005b61094d611a01565b6040518082815260200191505060405180910390f35b6109a56004803603602081101561097957600080fd5b81019080803573ffffffffffffffffffffffffffffffffffffffff169060200190929190505050611a07565b005b610a09600480360360408110156109bd57600080fd5b81019080803573ffffffffffffffffffffffffffffffffffffffff169060200190929190803573ffffffffffffffffffffffffffffffffffffffff169060200190929190505050611c9a565b6040518082815260200191505060405180910390f35b610a4b60048036036020811015610a3557600080fd5b8101908080359060200190929190505050611d21565b005b610a7960048036036020811015610a6357600080fd5b8101908080359060200190929190505050611f7a565b005b610a836121d3565b60405180821515815260200191505060405180910390f35b610aa36121e6565b604051808273ffffffffffffffffffffffffffffffffffffffff16815260200191505060405180910390f35b606060038054600181600116156101000203166002900480601f016020809104026020016040519081016040528092919081815260200182805460018160011615610100020316600290048015610b675780601f10610b3c57610100808354040283529160200191610b67565b820191906000526020600020905b815481529060010190602001808311610b4a57829003601f168201915b5050505050905090565b6000610b85610b7e61220c565b8484612214565b6001905092915050565b600860009054906101000a900473ffffffffffffffffffffffffffffffffffffffff1681565b6000600254905090565b50565b6000610bcf84848461240b565b610c9084610bdb61220c565b610c8b85604051806060016040528060288152602001612caf60289139600160008b73ffffffffffffffffffffffffffffffffffffffff1673ffffffffffffffffffffffffffffffffffffffff1681526020019081526020016000206000610c4161220c565b73ffffffffffffffffffffffffffffffffffffffff1673ffffffffffffffffffffffffffffffffffffffff168152602001908152602001600020546126cc9092919063ffffffff16565b612214565b600190509392505050565b610cc77f021c7ccadd4d6a7d54e7455862476b71e1a1ba048f0846e5e8fcd016c869a5f360001b61176b565b610cf37fab0e30e192d9133eef0e3670091a77ce1cbec77da413501fa633f2754908602660001b61176b565b610d1f7fb1f72e30b3a6044f0b8023a5bb661377df6833ed5e1e3a8e50e1a858cd95a73b60001b61176b565b610d4b7f26f09ae3d3a38ddaf65b04bfabe2fb6ac51d96371647a25897d4aadb88a8021a60001b61176b565b3373ffffffffffffffffffffffffffffffffffffffff16600b60019054906101000a900473ffffffffffffffffffffffffffffffffffffffff1673ffffffffffffffffffffffffffffffffffffffff1614610e0e576040517f08c379a00000000000000000000000000000000000000000000000000000000081526004018080602001828103825260098152602001807f6e6f74206f776e6572000000000000000000000000000000000000000000000081525060200191505060405180910390fd5b610e3a7fcf0803d3c569ab3e92fe4aa0a7cd677221cd0476b4190556bdda73361ed3c3a660001b61176b565b610e667f71e8e3287c45183ac77e39c24ce9eb9b50a6c8f34111de140b2f6a001bdf27cc60001b61176b565b610e927fddcd2b68e935f9e92c15a98807a12bb435b2775a8e098b2b32df011a1960d02a60001b61176b565b610ebe7fca964f2143f0769bb03c586090f3220694a8988f42bc939ef199b4b658c9ebeb60001b61176b565b610eea7fa2acdc302f121d3122bd4960915f0050dd77a0e76ba0c8ff675bcf144ab0295860001b61176b565b80600760006101000a81548173ffffffffffffffffffffffffffffffffffffffff021916908373ffffffffffffffffffffffffffffffffffffffff16021790555050565b6000600560009054906101000a900460ff16905090565b6000610fee610f5261220c565b84610fe98560016000610f6361220c565b73ffffffffffffffffffffffffffffffffffffffff1673ffffffffffffffffffffffffffffffffffffffff16815260200190815260200160002060008973ffffffffffffffffffffffffffffffffffffffff1673ffffffffffffffffffffffffffffffffffffffff1681526020019081526020016000205461278690919063ffffffff16565b612214565b6001905092915050565b6110247f07e4e1da1648d1b9b1657d4ec66eb6df67bb4cd6b8f7c8cf6dc8df76d38e762460001b61176b565b6110507f9efc0ec2c4d16fb9f2abd0b354db949b3dfd7de970ce6373a40ba03a80dd683d60001b61176b565b61107c7f715fee9edfc0d048c9ca1901d70fb530444d3fcc26ad86271ff77df9934dd03960001b61176b565b611086828261280e565b5050565b61109b61109561220c565b826129d5565b50565b6110ca7f021c7ccadd4d6a7d54e7455862476b71e1a1ba048f0846e5e8fcd016c869a5f360001b61176b565b6110f67fab0e30e192d9133eef0e3670091a77ce1cbec77da413501fa633f2754908602660001b61176b565b6111227fb1f72e30b3a6044f0b8023a5bb661377df6833ed5e1e3a8e50e1a858cd95a73b60001b61176b565b61114e7f26f09ae3d3a38ddaf65b04bfabe2fb6ac51d96371647a25897d4aadb88a8021a60001b61176b565b3373ffffffffffffffffffffffffffffffffffffffff16600b60019054906101000a900473ffffffffffffffffffffffffffffffffffffffff1673ffffffffffffffffffffffffffffffffffffffff1614611211576040517f08c379a00000000000000000000000000000000000000000000000000000000081526004018080602001828103825260098152602001807f6e6f74206f776e6572000000000000000000000000000000000000000000000081525060200191505060405180910390fd5b61123d7fcf0803d3c569ab3e92fe4aa0a7cd677221cd0476b4190556bdda73361ed3c3a660001b61176b565b6112697f71e8e3287c45183ac77e39c24ce9eb9b50a6c8f34111de140b2f6a001bdf27cc60001b61176b565b6112957f01cd92d0d6e6e3a6fc06f9ef53994ac08122e7d0e157d73beb58904efd59346c60001b61176b565b6112c17f7c3170078ca4f25da7ea0067ce7c8b9cb9f3cfd04bb6e354bf13634e0bf6186360001b61176b565b6112ed7f6ee14a33bb37aa1b9149e37a68ca2afbcc3f83590e0fb2b2f4e1a9b314d8476860001b61176b565b80600b60006101000a81548160ff02191690831515021790555050565b60008060008373ffffffffffffffffffffffffffffffffffffffff1673ffffffffffffffffffffffffffffffffffffffff168152602001908152602001600020549050919050565b600760009054906101000a900473ffffffffffffffffffffffffffffffffffffffff1681565b60006113b782604051806060016040528060248152602001612cd7602491396113a8866113a361220c565b611c9a565b6126cc9092919063ffffffff16565b90506113cb836113c561220c565b83612214565b6113d583836129d5565b505050565b600b60019054906101000a900473ffffffffffffffffffffffffffffffffffffffff1681565b606060048054600181600116156101000203166002900480601f0160208091040260200160405190810160405280929190818152602001828054600181600116156101000203166002900480156114985780601f1061146d57610100808354040283529160200191611498565b820191906000526020600020905b81548152906001019060200180831161147b57829003601f168201915b5050505050905090565b6114ce7f02bd50739c3ca4960db6a26cbfcad8d84030bedce94cd87b4e6ba288f5eb268660001b61176b565b6114fa7ff2d961fb81dab54a886432f417e0ed461d460cb9624b5bc19cc7af465a84c04a60001b61176b565b6115267f255ac11584514defa59e1aad3c3a1ddd114441a5d74cc864eb53e1497ffcac6b60001b61176b565b61153082826129d5565b5050565b60006115f761154161220c565b846115f285604051806060016040528060258152602001612d65602591396001600061156b61220c565b73ffffffffffffffffffffffffffffffffffffffff1673ffffffffffffffffffffffffffffffffffffffff16815260200190815260200160002060008a73ffffffffffffffffffffffffffffffffffffffff1673ffffffffffffffffffffffffffffffffffffffff168152602001908152602001600020546126cc9092919063ffffffff16565b612214565b6001905092915050565b600061161561160e61220c565b848461240b565b6001905092915050565b600660009054906101000a900473ffffffffffffffffffffffffffffffffffffffff1681565b600a5481565b6000806000806000806116807fae35c123f712f1e244c7bc16e178d297f5d4e40bad681a5cfe4e1dd57f9843d660001b61176b565b6116ac7f9e7a2efaf7193a8063dbe6d3ce7453ad1ce0d43b887a0686efbc4309359e028160001b61176b565b6116d87f2d144a5501ec9e20f43a95ec50558c90768ed1a53972f227ab249e6353fe858c60001b61176b565b600660009054906101000a900473ffffffffffffffffffffffffffffffffffffffff16600760009054906101000a900473ffffffffffffffffffffffffffffffffffffffff16600860009054906101000a900473ffffffffffffffffffffffffffffffffffffffff16600954600a54600b60009054906101000a900460ff16955095509550955095509550909192939495565b50565b61179a7f021c7ccadd4d6a7d54e7455862476b71e1a1ba048f0846e5e8fcd016c869a5f360001b61176b565b6117c67fab0e30e192d9133eef0e3670091a77ce1cbec77da413501fa633f2754908602660001b61176b565b6117f27fb1f72e30b3a6044f0b8023a5bb661377df6833ed5e1e3a8e50e1a858cd95a73b60001b61176b565b61181e7f26f09ae3d3a38ddaf65b04bfabe2fb6ac51d96371647a25897d4aadb88a8021a60001b61176b565b3373ffffffffffffffffffffffffffffffffffffffff16600b60019054906101000a900473ffffffffffffffffffffffffffffffffffffffff1673ffffffffffffffffffffffffffffffffffffffff16146118e1576040517f08c379a00000000000000000000000000000000000000000000000000000000081526004018080602001828103825260098152602001807f6e6f74206f776e6572000000000000000000000000000000000000000000000081525060200191505060405180910390fd5b61190d7fcf0803d3c569ab3e92fe4aa0a7cd677221cd0476b4190556bdda73361ed3c3a660001b61176b565b6119397f71e8e3287c45183ac77e39c24ce9eb9b50a6c8f34111de140b2f6a001bdf27cc60001b61176b565b6119657f1e96ee041e000003b0924262e5b661401d4955a85efd88b528bc211f8e1eac1860001b61176b565b6119917f0b3a782fa5f434ea7e71ab493e6d8e2429b5312fed5e760f4dc4bb3da54b67c260001b61176b565b6119bd7f68f1cce079106ff974d1894675db8662165adb693eedb9ddb6993f2120a553b960001b61176b565b80600860006101000a81548173ffffffffffffffffffffffffffffffffffffffff021916908373ffffffffffffffffffffffffffffffffffffffff16021790555050565b60095481565b611a337f021c7ccadd4d6a7d54e7455862476b71e1a1ba048f0846e5e8fcd016c869a5f360001b61176b565b611a5f7fab0e30e192d9133eef0e3670091a77ce1cbec77da413501fa633f2754908602660001b61176b565b611a8b7fb1f72e30b3a6044f0b8023a5bb661377df6833ed5e1e3a8e50e1a858cd95a73b60001b61176b565b611ab77f26f09ae3d3a38ddaf65b04bfabe2fb6ac51d96371647a25897d4aadb88a8021a60001b61176b565b3373ffffffffffffffffffffffffffffffffffffffff16600b60019054906101000a900473ffffffffffffffffffffffffffffffffffffffff1673ffffffffffffffffffffffffffffffffffffffff1614611b7a576040517f08c379a00000000000000000000000000000000000000000000000000000000081526004018080602001828103825260098152602001807f6e6f74206f776e6572000000000000000000000000000000000000000000000081525060200191505060405180910390fd5b611ba67fcf0803d3c569ab3e92fe4aa0a7cd677221cd0476b4190556bdda73361ed3c3a660001b61176b565b611bd27f71e8e3287c45183ac77e39c24ce9eb9b50a6c8f34111de140b2f6a001bdf27cc60001b61176b565b611bfe7f2bdd9c9b86b91a2432eae22f44609d642ae5f50776c8d63bd430a1753bfb713d60001b61176b565b611c2a7f3e2cc0265041233ee32bceb316c36cfb49f98fadc5e86ffff97a07a0fd3988b060001b61176b565b611c567f330952a5b975d86b202b6e77be8ac4d4c5b196dfb8939239bbddcbc79257f68260001b61176b565b80600660006101000a81548173ffffffffffffffffffffffffffffffffffffffff021916908373ffffffffffffffffffffffffffffffffffffffff16021790555050565b6000600160008473ffffffffffffffffffffffffffffffffffffffff1673ffffffffffffffffffffffffffffffffffffffff16815260200190815260200160002060008373ffffffffffffffffffffffffffffffffffffffff1673ffffffffffffffffffffffffffffffffffffffff16815260200190815260200160002054905092915050565b611d4d7f021c7ccadd4d6a7d54e7455862476b71e1a1ba048f0846e5e8fcd016c869a5f360001b61176b565b611d797fab0e30e192d9133eef0e3670091a77ce1cbec77da413501fa633f2754908602660001b61176b565b611da57fb1f72e30b3a6044f0b8023a5bb661377df6833ed5e1e3a8e50e1a858cd95a73b60001b61176b565b611dd17f26f09ae3d3a38ddaf65b04bfabe2fb6ac51d96371647a25897d4aadb88a8021a60001b61176b565b3373ffffffffffffffffffffffffffffffffffffffff16600b60019054906101000a900473ffffffffffffffffffffffffffffffffffffffff1673ffffffffffffffffffffffffffffffffffffffff1614611e94576040517f08c379a00000000000000000000000000000000000000000000000000000000081526004018080602001828103825260098152602001807f6e6f74206f776e6572000000000000000000000000000000000000000000000081525060200191505060405180910390fd5b611ec07fcf0803d3c569ab3e92fe4aa0a7cd677221cd0476b4190556bdda73361ed3c3a660001b61176b565b611eec7f71e8e3287c45183ac77e39c24ce9eb9b50a6c8f34111de140b2f6a001bdf27cc60001b61176b565b611f187f63ac0db19de7dc5c6b1219c5d2dfb15acb2c5d19b4410e87ab6826ba6b74c59760001b61176b565b611f447f178f155107e4d46ffb4258e938ffa2f796e95b8260689b0f535f8ae842c0281060001b61176b565b611f707fb23a879bdbbce539ac4f0eadfa73514c80e0750ac42ca24fa31392aaf34a733660001b61176b565b8060098190555050565b611fa67f021c7ccadd4d6a7d54e7455862476b71e1a1ba048f0846e5e8fcd016c869a5f360001b61176b565b611fd27fab0e30e192d9133eef0e3670091a77ce1cbec77da413501fa633f2754908602660001b61176b565b611ffe7fb1f72e30b3a6044f0b8023a5bb661377df6833ed5e1e3a8e50e1a858cd95a73b60001b61176b565b61202a7f26f09ae3d3a38ddaf65b04bfabe2fb6ac51d96371647a25897d4aadb88a8021a60001b61176b565b3373ffffffffffffffffffffffffffffffffffffffff16600b60019054906101000a900473ffffffffffffffffffffffffffffffffffffffff1673ffffffffffffffffffffffffffffffffffffffff16146120ed576040517f08c379a00000000000000000000000000000000000000000000000000000000081526004018080602001828103825260098152602001807f6e6f74206f776e6572000000000000000000000000000000000000000000000081525060200191505060405180910390fd5b6121197fcf0803d3c569ab3e92fe4aa0a7cd677221cd0476b4190556bdda73361ed3c3a660001b61176b565b6121457f71e8e3287c45183ac77e39c24ce9eb9b50a6c8f34111de140b2f6a001bdf27cc60001b61176b565b6121717fee225945ba6a5a0b3073cb1b279e0addbe0cdf2117f64a1e3c698d3089ecbf4360001b61176b565b61219d7f1c683dc41c1db18ed3fdaa457e5be4de21a9f4413e267a6130691dfa7b7f7a7e60001b61176b565b6121c97fd03679376528de202e5e272d10feee0ed84e96604eb3058ece2a1298ff2798bb60001b61176b565b80600a8190555050565b600b60009054906101000a900460ff1681565b600560019054906101000a900473ffffffffffffffffffffffffffffffffffffffff1681565b600033905090565b600073ffffffffffffffffffffffffffffffffffffffff168373ffffffffffffffffffffffffffffffffffffffff16141561229a576040517f08c379a0000000000000000000000000000000000000000000000000000000008152600401808060200182810382526024815260200180612d416024913960400191505060405180910390fd5b600073ffffffffffffffffffffffffffffffffffffffff168273ffffffffffffffffffffffffffffffffffffffff161415612320576040517f08c379a0000000000000000000000000000000000000000000000000000000008152600401808060200182810382526022815260200180612c676022913960400191505060405180910390fd5b80600160008573ffffffffffffffffffffffffffffffffffffffff1673ffffffffffffffffffffffffffffffffffffffff16815260200190815260200160002060008473ffffffffffffffffffffffffffffffffffffffff1673ffffffffffffffffffffffffffffffffffffffff168152602001908152602001600020819055508173ffffffffffffffffffffffffffffffffffffffff168373ffffffffffffffffffffffffffffffffffffffff167f8c5be1e5ebec7d5bd14f71427d1e84f3dd0314c0f7b2291e5b200ac8c7c3b925836040518082815260200191505060405180910390a3505050565b600073ffffffffffffffffffffffffffffffffffffffff168373ffffffffffffffffffffffffffffffffffffffff161415612491576040517f08c379a0000000000000000000000000000000000000000000000000000000008152600401808060200182810382526025815260200180612d1c6025913960400191505060405180910390fd5b600073ffffffffffffffffffffffffffffffffffffffff168273ffffffffffffffffffffffffffffffffffffffff161415612517576040517f08c379a0000000000000000000000000000000000000000000000000000000008152600401808060200182810382526023815260200180612c226023913960400191505060405180910390fd5b612522838383612b99565b61258d81604051806060016040528060268152602001612c89602691396000808773ffffffffffffffffffffffffffffffffffffffff1673ffffffffffffffffffffffffffffffffffffffff168152602001908152602001600020546126cc9092919063ffffffff16565b6000808573ffffffffffffffffffffffffffffffffffffffff1673ffffffffffffffffffffffffffffffffffffffff16815260200190815260200160002081905550612620816000808573ffffffffffffffffffffffffffffffffffffffff1673ffffffffffffffffffffffffffffffffffffffff1681526020019081526020016000205461278690919063ffffffff16565b6000808473ffffffffffffffffffffffffffffffffffffffff1673ffffffffffffffffffffffffffffffffffffffff168152602001908152602001600020819055508173ffffffffffffffffffffffffffffffffffffffff168373ffffffffffffffffffffffffffffffffffffffff167fddf252ad1be2c89b69c2b068fc378daa952ba7f163c4a11628f55a4df523b3ef836040518082815260200191505060405180910390a3505050565b6000838311158290612779576040517f08c379a00000000000000000000000000000000000000000000000000000000081526004018080602001828103825283818151815260200191508051906020019080838360005b8381101561273e578082015181840152602081019050612723565b50505050905090810190601f16801561276b5780820380516001836020036101000a031916815260200191505b509250505060405180910390fd5b5082840390509392505050565b600080828401905083811015612804576040517f08c379a000000000000000000000000000000000000000000000000000000000815260040180806020018281038252601b8152602001807f536166654d6174683a206164646974696f6e206f766572666c6f77000000000081525060200191505060405180910390fd5b8091505092915050565b600073ffffffffffffffffffffffffffffffffffffffff168273ffffffffffffffffffffffffffffffffffffffff1614156128b1576040517f08c379a000000000000000000000000000000000000000000000000000000000815260040180806020018281038252601f8152602001807f45524332303a206d696e7420746f20746865207a65726f20616464726573730081525060200191505060405180910390fd5b6128bd60008383612b99565b6128d28160025461278690919063ffffffff16565b600281905550612929816000808573ffffffffffffffffffffffffffffffffffffffff1673ffffffffffffffffffffffffffffffffffffffff1681526020019081526020016000205461278690919063ffffffff16565b6000808473ffffffffffffffffffffffffffffffffffffffff1673ffffffffffffffffffffffffffffffffffffffff168152602001908152602001600020819055508173ffffffffffffffffffffffffffffffffffffffff16600073ffffffffffffffffffffffffffffffffffffffff167fddf252ad1be2c89b69c2b068fc378daa952ba7f163c4a11628f55a4df523b3ef836040518082815260200191505060405180910390a35050565b600073ffffffffffffffffffffffffffffffffffffffff168273ffffffffffffffffffffffffffffffffffffffff161415612a5b576040517f08c379a0000000000000000000000000000000000000000000000000000000008152600401808060200182810382526021815260200180612cfb6021913960400191505060405180910390fd5b612a6782600083612b99565b612ad281604051806060016040528060228152602001612c45602291396000808673ffffffffffffffffffffffffffffffffffffffff1673ffffffffffffffffffffffffffffffffffffffff168152602001908152602001600020546126cc9092919063ffffffff16565b6000808473ffffffffffffffffffffffffffffffffffffffff1673ffffffffffffffffffffffffffffffffffffffff16815260200190815260200160002081905550612b2981600254612b9e90919063ffffffff16565b600281905550600073ffffffffffffffffffffffffffffffffffffffff168273ffffffffffffffffffffffffffffffffffffffff167fddf252ad1be2c89b69c2b068fc378daa952ba7f163c4a11628f55a4df523b3ef836040518082815260200191505060405180910390a35050565b505050565b600082821115612c16576040517f08c379a000000000000000000000000000000000000000000000000000000000815260040180806020018281038252601e8152602001807f536166654d6174683a207375627472616374696f6e206f766572666c6f77000081525060200191505060405180910390fd5b81830390509291505056fe45524332303a207472616e7366657220746f20746865207a65726f206164647265737345524332303a206275726e20616d6f756e7420657863656564732062616c616e636545524332303a20617070726f766520746f20746865207a65726f206164647265737345524332303a207472616e7366657220616d6f756e7420657863656564732062616c616e636545524332303a207472616e7366657220616d6f756e74206578636565647320616c6c6f77616e636545524332303a206275726e20616d6f756e74206578636565647320616c6c6f77616e636545524332303a206275726e2066726f6d20746865207a65726f206164647265737345524332303a207472616e736665722066726f6d20746865207a65726f206164647265737345524332303a20617070726f76652066726f6d20746865207a65726f206164647265737345524332303a2064656372656173656420616c6c6f77616e63652062656c6f77207a65726fa2646970667358221220bf281866bf5ca583349ade1bc3e3ae188137230e78c288683cb92b7bd1211c3964736f6c63430007060033",
  "linkReferences": {},
  "deployedLinkReferences": {}
}