{
  "_format": "hh-sol-artifact-1",
  "contractName": "OpynV2OTokenMock",
  "sourceName": "contracts/test-utils/OpynV2OTokenMock.sol",
  "abi": [
    {
      "inputs": [
        {
          "internalType": "address",
          "name": "_collateralAsset",
          "type": "address"
        },
        {
          "internalType": "address",
          "name": "_underlyingAddress",
          "type": "address"
        },
        {
          "internalType": "address",
          "name": "_strikeAsset",
          "type": "address"
        },
        {
          "internalType": "uint256",
          "name": "_strikePrice",
          "type": "uint256"
        },
        {
          "internalType": "uint256",
          "name": "_expiryTimestamp",
          "type": "uint256"
        },
        {
          "internalType": "bool",
          "name": "_isPut",
          "type": "bool"
        }
      ],
      "stateMutability": "nonpayable",
      "type": "constructor"
    },
    {
      "anonymous": false,
      "inputs": [
        {
          "indexed": true,
          "internalType": "address",
          "name": "owner",
          "type": "address"
        },
        {
          "indexed": true,
          "internalType": "address",
          "name": "spender",
          "type": "address"
        },
        {
          "indexed": false,
          "internalType": "uint256",
          "name": "value",
          "type": "uint256"
        }
      ],
      "name": "Approval",
      "type": "event"
    },
    {
      "anonymous": false,
      "inputs": [
        {
          "indexed": true,
          "internalType": "address",
          "name": "from",
          "type": "address"
        },
        {
          "indexed": true,
          "internalType": "address",
          "name": "to",
          "type": "address"
        },
        {
          "indexed": false,
          "internalType": "uint256",
          "name": "value",
          "type": "uint256"
        }
      ],
      "name": "Transfer",
      "type": "event"
    },
    {
      "inputs": [
        {
          "internalType": "address",
          "name": "owner",
          "type": "address"
        },
        {
          "internalType": "address",
          "name": "spender",
          "type": "address"
        }
      ],
      "name": "allowance",
      "outputs": [
        {
          "internalType": "uint256",
          "name": "",
          "type": "uint256"
        }
      ],
      "stateMutability": "view",
      "type": "function"
    },
    {
      "inputs": [
        {
          "internalType": "address",
          "name": "spender",
          "type": "address"
        },
        {
          "internalType": "uint256",
          "name": "amount",
          "type": "uint256"
        }
      ],
      "name": "approve",
      "outputs": [
        {
          "internalType": "bool",
          "name": "",
          "type": "bool"
        }
      ],
      "stateMutability": "nonpayable",
      "type": "function"
    },
    {
      "inputs": [
        {
          "internalType": "address",
          "name": "account",
          "type": "address"
        }
      ],
      "name": "balanceOf",
      "outputs": [
        {
          "internalType": "uint256",
          "name": "",
          "type": "uint256"
        }
      ],
      "stateMutability": "view",
      "type": "function"
    },
    {
      "inputs": [
        {
          "internalType": "uint256",
          "name": "amount",
          "type": "uint256"
        }
      ],
      "name": "burn",
      "outputs": [],
      "stateMutability": "nonpayable",
      "type": "function"
    },
    {
      "inputs": [
        {
          "internalType": "address",
          "name": "acc",
          "type": "address"
        },
        {
          "internalType": "uint256",
          "name": "am",
          "type": "uint256"
        }
      ],
      "name": "burn",
      "outputs": [],
      "stateMutability": "nonpayable",
      "type": "function"
    },
    {
      "inputs": [
        {
          "internalType": "address",
          "name": "account",
          "type": "address"
        },
        {
          "internalType": "uint256",
          "name": "amount",
          "type": "uint256"
        }
      ],
      "name": "burnFrom",
      "outputs": [],
      "stateMutability": "nonpayable",
      "type": "function"
    },
    {
      "inputs": [],
      "name": "collateralAsset",
      "outputs": [
        {
          "internalType": "address",
          "name": "",
          "type": "address"
        }
      ],
      "stateMutability": "view",
      "type": "function"
    },
    {
      "inputs": [],
      "name": "controller",
      "outputs": [
        {
          "internalType": "address",
          "name": "",
          "type": "address"
        }
      ],
      "stateMutability": "view",
      "type": "function"
    },
    {
      "inputs": [],
      "name": "decimals",
      "outputs": [
        {
          "internalType": "uint8",
          "name": "",
          "type": "uint8"
        }
      ],
      "stateMutability": "view",
      "type": "function"
    },
    {
      "inputs": [
        {
          "internalType": "address",
          "name": "spender",
          "type": "address"
        },
        {
          "internalType": "uint256",
          "name": "subtractedValue",
          "type": "uint256"
        }
      ],
      "name": "decreaseAllowance",
      "outputs": [
        {
          "internalType": "bool",
          "name": "",
          "type": "bool"
        }
      ],
      "stateMutability": "nonpayable",
      "type": "function"
    },
    {
      "inputs": [],
      "name": "expiryTimestamp",
      "outputs": [
        {
          "internalType": "uint256",
          "name": "",
          "type": "uint256"
        }
      ],
      "stateMutability": "view",
      "type": "function"
    },
    {
      "inputs": [],
      "name": "getOtokenDetails",
      "outputs": [
        {
          "internalType": "address",
          "name": "",
          "type": "address"
        },
        {
          "internalType": "address",
          "name": "",
          "type": "address"
        },
        {
          "internalType": "address",
          "name": "",
          "type": "address"
        },
        {
          "internalType": "uint256",
          "name": "",
          "type": "uint256"
        },
        {
          "internalType": "uint256",
          "name": "",
          "type": "uint256"
        },
        {
          "internalType": "bool",
          "name": "",
          "type": "bool"
        }
      ],
      "stateMutability": "view",
      "type": "function"
    },
    {
      "inputs": [
        {
          "internalType": "address",
          "name": "spender",
          "type": "address"
        },
        {
          "internalType": "uint256",
          "name": "addedValue",
          "type": "uint256"
        }
      ],
      "name": "increaseAllowance",
      "outputs": [
        {
          "internalType": "bool",
          "name": "",
          "type": "bool"
        }
      ],
      "stateMutability": "nonpayable",
      "type": "function"
    },
    {
      "inputs": [],
      "name": "isPut",
      "outputs": [
        {
          "internalType": "bool",
          "name": "",
          "type": "bool"
        }
      ],
      "stateMutability": "view",
      "type": "function"
    },
    {
      "inputs": [
        {
          "internalType": "address",
          "name": "acc",
          "type": "address"
        },
        {
          "internalType": "uint256",
          "name": "am",
          "type": "uint256"
        }
      ],
      "name": "mint",
      "outputs": [],
      "stateMutability": "nonpayable",
      "type": "function"
    },
    {
      "inputs": [],
      "name": "name",
      "outputs": [
        {
          "internalType": "string",
          "name": "",
          "type": "string"
        }
      ],
      "stateMutability": "view",
      "type": "function"
    },
    {
      "inputs": [],
      "name": "owner",
      "outputs": [
        {
          "internalType": "address",
          "name": "",
          "type": "address"
        }
      ],
      "stateMutability": "view",
      "type": "function"
    },
    {
      "inputs": [
        {
          "internalType": "address",
          "name": "_collateralAsset",
          "type": "address"
        }
      ],
      "name": "setCollateralAsset",
      "outputs": [],
      "stateMutability": "nonpayable",
      "type": "function"
    },
    {
      "inputs": [
        {
          "internalType": "uint256",
          "name": "_expiryTimestamp",
          "type": "uint256"
        }
      ],
      "name": "setExpiryTimestamp",
      "outputs": [],
      "stateMutability": "nonpayable",
      "type": "function"
    },
    {
      "inputs": [
        {
          "internalType": "bool",
          "name": "_isPut",
          "type": "bool"
        }
      ],
      "name": "setPut",
      "outputs": [],
      "stateMutability": "nonpayable",
      "type": "function"
    },
    {
      "inputs": [
        {
          "internalType": "address",
          "name": "_strikeAsset",
          "type": "address"
        }
      ],
      "name": "setStrikeAsset",
      "outputs": [],
      "stateMutability": "nonpayable",
      "type": "function"
    },
    {
      "inputs": [
        {
          "internalType": "uint256",
          "name": "_strikePrice",
          "type": "uint256"
        }
      ],
      "name": "setStrikePrice",
      "outputs": [],
      "stateMutability": "nonpayable",
      "type": "function"
    },
    {
      "inputs": [
        {
          "internalType": "address",
          "name": "_underlyingAsset",
          "type": "address"
        }
      ],
      "name": "setUnderlyingAsset",
      "outputs": [],
      "stateMutability": "nonpayable",
      "type": "function"
    },
    {
      "inputs": [],
      "name": "strikeAsset",
      "outputs": [
        {
          "internalType": "address",
          "name": "",
          "type": "address"
        }
      ],
      "stateMutability": "view",
      "type": "function"
    },
    {
      "inputs": [],
      "name": "strikePrice",
      "outputs": [
        {
          "internalType": "uint256",
          "name": "",
          "type": "uint256"
        }
      ],
      "stateMutability": "view",
      "type": "function"
    },
    {
      "inputs": [],
      "name": "symbol",
      "outputs": [
        {
          "internalType": "string",
          "name": "",
          "type": "string"
        }
      ],
      "stateMutability": "view",
      "type": "function"
    },
    {
      "inputs": [],
      "name": "totalSupply",
      "outputs": [
        {
          "internalType": "uint256",
          "name": "",
          "type": "uint256"
        }
      ],
      "stateMutability": "view",
      "type": "function"
    },
    {
      "inputs": [
        {
          "internalType": "address",
          "name": "recipient",
          "type": "address"
        },
        {
          "internalType": "uint256",
          "name": "amount",
          "type": "uint256"
        }
      ],
      "name": "transfer",
      "outputs": [
        {
          "internalType": "bool",
          "name": "",
          "type": "bool"
        }
      ],
      "stateMutability": "nonpayable",
      "type": "function"
    },
    {
      "inputs": [
        {
          "internalType": "address",
          "name": "sender",
          "type": "address"
        },
        {
          "internalType": "address",
          "name": "recipient",
          "type": "address"
        },
        {
          "internalType": "uint256",
          "name": "amount",
          "type": "uint256"
        }
      ],
      "name": "transferFrom",
      "outputs": [
        {
          "internalType": "bool",
          "name": "",
          "type": "bool"
        }
      ],
      "stateMutability": "nonpayable",
      "type": "function"
    },
    {
      "inputs": [],
      "name": "underlyingAsset",
      "outputs": [
        {
          "internalType": "address",
          "name": "",
          "type": "address"
        }
      ],
      "stateMutability": "view",
      "type": "function"
    }
  ],
  "bytecode": "0x60806040523480156200001157600080fd5b506040516200156a3803806200156a833981810160405260c08110156200003757600080fd5b5080516020808301516040808501516060860151608087015160a09097015183518085018552600b81526a1bd51bdad95b8b551154d560aa1b8188019081528551808701909652600586526413d51154d560da1b97860197909752805197989597939692959491939092620000b0916003919062000147565b508051620000c690600490602084019062000147565b505060058054601260ff1991821617909155600680546001600160a01b03199081166001600160a01b039a8b1617909155600780548216988a1698909817909755600880549097169590971694909417909455600991909155600a5550600b805490921690151517610100600160a81b0319166101003302179055620001f3565b828054600181600116156101000203166002900490600052602060002090601f0160209004810192826200017f5760008555620001ca565b82601f106200019a57805160ff1916838001178555620001ca565b82800160010185558215620001ca579182015b82811115620001ca578251825591602001919060010190620001ad565b50620001d8929150620001dc565b5090565b5b80821115620001d85760008155600101620001dd565b61136780620002036000396000f3fe608060405234801561001057600080fd5b50600436106101da5760003560e01c806395d89b4111610104578063c0df78f6116100a2578063e488cd9f11610071578063e488cd9f146105b4578063e58d8935146105d1578063f3c274a6146105ee578063f77c4791146105f6576101da565b8063c0df78f614610532578063c52987cf14610558578063d82d842114610560578063dd62ed3e14610586576101da565b8063a9059cbb116100de578063a9059cbb146104ac578063aabaecd6146104d8578063ade6e2aa146104e0578063af0968fc146104e8576101da565b806395d89b411461044c5780639dc29fac14610454578063a457c2d714610480576101da565b8063395093511161017c57806370a082311161014b57806370a08231146103ea5780637158da7c1461041057806379cc6790146104185780638da5cb5b14610444576101da565b8063395093511461035657806340c10f191461038257806342966c68146103ae5780637080e849146103cb576101da565b806318160ddd116101b857806318160ddd146102c057806323b872dd146102da57806325671dcb14610310578063313ce56714610338576101da565b806306fdde03146101df578063095ea7b31461025c57806317d69bc81461029c575b600080fd5b6101e76105fe565b6040805160208082528351818301528351919283929083019185019080838360005b83811015610221578181015183820152602001610209565b50505050905090810190601f16801561024e5780820380516001836020036101000a031916815260200191505b509250505060405180910390f35b6102886004803603604081101561027257600080fd5b506001600160a01b038135169060200135610694565b604080519115158252519081900360200190f35b6102a46106b1565b604080516001600160a01b039092168252519081900360200190f35b6102c86106c0565b60408051918252519081900360200190f35b610288600480360360608110156102f057600080fd5b506001600160a01b038135811691602081013590911690604001356106c6565b6103366004803603602081101561032657600080fd5b50356001600160a01b031661074d565b005b6103406107bf565b6040805160ff9092168252519081900360200190f35b6102886004803603604081101561036c57600080fd5b506001600160a01b0381351690602001356107c8565b6103366004803603604081101561039857600080fd5b506001600160a01b038135169060200135610816565b610336600480360360208110156103c457600080fd5b5035610824565b610336600480360360208110156103e157600080fd5b50351515610838565b6102c86004803603602081101561040057600080fd5b50356001600160a01b031661089b565b6102a46108b6565b6103366004803603604081101561042e57600080fd5b506001600160a01b0381351690602001356108c5565b6102a461091f565b6101e7610933565b6103366004803603604081101561046a57600080fd5b506001600160a01b038135169060200135610994565b6102886004803603604081101561049657600080fd5b506001600160a01b03813516906020013561099e565b610288600480360360408110156104c257600080fd5b506001600160a01b038135169060200135610a06565b6102a4610a1a565b6102c8610a29565b6104f0610a2f565b604080516001600160a01b039788168152958716602087015293909516848401526060840191909152608083015291151560a082015290519081900360c00190f35b6103366004803603602081101561054857600080fd5b50356001600160a01b0316610a61565b6102c8610ad3565b6103366004803603602081101561057657600080fd5b50356001600160a01b0316610ad9565b6102c86004803603604081101561059c57600080fd5b506001600160a01b0381358116916020013516610b4b565b610336600480360360208110156105ca57600080fd5b5035610b76565b610336600480360360208110156105e757600080fd5b5035610bcb565b610288610c20565b6102a4610c29565b60038054604080516020601f600260001961010060018816150201909516949094049384018190048102820181019092528281526060939092909183018282801561068a5780601f1061065f5761010080835404028352916020019161068a565b820191906000526020600020905b81548152906001019060200180831161066d57829003601f168201915b5050505050905090565b60006106a86106a1610c3d565b8484610c41565b50600192915050565b6008546001600160a01b031681565b60025490565b60006106d3848484610d2d565b610743846106df610c3d565b61073e85604051806060016040528060288152602001611257602891396001600160a01b038a1660009081526001602052604081209061071d610c3d565b6001600160a01b031681526020810191909152604001600020549190610e88565b610c41565b5060019392505050565b600b5461010090046001600160a01b0316331461079d576040805162461bcd60e51b81526020600482015260096024820152683737ba1037bbb732b960b91b604482015290519081900360640190fd5b600780546001600160a01b0319166001600160a01b0392909216919091179055565b60055460ff1690565b60006106a86107d5610c3d565b8461073e85600160006107e6610c3d565b6001600160a01b03908116825260208083019390935260409182016000908120918c168152925290205490610f1f565b6108208282610f80565b5050565b61083561082f610c3d565b82611070565b50565b600b5461010090046001600160a01b03163314610888576040805162461bcd60e51b81526020600482015260096024820152683737ba1037bbb732b960b91b604482015290519081900360640190fd5b600b805460ff1916911515919091179055565b6001600160a01b031660009081526020819052604090205490565b6007546001600160a01b031681565b60006108fc8260405180606001604052806024815260200161127f602491396108f5866108f0610c3d565b610b4b565b9190610e88565b90506109108361090a610c3d565b83610c41565b61091a8383611070565b505050565b600b5461010090046001600160a01b031681565b60048054604080516020601f600260001961010060018816150201909516949094049384018190048102820181019092528281526060939092909183018282801561068a5780601f1061065f5761010080835404028352916020019161068a565b6108208282611070565b60006106a86109ab610c3d565b8461073e8560405180606001604052806025815260200161130d60259139600160006109d5610c3d565b6001600160a01b03908116825260208083019390935260409182016000908120918d16815292529020549190610e88565b60006106a8610a13610c3d565b8484610d2d565b6006546001600160a01b031681565b600a5481565b600654600754600854600954600a54600b546001600160a01b039586169594851694939093169260ff16909192939495565b600b5461010090046001600160a01b03163314610ab1576040805162461bcd60e51b81526020600482015260096024820152683737ba1037bbb732b960b91b604482015290519081900360640190fd5b600880546001600160a01b0319166001600160a01b0392909216919091179055565b60095481565b600b5461010090046001600160a01b03163314610b29576040805162461bcd60e51b81526020600482015260096024820152683737ba1037bbb732b960b91b604482015290519081900360640190fd5b600680546001600160a01b0319166001600160a01b0392909216919091179055565b6001600160a01b03918216600090815260016020908152604080832093909416825291909152205490565b600b5461010090046001600160a01b03163314610bc6576040805162461bcd60e51b81526020600482015260096024820152683737ba1037bbb732b960b91b604482015290519081900360640190fd5b600955565b600b5461010090046001600160a01b03163314610c1b576040805162461bcd60e51b81526020600482015260096024820152683737ba1037bbb732b960b91b604482015290519081900360640190fd5b600a55565b600b5460ff1681565b60055461010090046001600160a01b031681565b3390565b6001600160a01b038316610c865760405162461bcd60e51b81526004018080602001828103825260248152602001806112e96024913960400191505060405180910390fd5b6001600160a01b038216610ccb5760405162461bcd60e51b815260040180806020018281038252602281526020018061120f6022913960400191505060405180910390fd5b6001600160a01b03808416600081815260016020908152604080832094871680845294825291829020859055815185815291517f8c5be1e5ebec7d5bd14f71427d1e84f3dd0314c0f7b2291e5b200ac8c7c3b9259281900390910190a3505050565b6001600160a01b038316610d725760405162461bcd60e51b81526004018080602001828103825260258152602001806112c46025913960400191505060405180910390fd5b6001600160a01b038216610db75760405162461bcd60e51b81526004018080602001828103825260238152602001806111ca6023913960400191505060405180910390fd5b610dc283838361091a565b610dff81604051806060016040528060268152602001611231602691396001600160a01b0386166000908152602081905260409020549190610e88565b6001600160a01b038085166000908152602081905260408082209390935590841681522054610e2e9082610f1f565b6001600160a01b038084166000818152602081815260409182902094909455805185815290519193928716927fddf252ad1be2c89b69c2b068fc378daa952ba7f163c4a11628f55a4df523b3ef92918290030190a3505050565b60008184841115610f175760405162461bcd60e51b81526004018080602001828103825283818151815260200191508051906020019080838360005b83811015610edc578181015183820152602001610ec4565b50505050905090810190601f168015610f095780820380516001836020036101000a031916815260200191505b509250505060405180910390fd5b505050900390565b600082820183811015610f79576040805162461bcd60e51b815260206004820152601b60248201527f536166654d6174683a206164646974696f6e206f766572666c6f770000000000604482015290519081900360640190fd5b9392505050565b6001600160a01b038216610fdb576040805162461bcd60e51b815260206004820152601f60248201527f45524332303a206d696e7420746f20746865207a65726f206164647265737300604482015290519081900360640190fd5b610fe76000838361091a565b600254610ff49082610f1f565b6002556001600160a01b03821660009081526020819052604090205461101a9082610f1f565b6001600160a01b0383166000818152602081815260408083209490945583518581529351929391927fddf252ad1be2c89b69c2b068fc378daa952ba7f163c4a11628f55a4df523b3ef9281900390910190a35050565b6001600160a01b0382166110b55760405162461bcd60e51b81526004018080602001828103825260218152602001806112a36021913960400191505060405180910390fd5b6110c18260008361091a565b6110fe816040518060600160405280602281526020016111ed602291396001600160a01b0385166000908152602081905260409020549190610e88565b6001600160a01b038316600090815260208190526040902055600254611124908261116c565b6002556040805182815290516000916001600160a01b038516917fddf252ad1be2c89b69c2b068fc378daa952ba7f163c4a11628f55a4df523b3ef9181900360200190a35050565b6000828211156111c3576040805162461bcd60e51b815260206004820152601e60248201527f536166654d6174683a207375627472616374696f6e206f766572666c6f770000604482015290519081900360640190fd5b5090039056fe45524332303a207472616e7366657220746f20746865207a65726f206164647265737345524332303a206275726e20616d6f756e7420657863656564732062616c616e636545524332303a20617070726f766520746f20746865207a65726f206164647265737345524332303a207472616e7366657220616d6f756e7420657863656564732062616c616e636545524332303a207472616e7366657220616d6f756e74206578636565647320616c6c6f77616e636545524332303a206275726e20616d6f756e74206578636565647320616c6c6f77616e636545524332303a206275726e2066726f6d20746865207a65726f206164647265737345524332303a207472616e736665722066726f6d20746865207a65726f206164647265737345524332303a20617070726f76652066726f6d20746865207a65726f206164647265737345524332303a2064656372656173656420616c6c6f77616e63652062656c6f77207a65726fa2646970667358221220eed333d2d838b8634f103b4e91539e25ddbd48551c55127e1c74f189853c574764736f6c63430007060033",
  "linkReferences": {},
  "deployedLinkReferences": {}
}