{
  "_format": "hh-sol-artifact-1",
  "contractName": "CollateralJoinMock",
  "sourceName": "contracts/test-utils/CollateralJoinMock.sol",
  "abi": [
    {
      "inputs": [
        {
          "internalType": "address",
          "name": "__safeEngine",
          "type": "address"
        },
        {
          "internalType": "bytes32",
          "name": "__collateralType",
          "type": "bytes32"
        },
        {
          "internalType": "address",
          "name": "__collateral",
          "type": "address"
        },
        {
          "internalType": "uint256",
          "name": "__decimals",
          "type": "uint256"
        },
        {
          "internalType": "uint256",
          "name": "__contractEnabled",
          "type": "uint256"
        }
      ],
      "stateMutability": "nonpayable",
      "type": "constructor"
    },
    {
      "inputs": [],
      "name": "collateral",
      "outputs": [
        {
          "internalType": "address",
          "name": "",
          "type": "address"
        }
      ],
      "stateMutability": "view",
      "type": "function"
    },
    {
      "inputs": [],
      "name": "collateralType",
      "outputs": [
        {
          "internalType": "bytes32",
          "name": "",
          "type": "bytes32"
        }
      ],
      "stateMutability": "view",
      "type": "function"
    },
    {
      "inputs": [],
      "name": "contractEnabled",
      "outputs": [
        {
          "internalType": "uint256",
          "name": "",
          "type": "uint256"
        }
      ],
      "stateMutability": "view",
      "type": "function"
    },
    {
      "inputs": [],
      "name": "decimals",
      "outputs": [
        {
          "internalType": "uint256",
          "name": "",
          "type": "uint256"
        }
      ],
      "stateMutability": "view",
      "type": "function"
    },
    {
      "inputs": [
        {
          "internalType": "address",
          "name": "owner",
          "type": "address"
        },
        {
          "internalType": "uint256",
          "name": "amount",
          "type": "uint256"
        }
      ],
      "name": "join",
      "outputs": [],
      "stateMutability": "nonpayable",
      "type": "function"
    },
    {
      "inputs": [],
      "name": "safeEngine",
      "outputs": [
        {
          "internalType": "address",
          "name": "",
          "type": "address"
        }
      ],
      "stateMutability": "view",
      "type": "function"
    }
  ],
  "bytecode": "0x608060405234801561001057600080fd5b506040516101f03803806101f0833981810160405260a081101561003357600080fd5b508051602082015160408301516060840151608090940151600080546001600160a01b039586166001600160a01b031991821617909155600193909355600280549490921693909216929092179091556003919091556004556101558061009b6000396000f3fe608060405234801561001057600080fd5b50600436106100625760003560e01c8063313ce567146100675780633b4da69f1461008157806341b3a0d9146100af57806367aea313146100b7578063d8dfeb45146100db578063e824600f146100e3575b600080fd5b61006f6100eb565b60408051918252519081900360200190f35b6100ad6004803603604081101561009757600080fd5b506001600160a01b0381351690602001356100f1565b005b61006f6100f5565b6100bf6100fb565b604080516001600160a01b039092168252519081900360200190f35b6100bf61010a565b61006f610119565b60035490565b5050565b60045490565b6000546001600160a01b031690565b6002546001600160a01b031690565b6001549056fea2646970667358221220a6364acf6a945ffb6d47a782114dd3c8046cbefc0980764e3b7a925c86bc8c5164736f6c63430007060033",
  "linkReferences": {},
  "deployedLinkReferences": {}
}