{
  "_format": "hh-sol-artifact-1",
  "contractName": "OracleRelayerMock",
  "sourceName": "contracts/test-utils/OracleRelayerMock.sol",
  "abi": [
    {
      "inputs": [
        {
          "internalType": "bytes32",
          "name": "_collateral",
          "type": "bytes32"
        }
      ],
      "name": "collateralTypes",
      "outputs": [
        {
          "internalType": "address",
          "name": "",
          "type": "address"
        },
        {
          "internalType": "uint256",
          "name": "",
          "type": "uint256"
        },
        {
          "internalType": "uint256",
          "name": "",
          "type": "uint256"
        }
      ],
      "stateMutability": "view",
      "type": "function"
    },
    {
      "inputs": [
        {
          "internalType": "bytes32",
          "name": "collateralType",
          "type": "bytes32"
        }
      ],
      "name": "liquidationCRatio",
      "outputs": [
        {
          "internalType": "uint256",
          "name": "",
          "type": "uint256"
        }
      ],
      "stateMutability": "view",
      "type": "function"
    },
    {
      "inputs": [],
      "name": "redemptionPrice",
      "outputs": [
        {
          "internalType": "uint256",
          "name": "",
          "type": "uint256"
        }
      ],
      "stateMutability": "view",
      "type": "function"
    },
    {
      "inputs": [
        {
          "internalType": "bytes32",
          "name": "_collateral",
          "type": "bytes32"
        },
        {
          "internalType": "address",
          "name": "_orcl",
          "type": "address"
        },
        {
          "internalType": "uint256",
          "name": "_safetyCRatio",
          "type": "uint256"
        },
        {
          "internalType": "uint256",
          "name": "_liquidationCRatio",
          "type": "uint256"
        }
      ],
      "name": "setCollateralType",
      "outputs": [],
      "stateMutability": "nonpayable",
      "type": "function"
    },
    {
      "inputs": [
        {
          "internalType": "uint256",
          "name": "__redemptionPrice",
          "type": "uint256"
        }
      ],
      "name": "setRedemptionPrice",
      "outputs": [],
      "stateMutability": "nonpayable",
      "type": "function"
    }
  ],
  "bytecode": "0x608060405234801561001057600080fd5b5061021b806100206000396000f3fe608060405234801561001057600080fd5b50600436106100575760003560e01c8063048e4b3c1461005c57806341e795ff1461009657806375502d3c146100b3578063c5b748c0146100e2578063d07900bb146100ea575b600080fd5b6100946004803603608081101561007257600080fd5b508035906001600160a01b03602082013516906040810135906060013561012f565b005b610094600480360360208110156100ac57600080fd5b5035610183565b6100d0600480360360208110156100c957600080fd5b5035610188565b60408051918252519081900360200190f35b6100d061019d565b6101076004803603602081101561010057600080fd5b50356101a3565b604080516001600160a01b039094168452602084019290925282820152519081900360600190f35b604080516060810182526001600160a01b039485168152602080820194855281830193845260009687528690529420935184546001600160a01b031916931692909217835551600183015551600290910155565b600155565b60009081526020819052604090206002015490565b60015490565b60008181526020818152604091829020825160608101845281546001600160a01b0316808252600183015493820184905260029092015493018390529390925056fea2646970667358221220b95ed498bd289c305ddf5bc402647cdbb0d86a01d73f4f0a36f7ddb205e6838f64736f6c63430007060033",
  "linkReferences": {},
  "deployedLinkReferences": {}
}