{
  "_format": "hh-sol-artifact-1",
  "contractName": "LiquidationEngineMock",
  "sourceName": "contracts/test-utils/LiquidationEngineMock.sol",
  "abi": [
    {
      "inputs": [
        {
          "internalType": "address",
          "name": "",
          "type": "address"
        }
      ],
      "name": "_safeSaviours",
      "outputs": [
        {
          "internalType": "uint256",
          "name": "",
          "type": "uint256"
        }
      ],
      "stateMutability": "view",
      "type": "function"
    },
    {
      "inputs": [
        {
          "internalType": "address",
          "name": "safe",
          "type": "address"
        }
      ],
      "name": "safeSaviours",
      "outputs": [
        {
          "internalType": "uint256",
          "name": "",
          "type": "uint256"
        }
      ],
      "stateMutability": "view",
      "type": "function"
    },
    {
      "inputs": [
        {
          "internalType": "address",
          "name": "safe",
          "type": "address"
        },
        {
          "internalType": "uint256",
          "name": "saviour",
          "type": "uint256"
        }
      ],
      "name": "setSafeSaviour",
      "outputs": [],
      "stateMutability": "nonpayable",
      "type": "function"
    }
  ],
  "bytecode": "0x608060405234801561001057600080fd5b50610151806100206000396000f3fe608060405234801561001057600080fd5b50600436106100415760003560e01c80631546c864146100465780631d6598ee1461007e5780635626da24146100ac575b600080fd5b61006c6004803603602081101561005c57600080fd5b50356001600160a01b03166100d2565b60408051918252519081900360200190f35b6100aa6004803603604081101561009457600080fd5b506001600160a01b0381351690602001356100e4565b005b61006c600480360360208110156100c257600080fd5b50356001600160a01b0316610100565b60006020819052908152604090205481565b6001600160a01b03909116600090815260208190526040902055565b6001600160a01b03166000908152602081905260409020549056fea2646970667358221220e66625f5cd8c0703452e2a97019af409d9ff6daa3cf3344c68826c81d706299664736f6c63430007060033",
  "linkReferences": {},
  "deployedLinkReferences": {}
}