{
  "_format": "hh-sol-artifact-1",
  "contractName": "LiquidationEngineMock",
  "sourceName": "contracts/test-utils/LiquidationEngineMock.sol",
  "abi": [
    {
      "inputs": [
        {
          "internalType": "address",
          "name": "",
          "type": "address"
        }
      ],
      "name": "_safeSaviours",
      "outputs": [
        {
          "internalType": "uint256",
          "name": "",
          "type": "uint256"
        }
      ],
      "stateMutability": "view",
      "type": "function"
    },
    {
      "inputs": [
        {
          "internalType": "address",
          "name": "safe",
          "type": "address"
        }
      ],
      "name": "safeSaviours",
      "outputs": [
        {
          "internalType": "uint256",
          "name": "",
          "type": "uint256"
        }
      ],
      "stateMutability": "view",
      "type": "function"
    },
    {
      "inputs": [
        {
          "internalType": "address",
          "name": "saviour",
          "type": "address"
        }
      ],
      "name": "toggleSafeSaviour",
      "outputs": [],
      "stateMutability": "nonpayable",
      "type": "function"
    }
  ],
  "bytecode": "0x608060405234801561001057600080fd5b50610152806100206000396000f3fe608060405234801561001057600080fd5b50600436106100415760003560e01c80631546c864146100465780635626da241461007e578063bbc97184146100a4575b600080fd5b61006c6004803603602081101561005c57600080fd5b50356001600160a01b03166100cc565b60408051918252519081900360200190f35b61006c6004803603602081101561009457600080fd5b50356001600160a01b03166100de565b6100ca600480360360208110156100ba57600080fd5b50356001600160a01b03166100f9565b005b60006020819052908152604090205481565b6001600160a01b031660009081526020819052604090205490565b6001600160a01b031660009081526020819052604090208054600190810116905556fea2646970667358221220108e5687715847dddf5a3eacffb0b8b2268d83b27f6c74af284ae5ff09aa710064736f6c63430007060033",
  "linkReferences": {},
  "deployedLinkReferences": {}
}