{
  "_format": "hh-sol-artifact-1",
  "contractName": "OpynSafeSaviourOperator",
  "sourceName": "contracts/saviours/OpynSafeSaviourOperator.sol",
  "abi": [
    {
      "inputs": [
        {
          "internalType": "address",
          "name": "opynV2Controller_",
          "type": "address"
        },
        {
          "internalType": "address",
          "name": "opynV2Whitelist_",
          "type": "address"
        },
        {
          "internalType": "address",
          "name": "uniswapV2Router02_",
          "type": "address"
        },
        {
          "internalType": "address",
          "name": "saviourRegistry_",
          "type": "address"
        }
      ],
      "stateMutability": "nonpayable",
      "type": "constructor"
    },
    {
      "anonymous": false,
      "inputs": [
        {
          "indexed": false,
          "internalType": "address",
          "name": "oToken",
          "type": "address"
        },
        {
          "indexed": false,
          "internalType": "uint256",
          "name": "whitelistState",
          "type": "uint256"
        }
      ],
      "name": "ToggleOToken",
      "type": "event"
    },
    {
      "inputs": [
        {
          "internalType": "bytes32",
          "name": "c__0x4ea88d92",
          "type": "bytes32"
        }
      ],
      "name": "c_0x4ea88d92",
      "outputs": [],
      "stateMutability": "pure",
      "type": "function"
    },
    {
      "inputs": [
        {
          "internalType": "bytes32",
          "name": "c__0x808453a0",
          "type": "bytes32"
        }
      ],
      "name": "c_0x808453a0",
      "outputs": [],
      "stateMutability": "pure",
      "type": "function"
    },
    {
      "inputs": [
        {
          "internalType": "address",
          "name": "_otoken",
          "type": "address"
        },
        {
          "internalType": "uint256",
          "name": "_requiredOutputAmount",
          "type": "uint256"
        },
        {
          "internalType": "address",
          "name": "_safeCollateralAddress",
          "type": "address"
        }
      ],
      "name": "getOTokenAmountToApprove",
      "outputs": [
        {
          "internalType": "uint256",
          "name": "",
          "type": "uint256"
        }
      ],
      "stateMutability": "view",
      "type": "function"
    },
    {
      "inputs": [
        {
          "internalType": "address",
          "name": "_otoken",
          "type": "address"
        },
        {
          "internalType": "uint256",
          "name": "_amount",
          "type": "uint256"
        }
      ],
      "name": "getOpynPayout",
      "outputs": [
        {
          "internalType": "uint256",
          "name": "",
          "type": "uint256"
        }
      ],
      "stateMutability": "view",
      "type": "function"
    },
    {
      "inputs": [
        {
          "internalType": "address",
          "name": "_otoken",
          "type": "address"
        }
      ],
      "name": "isOTokenPutOption",
      "outputs": [
        {
          "internalType": "bool",
          "name": "",
          "type": "bool"
        }
      ],
      "stateMutability": "view",
      "type": "function"
    },
    {
      "inputs": [
        {
          "internalType": "address",
          "name": "",
          "type": "address"
        }
      ],
      "name": "oTokenSelection",
      "outputs": [
        {
          "internalType": "address",
          "name": "",
          "type": "address"
        }
      ],
      "stateMutability": "view",
      "type": "function"
    },
    {
      "inputs": [
        {
          "internalType": "address",
          "name": "",
          "type": "address"
        }
      ],
      "name": "oTokenWhitelist",
      "outputs": [
        {
          "internalType": "uint256",
          "name": "",
          "type": "uint256"
        }
      ],
      "stateMutability": "view",
      "type": "function"
    },
    {
      "inputs": [],
      "name": "opynV2Controller",
      "outputs": [
        {
          "internalType": "contract OpynV2ControllerLike",
          "name": "",
          "type": "address"
        }
      ],
      "stateMutability": "view",
      "type": "function"
    },
    {
      "inputs": [],
      "name": "opynV2Whitelist",
      "outputs": [
        {
          "internalType": "contract OpynV2WhitelistLike",
          "name": "",
          "type": "address"
        }
      ],
      "stateMutability": "view",
      "type": "function"
    },
    {
      "inputs": [
        {
          "internalType": "address",
          "name": "_otoken",
          "type": "address"
        },
        {
          "internalType": "uint256",
          "name": "_amountIn",
          "type": "uint256"
        },
        {
          "internalType": "uint256",
          "name": "_amountOut",
          "type": "uint256"
        },
        {
          "internalType": "address",
          "name": "_safeCollateral",
          "type": "address"
        }
      ],
      "name": "redeemAndSwapOTokens",
      "outputs": [],
      "stateMutability": "nonpayable",
      "type": "function"
    },
    {
      "inputs": [],
      "name": "saviourRegistry",
      "outputs": [
        {
          "internalType": "contract SAFESaviourRegistryLike",
          "name": "",
          "type": "address"
        }
      ],
      "stateMutability": "view",
      "type": "function"
    },
    {
      "inputs": [
        {
          "internalType": "address",
          "name": "_otoken",
          "type": "address"
        }
      ],
      "name": "toggleOToken",
      "outputs": [],
      "stateMutability": "nonpayable",
      "type": "function"
    },
    {
      "inputs": [],
      "name": "uniswapV2Router02",
      "outputs": [
        {
          "internalType": "contract UniswapV2Router02Like",
          "name": "",
          "type": "address"
        }
      ],
      "stateMutability": "view",
      "type": "function"
    }
  ],
  "bytecode": "0x60806040523480156200001157600080fd5b5060405162004a2938038062004a2983398181016040528101906200003791906200083e565b6200006b7f94ad41fdb8ec366be5bdc573cd70ac901a1b03b65eb168959c05dc07426b1b4c60001b6200082460201b60201c565b6200009f7f21bf61a92b6d7c06a8266e7055f88429398728ae0b7ac39471bca5aa2a8258f660001b6200082460201b60201c565b620000d37fd894415a03e1e74b1bd047d567a3c8b9112b8dbccde26be653f12b83d9f48e7960001b6200082460201b60201c565b620001077f8804fd3120807ec43bd271f332980ac0432ff543c5b7ce5d80491eb4141f6eb660001b6200082460201b60201c565b600073ffffffffffffffffffffffffffffffffffffffff168473ffffffffffffffffffffffffffffffffffffffff1614156200017a576040517f08c379a0000000000000000000000000000000000000000000000000000000008152600401620001719062000a6c565b60405180910390fd5b620001ae7fc791acb36503dc11cd4881b8b9071631b337675130854953f6338683925eecf760001b6200082460201b60201c565b620001e27f981134e6f352d1bb2f5ed00029df7b9ea8610436041a4d6ea2d3c95d05c061e160001b6200082460201b60201c565b620002167f971e7bbb9d773c6e497f8757e0b55af6c1bb83d021c9e06d9c57d197da92e00f60001b6200082460201b60201c565b6200024a7ff794bff96034f28a7e17dad57191455e58139ff0fff48bb819a2766844abbc2060001b6200082460201b60201c565b600073ffffffffffffffffffffffffffffffffffffffff168373ffffffffffffffffffffffffffffffffffffffff161415620002bd576040517f08c379a0000000000000000000000000000000000000000000000000000000008152600401620002b49062000ab0565b60405180910390fd5b620002f17f43818d63e0399b42fc05ea3b06c403752526f7b114a16487ee362ea6e10a6b0c60001b6200082460201b60201c565b620003257f4c0a9a04a3f44d5d291de3c71cd207d9fb75bce5c3b73c9dce698ad35d2396df60001b6200082460201b60201c565b620003597fd809c2b2d3709a431f75fa46a450b634464dc38d2ffa72d7f6b3f88a8fac28d960001b6200082460201b60201c565b6200038d7f96174c92518ab871c6f30284221522394851b1fbb2f2c0626ce0bff0cf17cdd760001b6200082460201b60201c565b600073ffffffffffffffffffffffffffffffffffffffff168273ffffffffffffffffffffffffffffffffffffffff16141562000400576040517f08c379a0000000000000000000000000000000000000000000000000000000008152600401620003f79062000a8e565b60405180910390fd5b620004347f94aeb92b83c428db1345d557bfe67a1c79d3e05dd5db8ea981d3b6c0d955721b60001b6200082460201b60201c565b620004687f5aba9a3c9e85f3e83dd0a572b77f11c0a700969d4ffbd60a20696add2dcd90e060001b6200082460201b60201c565b6200049c7f99af3b37d480e0b4191cbd9c640bfb1cf30e1bb299f51c1b5262627c74d4412760001b6200082460201b60201c565b620004d07f0f424146e40e6ec492cec168a622fb2bbac71f989c5086a3afa037a8622f4c1960001b6200082460201b60201c565b600073ffffffffffffffffffffffffffffffffffffffff168173ffffffffffffffffffffffffffffffffffffffff16141562000543576040517f08c379a00000000000000000000000000000000000000000000000000000000081526004016200053a9062000a4a565b60405180910390fd5b620005777f3fe308e5d1db01b56f5210155f53305268acdb79c4539a46af6151715d7f36ec60001b6200082460201b60201c565b620005ab7f6b823714d7a8d697b7e52a23d80ed6bfe2abea0be9671c7b805153e61d49560660001b6200082460201b60201c565b620005df7fc03218cbdbfa472bb2e022c6e9c50c63fa81f0774ed7622b90d636c28ac43f5c60001b6200082460201b60201c565b836000806101000a81548173ffffffffffffffffffffffffffffffffffffffff021916908373ffffffffffffffffffffffffffffffffffffffff160217905550620006537f2f76a38c03309aa7dcaef147bc1fb0008750a362c4c58e414e6389858979521a60001b6200082460201b60201c565b620006877f53d312664c78fb4d918cfd49c27df4ebd24c865c05c62dd2dd0a9d9c87553da960001b6200082460201b60201c565b82600160006101000a81548173ffffffffffffffffffffffffffffffffffffffff021916908373ffffffffffffffffffffffffffffffffffffffff160217905550620006fc7f57318dc0f490be33f485b3bf8eefcaabe2a7f006558783a92c556788bc44543260001b6200082460201b60201c565b620007307f3bc4a1588879200cfcc233d943370ef2ffe8686ac2c7cf44f3313fa0634d903060001b6200082460201b60201c565b81600260006101000a81548173ffffffffffffffffffffffffffffffffffffffff021916908373ffffffffffffffffffffffffffffffffffffffff160217905550620007a57ff94b78b807bc9bc57b74e3ef241604c9714e8f3e2db543ac362ac43e9dcf7e3960001b6200082460201b60201c565b620007d97f0a41e66fd18af2c2339354ab5d140fe66362c3a132c139bc60121e53bd159c8d60001b6200082460201b60201c565b80600460006101000a81548173ffffffffffffffffffffffffffffffffffffffff021916908373ffffffffffffffffffffffffffffffffffffffff1602179055505050505062000b31565b50565b600081519050620008388162000b17565b92915050565b600080600080608085870312156200085557600080fd5b6000620008658782880162000827565b9450506020620008788782880162000827565b93505060406200088b8782880162000827565b92505060606200089e8782880162000827565b91505092959194509250565b6000620008b960258362000ad2565b91507f4f70796e53616665536176696f75722f6e756c6c2d736176696f75722d72656760008301527f69737472790000000000000000000000000000000000000000000000000000006020830152604082019050919050565b60006200092160278362000ad2565b91507f4f70796e53616665536176696f75722f6e756c6c2d6f70796e2d76322d636f6e60008301527f74726f6c6c6572000000000000000000000000000000000000000000000000006020830152604082019050919050565b60006200098960288362000ad2565b91507f4f70796e53616665536176696f75722f6e756c6c2d756e69737761702d76322d60008301527f726f7574657230320000000000000000000000000000000000000000000000006020830152604082019050919050565b6000620009f160268362000ad2565b91507f4f70796e53616665536176696f75722f6e756c6c2d6f70796e2d76322d77686960008301527f74656c69737400000000000000000000000000000000000000000000000000006020830152604082019050919050565b6000602082019050818103600083015262000a6581620008aa565b9050919050565b6000602082019050818103600083015262000a878162000912565b9050919050565b6000602082019050818103600083015262000aa9816200097a565b9050919050565b6000602082019050818103600083015262000acb81620009e2565b9050919050565b600082825260208201905092915050565b600062000af08262000af7565b9050919050565b600073ffffffffffffffffffffffffffffffffffffffff82169050919050565b62000b228162000ae3565b811462000b2e57600080fd5b50565b613ee88062000b416000396000f3fe608060405234801561001057600080fd5b50600436106100cf5760003560e01c8063a7c6402c1161008c578063bbeb2bf511610066578063bbeb2bf514610212578063d8af50641461022e578063d951e15a1461025e578063dd6046911461027c576100cf565b8063a7c6402c146101a8578063ac017c7e146101c6578063aea1a4a7146101f6576100cf565b8063097ab423146100d45780633a7685eb146101045780635f994c881461013457806364ec7e00146101505780637354be571461016e5780637d584de81461018c575b600080fd5b6100ee60048036038101906100e99190613270565b6102ac565b6040516100fb91906138da565b60405180910390f35b61011e60048036038101906101199190613270565b6102df565b60405161012b9190613aeb565b60405180910390f35b61014e60048036038101906101499190613270565b6102f7565b005b610158610b9b565b6040516101659190613a1a565b60405180910390f35b610176610bc1565b60405161018391906139ff565b60405180910390f35b6101a660048036038101906101a1919061347a565b610be5565b005b6101b0610be8565b6040516101bd9190613a50565b60405180910390f35b6101e060048036038101906101db9190613322565b610c0e565b6040516101ed9190613aeb565b60405180910390f35b610210600480360381019061020b91906133ad565b610d47565b005b61022c6004803603810190610227919061347a565b611ddc565b005b6102486004803603810190610243919061335e565b611ddf565b6040516102559190613aeb565b60405180910390f35b6102666125e0565b6040516102739190613a35565b60405180910390f35b61029660048036038101906102919190613270565b612606565b6040516102a391906139e4565b60405180910390f35b60036020528060005260406000206000915054906101000a900473ffffffffffffffffffffffffffffffffffffffff1681565b60056020528060005260406000206000915090505481565b6103237fd86c2db7710e058c3dd923c96bd61cddfd27426aa071514d61be4b0246f1559760001b611ddc565b61034f7fb1aab431d2ee0acb9802c1011036d1b2792bf66c3339c4c1f3ab7ce7a4cebedd60001b611ddc565b61037b7fd81b35f312db3c1803801de0203f1fb91dd79e394970e2691533c71f6280099c60001b611ddc565b6103a77f489ec20d19353a829330f70851504b25e150463825ef8045ac6f44b7bb66632360001b611ddc565b6001600460009054906101000a900473ffffffffffffffffffffffffffffffffffffffff1673ffffffffffffffffffffffffffffffffffffffff166324ba5884336040518263ffffffff1660e01b815260040161040491906138f5565b60206040518083038186803b15801561041c57600080fd5b505afa158015610430573d6000803e3d6000fd5b505050506040513d601f19601f8201168201806040525081019061045491906134a3565b14610494576040517f08c379a000000000000000000000000000000000000000000000000000000000815260040161048b90613a6b565b60405180910390fd5b6104c07fc8f850535039eeb6d4a4b5c9b1a504e356a9c75af759e30f3d00050b286a76cb60001b611ddc565b6104ec7f6149a9ce5d4818c75a5119f148a5ff86c1feebc6a7ab8f228f7736233ca64ff860001b611ddc565b6105187f78b090a5f5e94863be9e33f215a6addbba5af65eaf8661c1a4da89b734cbb2cb60001b611ddc565b6105447fdf1e11b1ad216468fc914ec4583a7315b5b0f09ebc32263f7ff3ddda9602ed4660001b611ddc565b6105707fbcfd4261fcf6d3b8b7fa052f4c0d85bae8534ad806239251558394e9af06d32060001b611ddc565b61059c7fdb9fd315f9d4b9916275ceaaa1b2e50d18b3b934178df5e0a516a573e0b5821060001b611ddc565b60011515600160009054906101000a900473ffffffffffffffffffffffffffffffffffffffff1673ffffffffffffffffffffffffffffffffffffffff166311946b98836040518263ffffffff1660e01b81526004016105fb91906138da565b60206040518083038186803b15801561061357600080fd5b505afa158015610627573d6000803e3d6000fd5b505050506040513d601f19601f8201168201806040525081019061064b9190613451565b15151461068d576040517f08c379a000000000000000000000000000000000000000000000000000000000815260040161068490613a8b565b60405180910390fd5b6106b97f9ef7d4860d538c20a44ecda857a668f892578393ff7ecbc664f1356a085cb55760001b611ddc565b6106e57fdc9c6822e3ab3d6c93128efb3615aa02931f0a820728824c626880030228d7b760001b611ddc565b6107117f2e7f833fbb2fd751c90e05dde8ee7b3ba0e9ade94cb86b0072083d01b473552c60001b611ddc565b60008173ffffffffffffffffffffffffffffffffffffffff1663af0968fc6040518163ffffffff1660e01b815260040160c06040518083038186803b15801561075957600080fd5b505afa15801561076d573d6000803e3d6000fd5b505050506040513d601f19601f820116820180604052508101906107919190613299565b955050505050506107c47f05ac4b4ff1e36e26a060c690bf03bbe18c882fc7210ff0f92f67772f40b004a460001b611ddc565b6107f07f1bbb68bf1ed57110767d4153a4c1129535a811ddb2138cfed3f1973b8644f82060001b611ddc565b61081c7fb7ac916e921d0f66f625391f5dd978b1e186c2ecda00ad517b44ff9fd8a436f660001b611ddc565b6001151581151514610863576040517f08c379a000000000000000000000000000000000000000000000000000000000815260040161085a90613acb565b60405180910390fd5b61088f7f55775b547afc4bb769e9e77976be923febea4472a853843416d3b2cbe2a06c2f60001b611ddc565b6108bb7f22a7000939fa67357ce3496998e41b12139731d4e3c1eaa39826a747b98482f360001b611ddc565b6108e77f159bd0af9f3bc219b72d1c0c95596907cea04d8814f95fa390dc09b5b0ab7c3260001b611ddc565b6000600560008473ffffffffffffffffffffffffffffffffffffffff1673ffffffffffffffffffffffffffffffffffffffff1681526020019081526020016000205414156109fd5761095b7f6088b981fe24399077cdd10ee8af50c386ee26bdbb1a1cf3df3b43bdd948aa0e60001b611ddc565b6109877f2b914a7fd3d1e9ce84ea259da9b4c3692a97427ab937fe32ddb0099dde01ad2a60001b611ddc565b6109b37ff9a9e559318ad768870b1cb533154a55b338d99588ce613405283b4bfde14c3d60001b611ddc565b6001600560008473ffffffffffffffffffffffffffffffffffffffff1673ffffffffffffffffffffffffffffffffffffffff16815260200190815260200160002081905550610ac7565b610a297f66ce58b67b1c7ccd60b724540ebacfca2c9b8666bfb7a2aa4db6e47fa03102a160001b611ddc565b610a557fecd5d0bfabfdf83b89c7819450db5b40087d1309296b97d6b6f4ceab8453407460001b611ddc565b610a817f59e896661be8ac0c837fe18b885565ec4e849faa6c9078a5e2320992fcf7751860001b611ddc565b6000600560008473ffffffffffffffffffffffffffffffffffffffff1673ffffffffffffffffffffffffffffffffffffffff168152602001908152602001600020819055505b610af37fc6861bc4272df07b72db12dff982e4ac6c9a9a66198e44e5553414271c7d848b60001b611ddc565b610b1f7f219bbc90005f44ca47d40a3f29f8feca57f5a332e9c23c8c102cbb0a028683b460001b611ddc565b7fdaffc114a69e97b718050e492029f8258576b953153b980c2e95ddd42d7cb92a82600560008573ffffffffffffffffffffffffffffffffffffffff1673ffffffffffffffffffffffffffffffffffffffff16815260200190815260200160002054604051610b8f929190613999565b60405180910390a15050565b600160009054906101000a900473ffffffffffffffffffffffffffffffffffffffff1681565b60008054906101000a900473ffffffffffffffffffffffffffffffffffffffff1681565b50565b600260009054906101000a900473ffffffffffffffffffffffffffffffffffffffff1681565b6000610c3c7fd44e0ca8a89cc69d1257e6a7d5d7f870f20c88bbcd2c28f75217e0d46a539d5560001b611ddc565b610c687fbe22c61c76edc76e151425a17b9864dac028322cd606d20bd13dcc123241af7860001b611ddc565b610c947f55a1e365a0db50da2b1a98d741ebf6a51a1de878f408d2d36f3320e01c6440d260001b611ddc565b60008054906101000a900473ffffffffffffffffffffffffffffffffffffffff1673ffffffffffffffffffffffffffffffffffffffff1663565eea1984846040518363ffffffff1660e01b8152600401610cef929190613999565b60206040518083038186803b158015610d0757600080fd5b505afa158015610d1b573d6000803e3d6000fd5b505050506040513d601f19601f82011682018060405250810190610d3f91906134a3565b905092915050565b610d737ffded59bf30b71d6721595cf46b3eabbc5834a3c3e89626e9c5d720a4e9e4467160001b611ddc565b610d9f7fbbb27fafeb2e197097a8553f7d954ff0e90ef3e67d961830a65978551219268560001b611ddc565b610dcb7f293ae1ce7f5edc67dd682481eb883307226b8a6156e1e2dff432bf04dda6544760001b611ddc565b8373ffffffffffffffffffffffffffffffffffffffff166323b872dd3330866040518463ffffffff1660e01b8152600401610e0893929190613910565b602060405180830381600087803b158015610e2257600080fd5b505af1158015610e36573d6000803e3d6000fd5b505050506040513d601f19601f82011682018060405250810190610e5a9190613451565b50610e877fddd57940336025e84aa8a83514e02e5ea827afb56f4d8ec5bc67e417660e6b7160001b611ddc565b610eb37f96979bdaae969d3e830db9e9ae551536018ae220c9a0d5bdcadad38d8b740ad160001b611ddc565b60008473ffffffffffffffffffffffffffffffffffffffff1663af0968fc6040518163ffffffff1660e01b815260040160c06040518083038186803b158015610efb57600080fd5b505afa158015610f0f573d6000803e3d6000fd5b505050506040513d601f19601f82011682018060405250810190610f339190613299565b50505050509050610f667fa2a7a73b97548341a8cefea9e5519303daa84696ecb5bbe286f8da065893d74d60001b611ddc565b610f927fdeebd5bff716de3b58cf16ad3be7ddab96288ff6d0a31d975f3b2e63de72727b60001b611ddc565b6000610fc07fc555ec669ce7310cdfae8b04f6242ba5f2bdf787abb95a368336d36db4f8b64d60001b611ddc565b610fec7f9049731cb23ea18b28af653867ec4b29b8bbe833f734caf6add37f2f4c53863760001b611ddc565b6110187f9ff667448b80fa5a4548535ef84af1f98eef93e55d01d46f03f5b78a14697bf360001b611ddc565b60008273ffffffffffffffffffffffffffffffffffffffff166370a08231306040518263ffffffff1660e01b815260040161105391906138da565b602060405180830381600087803b15801561106d57600080fd5b505af1158015611081573d6000803e3d6000fd5b505050506040513d601f19601f820116820180604052508101906110a591906134a3565b90506110d37fc9661cd7c4a90d39495db5fdf8cd7ca8be382c30ec685ad3ea5512f6c8b557d060001b611ddc565b6110ff7fff2ffd8c6dcfe5dc0ba97e10765e92db51f3b8db639af129842df253b998e9c960001b611ddc565b6000600167ffffffffffffffff8111801561111957600080fd5b5060405190808252806020026020018201604052801561115357816020015b6111406130ca565b8152602001906001900390816111385790505b5090506111827fd730a92b7f2705dda6c6f7f1fb96d8ffd430712adc0648405cb3aa45f88fc5e660001b611ddc565b6111ae7f87f9fa2557ac1acb11130b48e2cc8f3447ceaa7dbc79e14b5a8f4608a0473f5e60001b611ddc565b6008816000815181106111bd57fe5b60200260200101516000019060098111156111d457fe5b908160098111156111e157fe5b815250506112107e22c408a818deb22a2c09295b07ac3a7d03d6c9fa33027697c4d3aaca68564b60001b611ddc565b61123c7fe237aae31a202b00a037bc280c1f35db8a9cf8fbbc759191ed6775c440f3fbcd60001b611ddc565b60008160008151811061124b57fe5b60200260200101516020019073ffffffffffffffffffffffffffffffffffffffff16908173ffffffffffffffffffffffffffffffffffffffff16815250506112b57fe31f2b00df18a8f773b51f3ad885956607805aed1d30a663e866f0c34576053b60001b611ddc565b6112e17fad95d5e7545241d0cac2abd15cfe98111f942d92849d6238986630796556501d60001b611ddc565b30816000815181106112ef57fe5b60200260200101516040019073ffffffffffffffffffffffffffffffffffffffff16908173ffffffffffffffffffffffffffffffffffffffff16815250506113597f1944988be5226455240f0cb6e229d9fe1ff5cbe784520ed24893dc11fb5ecffc60001b611ddc565b6113857f9bd21337c2920b914f3e4a1e79f666211e5ef990240ca5de007112e2420f045f60001b611ddc565b878160008151811061139357fe5b60200260200101516060019073ffffffffffffffffffffffffffffffffffffffff16908173ffffffffffffffffffffffffffffffffffffffff16815250506113fd7f5421557d84084f8de7397c7716880cb4f59933472569ea2345efb67bf998638360001b611ddc565b6114297f8b5f8cd8307a66a935422f1f2669fc5364bdfa7dab9fd4d4cb1447d64e949c3d60001b611ddc565b60008160008151811061143857fe5b602002602001015160800181815250506114747fbaf38d26f419358a5d179711c96f2157dfe05f125196adcb3f15d6ae9b7ec93a60001b611ddc565b6114a07f6b3d22efec8ba6d27ec934ea3ba11dcb8b52bcac3fafb36f4b1444515a0b82d760001b611ddc565b86816000815181106114ae57fe5b602002602001015160a00181815250506114ea7f591defd182035c68d0cdec0cb5b45cdf3081e752dc60ade0cdaee59a65c8123460001b611ddc565b6115167f7102d76fc776fde9413f091f22692e00e40c90443aff92867987c0504cca416860001b611ddc565b60008054906101000a900473ffffffffffffffffffffffffffffffffffffffff1673ffffffffffffffffffffffffffffffffffffffff1663b617f0c6826040518263ffffffff1660e01b815260040161156f91906139c2565b600060405180830381600087803b15801561158957600080fd5b505af115801561159d573d6000803e3d6000fd5b505050506115cd7f40bf694dd05ccaa84dd7958cb94d59b62beb661652e9a4eade87ab6b202d1f1660001b611ddc565b6115f97fedc17355fea7ae97270667fc36ef409c913972d9eca52e15ba19957ab66350df60001b611ddc565b61168d8473ffffffffffffffffffffffffffffffffffffffff166370a08231306040518263ffffffff1660e01b815260040161163591906138da565b602060405180830381600087803b15801561164f57600080fd5b505af1158015611663573d6000803e3d6000fd5b505050506040513d601f19601f8201168201806040525081019061168791906134a3565b83612774565b925050506116bd7f4dc80690ece820abddd267b7601004c227c95ed41f2c8f6b29fd60ac85ab034760001b611ddc565b6116e97f7218b3a74d57f404f32c75c980a21519d66626e56eedd78374177ffbb1c0c59160001b611ddc565b60006117177f8711ec92ef4322f3a77a78cfa8f0f6c1f6f3ade824cbfe2525536a5af6b6dc6960001b611ddc565b6117437f9cb6fc1e8971bf25643c71a2f0f6e60f33111c90f156d6cda240a6b545a13b8560001b611ddc565b61176f7fddfe21d76bd89686c0019ba7283c5fa344af5a133186cdfb8908787fea551eef60001b611ddc565b60008473ffffffffffffffffffffffffffffffffffffffff166370a08231306040518263ffffffff1660e01b81526004016117aa91906138da565b602060405180830381600087803b1580156117c457600080fd5b505af11580156117d8573d6000803e3d6000fd5b505050506040513d601f19601f820116820180604052508101906117fc91906134a3565b905061182a7f36f4f78baa7ab177a1aa184513af8e55dccce91dc4a91451813e66e88a4d595060001b611ddc565b6118567f362c0239d209008beb01a851dd652ae63b08800929aaecbb7ba385f3b287035160001b611ddc565b6000600267ffffffffffffffff8111801561187057600080fd5b5060405190808252806020026020018201604052801561189f5781602001602082028036833780820191505090505b5090506118ce7f55c19eef97caaf8eaf0b195da915cdc64bdadb14b38bc20113883dcff4721a1f60001b611ddc565b6118fa7f29cc02dccece73748262d197b8545813de301d6c254b5403436d5590b2952e4a60001b611ddc565b848160008151811061190857fe5b602002602001019073ffffffffffffffffffffffffffffffffffffffff16908173ffffffffffffffffffffffffffffffffffffffff168152505061196e7f1583efeb889d5589f3a692e08a25ccda4496775b6c53248a9890651c51750c9760001b611ddc565b61199a7fcac0c21ae98e6e61cc9fb805dfdd5d802218a68d1ed9b236cf482abafd752f9460001b611ddc565b85816001815181106119a857fe5b602002602001019073ffffffffffffffffffffffffffffffffffffffff16908173ffffffffffffffffffffffffffffffffffffffff1681525050611a0e7f77ba435b4a4a182c15bddd1683525dc6597e8116f81ca4e017bac1550e943ac360001b611ddc565b611a3a7f5a4c89aaad1c8eb497c080a20d199e7dd3aed4cbc4e889ab30370bcb720b9a5e60001b611ddc565b8473ffffffffffffffffffffffffffffffffffffffff1663095ea7b3600260009054906101000a900473ffffffffffffffffffffffffffffffffffffffff16866040518363ffffffff1660e01b8152600401611a97929190613999565b602060405180830381600087803b158015611ab157600080fd5b505af1158015611ac5573d6000803e3d6000fd5b505050506040513d601f19601f82011682018060405250810190611ae99190613451565b50611b167f80e6a0cb939246339235475364c6bb59b785ac1153ffb5d290ff7406afab97c160001b611ddc565b611b427fd64daf2ba85abaf20497a8e14dd2dc9ccb52c8349198a8fd896486dbcf81d9dc60001b611ddc565b600260009054906101000a900473ffffffffffffffffffffffffffffffffffffffff1673ffffffffffffffffffffffffffffffffffffffff166338ed173985898430426040518663ffffffff1660e01b8152600401611ba5959493929190613b36565b600060405180830381600087803b158015611bbf57600080fd5b505af1158015611bd3573d6000803e3d6000fd5b505050506040513d6000823e3d601f19601f82011682018060405250810190611bfc9190613410565b50611c297f1080ead394e3fa12bdd0bc84e7a661b9d3ccca2d8bce4a0f74c049bce449196660001b611ddc565b611c557fb3033e6fb98c26d6b7f4be0ec5e6e937c182c464eaf6d2c3790c9bb25533866760001b611ddc565b611ce98673ffffffffffffffffffffffffffffffffffffffff166370a08231306040518263ffffffff1660e01b8152600401611c9191906138da565b602060405180830381600087803b158015611cab57600080fd5b505af1158015611cbf573d6000803e3d6000fd5b505050506040513d601f19601f82011682018060405250810190611ce391906134a3565b83612774565b92505050611d197f04e896c3c6e3e004c54e922cc8faecd3886c9aad8b357fc05278ede27fc6bf9660001b611ddc565b611d457f2c29ef497961ab25a0189e164463def71628a68e19bbd0c7133e95850ba3bdbb60001b611ddc565b8373ffffffffffffffffffffffffffffffffffffffff1663a9059cbb33836040518363ffffffff1660e01b8152600401611d80929190613947565b602060405180830381600087803b158015611d9a57600080fd5b505af1158015611dae573d6000803e3d6000fd5b505050506040513d601f19601f82011682018060405250810190611dd29190613451565b5050505050505050565b50565b6000611e0d7f184cf35a074cac61f50682a16dc2f32d87b342c701591cfc7d7950d166a0231b60001b611ddc565b611e397f5a1db88695ba8982af70d406297e1fd4405c4910cb582273f873f2d306fb9fab60001b611ddc565b611e657f3c7a22adf1ac7d405d1bbbba783743da5782543f203eb2adb5fc19e5564ed51660001b611ddc565b60008473ffffffffffffffffffffffffffffffffffffffff1663af0968fc6040518163ffffffff1660e01b815260040160c06040518083038186803b158015611ead57600080fd5b505afa158015611ec1573d6000803e3d6000fd5b505050506040513d601f19601f82011682018060405250810190611ee59190613299565b50505050509050611f187f42fb45ae857040e97f434f81430633e8ff9f4487c562bdfafb149351ee15ae7360001b611ddc565b611f447f79db70f9083f4aab3c6612ffd14c7e749417eee272a31c1526da044681e3f0f060001b611ddc565b6000600267ffffffffffffffff81118015611f5e57600080fd5b50604051908082528060200260200182016040528015611f8d5781602001602082028036833780820191505090505b509050611fbc7fe7e80daf8345941d9eff6efef5e8bbd4859daf9a801c8cb97f70db93d317e1a960001b611ddc565b611fe87fc77d9bbda664ae5e11ecc41e99d9eb1670f450620f65a547da009d711909271960001b611ddc565b8181600081518110611ff657fe5b602002602001019073ffffffffffffffffffffffffffffffffffffffff16908173ffffffffffffffffffffffffffffffffffffffff168152505061205c7fb902053cbbadf6e8c1b94da511b72306535f8373cd66d481bda51e330657b98560001b611ddc565b6120887ff5eb08e76059613fede4c51441f2e1df374579c416fdb774c5afbe8480d5bd8f60001b611ddc565b838160018151811061209657fe5b602002602001019073ffffffffffffffffffffffffffffffffffffffff16908173ffffffffffffffffffffffffffffffffffffffff16815250506120fc7fc6f5d5df2e2da0a197a3f71191512e015ab639a03007a739b5e9cdebedb74acc60001b611ddc565b6121287f5790987485262d1bca9e9be73b3d5751d975363c1438c35d706297fddf68b72c60001b611ddc565b6000600260009054906101000a900473ffffffffffffffffffffffffffffffffffffffff1673ffffffffffffffffffffffffffffffffffffffff16631f00ca7487846040518363ffffffff1660e01b8152600401612187929190613b06565b60006040518083038186803b15801561219f57600080fd5b505afa1580156121b3573d6000803e3d6000fd5b505050506040513d6000823e3d601f19601f820116820180604052508101906121dc9190613410565b6000815181106121e857fe5b6020026020010151905061221e7ffa15af1489c3bf3bcd05b5fabae26ef7edf3a6c45d9430ee03e790524a4d1fa160001b611ddc565b61224a7f99787dd3d5e35a6ef9d7b4c81983402e24281ff9ae79eb49622c900b3bf772c960001b611ddc565b60008060009054906101000a900473ffffffffffffffffffffffffffffffffffffffff1673ffffffffffffffffffffffffffffffffffffffff1663565eea198960016040518363ffffffff1660e01b81526004016122a9929190613970565b60206040518083038186803b1580156122c157600080fd5b505afa1580156122d5573d6000803e3d6000fd5b505050506040513d601f19601f820116820180604052508101906122f991906134a3565b90506123277fd43ced0f935946836b099674492d5a9d099e1467ba0e2662f248e242ffade84a60001b611ddc565b6123537fff3bcae63f9a2edec47682ab6bf29d165fa66fdcca9e1bb65e23e177f12ade9660001b611ddc565b61237f7f4d72305311888a27732aa713c689955e828e0f1ab11a29ce1cfe50124a3f06eb60001b611ddc565b600081116123c2576040517f08c379a00000000000000000000000000000000000000000000000000000000081526004016123b990613aab565b60405180910390fd5b6123ee7f49ec8c4b4cc57393b713366d130b3dfd3e0cf6cbfaeee459c7677062e0d4d75160001b611ddc565b61241a7f7730033e397d159a78ed3c6098e2fe02dc4868c63be22132423af7baca50349460001b611ddc565b6124467f36f15bb79a013890b66e9b53e3cd6c6a99e51d5891ae209e5d3666a95c0eb49160001b611ddc565b60006124528383612842565b90506124807f79acfcd85767cbfb8bf26e928a55662ea08e456da3c3f91af6fdfc3027b228cf60001b611ddc565b6124ac7f686675adcbecd28f7a141730ed741825de6fb412b51cd480da2c2ff15a618bbb60001b611ddc565b876124b78284612910565b101561254c576124e97fb8e7f65675793418f6f961cf88d8ca6939b5131f0cbe779254968941b96ccf6060001b611ddc565b6125157fcf8a390d99591a4e1efb3903d7127485decc05f5f2604ddfae7cf4f72bc08ae160001b611ddc565b6125417ff6b633f2813060e3b36f64c75398c409cff364ec4d3ecb75caea946ff956fccb60001b611ddc565b600181019050612579565b6125787fc5de21100fa32a3812ae37cf2ac13e6e52716334f38d3efb5c7a957f8f60074360001b611ddc565b5b6125a57faa361d3eb8a36a8cc2b1141aaf552744139a3a2c440bd193d90b1d4f3306d77860001b611ddc565b6125d17f8daf3be1c422c20b19e6e8c7617f3d8cedf24c38cb477267f1b7517ad25a9adc60001b611ddc565b80955050505050509392505050565b600460009054906101000a900473ffffffffffffffffffffffffffffffffffffffff1681565b60006126347f41cfc655c5a3f70edbdc259e800d3363d1e29522378fa8d00bb55b7d6ef9c2d460001b611ddc565b6126607f96a269942cf78b29380d1d3af8d02b903450ed7d532711041eef9d3b481e58a760001b611ddc565b61268c7f5f22d27c4aaa647e518df7c2f321734ffea43d433ac326e72de22db467ceac3760001b611ddc565b60008273ffffffffffffffffffffffffffffffffffffffff1663af0968fc6040518163ffffffff1660e01b815260040160c06040518083038186803b1580156126d457600080fd5b505afa1580156126e8573d6000803e3d6000fd5b505050506040513d601f19601f8201168201806040525081019061270c9190613299565b9550505050505061273f7fa17b15fd14ae757c8dfbb493b9aca2b10bd6706fc1f3c6e118029e232bd1b47160001b611ddc565b61276b7f4db49dd104b0f7d724c541886a891550c50c66a069877cddcefcff4bfdcb860660001b611ddc565b80915050919050565b60006127a27f011cee0c4dd7cf8acb79043b690d805097096f90398e89aa2fa09f125621aebc60001b610be5565b6127ce7f5a81db271007916b503194a9bf8edcf954f7cfaddb71dd963afbd6cda1e7a7cb60001b610be5565b6127fa7ffe54ca9f4684d9a62ac14e709d78edf75849c68cefb090f06bbeb8513a41b3f960001b610be5565b61283a83836040518060400160405280601e81526020017f536166654d6174683a207375627472616374696f6e206f766572666c6f770000815250612c2b565b905092915050565b60006128707fbed0737b4bc91083ef39edccf9148a6cd62cc3772de3b4ec4f0c522d08418be560001b610be5565b61289c7f45de3212f5da0e6a8f7b85d6477fd2d6893ed12f439747c2dbca543d8bf91c9860001b610be5565b6128c87fa0bb8e0785ea9c155405cd9e04c2e23444211e4e3280bb060254f9507fcbe83060001b610be5565b61290883836040518060400160405280601a81526020017f536166654d6174683a206469766973696f6e206279207a65726f000000000000815250612e77565b905092915050565b600061293e7fac6e374fcaae26cf1f6eb7631f8eb615f543228f442f7fb62056305aea1a6c5d60001b610be5565b61296a7f4ace4adef256e1d1917c73ab6212e31710db7683b4727da07351c413e9c2e07260001b610be5565b6129967f968d415af148b7c6b57305c1e7cb3f98ce914d9bbc168994a8dec4dd0d9c84fa60001b610be5565b6000831415612a2c576129cb7f33906da52f93d0329331f524aeb3955efb1342b02e27206de6b82ccc539c419260001b610be5565b6129f77fd24bd8116d131a9a37921dc87def7e6fa94cf72f7ccade2b13187739c3c1f4a560001b610be5565b612a237f5a051d98e5a2fee79a4f65feb8d9cffb747459908b38af0813cf04fbe0f94e2c60001b610be5565b60009050612c25565b612a587f3d154a847b8629ed685171041fddfe2eeabf9959cdef79801f1ceeb8979de48060001b610be5565b612a847f7ef2e857f9930b8ea63e425985b458e32f3bd23548573280cca2f6bd3fc657fc60001b610be5565b612ab07fc76b48d441cbe8ed22a18c452abcb8aef7a9ac0a69cdd34eec4a6397ca43e9ef60001b610be5565b60008284029050612ae37f7e2eb67a30c1439ad40d1516b76fb83f9c959e356c96f42e6e26138da4d9c2e260001b610be5565b612b0f7f9cd5bfaab44ee12fc860cb29f99b7b26a8b63fcec12b40a1bac519b1b721d88060001b610be5565b612b3b7f06eaf82b76a892b2513f4814b89d52718c4022e10675f77db966dabf8376f94960001b610be5565b82848281612b4557fe5b0414612b9c576040517f08c379a0000000000000000000000000000000000000000000000000000000008152600401808060200182810382526021815260200180613e926021913960400191505060405180910390fd5b612bc87f179e9adf54790245c074544eb56b6efb3b8a5a5628e1d48c353a4e74667b415d60001b610be5565b612bf47f959faa5ee91aba4bba2cb8f7eec9aa1a4b8d8c21bcb927f28ed3abf0dba1193760001b610be5565b612c207f43b525268fd89c21433aea56c82b62cdc12376c49e8ddd70d0b0a020e101a50960001b610be5565b809150505b92915050565b6000612c597fb27fd13af9e9180a3ebff2ce4acb7b8a101acc53bef9e8fc48cebf5ffe6eb43d60001b610be5565b612c857f11ed86bdb0dab1ededecb532b628c61dc505cddbf2305370dc03204b3cf46ecb60001b610be5565b612cb17f8b6237f5c7a8cfcea8ec296670203ffef376ed7dbc728b787ef70d9bca8bc0bc60001b610be5565b612cdd7f0f9db0fb86482f3ad7db5e9011f3fcd6b38565f743733b8ae5301d3791c7db4d60001b610be5565b838311158290612d88576040517f08c379a00000000000000000000000000000000000000000000000000000000081526004018080602001828103825283818151815260200191508051906020019080838360005b83811015612d4d578082015181840152602081019050612d32565b50505050905090810190601f168015612d7a5780820380516001836020036101000a031916815260200191505b509250505060405180910390fd5b50612db57f021c8080fbec9abf0bc3ed42ef9557180a584881bf529947a521a4755eb568fb60001b610be5565b612de17fc8ceb274a1c5b3e5cc81ad8e2a59ef51afd9565c74c17c865e6af1c4fcffb7e160001b610be5565b612e0d7f578391875ea3d1ae7e935e4e935e21fece5ae8bfa6c12485894656ea43e78a3b60001b610be5565b60008385039050612e407f42f1113894ae9ad9ed267d7412a4df70fa3416e2ca503aa3622c0f6018647b8260001b610be5565b612e6c7f97e70fe0a258d86e7c3a126fdcebd1bff3f724cda1f908fc13e76c7862bce7f860001b610be5565b809150509392505050565b6000612ea57feb25516f5ace174c4de5cc50fca60aa1b717ab92fd971fcc5d38691cf855966a60001b610be5565b612ed17f84158c8f7d7f31956373895f46a959c9fa63212882a4c0772892051b51cd0f4c60001b610be5565b612efd7fe73f9ffc4fce820872722c87509cbeb866de4ac1ee0d7fa1037e7d70f41e0d0f60001b610be5565b612f297f550aff58aa7a7a4a8fd578b746e3f8cb23617de1976fc93c894f0844773f7f7a60001b610be5565b600083118290612fd4576040517f08c379a00000000000000000000000000000000000000000000000000000000081526004018080602001828103825283818151815260200191508051906020019080838360005b83811015612f99578082015181840152602081019050612f7e565b50505050905090810190601f168015612fc65780820380516001836020036101000a031916815260200191505b509250505060405180910390fd5b506130017f76842c230def6ac4a7b47d0e82d834d8fc9c1f5dfbf9da84285ccd409a20ddd660001b610be5565b61302d7f3ee3eaacd527d9a808a6f14938e4a866d4226452c501c918fa67722a6f1d230a60001b610be5565b6130597fe7b7a50a3097c52517b90c03e6b0971f8fd33d27fe94b3627c199040b73ec0f660001b610be5565b600083858161306457fe5b0490506130937fa617923b05574c3f6cd0a8858ddd43e606aceddacd7650c8106fc731975a92d660001b610be5565b6130bf7f8a6aae41d4ee0922a391e28744e3829931ce12fd74bb2c5343d2b78f445673b760001b610be5565b809150509392505050565b604051806101000160405280600060098111156130e357fe5b8152602001600073ffffffffffffffffffffffffffffffffffffffff168152602001600073ffffffffffffffffffffffffffffffffffffffff168152602001600073ffffffffffffffffffffffffffffffffffffffff168152602001600081526020016000815260200160008152602001606081525090565b600061316f61316a84613bc1565b613b90565b9050808382526020820190508285602086028201111561318e57600080fd5b60005b858110156131be57816131a4888261325b565b845260208401935060208301925050600181019050613191565b5050509392505050565b6000813590506131d781613e35565b92915050565b6000815190506131ec81613e35565b92915050565b600082601f83011261320357600080fd5b815161321384826020860161315c565b91505092915050565b60008151905061322b81613e4c565b92915050565b60008135905061324081613e63565b92915050565b60008135905061325581613e7a565b92915050565b60008151905061326a81613e7a565b92915050565b60006020828403121561328257600080fd5b6000613290848285016131c8565b91505092915050565b60008060008060008060c087890312156132b257600080fd5b60006132c089828a016131dd565b96505060206132d189828a016131dd565b95505060406132e289828a016131dd565b94505060606132f389828a0161325b565b935050608061330489828a0161325b565b92505060a061331589828a0161321c565b9150509295509295509295565b6000806040838503121561333557600080fd5b6000613343858286016131c8565b925050602061335485828601613246565b9150509250929050565b60008060006060848603121561337357600080fd5b6000613381868287016131c8565b935050602061339286828701613246565b92505060406133a3868287016131c8565b9150509250925092565b600080600080608085870312156133c357600080fd5b60006133d1878288016131c8565b94505060206133e287828801613246565b93505060406133f387828801613246565b9250506060613404878288016131c8565b91505092959194509250565b60006020828403121561342257600080fd5b600082015167ffffffffffffffff81111561343c57600080fd5b613448848285016131f2565b91505092915050565b60006020828403121561346357600080fd5b60006134718482850161321c565b91505092915050565b60006020828403121561348c57600080fd5b600061349a84828501613231565b91505092915050565b6000602082840312156134b557600080fd5b60006134c38482850161325b565b91505092915050565b60006134d88383613507565b60208301905092915050565b60006134f0838361380c565b905092915050565b61350181613cf1565b82525050565b61351081613c8c565b82525050565b61351f81613c8c565b82525050565b600061353082613c0d565b61353a8185613c48565b935061354583613bed565b8060005b8381101561357657815161355d88826134cc565b975061356883613c2e565b925050600181019050613549565b5085935050505092915050565b600061358e82613c18565b6135988185613c59565b9350836020820285016135aa85613bfd565b8060005b858110156135e657848403895281516135c785826134e4565b94506135d283613c3b565b925060208a019950506001810190506135ae565b50829750879550505050505092915050565b61360181613c9e565b82525050565b600061361282613c23565b61361c8185613c6a565b935061362c818560208601613ddb565b61363581613e10565b840191505092915050565b61364981613d03565b82525050565b61365881613d27565b82525050565b61366781613d4b565b82525050565b61367681613d6f565b82525050565b61368581613d93565b82525050565b61369481613da5565b82525050565b60006136a7602683613c7b565b91507f4f70796e53616665536176696f75722f6163636f756e742d6e6f742d6175746860008301527f6f72697a656400000000000000000000000000000000000000000000000000006020830152604082019050919050565b600061370d602683613c7b565b91507f4f70796e53616665536176696f75722f6f746f6b656e2d6e6f742d776869746560008301527f6c697374656400000000000000000000000000000000000000000000000000006020830152604082019050919050565b6000613773602783613c7b565b91507f4f70796e53616665536176696f75722f6e6f2d636f6c6c61746572616c2d746f60008301527f2d72656465656d000000000000000000000000000000000000000000000000006020830152604082019050919050565b60006137d9601e83613c7b565b91507f4f70796e53616665536176696f75722f6f7074696f6e2d6e6f742d70757400006000830152602082019050919050565b600061010083016000830151613825600086018261367c565b5060208301516138386020860182613507565b50604083015161384b6040860182613507565b50606083015161385e6060860182613507565b50608083015161387160808601826138bc565b5060a083015161388460a08601826138bc565b5060c083015161389760c08601826138bc565b5060e083015184820360e08601526138af8282613607565b9150508091505092915050565b6138c581613ce7565b82525050565b6138d481613ce7565b82525050565b60006020820190506138ef6000830184613516565b92915050565b600060208201905061390a60008301846134f8565b92915050565b600060608201905061392560008301866134f8565b6139326020830185613516565b61393f60408301846138cb565b949350505050565b600060408201905061395c60008301856134f8565b61396960208301846138cb565b9392505050565b60006040820190506139856000830185613516565b613992602083018461368b565b9392505050565b60006040820190506139ae6000830185613516565b6139bb60208301846138cb565b9392505050565b600060208201905081810360008301526139dc8184613583565b905092915050565b60006020820190506139f960008301846135f8565b92915050565b6000602082019050613a146000830184613640565b92915050565b6000602082019050613a2f600083018461364f565b92915050565b6000602082019050613a4a600083018461365e565b92915050565b6000602082019050613a65600083018461366d565b92915050565b60006020820190508181036000830152613a848161369a565b9050919050565b60006020820190508181036000830152613aa481613700565b9050919050565b60006020820190508181036000830152613ac481613766565b9050919050565b60006020820190508181036000830152613ae4816137cc565b9050919050565b6000602082019050613b0060008301846138cb565b92915050565b6000604082019050613b1b60008301856138cb565b8181036020830152613b2d8184613525565b90509392505050565b600060a082019050613b4b60008301886138cb565b613b5860208301876138cb565b8181036040830152613b6a8186613525565b9050613b796060830185613516565b613b8660808301846138cb565b9695505050505050565b6000604051905081810181811067ffffffffffffffff82111715613bb757613bb6613e0e565b5b8060405250919050565b600067ffffffffffffffff821115613bdc57613bdb613e0e565b5b602082029050602081019050919050565b6000819050602082019050919050565b6000819050602082019050919050565b600081519050919050565b600081519050919050565b600081519050919050565b6000602082019050919050565b6000602082019050919050565b600082825260208201905092915050565b600082825260208201905092915050565b600082825260208201905092915050565b600082825260208201905092915050565b6000613c9782613cc7565b9050919050565b60008115159050919050565b6000819050919050565b6000819050613cc282613e21565b919050565b600073ffffffffffffffffffffffffffffffffffffffff82169050919050565b6000819050919050565b6000613cfc82613db7565b9050919050565b6000613d0e82613d15565b9050919050565b6000613d2082613cc7565b9050919050565b6000613d3282613d39565b9050919050565b6000613d4482613cc7565b9050919050565b6000613d5682613d5d565b9050919050565b6000613d6882613cc7565b9050919050565b6000613d7a82613d81565b9050919050565b6000613d8c82613cc7565b9050919050565b6000613d9e82613cb4565b9050919050565b6000613db082613ce7565b9050919050565b6000613dc282613dc9565b9050919050565b6000613dd482613cc7565b9050919050565b60005b83811015613df9578082015181840152602081019050613dde565b83811115613e08576000848401525b50505050565bfe5b6000601f19601f8301169050919050565b600a8110613e3257613e31613e0e565b5b50565b613e3e81613c8c565b8114613e4957600080fd5b50565b613e5581613c9e565b8114613e6057600080fd5b50565b613e6c81613caa565b8114613e7757600080fd5b50565b613e8381613ce7565b8114613e8e57600080fd5b5056fe536166654d6174683a206d756c7469706c69636174696f6e206f766572666c6f77a2646970667358221220944c942a68b2815a2b8ee0395823172a4cac7fe344586827cd60bfb8505c22cf64736f6c63430007060033",
  "linkReferences": {},
  "deployedLinkReferences": {}
}