{
  "_format": "hh-sol-artifact-1",
  "contractName": "OpynSafeSaviourOperator",
  "sourceName": "contracts/saviours/OpynSafeSaviourOperator.sol",
  "abi": [
    {
      "inputs": [
        {
          "internalType": "address",
          "name": "opynV2Controller_",
          "type": "address"
        },
        {
          "internalType": "address",
          "name": "opynV2Whitelist_",
          "type": "address"
        },
        {
          "internalType": "address",
          "name": "uniswapV2Router02_",
          "type": "address"
        },
        {
          "internalType": "address",
          "name": "saviourRegistry_",
          "type": "address"
        }
      ],
      "stateMutability": "nonpayable",
      "type": "constructor"
    },
    {
      "anonymous": false,
      "inputs": [
        {
          "indexed": false,
          "internalType": "address",
          "name": "oToken",
          "type": "address"
        },
        {
          "indexed": false,
          "internalType": "uint256",
          "name": "whitelistState",
          "type": "uint256"
        }
      ],
      "name": "ToggleOToken",
      "type": "event"
    },
    {
      "inputs": [
        {
          "internalType": "address",
          "name": "_otoken",
          "type": "address"
        },
        {
          "internalType": "uint256",
          "name": "_requiredOutputAmount",
          "type": "uint256"
        },
        {
          "internalType": "address",
          "name": "_safeCollateralAddress",
          "type": "address"
        }
      ],
      "name": "getOTokenAmountToApprove",
      "outputs": [
        {
          "internalType": "uint256",
          "name": "",
          "type": "uint256"
        }
      ],
      "stateMutability": "view",
      "type": "function"
    },
    {
      "inputs": [
        {
          "internalType": "address",
          "name": "_otoken",
          "type": "address"
        },
        {
          "internalType": "uint256",
          "name": "_amount",
          "type": "uint256"
        }
      ],
      "name": "getOpynPayout",
      "outputs": [
        {
          "internalType": "uint256",
          "name": "",
          "type": "uint256"
        }
      ],
      "stateMutability": "view",
      "type": "function"
    },
    {
      "inputs": [
        {
          "internalType": "address",
          "name": "_otoken",
          "type": "address"
        }
      ],
      "name": "isOTokenPutOption",
      "outputs": [
        {
          "internalType": "bool",
          "name": "",
          "type": "bool"
        }
      ],
      "stateMutability": "view",
      "type": "function"
    },
    {
      "inputs": [
        {
          "internalType": "address",
          "name": "",
          "type": "address"
        }
      ],
      "name": "oTokenSelection",
      "outputs": [
        {
          "internalType": "address",
          "name": "",
          "type": "address"
        }
      ],
      "stateMutability": "view",
      "type": "function"
    },
    {
      "inputs": [
        {
          "internalType": "address",
          "name": "",
          "type": "address"
        }
      ],
      "name": "oTokenWhitelist",
      "outputs": [
        {
          "internalType": "uint256",
          "name": "",
          "type": "uint256"
        }
      ],
      "stateMutability": "view",
      "type": "function"
    },
    {
      "inputs": [],
      "name": "opynV2Controller",
      "outputs": [
        {
          "internalType": "contract OpynV2ControllerLike",
          "name": "",
          "type": "address"
        }
      ],
      "stateMutability": "view",
      "type": "function"
    },
    {
      "inputs": [],
      "name": "opynV2Whitelist",
      "outputs": [
        {
          "internalType": "contract OpynV2WhitelistLike",
          "name": "",
          "type": "address"
        }
      ],
      "stateMutability": "view",
      "type": "function"
    },
    {
      "inputs": [
        {
          "internalType": "address",
          "name": "_otoken",
          "type": "address"
        },
        {
          "internalType": "uint256",
          "name": "_amountIn",
          "type": "uint256"
        },
        {
          "internalType": "uint256",
          "name": "_amountOut",
          "type": "uint256"
        },
        {
          "internalType": "address",
          "name": "_safeCollateral",
          "type": "address"
        }
      ],
      "name": "redeemAndSwapOTokens",
      "outputs": [],
      "stateMutability": "nonpayable",
      "type": "function"
    },
    {
      "inputs": [],
      "name": "saviourRegistry",
      "outputs": [
        {
          "internalType": "contract SAFESaviourRegistryLike",
          "name": "",
          "type": "address"
        }
      ],
      "stateMutability": "view",
      "type": "function"
    },
    {
      "inputs": [
        {
          "internalType": "address",
          "name": "_otoken",
          "type": "address"
        }
      ],
      "name": "toggleOToken",
      "outputs": [],
      "stateMutability": "nonpayable",
      "type": "function"
    },
    {
      "inputs": [],
      "name": "uniswapV2Router02",
      "outputs": [
        {
          "internalType": "contract UniswapV2Router02Like",
          "name": "",
          "type": "address"
        }
      ],
      "stateMutability": "view",
      "type": "function"
    }
  ],
  "bytecode": "0x60806040523480156200001157600080fd5b506040516200197838038062001978833981016040819052620000349162000152565b6001600160a01b038416620000665760405162461bcd60e51b81526004016200005d90620001f3565b60405180910390fd5b6001600160a01b0383166200008f5760405162461bcd60e51b81526004016200005d9062000282565b6001600160a01b038216620000b85760405162461bcd60e51b81526004016200005d906200023a565b6001600160a01b038116620000e15760405162461bcd60e51b81526004016200005d90620001ae565b600080546001600160a01b039586166001600160a01b0319918216179091556001805494861694821694909417909355600280549285169284169290921790915560048054919093169116179055620002c8565b80516001600160a01b03811681146200014d57600080fd5b919050565b6000806000806080858703121562000168578384fd5b620001738562000135565b9350620001836020860162000135565b9250620001936040860162000135565b9150620001a36060860162000135565b905092959194509250565b60208082526025908201527f4f70796e53616665536176696f75722f6e756c6c2d736176696f75722d726567604082015264697374727960d81b606082015260800190565b60208082526027908201527f4f70796e53616665536176696f75722f6e756c6c2d6f70796e2d76322d636f6e6040820152663a3937b63632b960c91b606082015260800190565b60208082526028908201527f4f70796e53616665536176696f75722f6e756c6c2d756e69737761702d76322d6040820152673937baba32b9181960c11b606082015260800190565b60208082526026908201527f4f70796e53616665536176696f75722f6e756c6c2d6f70796e2d76322d7768696040820152651d195b1a5cdd60d21b606082015260800190565b6116a080620002d86000396000f3fe608060405234801561001057600080fd5b50600436106100a95760003560e01c8063a7c6402c11610071578063a7c6402c1461011c578063ac017c7e14610124578063aea1a4a714610137578063d8af50641461014a578063d951e15a1461015d578063dd60469114610165576100a9565b8063097ab423146100ae5780633a7685eb146100d75780635f994c88146100f757806364ec7e001461010c5780637354be5714610114575b600080fd5b6100c16100bc3660046110d5565b610185565b6040516100ce919061138f565b60405180910390f35b6100ea6100e53660046110d5565b6101a0565b6040516100ce91906115cb565b61010a6101053660046110d5565b6101b2565b005b6100c1610447565b6100c1610456565b6100c1610465565b6100ea61013236600461115f565b610474565b61010a6101453660046111cb565b610500565b6100ea61015836600461118a565b610b73565b6100c1610dfa565b6101786101733660046110d5565b610e09565b6040516100ce91906114b6565b6003602052600090815260409020546001600160a01b031681565b60056020526000908152604090205481565b6004805460405163092e962160e21b81526001600160a01b03909116916324ba5884916101e19133910161138f565b60206040518083038186803b1580156101f957600080fd5b505afa15801561020d573d6000803e3d6000fd5b505050506040513d601f19601f8201168201806040525081019061023191906112dc565b6001146102595760405162461bcd60e51b8152600401610250906114c1565b60405180910390fd5b6001546040516302328d7360e31b81526001600160a01b03909116906311946b989061028990849060040161138f565b60206040518083038186803b1580156102a157600080fd5b505afa1580156102b5573d6000803e3d6000fd5b505050506040513d601f19601f820116820180604052508101906102d991906112c2565b15156001146102fa5760405162461bcd60e51b815260040161025090611507565b6000816001600160a01b031663af0968fc6040518163ffffffff1660e01b815260040160c06040518083038186803b15801561033557600080fd5b505afa158015610349573d6000803e3d6000fd5b505050506040513d601f19601f8201168201806040525081019061036d91906110f1565b9550505050505080151560011515146103985760405162461bcd60e51b815260040161025090611594565b6001600160a01b0382166000908152600560205260409020546103d6576001600160a01b0382166000908152600560205260409020600190556103f0565b6001600160a01b0382166000908152600560205260408120555b6001600160a01b038216600090815260056020526040908190205490517fdaffc114a69e97b718050e492029f8258576b953153b980c2e95ddd42d7cb92a9161043b918591906113c7565b60405180910390a15050565b6001546001600160a01b031681565b6000546001600160a01b031681565b6002546001600160a01b031681565b6000805460405163565eea1960e01b81526001600160a01b039091169063565eea19906104a790869086906004016113c7565b60206040518083038186803b1580156104bf57600080fd5b505afa1580156104d3573d6000803e3d6000fd5b505050506040513d601f19601f820116820180604052508101906104f791906112dc565b90505b92915050565b6040516323b872dd60e01b81526001600160a01b038516906323b872dd90610530903390309088906004016113a3565b602060405180830381600087803b15801561054a57600080fd5b505af115801561055e573d6000803e3d6000fd5b505050506040513d601f19601f8201168201806040525081019061058291906112c2565b506000846001600160a01b031663af0968fc6040518163ffffffff1660e01b815260040160c06040518083038186803b1580156105be57600080fd5b505afa1580156105d2573d6000803e3d6000fd5b505050506040513d601f19601f820116820180604052508101906105f691906110f1565b50505050509050600080826001600160a01b03166370a08231306040518263ffffffff1660e01b815260040161062c919061138f565b602060405180830381600087803b15801561064657600080fd5b505af115801561065a573d6000803e3d6000fd5b505050506040513d601f19601f8201168201806040525081019061067e91906112dc565b60408051600180825281830190925291925060009190816020015b6106a1611064565b8152602001906001900390816106995790505090506008816000815181106106c557fe5b60200260200101516000019060098111156106dc57fe5b908160098111156106e957fe5b815250506000816000815181106106fc57fe5b6020026020010151602001906001600160a01b031690816001600160a01b031681525050308160008151811061072e57fe5b6020026020010151604001906001600160a01b031690816001600160a01b031681525050878160008151811061076057fe5b6020026020010151606001906001600160a01b031690816001600160a01b03168152505060008160008151811061079357fe5b6020026020010151608001818152505086816000815181106107b157fe5b602090810291909101015160a00152600054604051635b0bf86360e11b81526001600160a01b039091169063b617f0c6906107f09084906004016113e0565b600060405180830381600087803b15801561080a57600080fd5b505af115801561081e573d6000803e3d6000fd5b50506040516370a0823160e01b81526108aa92506001600160a01b03871691506370a082319061085290309060040161138f565b602060405180830381600087803b15801561086c57600080fd5b505af1158015610880573d6000803e3d6000fd5b505050506040513d601f19601f820116820180604052508101906108a491906112dc565b83610e8b565b92505050600080846001600160a01b03166370a08231306040518263ffffffff1660e01b81526004016108dd919061138f565b602060405180830381600087803b1580156108f757600080fd5b505af115801561090b573d6000803e3d6000fd5b505050506040513d601f19601f8201168201806040525081019061092f91906112dc565b6040805160028082526060820183529293506000929091602083019080368337019050509050848160008151811061096357fe5b60200260200101906001600160a01b031690816001600160a01b031681525050858160018151811061099157fe5b6001600160a01b03928316602091820292909201015260025460405163095ea7b360e01b81528783169263095ea7b3926109d29291169088906004016113c7565b602060405180830381600087803b1580156109ec57600080fd5b505af1158015610a00573d6000803e3d6000fd5b505050506040513d601f19601f82011682018060405250810190610a2491906112c2565b506002546040516338ed173960e01b81526001600160a01b03909116906338ed173990610a5d9087908b908690309042906004016115f5565b600060405180830381600087803b158015610a7757600080fd5b505af1158015610a8b573d6000803e3d6000fd5b505050506040513d6000823e601f3d908101601f19168201604052610ab39190810190611214565b506040516370a0823160e01b8152610ae4906001600160a01b038816906370a082319061085290309060040161138f565b60405163a9059cbb60e01b81529093506001600160a01b038716925063a9059cbb9150610b1790339085906004016113c7565b602060405180830381600087803b158015610b3157600080fd5b505af1158015610b45573d6000803e3d6000fd5b505050506040513d601f19601f82011682018060405250810190610b6991906112c2565b5050505050505050565b600080846001600160a01b031663af0968fc6040518163ffffffff1660e01b815260040160c06040518083038186803b158015610baf57600080fd5b505afa158015610bc3573d6000803e3d6000fd5b505050506040513d601f19601f82011682018060405250810190610be791906110f1565b505050505090506000600267ffffffffffffffff81118015610c0857600080fd5b50604051908082528060200260200182016040528015610c32578160200160208202803683370190505b5090508181600081518110610c4357fe5b60200260200101906001600160a01b031690816001600160a01b0316815250508381600181518110610c7157fe5b6001600160a01b0392831660209182029290920101526002546040516307c0329d60e21b81526000929190911690631f00ca7490610cb590899086906004016115d4565b60006040518083038186803b158015610ccd57600080fd5b505afa158015610ce1573d6000803e3d6000fd5b505050506040513d6000823e601f3d908101601f19168201604052610d099190810190611214565b600081518110610d1557fe5b60209081029190910101516000805460405163565eea1960e01b815292935090916001600160a01b039091169063565eea1990610d59908b906001906004016113c7565b60206040518083038186803b158015610d7157600080fd5b505afa158015610d85573d6000803e3d6000fd5b505050506040513d601f19601f82011682018060405250810190610da991906112dc565b905060008111610dcb5760405162461bcd60e51b81526004016102509061154d565b6000610dd78383610ecd565b905087610de48284610f0f565b1015610dee576001015b98975050505050505050565b6004546001600160a01b031681565b600080826001600160a01b031663af0968fc6040518163ffffffff1660e01b815260040160c06040518083038186803b158015610e4557600080fd5b505afa158015610e59573d6000803e3d6000fd5b505050506040513d601f19601f82011682018060405250810190610e7d91906110f1565b96505050505050505b919050565b60006104f783836040518060400160405280601e81526020017f536166654d6174683a207375627472616374696f6e206f766572666c6f770000815250610f68565b60006104f783836040518060400160405280601a81526020017f536166654d6174683a206469766973696f6e206279207a65726f000000000000815250610fff565b600082610f1e575060006104fa565b82820282848281610f2b57fe5b04146104f75760405162461bcd60e51b815260040180806020018281038252602181526020018061164a6021913960400191505060405180910390fd5b60008184841115610ff75760405162461bcd60e51b81526004018080602001828103825283818151815260200191508051906020019080838360005b83811015610fbc578181015183820152602001610fa4565b50505050905090810190601f168015610fe95780820380516001836020036101000a031916815260200191505b509250505060405180910390fd5b505050900390565b6000818361104e5760405162461bcd60e51b8152602060048201818152835160248401528351909283926044909101919085019080838360008315610fbc578181015183820152602001610fa4565b50600083858161105a57fe5b0495945050505050565b604080516101008101909152806000815260200160006001600160a01b0316815260200160006001600160a01b0316815260200160006001600160a01b03168152602001600081526020016000815260200160008152602001606081525090565b80518015158114610e8657600080fd5b6000602082840312156110e6578081fd5b81356104f781611631565b60008060008060008060c08789031215611109578182fd5b865161111481611631565b602088015190965061112581611631565b604088015190955061113681611631565b606088015160808901519195509350915061115360a088016110c5565b90509295509295509295565b60008060408385031215611171578182fd5b823561117c81611631565b946020939093013593505050565b60008060006060848603121561119e578283fd5b83356111a981611631565b92506020840135915060408401356111c081611631565b809150509250925092565b600080600080608085870312156111e0578384fd5b84356111eb81611631565b93506020850135925060408501359150606085013561120981611631565b939692955090935050565b60006020808385031215611226578182fd5b825167ffffffffffffffff8082111561123d578384fd5b818501915085601f830112611250578384fd5b81518181111561125c57fe5b8381026040518582820101818110858211171561127557fe5b604052828152858101935084860182860187018a1015611293578788fd5b8795505b838610156112b5578051855260019590950194938601938601611297565b5098975050505050505050565b6000602082840312156112d3578081fd5b6104f7826110c5565b6000602082840312156112ed578081fd5b5051919050565b6001600160a01b03169052565b6000815180845260208085019450808401835b838110156113395781516001600160a01b031687529582019590820190600101611314565b509495945050505050565b60008151808452815b818110156113695760208185018101518683018201520161134d565b8181111561137a5782602083870101525b50601f01601f19169290920160200192915050565b6001600160a01b0391909116815260200190565b6001600160a01b039384168152919092166020820152604081019190915260600190565b6001600160a01b03929092168252602082015260400190565b60208082528251828201819052600091906040908185019080840286018301878501865b838110156114a857603f1989840301855281516101008151600a811061142657fe5b8552818901516114388a8701826112f4565b5087820151611449898701826112f4565b5060608083015161145c828801826112f4565b50506080828101519086015260a0808301519086015260c0808301519086015260e09182015191850181905261149481860183611344565b968901969450505090860190600101611404565b509098975050505050505050565b901515815260200190565b60208082526026908201527f4f70796e53616665536176696f75722f6163636f756e742d6e6f742d617574686040820152651bdc9a5e995960d21b606082015260800190565b60208082526026908201527f4f70796e53616665536176696f75722f6f746f6b656e2d6e6f742d77686974656040820152651b1a5cdd195960d21b606082015260800190565b60208082526027908201527f4f70796e53616665536176696f75722f6e6f2d636f6c6c61746572616c2d746f6040820152662d72656465656d60c81b606082015260800190565b6020808252601e908201527f4f70796e53616665536176696f75722f6f7074696f6e2d6e6f742d7075740000604082015260600190565b90815260200190565b6000838252604060208301526115ed6040830184611301565b949350505050565b600086825285602083015260a0604083015261161460a0830186611301565b6001600160a01b0394909416606083015250608001529392505050565b6001600160a01b038116811461164657600080fd5b5056fe536166654d6174683a206d756c7469706c69636174696f6e206f766572666c6f77a2646970667358221220b77a7d3356c9b51ed1411ab8bb3db09213c62a37d35cc39d6d19069f9f3aaef064736f6c63430007060033",
  "linkReferences": {},
  "deployedLinkReferences": {}
}