{
  "_format": "hh-sol-artifact-1",
  "contractName": "UniswapV2Router02Mock",
  "sourceName": "contracts/test-utils/UniswapV2Router02Mock.sol",
  "abi": [
    {
      "inputs": [
        {
          "internalType": "bytes32",
          "name": "c__0x453eb480",
          "type": "bytes32"
        }
      ],
      "name": "c_0x453eb480",
      "outputs": [],
      "stateMutability": "pure",
      "type": "function"
    },
    {
      "inputs": [
        {
          "internalType": "bytes32",
          "name": "c__0xc81ff303",
          "type": "bytes32"
        }
      ],
      "name": "c_0xc81ff303",
      "outputs": [],
      "stateMutability": "pure",
      "type": "function"
    },
    {
      "inputs": [
        {
          "internalType": "uint256",
          "name": "amountOut",
          "type": "uint256"
        },
        {
          "internalType": "address[]",
          "name": "path",
          "type": "address[]"
        }
      ],
      "name": "getAmountsIn",
      "outputs": [
        {
          "internalType": "uint256[]",
          "name": "amounts",
          "type": "uint256[]"
        }
      ],
      "stateMutability": "pure",
      "type": "function"
    },
    {
      "inputs": [
        {
          "internalType": "uint256",
          "name": "amountIn",
          "type": "uint256"
        },
        {
          "internalType": "uint256",
          "name": "amountOutMin",
          "type": "uint256"
        },
        {
          "internalType": "address[]",
          "name": "path",
          "type": "address[]"
        },
        {
          "internalType": "address",
          "name": "",
          "type": "address"
        },
        {
          "internalType": "uint256",
          "name": "",
          "type": "uint256"
        }
      ],
      "name": "swapExactTokensForTokens",
      "outputs": [
        {
          "internalType": "uint256[]",
          "name": "amounts",
          "type": "uint256[]"
        }
      ],
      "stateMutability": "nonpayable",
      "type": "function"
    }
  ],
  "bytecode": "0x608060405234801561001057600080fd5b506109bd806100206000396000f3fe608060405234801561001057600080fd5b506004361061004c5760003560e01c80631f00ca741461005157806338ed1739146101685780638669282b14610274578063b74f6dbf146102a2575b600080fd5b6101116004803603604081101561006757600080fd5b81019080803590602001909291908035906020019064010000000081111561008e57600080fd5b8201836020820111156100a057600080fd5b803590602001918460208302840111640100000000831117156100c257600080fd5b919080806020026020016040519081016040528093929190818152602001838360200280828437600081840152601f19601f8201169050808301925050505050505091929192905050506102d0565b6040518080602001828103825283818151815260200191508051906020019060200280838360005b83811015610154578082015181840152602081019050610139565b505050509050019250505060405180910390f35b61021d600480360360a081101561017e57600080fd5b810190808035906020019092919080359060200190929190803590602001906401000000008111156101af57600080fd5b8201836020820111156101c157600080fd5b803590602001918460208302840111640100000000831117156101e357600080fd5b9091929391929390803573ffffffffffffffffffffffffffffffffffffffff169060200190929190803590602001909291905050506104e5565b6040518080602001828103825283818151815260200191508051906020019060200280838360005b83811015610260578082015181840152602081019050610245565b505050509050019250505060405180910390f35b6102a06004803603602081101561028a57600080fd5b8101908080359060200190929190505050610981565b005b6102ce600480360360208110156102b857600080fd5b8101908080359060200190929190505050610984565b005b60606102fe7ffac092d8bea2812616ae24b5e0f4dbd1c5dd18417e2342371947abf8851fbc5160001b610981565b61032a7f87047983cbb18911f19d80cc91c94301f5e3051388d3275428608ce89968033a60001b610981565b6103567f2a1959885f9200f84f1d6e6ef38d1015a19433f411364c1c6f86663d49b0606c60001b610981565b6000825167ffffffffffffffff8111801561037057600080fd5b5060405190808252806020026020018201604052801561039f5781602001602082028036833780820191505090505b5090506103ce7fb102db001c3c45ea104174708fdb8c29535fd4b58eff935ee3766ff26d684b9b60001b610981565b6103fa7f89dcf52bddc7aa8c6d79e161f9d3dc989a01af5d88a6102d908ca7706fffba6460001b610981565b60005b8351811015610482576104327f935a78fbc0df59748b562a4c541bdeb2146d78d491b327fd68b8b738acb30fc660001b610981565b61045e7f64491e639f5f3aeadb6f69ce7b16cf7d8fa1173523a59621c671458a9ebf6dbf60001b610981565b8482828151811061046b57fe5b6020026020010181815250508060010190506103fd565b506104af7ff58bca25f651eb50669d52bc2997c9944afaa9e4b1f89afd1b97acb1e6b3552660001b610981565b6104db7f3702accead54e0d400f2ff7439d42bf9b24bd2f72ae2b32b018c2c3871ea5f7360001b610981565b8091505092915050565b60606105137fabf388dcb14f62d3a0bbeb0cdf89fec780bc8722e276ec0c43d5f552c82d4ba860001b610981565b61053f7f25e3478e9c701ca5ab54bae948c4884adee7afa9e8467626f666833c0afd7da460001b610981565b61056b7f3a3036209f7373a7e34ed88cbb043db539fd2fbd53e5fd8abf3a6198d8d23a3260001b610981565b60008585905067ffffffffffffffff8111801561058757600080fd5b506040519080825280602002602001820160405280156105b65781602001602082028036833780820191505090505b5090506105e57f280fcaff06f697d68063c5950bf8cf6454bd45fd0fbcda3b6cc897fce8b484d160001b610981565b6106117f49bf3d5e0448e0ee2c1525579d602a65f441d4cfb5f542c062f4041e30f7895a60001b610981565b60005b8686905081101561069b5761064b7f06d0f7f5871e5db8f7108c08c3b4ad4506c901ec98764ffadefcca8114535cd960001b610981565b6106777fe3778520c539562b8cf52d91f5f385f4f7e2788332fb812b0f6eecdab853346160001b610981565b8782828151811061068457fe5b602002602001018181525050806001019050610614565b506106c87f5041c8f0b0785de40e376003349256df5c3ff9cdea578adbef80617554d2dda560001b610981565b6106f47ff61da4c8e1c2c36ab127cc60033a3ee9a921aac23748cc7d4f9a901950f4067f60001b610981565b8585600081811061070157fe5b9050602002013573ffffffffffffffffffffffffffffffffffffffff1673ffffffffffffffffffffffffffffffffffffffff166323b872dd33308b6040518463ffffffff1660e01b8152600401808473ffffffffffffffffffffffffffffffffffffffff1681526020018373ffffffffffffffffffffffffffffffffffffffff1681526020018281526020019350505050602060405180830381600087803b1580156107ac57600080fd5b505af11580156107c0573d6000803e3d6000fd5b505050506040513d60208110156107d657600080fd5b8101908080519060200190929190505050506108147f7f634877130269df6668beecdeab69b25b4e20bc0f7399775d365377c5f7ca5260001b610981565b6108407f8400bf13f89814630d2b1e2321589d0d44b75ed5630d4b286efb29cd54ff3a8360001b610981565b85856001888890500381811061085257fe5b9050602002013573ffffffffffffffffffffffffffffffffffffffff1673ffffffffffffffffffffffffffffffffffffffff1663a9059cbb33896040518363ffffffff1660e01b8152600401808373ffffffffffffffffffffffffffffffffffffffff16815260200182815260200192505050602060405180830381600087803b1580156108df57600080fd5b505af11580156108f3573d6000803e3d6000fd5b505050506040513d602081101561090957600080fd5b8101908080519060200190929190505050506109477fe46956456f7598af403775791808e39ffe3a1f40bb79a403156c8c8039dae2d560001b610981565b6109737f077c8bc46cc46e2ab41d5576f385d16d3513aa547d1e269ea8020457cfea81d260001b610981565b809150509695505050505050565b50565b5056fea2646970667358221220b4ba7f77b9a762d7d7546b9707d040e272d758f0013db12e1c65992fe56cff0864736f6c63430007060033",
  "linkReferences": {},
  "deployedLinkReferences": {}
}