{
  "_format": "hh-sol-artifact-1",
  "contractName": "Math",
  "sourceName": "contracts/math/Math.sol",
  "abi": [
    {
      "inputs": [
        {
          "internalType": "bytes32",
          "name": "c__0x90c5e302",
          "type": "bytes32"
        }
      ],
      "name": "c_0x90c5e302",
      "outputs": [],
      "stateMutability": "pure",
      "type": "function"
    }
  ],
  "bytecode": "0x6080604052348015600f57600080fd5b5060918061001e6000396000f3fe6080604052348015600f57600080fd5b506004361060285760003560e01c80632da3a57414602d575b600080fd5b605660048036036020811015604157600080fd5b81019080803590602001909291905050506058565b005b5056fea2646970667358221220b0faeeef213fe99f321bd6c8bb6c034fd8d66ea1196f5ba626b763e8656c23b564736f6c63430007060033",
  "linkReferences": {},
  "deployedLinkReferences": {}
}