{
  "address": "0x112dBABC0723e7F4aF81D70a220617b54b7767Ae",
  "abi": [
    {
      "inputs": [],
      "stateMutability": "nonpayable",
      "type": "constructor"
    },
    {
      "inputs": [
        {
          "internalType": "address",
          "name": "_otoken",
          "type": "address"
        }
      ],
      "name": "isWhitelistedOtoken",
      "outputs": [
        {
          "internalType": "bool",
          "name": "",
          "type": "bool"
        }
      ],
      "stateMutability": "view",
      "type": "function"
    },
    {
      "inputs": [],
      "name": "owner",
      "outputs": [
        {
          "internalType": "address",
          "name": "",
          "type": "address"
        }
      ],
      "stateMutability": "view",
      "type": "function"
    },
    {
      "inputs": [
        {
          "internalType": "address",
          "name": "_otoken",
          "type": "address"
        }
      ],
      "name": "toggleWhitelist",
      "outputs": [],
      "stateMutability": "nonpayable",
      "type": "function"
    },
    {
      "inputs": [
        {
          "internalType": "address",
          "name": "",
          "type": "address"
        }
      ],
      "name": "whitelist",
      "outputs": [
        {
          "internalType": "uint256",
          "name": "",
          "type": "uint256"
        }
      ],
      "stateMutability": "view",
      "type": "function"
    }
  ],
  "transactionHash": "0x7b37bccd37f69e9ddc7b9d4aee660f2f07518d200d25eaf7fdf3650f0750f45e",
  "args": [],
  "solcInputHash": "4ab7740a3c4c741a16859aca93eee72c",
  "bytecode": "0x608060405234801561001057600080fd5b50600080546001600160a01b031916331790556101f5806100326000396000f3fe608060405234801561001057600080fd5b506004361061004c5760003560e01c806311946b981461005157806339393ac91461008b5780638da5cb5b146100b35780639b19251a146100d7575b600080fd5b6100776004803603602081101561006757600080fd5b50356001600160a01b031661010f565b604080519115158252519081900360200190f35b6100b1600480360360208110156100a157600080fd5b50356001600160a01b031661012e565b005b6100bb61019e565b604080516001600160a01b039092168252519081900360200190f35b6100fd600480360360208110156100ed57600080fd5b50356001600160a01b03166101ad565b60408051918252519081900360200190f35b6001600160a01b03166000908152600160208190526040909120541490565b6000546001600160a01b03163314610179576040805162461bcd60e51b81526020600482015260096024820152683737ba1037bbb732b960b91b604482015290519081900360640190fd5b6001600160a01b03166000908152600160208190526040909120805482019091169055565b6000546001600160a01b031681565b6001602052600090815260409020548156fea264697066735822122021fc4c55c50054adb9a249105abcb16930a885d2d2e599fd6b81acdfd28b8eac64736f6c63430007060033",
  "devdoc": {
    "kind": "dev",
    "methods": {},
    "version": 1
  },
  "userdoc": {
    "kind": "user",
    "methods": {},
    "version": 1
  },
  "storageLayout": {
    "storage": [
      {
        "astId": 4304,
        "contract": "contracts/test-utils/OpynV2WhitelistMock.sol:OpynV2WhitelistMock",
        "label": "owner",
        "offset": 0,
        "slot": "0",
        "type": "t_address"
      },
      {
        "astId": 4329,
        "contract": "contracts/test-utils/OpynV2WhitelistMock.sol:OpynV2WhitelistMock",
        "label": "whitelist",
        "offset": 0,
        "slot": "1",
        "type": "t_mapping(t_address,t_uint256)"
      }
    ],
    "types": {
      "t_address": {
        "encoding": "inplace",
        "label": "address",
        "numberOfBytes": "20"
      },
      "t_mapping(t_address,t_uint256)": {
        "encoding": "mapping",
        "key": "t_address",
        "label": "mapping(address => uint256)",
        "numberOfBytes": "32",
        "value": "t_uint256"
      },
      "t_uint256": {
        "encoding": "inplace",
        "label": "uint256",
        "numberOfBytes": "32"
      }
    }
  }
}