{
  "address": "0x340Ed8bFf5Be8175D30849e39cd87b06364E0Fb5",
  "abi": [
    {
      "inputs": [],
      "stateMutability": "nonpayable",
      "type": "constructor"
    },
    {
      "inputs": [
        {
          "internalType": "address",
          "name": "",
          "type": "address"
        },
        {
          "internalType": "address",
          "name": "",
          "type": "address"
        }
      ],
      "name": "balances",
      "outputs": [
        {
          "internalType": "uint256",
          "name": "",
          "type": "uint256"
        }
      ],
      "stateMutability": "view",
      "type": "function"
    },
    {
      "inputs": [
        {
          "internalType": "address",
          "name": "_otoken",
          "type": "address"
        },
        {
          "internalType": "address",
          "name": "_collateralAsset",
          "type": "address"
        },
        {
          "internalType": "uint256",
          "name": "_amount",
          "type": "uint256"
        }
      ],
      "name": "fundOtoken",
      "outputs": [],
      "stateMutability": "nonpayable",
      "type": "function"
    },
    {
      "inputs": [
        {
          "internalType": "address",
          "name": "_otoken",
          "type": "address"
        },
        {
          "internalType": "uint256",
          "name": "_amount",
          "type": "uint256"
        }
      ],
      "name": "getPayout",
      "outputs": [
        {
          "internalType": "uint256",
          "name": "",
          "type": "uint256"
        }
      ],
      "stateMutability": "view",
      "type": "function"
    },
    {
      "inputs": [
        {
          "components": [
            {
              "internalType": "enum ActionType",
              "name": "actionType",
              "type": "uint8"
            },
            {
              "internalType": "address",
              "name": "owner",
              "type": "address"
            },
            {
              "internalType": "address",
              "name": "secondAddress",
              "type": "address"
            },
            {
              "internalType": "address",
              "name": "asset",
              "type": "address"
            },
            {
              "internalType": "uint256",
              "name": "vaultId",
              "type": "uint256"
            },
            {
              "internalType": "uint256",
              "name": "amount",
              "type": "uint256"
            },
            {
              "internalType": "uint256",
              "name": "index",
              "type": "uint256"
            },
            {
              "internalType": "bytes",
              "name": "data",
              "type": "bytes"
            }
          ],
          "internalType": "struct ActionArgs[]",
          "name": "_actions",
          "type": "tuple[]"
        }
      ],
      "name": "operate",
      "outputs": [],
      "stateMutability": "nonpayable",
      "type": "function"
    },
    {
      "inputs": [],
      "name": "owner",
      "outputs": [
        {
          "internalType": "address",
          "name": "",
          "type": "address"
        }
      ],
      "stateMutability": "view",
      "type": "function"
    },
    {
      "inputs": [
        {
          "internalType": "address",
          "name": "",
          "type": "address"
        }
      ],
      "name": "redeemable",
      "outputs": [
        {
          "internalType": "uint256",
          "name": "",
          "type": "uint256"
        }
      ],
      "stateMutability": "view",
      "type": "function"
    },
    {
      "inputs": [
        {
          "internalType": "address",
          "name": "_otoken",
          "type": "address"
        }
      ],
      "name": "toggleRedeemable",
      "outputs": [],
      "stateMutability": "nonpayable",
      "type": "function"
    }
  ],
  "transactionHash": "0x67d57735e28c29aabd5303f616d62a92fa9984741ef231a1c0aad8f0d8103d91",
  "args": [],
  "solcInputHash": "4ab7740a3c4c741a16859aca93eee72c",
  "bytecode": "0x608060405234801561001057600080fd5b50600280546001600160a01b03191633179055610c22806100326000396000f3fe608060405234801561001057600080fd5b506004361061007d5760003560e01c8063565eea191161005b578063565eea19146100d35780638da5cb5b146100e6578063b617f0c6146100fb578063c23f001f1461010e5761007d565b80630e52c8761461008257806330cc9db014610097578063484267a4146100aa575b600080fd5b610095610090366004610880565b610121565b005b6100956100a5366004610949565b610179565b6100bd6100b8366004610880565b61022c565b6040516100ca9190610bac565b60405180910390f35b6100bd6100e1366004610989565b61023e565b6100ee61039a565b6040516100ca9190610a74565b6100956101093660046109b4565b6103a9565b6100bd61011c3660046108a3565b610851565b6002546001600160a01b031633146101545760405162461bcd60e51b815260040161014b90610b89565b60405180910390fd5b6001600160a01b03166000908152600160208190526040909120805482019091169055565b6040516323b872dd60e01b81526001600160a01b038316906323b872dd906101a990339030908690600401610a88565b602060405180830381600087803b1580156101c357600080fd5b505af11580156101d7573d6000803e3d6000fd5b505050506040513d601f19601f820116820180604052508101906101fb9190610a23565b506001600160a01b039283166000908152602081815260408083209490951682529290925291902080549091019055565b60016020526000908152604090205481565b6001600160a01b03821660009081526001602081905260408220548491146102785760405162461bcd60e51b815260040161014b90610b61565b6000846001600160a01b031663af0968fc6040518163ffffffff1660e01b815260040160c06040518083038186803b1580156102b357600080fd5b505afa1580156102c7573d6000803e3d6000fd5b505050506040513d601f19601f820116820180604052508101906102eb91906108db565b50505050509050846001600160a01b03166318160ddd6040518163ffffffff1660e01b815260040160206040518083038186803b15801561032b57600080fd5b505afa15801561033f573d6000803e3d6000fd5b505050506040513d601f19601f820116820180604052508101906103639190610a5c565b6001600160a01b038087166000908152602081815260408083209386168352929052205485028161039057fe5b0495945050505050565b6002546001600160a01b031681565b6001811480156103f057506008828260008181106103c357fe5b90506020028101906103d59190610bb5565b6103e3906020810190610a3d565b60098111156103ee57fe5b145b61040c5760405162461bcd60e51b815260040161014b90610ac5565b600160008383600081811061041d57fe5b905060200281019061042f9190610bb5565b610440906080810190606001610880565b6001600160a01b03166001600160a01b03168152602001908152602001600020546001146104805760405162461bcd60e51b815260040161014b90610b61565b60008282600081811061048f57fe5b90506020028101906104a19190610bb5565b6104b2906080810190606001610880565b90506000816001600160a01b031663af0968fc6040518163ffffffff1660e01b815260040160c06040518083038186803b1580156104ef57600080fd5b505afa158015610503573d6000803e3d6000fd5b505050506040513d601f19601f8201168201806040525081019061052791906108db565b50506040516370a0823160e01b8152939450506001600160a01b038516926370a08231925061055b91503390600401610a74565b60206040518083038186803b15801561057357600080fd5b505afa158015610587573d6000803e3d6000fd5b505050506040513d601f19601f820116820180604052508101906105ab9190610a5c565b848460008181106105b857fe5b90506020028101906105ca9190610bb5565b60a0013511156105ec5760405162461bcd60e51b815260040161014b90610b36565b6001600160a01b0380831660008181526020818152604080832094861683529381528382205484516318160ddd60e01b8152945192949093926318160ddd92600480840193919291829003018186803b15801561064857600080fd5b505afa15801561065c573d6000803e3d6000fd5b505050506040513d601f19601f820116820180604052508101906106809190610a5c565b8686600081811061068d57fe5b905060200281019061069f9190610bb5565b60a00135816106aa57fe5b6001600160a01b03808716600090815260208181526040808320938916835292905220549190049190910291508111156106f65760405162461bcd60e51b815260040161014b90610b07565b6001600160a01b038381166000908152602081815260408083209386168084529390915281208054849003905563a9059cbb90879087908161073457fe5b90506020028101906107469190610bb5565b610757906060810190604001610880565b836040518363ffffffff1660e01b8152600401610775929190610aac565b602060405180830381600087803b15801561078f57600080fd5b505af11580156107a3573d6000803e3d6000fd5b505050506040513d601f19601f820116820180604052508101906107c79190610a23565b50826001600160a01b0316639dc29fac33878760008181106107e557fe5b90506020028101906107f79190610bb5565b60a001356040518363ffffffff1660e01b8152600401610818929190610aac565b600060405180830381600087803b15801561083257600080fd5b505af1158015610846573d6000803e3d6000fd5b505050505050505050565b600060208181529281526040808220909352908152205481565b8051801515811461087b57600080fd5b919050565b600060208284031215610891578081fd5b813561089c81610bd4565b9392505050565b600080604083850312156108b5578081fd5b82356108c081610bd4565b915060208301356108d081610bd4565b809150509250929050565b60008060008060008060c087890312156108f3578182fd5b86516108fe81610bd4565b602088015190965061090f81610bd4565b604088015190955061092081610bd4565b606088015160808901519195509350915061093d60a0880161086b565b90509295509295509295565b60008060006060848603121561095d578283fd5b833561096881610bd4565b9250602084013561097881610bd4565b929592945050506040919091013590565b6000806040838503121561099b578182fd5b82356109a681610bd4565b946020939093013593505050565b600080602083850312156109c6578182fd5b823567ffffffffffffffff808211156109dd578384fd5b818501915085601f8301126109f0578384fd5b8135818111156109fe578485fd5b8660208083028501011115610a11578485fd5b60209290920196919550909350505050565b600060208284031215610a34578081fd5b61089c8261086b565b600060208284031215610a4e578081fd5b8135600a811061089c578182fd5b600060208284031215610a6d578081fd5b5051919050565b6001600160a01b0391909116815260200190565b6001600160a01b039384168152919092166020820152604081019190915260600190565b6001600160a01b03929092168252602082015260400190565b60208082526022908201527f6d6f636b206d61646520666f722073696e676c652074797065206f662063616c6040820152616c7360f01b606082015260800190565b6020808252601590820152741b9bdd08195b9bdd59da0818dbdb1b185d195c985b605a1b604082015260600190565b6020808252601190820152701d1bdbc81b5d58da081c995919595b5959607a1b604082015260600190565b6020808252600e908201526d6e6f742072656465656d61626c6560901b604082015260600190565b6020808252600990820152683737ba1037bbb732b960b91b604082015260600190565b90815260200190565b6000823560fe19833603018112610bca578182fd5b9190910192915050565b6001600160a01b0381168114610be957600080fd5b5056fea26469706673582212207e5410656523b458ac157e79f8d8439dccc5108d7bc2953aa64ef4282d1f7bec64736f6c63430007060033",
  "devdoc": {
    "kind": "dev",
    "methods": {},
    "version": 1
  },
  "userdoc": {
    "kind": "user",
    "methods": {},
    "version": 1
  },
  "storageLayout": {
    "storage": [
      {
        "astId": 3787,
        "contract": "contracts/test-utils/OpynV2ControllerMock.sol:OpynV2ControllerMock",
        "label": "balances",
        "offset": 0,
        "slot": "0",
        "type": "t_mapping(t_address,t_mapping(t_address,t_uint256))"
      },
      {
        "astId": 3791,
        "contract": "contracts/test-utils/OpynV2ControllerMock.sol:OpynV2ControllerMock",
        "label": "redeemable",
        "offset": 0,
        "slot": "1",
        "type": "t_mapping(t_address,t_uint256)"
      },
      {
        "astId": 3793,
        "contract": "contracts/test-utils/OpynV2ControllerMock.sol:OpynV2ControllerMock",
        "label": "owner",
        "offset": 0,
        "slot": "2",
        "type": "t_address"
      }
    ],
    "types": {
      "t_address": {
        "encoding": "inplace",
        "label": "address",
        "numberOfBytes": "20"
      },
      "t_mapping(t_address,t_mapping(t_address,t_uint256))": {
        "encoding": "mapping",
        "key": "t_address",
        "label": "mapping(address => mapping(address => uint256))",
        "numberOfBytes": "32",
        "value": "t_mapping(t_address,t_uint256)"
      },
      "t_mapping(t_address,t_uint256)": {
        "encoding": "mapping",
        "key": "t_address",
        "label": "mapping(address => uint256)",
        "numberOfBytes": "32",
        "value": "t_uint256"
      },
      "t_uint256": {
        "encoding": "inplace",
        "label": "uint256",
        "numberOfBytes": "32"
      }
    }
  }
}