{
  "address": "0xEC8df48269D47104dAaC4DB97F0e0B271CA2134f",
  "abi": [
    {
      "inputs": [
        {
          "internalType": "uint256",
          "name": "amountOut",
          "type": "uint256"
        },
        {
          "internalType": "address[]",
          "name": "path",
          "type": "address[]"
        }
      ],
      "name": "getAmountsIn",
      "outputs": [
        {
          "internalType": "uint256[]",
          "name": "amounts",
          "type": "uint256[]"
        }
      ],
      "stateMutability": "pure",
      "type": "function"
    },
    {
      "inputs": [
        {
          "internalType": "uint256",
          "name": "amountIn",
          "type": "uint256"
        },
        {
          "internalType": "uint256",
          "name": "amountOutMin",
          "type": "uint256"
        },
        {
          "internalType": "address[]",
          "name": "path",
          "type": "address[]"
        },
        {
          "internalType": "address",
          "name": "",
          "type": "address"
        },
        {
          "internalType": "uint256",
          "name": "",
          "type": "uint256"
        }
      ],
      "name": "swapExactTokensForTokens",
      "outputs": [
        {
          "internalType": "uint256[]",
          "name": "amounts",
          "type": "uint256[]"
        }
      ],
      "stateMutability": "nonpayable",
      "type": "function"
    }
  ],
  "transactionHash": "0x395cc07864d2d52eb5cf81b61bf448085bac033a3cecb7e139753afb998c9416",
  "args": [],
  "solcInputHash": "4ab7740a3c4c741a16859aca93eee72c",
  "bytecode": "0x608060405234801561001057600080fd5b5061042a806100206000396000f3fe608060405234801561001057600080fd5b50600436106100365760003560e01c80631f00ca741461003b57806338ed173914610135575b600080fd5b6100e56004803603604081101561005157600080fd5b8135919081019060408101602082013564010000000081111561007357600080fd5b82018360208201111561008557600080fd5b803590602001918460208302840111640100000000831117156100a757600080fd5b9190808060200260200160405190810160405280939291908181526020018383602002808284376000920191909152509295506101c0945050505050565b60408051602080825283518183015283519192839290830191858101910280838360005b83811015610121578181015183820152602001610109565b505050509050019250505060405180910390f35b6100e5600480360360a081101561014b57600080fd5b81359160208101359181019060608101604082013564010000000081111561017257600080fd5b82018360208201111561018457600080fd5b803590602001918460208302840111640100000000831117156101a657600080fd5b91935091506001600160a01b03813516906020013561023d565b60606000825167ffffffffffffffff811180156101dc57600080fd5b50604051908082528060200260200182016040528015610206578160200160208202803683370190505b50905060005b8351811015610235578482828151811061022257fe5b602090810291909101015260010161020c565b509392505050565b606060008467ffffffffffffffff8111801561025857600080fd5b50604051908082528060200260200182016040528015610282578160200160208202803683370190505b50905060005b858110156102b0578782828151811061029d57fe5b6020908102919091010152600101610288565b50858560008181106102be57fe5b604080516323b872dd60e01b8152336004820152306024820152604481018d90529051602092830294909401356001600160a01b0316936323b872dd9350606480830193928290030181600087803b15801561031957600080fd5b505af115801561032d573d6000803e3d6000fd5b505050506040513d602081101561034357600080fd5b5086905085600019810181811061035657fe5b905060200201356001600160a01b03166001600160a01b031663a9059cbb33896040518363ffffffff1660e01b815260040180836001600160a01b0316815260200182815260200192505050602060405180830381600087803b1580156103bc57600080fd5b505af11580156103d0573d6000803e3d6000fd5b505050506040513d60208110156103e657600080fd5b50909897505050505050505056fea2646970667358221220099b01f8af4443e625bd62427520593adf902dc04d16f8ecc6b984f206d9128164736f6c63430007060033",
  "devdoc": {
    "kind": "dev",
    "methods": {},
    "version": 1
  },
  "userdoc": {
    "kind": "user",
    "methods": {},
    "version": 1
  },
  "storageLayout": {
    "storage": [],
    "types": null
  }
}